:020000040000fa
:080000000002040000000000f2
:020000040000fa
:10040000cfed20000e7f24000e01880000000000c8
:100410000c000700c0a928000100200011000700ff
:10042000000020000000e000020032000000020096
:1004300000000000c27c0200000000000040da0062
:100440000000fe004440a90000d620000000e000ab
:100450000300320000002000a00188004440a800f2
:100460000000060091018800800078000000eb0089
:1004700015003700e280400032a0b4009101ba00bc
:10048000e280400032a0b4009102ba00e280400055
:1004900032a0b4000002eb00472bde00f507b200eb
:1004a000602ce10004003a000059eb008301e900f0
:1004b000fdff3e00040037006128e100010032002a
:1004c0000082eb00040007001101ba000200e00006
:1004d000e8ff3a00000006003159ba008301e90044
:1004e0000c0032002159ba008301e90008003200f3
:1004f0000400e00003003a00e280400032a0b400b3
:10050000f5ff370011d9ba008301e900faff3a007c
:100510008100e800e180400032a0b4000000060045
:100520000040da000000fe00020ab900001bb9001a
:100530000200b80081004200810043000000060074
:100540008001eb000200370061f079008301e800d0
:10055000828f5100fcff3a00000006008001eb0092
:1005600002003700817178008301e800828f51001a
:10057000fcff3a0000000600800078003004e00034
:10058000feff3a00010050000000e90000000600f4
:1005900010417800b141510003003a000000e8002a
:1005a0000204e000faff3a000300fb00000006002e
:1005b0000400fa00e0bf9f00e48157008129780021
:1005c0000002eb000f0037006fb8970090407800f2
:1005d0007fb89700104078000402e80080cf5000f8
:1005e000040032008180fb000080fb00008050008e
:1005f000070037006fb897000000e800e0bf9f00d9
:100600009309e800820f5200efff3a000000eb0070
:100610000080fa00000006008001780000017800e8
:1006200031407800005978000004e000fcff3a00f7
:100630000300780000000600889fbe008a9fbe006d
:100640008000780000c2b300010037008900780004
:100650008104780039447800804f5400fbff320059
:10066000e94f5400f9ff3200d0c2b300804f54006c
:1006700004003a00194478008184e8001ac0b300ed
:10068000060037000045eb00b0c2b300804f5400b5
:1006900002003a00194478008184e8006022b80022
:1006a0000a003700a2002000030020000400be0062
:1006b0009dff07000b4144000281fb000300200066
:1006c0000002410081824900394478000880fb0023
:1006d0000bfd2f000b004000e90f5000f1ff36002a
:1006e0000a04e0000200320060021200e0821a00f8
:1006f0000400be004f05be004f04be00000006000f
:100700008001780000017800010037000201e80054
:100710001204e000fdff3a003140780000597800f3
:100720000004e000fcff3a0003007800000006002f
:020000040000fa
:0200000401f009
:04000c00fbff0000f6
:020000040000fa
:0200000401f009
:04001000fdff0000f0
:020000040000fa
:0200000401f009
:040014007fff00006a
:020000040000fa
:1000080090020000900200004a7c0000507c000032
:100018009002000090020000900200009002000090
:10002800900200009002000090020000449100003d
:100038009002000090020000900200009002000070
:100048009002000090020000900200009002000060
:100058009002000090020000900200009002000050
:100068009002000090020000900200009002000040
:100078009002000090020000900200009002000030
:100088009002000090020000900200009002000020
:100098009002000090020000900200009002000010
:1000a8009002000090020000900200009002000000
:1000b80090020000900200009002000090020000f0
:1000c80090020000900200009002000090020000e0
:1000d80090020000900200009002000090020000d0
:1000e80090020000900200009002000090020000c0
:1000f80090020000900200009002000090020000b0
:10010800900200009002000090020000900200009f
:10011800900200009002000090020000900200008f
:10012800900200009002000090020000900200007f
:10013800900200009002000090020000900200006f
:10014800900200009002000090020000900200005f
:10015800900200009002000090020000900200004f
:10016800900200009002000090020000900200003f
:10017800900200009002000090020000900200002f
:10018800900200009002000090020000900200001f
:10019800900200009002000090020000900200000f
:1001a80090020000900200009002000090020000ff
:1001b80090020000900200009002000090020000ef
:1001c80090020000900200009002000090020000df
:1001d80090020000900200009002000090020000cf
:1001e80090020000900200009002000090020000bf
:0801f8009002000090020000db
:020000040000fa
:1002080090020000900200004a7c0000507c000030
:10021800900200009002000090020000900200008e
:10022800900200009002000090020000449100003b
:10023800900200009002000090020000900200006e
:10024800900200009002000090020000900200005e
:10025800900200009002000090020000900200004e
:10026800900200009002000090020000900200003e
:10027800900200009002000090020000900200002e
:10028800900200009002000090020000900200001e
:10029800900200009002000090020000900200000e
:1002a80090020000900200009002000090020000fe
:1002b80090020000900200009002000090020000ee
:1002c80090020000900200009002000090020000de
:1002d80090020000900200009002000090020000ce
:1002e80090020000900200009002000090020000be
:1002f80090020000900200009002000090020000ae
:10030800900200009002000090020000900200009d
:10031800900200009002000090020000900200008d
:10032800900200009002000090020000900200007d
:10033800900200009002000090020000900200006d
:10034800900200009002000090020000900200005d
:10035800900200009002000090020000900200004d
:10036800900200009002000090020000900200003d
:10037800900200009002000090020000900200002d
:10038800900200009002000090020000900200001d
:10039800900200009002000090020000900200000d
:1003a80090020000900200009002000090020000fd
:1003b80090020000900200009002000090020000ed
:1003c80090020000900200009002000090020000dd
:1003d80090020000900200009002000090020000cd
:1003e80090020000900200009002000090020000bd
:0803f8009002000090020000d9
:020000040000fa
:1007300074650000787400002f7000006c61000088
:10074000696e00000074000065780000742f0000de
:10075000687400006d6c0000007400006578000093
:10076000742f0000786d00006c00000074650000bc
:10077000787400002f6300007373000000690000ac
:100780006d610000676500002f670000696600006a
:10079000006900006d610000676500002f700000b7
:1007a0006e670000006900006d6100006765000071
:1007b0002f6a000070650000670000006170000093
:1007c000706c00006963000061740000696f0000d4
:1007d0006e2f00006a610000766100002d76000037
:1007e0006d00000061750000646900006f2f00005b
:1007f000782d0000776100007665000000000000a1
:1008000098830000a3830000a3830000a38300005b
:10081000ad830000b6830000bf830000c9830000e1
:10082000d3830000de830000f2830000ff8300001a
:100830000d0a00000048000054540000502f000032
:10084000312e000031200000323000003020000046
:100850004f4b00000d0a0000436f00006e6e000059
:1008600065630000746900006f6e00003a200000ac
:10087000636c00006f730000650d00000a0000004b
:1008800048540000545000002f3100002e31000069
:10089000203400003030000020420000616400007d
:1008a000205200006571000075650000737400003f
:1008b0000d0a0000436f00006e6e000065630000cb
:1008c000746900006f6e00003a200000636c000045
:1008d0006f730000650d00000a0d00000a3400006f
:1008e000303000002042000061640000205200000f
:1008f0006571000075650000737400003a20000007
:10090000636100006e270000742000006861000031
:100910006e6400006c650000204300006f6e0000f4
:10092000746500006e7400002d4c0000656e0000c0
:1009300067740000680d00000a00000048540000c1
:10094000545000002f3100002e31000020340000f0
:1009500030310000205500006e6100007574000009
:10096000686f0000726900007a650000640d000085
:100970000a570000575700002d4100007574000011
:10098000686500006e740000696300006174000017
:10099000653a0000204200006173000069630000b6
:1009a00020720000656100006c6d00003d220000b7
:1009b000507200006f7400006563000074650000f1
:1009c000642200000d0a0000436f00006e6e0000fc
:1009d00065630000746900006f6e00003a2000003b
:1009e000636c00006f730000650d00000a0d0000cd
:1009f0000a34000030310000205500006e61000014
:100a000075740000686f0000726900007a6500006c
:100a1000643a00002050000061730000737700000a
:100a20006f720000642000007265000071750000a4
:100a300069720000656400000d0a000000480000b3
:100a400054540000502f0000312e000031200000cf
:100a500034300000342000004e6f0000742000008d
:100a6000666f0000756e0000640d00000a43000010
:100a70006f6e00006e65000063740000696f000017
:100a80006e3a0000206300006c6f00007365000088
:100a90000d0a0000436f00006e740000656e0000d8
:100aa000742d000054790000706500003a200000a9
:100ab00074650000787400002f680000746d0000f9
:100ac0006c0d00000a0d00000a34000030340000f4
:100ad0003a200000466900006c650000206e0000ae
:100ae0006f740000206600006f7500006e640000e7
:100af0003c620000723e000055730000652000005b
:100b00003c6100002068000072650000663d000046
:100b1000222f00006d7000006673000075700000e9
:100b20006c6f000061640000223e00004d50000028
:100b30004653000020550000706c00006f610000fb
:100b4000643c00002f6100003e200000746f000034
:100b500020700000726f000067720000616d00007d
:100b600020770000656200002070000061670000cf
:100b7000657300000d0a0000004800005454000096
:100b8000502f0000312e00003120000034310000d1
:100b9000342000005265000071750000657300008c
:100ba000742d00005552000049200000546f0000d1
:100bb0006f2000004c6f00006e6700000d0a0000ff
:100bc000436f00006e6e00006563000074690000f2
:100bd0006f6e00003a200000636c00006f7300002d
:100be000650d00000a0d00000a34000031340000d9
:100bf00020520000657100007565000073740000ec
:100c00002d55000052490000205400006f6f000075
:100c1000204c00006f6e0000673a00002042000088
:100c20007566000066650000722000006f760000a7
:100c300065720000666c00006f77000020640000a1
:100c4000657400006563000074650000640d0000b9
:100c50000a00000048540000545000002f310000ea
:100c60002e31000020350000303000002049000007
:100c70006e740000657200006e6100006c20000060
:100c80005365000072760000657200002045000088
:100c9000727200006f7200000d0a0000436f0000c6
:100ca0006e6e000065630000746900006f6e0000e6
:100cb0003a200000636c00006f730000650d0000b7
:100cc0000a0d00000a350000303000002049000005
:100cd0006e740000657200006e6100006c20000000
:100ce0005365000072760000657200002045000028
:100cf000727200006f7200003a2000004578000018
:100d000070650000637400006564000020640000ea
:100d100061740000612000006e6f0000742000000c
:100d20007072000065730000656e0000740d0000b5
:100d30000a00000048540000545000002f31000009
:100d40002e3100002035000030310000204e000020
:100d50006f740000204900006d7000006c65000099
:100d60006d6500006e740000656400000d0a0000ef
:100d7000436f00006e6e0000656300007469000040
:100d80006f6e00003a200000636c00006f7300007b
:100d9000650d00000a0d00000a350000303100002a
:100da000204e00006f740000204900006d700000ac
:100db0006c6500006d6500006e74000065640000e5
:100dc0003a2000004f6e00006c79000020470000c0
:100dd00045540000206100006e64000020500000b7
:100de0004f53000054200000737500007070000025
:100df0006f72000074650000640d00000a000000be
:100e000048540000545000002f3100002e310000e3
:100e10002032000030300000204f00004b0d000059
:100e20000a4300006f6e00006e65000063740000ee
:100e3000696f00006e3a0000206300006c6f0000d4
:100e4000736500000d0a0000436f00006e7400001f
:100e5000656e0000742d000054790000706500007c
:100e60003a20000074650000787400002f680000cc
:100e7000746d00006c0d00000a0d00000a3c0000bb
:100e8000687400006d6c00003e3c0000626f000062
:100e90006479000020730000747900006c65000024
:100ea0003d2200006d61000072670000696e000065
:100eb0003a3100003030000070780000223e00001f
:100ec0003c6600006f7200006d2000006d65000040
:100ed000746800006f6400003d7000006f730000d4
:100ee0007420000061630000746900006f6e0000f0
:100ef0003d2200002f6d0000706600007375000039
:100f0000706c00006f61000064220000206500002a
:100f10006e63000074790000706500003d220000df
:100f20006d7500006c740000697000006172000053
:100f3000742f0000666f0000726d00002d640000c9
:100f400061740000612200003e3c0000623e00002f
:100f50004d50000046530000204900006d61000024
:100f60006765000020550000706c00006f61000094
:100f7000643c00002f6200003e3c0000703e000018
:100f80003c6900006e700000757400002074000061
:100f900079700000653d0000666900006c65000026
:100fa000206e0000616d0000653d000069200000ba
:100fb000736900007a6500003d340000303e000097
:100fc000202600006e620000737000003b200000cd
:100fd0003c6900006e700000757400002074000011
:100fe00079700000653d000073750000626d0000bf
:100ff0006974000020760000616c000075650000d7
:101000003d220000557000006c6f0000616400001c
:10101000223e00003c2f0000666f0000726d000051
:101020003e3c00002f6200006f640000793e00002b
:101030003c2f0000687400006d6c00003e00000052
:1010400048540000545000002f3100002e310000a1
:101050002032000030300000204f00004b0d000017
:101060000a4300006f6e00006e65000063740000ac
:10107000696f00006e3a0000206300006c6f000092
:10108000736500000d0a0000436f00006e740000dd
:10109000656e0000742d000054790000706500003a
:1010a0003a20000074650000787400002f6800008a
:1010b000746d00006c0d00000a0d00000a3c000079
:1010c000687400006d6c00003e3c0000626f000020
:1010d0006479000020730000747900006c650000e2
:1010e0003d2200006d61000072670000696e000023
:1010f0003a3100003030000070780000223e0000dd
:101100003c6200003e4d00005046000053200000ad
:1011100055700000646100007465000020530000f9
:10112000756300006365000073730000667500005e
:101130006c3c00002f6200003e3c0000703e00004e
:101140003c6100002068000072650000663d000000
:10115000222f0000223e0000536900007465000049
:10116000206d0000616900006e20000070610000c9
:10117000676500003c2f0000613e00003c2f00002e
:10118000626f0000647900003e3c00002f680000a0
:10119000746d00006c3e00000048000054540000d4
:1011a000502f0000312e00003120000035300000ab
:1011b00030200000496e000074650000726e00006f
:1011c000616c00002053000065720000766500002d
:1011d0007220000045720000726f0000720d000066
:1011e0000a4300006f6e00006e650000637400002b
:1011f000696f00006e3a0000206300006c6f000011
:10120000736500000d0a0000436f00006e7400005b
:10121000656e0000742d00005479000070650000b8
:101220003a20000074650000787400002f68000008
:10123000746d00006c0d00000a0d00000a3c0000f7
:10124000687400006d6c00003e3c0000626f00009e
:101250006479000020730000747900006c65000060
:101260003d2200006d61000072670000696e0000a1
:101270003a3100003030000070780000223e00005b
:101280003c6200003e4d000050460000532000002c
:10129000496d00006167000065200000436f000099
:1012a0007272000075700000742000006f72000000
:1012b00020570000726f00006e670000205600008b
:1012c00065720000736900006f6e00003c2f000023
:1012d000623e00003c7000003e3c000061200000c7
:1012e00068720000656600003d2200002f6d00005e
:1012f0007066000073750000706c00006f61000084
:10130000642200003e540000727900002061000059
:1013100067610000696e00003f3c00002f61000023
:101320003e3c00002f6200006f640000793e000028
:101330003c2f0000687400006d6c00003e0000004f
:1013400048540000545000002f3100002e3100009e
:101350002033000030320000204600006f7500008e
:101360006e6400000d0a0000436f00006e6e000006
:1013700065630000746900006f6e00003a20000091
:10138000636c00006f730000650d00000a4c0000e4
:101390006f63000061740000696f00006e3a000026
:1013a0002000000048540000545000002f3100007d
:1013b0002e310000203400003033000020460000b1
:1013c0006f7200006269000064640000656e0000d6
:1013d0000d0a0000436f00006e6e000065630000a0
:1013e000746900006f6e00003a200000636c00001a
:1013f0006f730000650d00000a0d00000a34000044
:1014000030330000204600006f7200006269000067
:1014100064640000656e00003a2000005353000031
:101420004c200000526500007175000069720000d8
:1014300065640000202d0000207500007365000029
:101440002048000054540000505300000d0a0000d2
:10145000000000001b8400001b840000408400008a
:101460009e8400001f850000bd8500002a860000c4
:101470009a86000000870000ff830000208800009b
:10148000cd880000a0890000d2890000436f0000d1
:101490006f6b0000696500003a00000041750000b4
:1014a000746800006f720000697a000061740000c7
:1014b000696f00006e3a0000004300006f6e00008c
:1014c000746500006e7400002d4c0000656e000015
:1014d00067740000683a000000000000468a0000bf
:1014e0004e8a00005d8a00007478000074000000dd
:1014f000687400006d000000687400006d6c0000ee
:101500000063000067690000007800006d6c000057
:10151000006300007373000000670000696600004c
:10152000007000006e670000006a00007067000035
:10153000006300006c61000000770000617600002d
:10154000000000000000000000000000748a00009d
:10155000788a00007c8a0000818a0000858a000069
:10156000898a00008d8a0000918a0000958a000017
:10157000998a00009d8a0000a18a0000666f000021
:101580006f740000657200002e6900006e63000039
:10159000006800006561000064650000722e0000b4
:1015a000696e000063000000214400004546000011
:1015b0000047000045540000005000004f53000059
:1015c000540000006d70000066730000757000002c
:1015d0006c6f000061640000006900006e64000030
:1015e000657800002e680000746d0000000d00009a
:1015f0000a0d00000a0000000d0a00000d0a00009c
:101600004d5000004653000002010000000d000094
:101610000a0d00000a3300003034000020520000a0
:10162000656400006972000065630000743a0000a0
:1016300020000000436f00006e740000656e000023
:10164000742d000054790000706500003a200000fd
:10165000004300006f6e0000746500006e740000af
:101660002d4500006e6300006f640000696e00008d
:10167000673a0000206700007a690000700d0000e2
:101680000a0000004361000063680000652d00004f
:10169000436f00006e740000726f00006c3a00002f
:1016a000200000006e6f00002d63000061630000e9
:1016b00068650000006d0000617800002d61000089
:1016c000676500003d00000036300000300000007b
:1016d00053650000742d0000436f00006f6b000025
:1016e000696500003a200000000000000d0a0000bb
:1016f0000d0a0000476f00006f640000627900006f
:10170000652100000d0a00000020000020200000dc
:1017100020200000202000002020000020000000e9
:101720000d0a0000534e00005450000020540000e9
:10173000696d0000653a00002020000020200000b4
:101740002864000069730000616200006c6500009d
:10175000642900000d0a0000416e0000616c000069
:101760006f6700003a2000002020000020200000c9
:101770002020000020200000202000002020000069
:1017800031300000323300000d0a000042750000c5
:10179000747400006f6e0000733a00002020000097
:1017a0002020000020200000202000002033000026
:1017b0002032000020310000203000000d0a00001f
:1017c0004c450000447300003a2000002020000037
:1017d00020370000203600002035000020340000b3
:1017e00020330000203200002031000020300000b3
:1017f000000d00000a4c00006f67000067650000e4
:1018000064200000696e0000207300007563000012
:101810006365000073730000667500006c6c000067
:10182000790d00000a0d00000a0d00000a500000aa
:10183000726500007373000020270000712700000c
:10184000207400006f2000007175000069740000b2
:101850000d0a0000000d00000a4100006363000053
:101860006573000073200000646500006e6900006d
:10187000656400000d0a00000d0a00000050000021
:1018800061730000737700006f720000643a00001b
:1018900020ff0000fd2d0000001b00005b32000057
:1018a0004a1b00005b330000316d00001b5b000031
:1018b000316d00004d690000637200006f6300002d
:1018c0006869000070200000546500006c6e000024
:1018d000657400002053000065720000766500000a
:1018e00072200000312e0000311b00005b30000030
:1018f0006d0d00000a280000666f000072200000d5
:10190000746800006973000020640000656d0000c9
:101910006f2c00002074000079700000652000002a
:1019200027610000646d0000696e00002720000040
:10193000666f0000722000007468000065200000df
:101940006c6f0000676900006e200000616e00008f
:1019500064200000276d000069630000726f0000c2
:10196000636800006970000027200000666f0000b7
:1019700072200000746800006520000070610000a3
:1019800073730000776f0000726400002e2900005e
:101990000d0a00004c6f0000676900006e3a0000fd
:1019a000200000000d0a0000546f00006f200000ae
:1019b0006d75000063680000206400006174000021
:1019c000612e00000d0a000000610000646d00003f
:1019d000696e0000005400006f6f0000206d000071
:1019e00075630000682000006461000074610000fd
:1019f0002e0d00000a0000006d69000063720000f7
:101a00006f63000068690000700000001b5b00004d
:101a1000316d0000001b00005b310000313b000015
:101a200032310000660000001b5b00003132000014
:101a30003b31000038660000001b00005b310000f5
:101a4000333b000031300000660000001b5b0000eb
:101a5000313400003b31000066000000646e00007d
:101a60000075000070000000666f0000726d0000dd
:101a7000732e0000687400006d0000006c650000ab
:101a800064340000006c0000656400003300000056
:101a90006c65000064320000006c000065640000aa
:101aa00031000000636f00006f6b0000696500008b
:101ab000732e0000687400006d0000006c6500006b
:101ac000647300002e63000067690000006c000072
:101ad00065640000006c000063640000002f0000db
:101ae000666f0000726d0000732e000068740000c5
:101af0006d000000757000006c6f000061640000f4
:101b00002e680000746d0000000d00000a00000047
:101b10000d0a00000d0a000000700000726f000046
:101b200074650000637400002f6300006f6e000096
:101b300066690000672e0000687400006d000000f8
:101b400069700000006700007700000073750000f6
:101b500062000000646e0000733100000064000049
:101b60006e730000320000006d6100006300000031
:101b7000686f000073740000006400006863000078
:101b8000700000002f700000726f0000746500008c
:101b9000637400002f720000656200006f6f000028
:101ba000742e0000687400006d3f0000002f0000dc
:101bb000707200006f74000065630000742f0000f5
:101bc000636f00006e660000696700002e68000009
:101bd000746d0000004a0000756c000020200000b9
:101be0003820000032300000313100002032000087
:101bf000333a0000303900003a340000350000006c
:101c0000763500002e3300003100000053450000ff
:101c10004c4500004354000045440000003c0000d7
:101c200062720000202f00003e000000266e0000bf
:101c300062730000703b0000006e0000616d0000e8
:101c400065000000486500006c6c00006f2c00000f
:101c5000200000006e6f000074200000736500001b
:101c6000740000003c6200003e550000706c0000f3
:101c70006f610000642000006120000046690000e0
:101c80006c6500003c2f0000623e0000003c00003c
:101c9000623e0000557000006c6f0000616400003f
:101ca0006564000020460000696c000065270000a4
:101cb000732000004d4400003520000077610000d3
:101cc000733a00003c2f0000623e00003c620000be
:101cd000722000002f3e00000063000068650000d5
:101ce000636b00006564000000660000616900002d
:101cf0006c0000005468000065200000447900007a
:101d00006e6100006d69000063200000444e000019
:101d100053200000436c0000696500006e740000f1
:101d200020690000732000006e6f00007420000026
:101d3000656e0000616200006c650000642e0000aa
:101d4000006e00006f6e000065000000626c000015
:101d50006f6300006b000000070c0000111600000c
:101d6000070c000011160000070c000011160000ff
:101d7000070c000011160000050900000e140000f9
:101d8000050900000e140000050900000e140000f3
:101d9000050900000e140000040b000010170000dd
:101da000040b000010170000040b000010170000c7
:101db000040b000010170000060a00000f150000b9
:101dc000060a00000f150000060a00000f150000ab
:101dd000060a00000f15000078a400006ad7000072
:101de00056b70000c7e80000db70000020240000a8
:101df000eece0000bdc10000af0f00007cf500007a
:101e00002ac60000874700001346000030a80000e3
:101e10000195000046fd0000d89800008069000090
:101e2000aff70000448b0000b15b0000ffff000033
:101e3000bed700005c89000022110000906b0000fa
:101e40009371000098fd00008e43000079a6000009
:101e500021080000b4490000622500001ef60000c1
:101e600040b3000040c00000515a00005e26000050
:101e7000aac70000b6e900005d1000002fd60000e0
:101e8000531400004402000081e60000a1d80000c5
:101e9000c8fb0000d3e70000e6cd0000e121000010
:101ea000d607000037c30000870d0000d5f40000fe
:101eb000ed1400005a45000005e90000e3a9000008
:101ec000f8a30000effc0000d90200006f670000db
:101ed0008a4c00002a8d000042390000faff000001
:101ee00081f6000071870000226100009d6d0000f6
:101ef0000c380000e5fd000044ea0000bea400002c
:101f0000a9cf0000de4b0000604b0000bbf60000d4
:101f100070bc0000bfbe0000c67e00009b28000011
:101f2000fa270000a1ea000085300000efd400008d
:101f3000051d00008804000039d00000d4d900003d
:101f4000e5990000dbe60000f87c0000a21f00001d
:101f500065560000acc400004422000029f40000d3
:101f600097ff00002a430000a723000094ab000065
:101f700039a0000093fc0000c35900005b6500001d
:101f800092cc00000c8f00007df40000efff0000f9
:101f9000d15d0000848500004f7e0000a86f000026
:101fa000e0e600002cfe00001443000001a3000046
:101fb000a1110000084e0000827e000053f70000cf
:101fc00035f200003abd0000bbd20000d72a000065
:101fd00091d3000086eb000002000000c800000062
:101fe0009600000002000000c800000096000000fb
:101ff00002000000c800000096000000020000007f
:10200000c80000009600000008000000c8000000a2
:10201000c800000008000000c8000000c800000060
:1020200008000000c8000000c80000000800000010
:10203000c8000000c80000000a00000019000000ed
:10204000140000000a000000190000001400000045
:102050000a00000019000000140000000a0000003f
:10206000190000001400000077770000312e0000f6
:102070006d690000637200006f6300006869000012
:10208000702e0000636f00006d00000050690000ba
:102090006e67000020740000696d00006564000038
:1020a000206f00007574000000430000616e0000a6
:1020b0002774000020720000657300006f6c000040
:1020c00076650000204900005000000052650000c5
:1020d000706c0000793a0000200000006d73000071
:1020e0000000000000040000a3f300000000000056
:1020f000544300005053000074610000636b000003
:1021000020760000352e0000333100002020000032
:1021100020200000202000002020000020200000bf
:1021200020200000202000002020000020200000af
:10213000004d000043480000504200004f410000a5
:1021400052440000000000000d0a00004448000056
:10215000435000002f5000006f77000065720000b0
:1021600020650000766500006e740000206f00009e
:102170006363000075720000726500006400000077
:10218000426f00006f7400006c6f0000616400001b
:102190006572000020520000657300006574000045
:1021a0000000000077770000772e0000676f0000c6
:1021b0006f6700006c6500002e6300006f6d00000b
:1021c00000000000706f00006f6c00002e6e0000b9
:1021d000747000002e6f00007267000000000000a5
:1021e0004d500000465300000201000000000000b6
:020000040000fa
:1021f00080407800d2cebf00814f500017003200df
:10220000e24f400008003200e2c1b3000440bc00cd
:10221000e08d200000014100c08520000e00090073
:1022200030197800e201b10001007800d2eeb70069
:10223000e2cf40000900320001407800e2c1b30063
:102240000440bc00e08d200000014100c08520005a
:102250000e00090032187800e201b100000006000b
:10226000e3ff0700a1438000000021000080600020
:10227000020032007588a90010002000000006004e
:10228000dbff07008000eb0090438000e70f500069
:1022900001003a0011002000010078000000060053
:1022a000d3ff07002187200091407800e7cf50003e
:1022b000030032000000eb00ebcf50000b003a00af
:1022c000114380002043800001015000808f5000a6
:1022d00005003900e04280005e08b50002004000c1
:1022e0000000e900000006000200e900000006000e
:1022f000889fbe0000447800bdff0700e0428000d8
:102300005e08b5008004e90008407800e4ff07009b
:10231000008054004f04be0000000600b4ff070018
:102320003243800041438000810f51000200390098
:1023300001005100000006000043800081005000b1
:10234000f042800000005100808040000100e80061
:1023500000000600889fbe0000447800a4ff07002c
:10236000f942800000438000890450000840780052
:10237000eaff070080845400090078004f04be0083
:1023800000000600881f7800000478001000780024
:102390004a75020000000000000c78001800900050
:1023a0004a75020000000000100498002800900008
:1023b000b80090005c750200000000002004980046
:1023c0003104980048009000d80090005c7502002d
:1023d000000000004004980051049800780090002c
:1023e0004a75020000000000700498000808900080
:1023f0004a75020000000000000c980018089000c8
:102400004a75020000000000100c98004f0478008c
:10241000000006000200fa00889fbe00c0002000f5
:10242000d88b0200000000001644020000000000eb
:10243000000fb2004280de00f4445000330032004e
:10244000710020000000eb003c440200000000008e
:102450002b00370016440200000000000004e000da
:102460002a003200e14f500025003200e24f5000b8
:1024700017003a00e2cf5400240036000000eb00c1
:10248000d0bf9f001644020000000000e44f50003f
:1024900006003a001644020000000000b0ff9f0052
:1024a0001644020000000000a0ff9f00dfb8970064
:1024b00070212000808f500014003600d039b00009
:1024c000808f500012003e0001007800100037009d
:1024d000e1cf54000d003600164402000000000059
:1024e0000044780080cf5400080039008080fb0051
:1024f0000000eb003c4402000000000088c45400cf
:102500008944e900e1cf4400d2ff3a008021200055
:102510004f04be000080fa0000000600889fbe0045
:102520008a1f78000005780002047800840478008f
:102530000304e00015003200e1cf51002a003a0008
:102540000104e00008003200e1cf500026003a000c
:1025500004017800880078000a007800a0020200d8
:102560000000000020003700e10f450003003200aa
:102570000a007800304b0200000000000800be0096
:10258000fc44020000000000170037000104e000d6
:102590000c003200e1cf500013003a00e10f41007f
:1025a0000300320002007800f64a0200000000003a
:1025b000890078000a0078003c4402000000000016
:1025c0000900370004017800880078000a007800cc
:1025d00094480200000000007e4802000000000055
:1025e0000000e000fcff32004f0578004f04be0001
:1025f00000000600d3cebf0021ed200091407800fe
:102600000104e10018003200e24f40000b003200ec
:10261000e2c1b3000440bc007c034100e58d200012
:1026200062807a008002b1008402200013c0b300ef
:10263000628b2000e6c07a00b8ff0700d2cebf0050
:10264000d3eeb70082fd2f00e1428000010141007e
:1026500084022000838720009341780011c0b300da
:10266000608b2000adff070000000600e1ff0700bf
:1026700030468000b0438800e0428000104388006c
:1026800020438800f04280003043880040438800a7
:10269000400020007468ab0001003a00d000200028
:1026a000904388007408a9007428a9007448a90000
:1026b0007488a90074a8a90074c8a90074e8a900c6
:1026c0007508a9007528a9007548a9007568a900b2
:1026d0007588a800d808a900d828a900d868a9003a
:1026e000d888a900e0428000104688009872020055
:1026f00000000000d0458800987202000000000031
:10270000e0458800d6a8ef00100020004046880071
:1027100000000600b6fe0700b6ff07000085200097
:10272000c18c200009000900315878002046800043
:10273000d04288000085200000000600889fbe006f
:102740008a9fbe00d40ee20007003a00f672020033
:1027500000000000f27f2000020060000240200024
:1027600002004000a0768800c20320008000eb0039
:10277000a0872000ae0202000000000089f42000c3
:102780000005eb00d8fe28000a40780098fe0700fc
:102790000800e80090007800630044001001780011
:1027a0001804e00008003a00028040000080440065
:1027b000ab0220008085450040df2100808f55005e
:1027c00002003600fdff3700ffff37007868ef009a
:1027d0008002200009004000e04288000100400023
:1027e0000000e800f042880002004000004388003a
:1027f000d0002000904388007468a9007dff070086
:1028000078f89700dde8b70098ff07000a05e800b0
:1028100066044400ec0f5500020032008b0478007f
:10282000d9ff37004f05be004f04be000000060070
:102830002600fa00889fbe008a9fbe008c1f780089
:1028400000447800014578006aff07000808a300eb
:10285000020032007568a8000804a10074a8a9004d
:1028600074c8a90074e8a9007528a9007548a900d2
:102870007508a9009e4d0200000000000000e00065
:10288000fcff3200e60064008004eb0056003a00d2
:102890001043800012468000820f500002003a0070
:1028a000810478004500370043468000820f5000c5
:1028b0001300360002005000830f50000100360064
:1028c00003007800d9468000890f500002003e00c6
:1028d00080047800010037007548a80009027800dc
:1028e00083872000934178008040eb00d09820003f
:1028f0000aff070009007800c228b4002f00370043
:10290000f14280000282500084b79f0080004200a4
:10291000e042800000805000830f5000010036002c
:1029200003007800d9468000890f500002003e0065
:1029300080047800010037007548a800890f520014
:102940000100360089b79f000fb2970083872000ef
:10295000934178008040eb00d0982000effe070004
:102960000fb097000082540084b79f000900320026
:10297000e2428000104680005e08b500d198200039
:102980000100400083872000934178008040eb00e5
:10299000e2fe070010468000808044001146880057
:1029a000f2428000828f500004003900e042800033
:1029b0000000510000805000104688007568ab0090
:1029c0000700320040468000808f5400040032002f
:1029d000d0468000808f5400010032000804a0001f
:1029e0000900e00002003a006300640015003200b4
:1029f00009007800c828b5000900e0000100320095
:102a00000834a0000a08a30004003200dc68ef00cc
:102a100001002800b1458800b828ef00f6900200b8
:102a200000000000b2458000c34580000001410065
:102a30008181490052438800634388007488a8005c
:102a40002b003700a24380008a80fb000118a300fe
:102a50000e0032008240e800e780600080ff2f0017
:102a60000000610001007000a0438800d045800094
:102a7000e145800061005000e0805800d0458800aa
:102a8000e14588001900200019003700700061003e
:102a900002003a0080047800150037000108a30006
:102aa0000a003a00dcc8bf00080032000040e9001c
:102ab000dce8b700b0458000c14580008100d1004e
:102ac0000080d300b0458800c1458800f690020020
:102ad00000000000b2458000c345800000014100b5
:102ae0008181490052438800634388008004eb00e1
:102af0003146800091b79f0022468000a2b79f0018
:102b0000d2458000e3458000b2b79f00c3b79f0065
:102b1000f045800001468000d0b79f00e1b79f00dc
:102b20007fb09700f1ff23000100600001ff2f003c
:102b300001006000f0b79f00f8ef9f000000eb007d
:102b4000a0bf9f0009014100e0814900d2458800f3
:102b5000e34588008880fb000100d100610060002f
:102b6000804578000004e000130032000148a30013
:102b700003003a006000b800d0b79f00e1b79f00a3
:102b8000d828ab00070032003fb09700cfb09700c5
:102b900061005000e0805800b0b79f00c1b79f00af
:102ba0000500370061014100e0814900d2458800fd
:102bb000e3458800d828a8000808a30010003200c8
:102bc000d808ab00070032003fb09700cfb09700a5
:102bd00061005000e0805800b0b79f00c1b79f006f
:102be00007003700d0458000e145800061004000cb
:102bf000e0804800d0458800e1458800d808a8005a
:102c00003243800041438000810f510005003900ac
:102c1000f04280006008b5008100510001005000c2
:102c200002003700028050000000e90080bf9f00d2
:102c30001c4d0200000000000004b10080af9f00a6
:102c400002003b008000eb0081af9f008fa897003f
:102c50007e8657000fb89700810f500001003600a4
:102c600081bf9f000c007800c6fd070074854400fa
:102c7000f2f02f007fb09700820060000105b300e2
:102c8000f1b79f000b04e0000a0032007885440091
:102c900020c0b300a0d79f0040c0b300b0d79f00b2
:102ca00020802100a0af9f00028060000006b300da
:102cb000f0b79f0081d32000914078008180fb0015
:102cc00039cdbf004800dd0001017000a1d3200014
:102cd000914078008180fb003bcdbf004800dd00c3
:102ce0008101700060fd2f000f044000028cbe00c7
:102cf0006046800071468000d0af9f00e1af9f002a
:102d00000040eb00e0df9f0069c0b300f9df9f00e7
:102d10008ab79f000a0078004a7502000000000090
:102d200080b79f00c1002000080078008a7502006b
:102d3000000000000080ea0090bf9f005096200035
:102d4000304b0200000000000a0178008940780042
:102d5000c08c2000048c0200000000004101200013
:102d60000c007800fc440200000000000b04e000ae
:102d7000050032004100200022fd2f000f0041001d
:102d8000fc4402000000000090972000f64a020078
:102d9000000000000a0078000c4a02000000000059
:102da00080af9f0090982000304b02000000000090
:102db0002100200000fd2f000f004000fc44020015
:102dc000000000006a4b0200000000004f0678007f
:102dd0004f05be004f04be000080fa000000060050
:102de000889fbe008a9fbe0001047800020578001b
:102df00083447800fefc07000800e00001003a0070
:102e000018002000e04280006008b5008005e9005d
:102e10000a0444008b0f54004a003e00f5fd0700f1
:102e20006380640001003a003940b3000880550017
:102e30008981fb000318a30002003a000a01780010
:102e4000040037000308a300010032000000d10095
:102e500000014500e0428000000041000004e8005d
:102e600031438000b2468000e10f4100090032008a
:102e700050468000000041008080400000438000f8
:102e8000808f5000030036005e08b50000804000cf
:102e90008000e90040438000810f500002003900ab
:102ea00005003600f0428000800f54000400360018
:102eb0000328a30023003a004843880038438800d1
:102ec00040438000808f5000110031000328a30090
:102ed0000f003200f24280000282500083872000ff
:102ee0009341780083407800080078008bfd07004c
:102ef0003143800040438000808f50000400310047
:102f0000080078005e08b50000805000304388005b
:102f1000f8428800e0428000104688002043880084
:102f2000104388001100200090438000e70f5000fc
:102f300005003a0000c1b3003dfe0700110020006b
:102f4000010037008000eb00010078004f05be0053
:102f50004f04be0000000600881f7800004478007f
:102f6000eefc07000000e000070032000840780097
:102f70009ffc0700304380004043880011c0b3002d
:102f800000c1b3002afe07004f04780000000600cd
:102f900097fc070097fd0700114380001046800052
:102fa000808f50000300320011c0b30000c1b30095
:102fb0001ffe0700000006008dfc07003043800064
:102fc0004043880090438000e50f50002f003200fe
:102fd00006003e00e10f50000d0032002b003900ca
:102fe000e30f500026003e0028003700eb0f500092
:102ff0001500320003003e00e70f500020003e00a5
:1030000006003700ee0f50001d003a00190037008f
:10301000dc5b0200000000001c00370011c0b300a0
:1030200010c1b30002fe0700c808e200040032002d
:103030001143800010468000808f5000f7ff3a0057
:10304000800020000c00370011c0b30010c1b30095
:10305000f7fd0700c808e2000400320011438000b9
:1030600010468000808f5000f7ff3a00c00020001b
:1030700001003700d00020009043880000000600c7
:103080008040eb0040c1b300e9fd070077fd370049
:10309000881f78000044780055fc07007468a90078
:1030a00008407800c4ff07004f04780000000600c5
:1030b0000400fa00889fbe008a9fbe008c1f780023
:1030c00090bf9f00a1bf9f000244780003057800d5
:1030d000844578008004eb000946780009407800b8
:1030e00043fc070090438000ed0f500063003a005e
:1030f00040fd07000b407800dd48e3005f003a0028
:1031000080212000d04688000804e00006003a0034
:103110003a4688007468a800400020009043880068
:10312000ba4388005300370000c02f00d40eb4000b
:1031300081f82000810f500002003600004020007e
:10314000a0768800a0768000304688000000e80065
:10315000a07688002a468800f69002000000000051
:1031600050438800614388007488a800e34f5400ee
:103170001600320003003e00e14f54003d003900cc
:1031800003003700e44f54003a003a0021003700b2
:103190001fb89700afb89700604688007146880056
:1031a0000814a2000880fb000000e9004f00de00c8
:1031b0004200dd00c14680000120a1008080700037
:1031c000c14688007228ef002a0037002fb8970008
:1031d0009fb89700010040000a004000314680007f
:1031e00001006800b04388001fb89700afb897008f
:1031f0006046880071468800dc68ef00010220000c
:10320000b1458800b828ef002000200090438800d6
:10321000180037001fb99700224090000080fb0083
:10322000b2409000c808dd00808070009281fb00f1
:10323000124090004800dd000300700080804000d4
:103240008a8040003046800080806800b14388005a
:10325000c08c20000900090032587800a200b1009b
:10326000500020009043880011c0b30020c0b3007c
:103270006ffd07000c80fb00040037008904e800a4
:10328000ec8f540094ff3a00e00f20004f067800c6
:103290004f05be004f04be000080fa00000006008b
:1032a0000f03b000889fbe008a9fbe008c9fbe00a7
:1032b0008e1f780080057800820478001082fb0061
:1032c000104090004800dd00040170002b42900087
:1032d0000482fb003b4090004800dd008401700048
:1032e000a2a79f00b3a79f001101be00c2a79f0025
:1032f000d3a79f000040eb00c0cf9f0060c0b30089
:10330000d0cf9f00f9a79f00090078004a750200fe
:1033100000000000f0a79f00c100200040fc2f002b
:103320000f0040008a7502000000000000047800d1
:10333000090078000c4a0200000000008880ea00c2
:10334000808f500021033a000000eb00d88b020070
:103350000000000003fd2f000f8441004101200008
:10336000080078003c4402000000000008007800db
:1033700004fc07006fa897004400de006f40600067
:103380004200dd00744050000080fb008084540047
:1033900089bf9f00748754009fa997000300e00035
:1033a0000a0332002b4090000080fb00bb409000dd
:1033b000c808dd00808070001b81fb001b4090006e
:1033c0004800dd00020070008080400098804000ce
:1033d00003856800e9cfb3000004eb0008407800e3
:1033e00083fb070090438000ed0f50002200320065
:1033f000b1438000e40f500005003a001fa8970079
:10340000808f50001c003a00884478001a00370072
:103410008a8f500018003a0076fc07009fa897009a
:1034200030468000808f500013003a0004fd2f00ca
:103430008f00420020468000910f10000e003a00dd
:103440009b80fb001b4090004800dd0001017000e4
:10345000ab4090008180fb003b4090004800dd00c5
:10346000810170006046800071468000800f51002d
:10347000818f5900c80232000804e800ec0f5400a4
:10348000d6ff3a0005fd2f000f844200e2cf440032
:103490000f0032000940780055fb070055fc07007b
:1034a000ba438800c68c2000090009003b5b780005
:1034b000ab00b10018047800284688001fac9700c4
:1034c00038468800e942800019468800b202370079
:1034d0006fa897000098a300bc023200b208e20077
:1034e000ba023a001fab9700980278008004eb0004
:1034f000a4882000140078000000e00017003200cb
:10350000860f500011003a0054b89700850f500004
:103510000e003a009b80fb001b4090004800dd003d
:1035200001017000ab4090008180fb003b409000a7
:103530004800dd008101700004b8970094b897003e
:10354000820f5000838f5800720232008904e80015
:1035500074024200e38f5400e6ff3a000004eb00df
:103560000840780022fb07007468ab0005003200b9
:1035700020fc0700314680001fa89700808f500074
:103580006b0232000804e800ec0f54008f02320096
:10359000f3ff3700f690020000000000e5804000d5
:1035a000504388006143880094438000e40f520038
:1035b00003003200e50f520044003a0016003700c5
:1035c0000880fb00e400600006003a000048a30009
:1035d00006003200dc458800ed4588000440780094
:1035e00093fc070021fc0700780237000018a300b5
:1035f000fcff32003fb09700cfb097006100400061
:10360000e0804800f04588000146880081fb070003
:10361000d0468800270037008880fb000128a300df
:103620006a023a004408de0061006000004578004c
:103630000004e00005003200d8458000e945800024
:10364000880f5600898f5e008a003a000118a30097
:103650005e0232003fb19700cfb197006101410097
:10366000e0814900f245880003468800ffa99700e1
:103670004346880067fb0700d04688000a04e00044
:103680000c00320011c0b30000c1b30068fc070099
:103690007000200090438800f690020000000000b7
:1036a000e580400050438800614388007488a90089
:1036b0004602370011c0b30020c1b3005cfc070014
:1036c0006000200090438800400237000883fb0020
:1036d000e1026300e5b79f00a5ef9f004fe8970068
:1036e0000004e00002003a00aeb79f00030037007c
:1036f0000fb9970073015100a2b79f000884fb0027
:10370000f8b79f000818a30003003200afb197007c
:103710008301e800a3b79f0032438000414380004b
:10372000810f510005003900f04280006008b500ab
:103730008100510001055000020037000280500056
:103740000005e900f0458000014680003fb4970085
:10375000cfb497000001540081815c00820578009d
:10376000afb497000900e0001f0032000a00e0003b
:1037700028003200e00f5100e08f590004003500ae
:103780006150b800820f5000838f58000a003e003d
:10379000afb2970005004100e08049004240a90017
:1037a0000700340005005500cf80de00800f510077
:1037b000818f590002003c001500200001003700f5
:1037c0008002eb006150b800800f5100818f5900da
:1037d0000e003d002fb49700088045004240a9002c
:1037e00010003c0009003700e00f5100e08f590045
:1037f0000c003200070035006150b800820f500005
:10380000838f580007003e00020037000500e000eb
:1038100004003a00ffb497000928a300eb013a0026
:10382000d9013700660063006eff3a007fb0970051
:103830000048a300e5013200eb0f520005003e00f6
:10384000e70f520015003100e60f5200c2003a00a7
:1038500003003700ec0f5200bf003a00b8003700f9
:10386000d8458000e9458000880f5600898f5e00aa
:1038700008003200dc458800ed45880011c0b30027
:1038800040c0b300eafb0700d8458800e94588003e
:10389000ce0137007000200090438800174680005a
:1038a000124380008700510003003b00e04280008b
:1038b0005e08b50080804000d2458000e34580006e
:1038c00001004100e08049000c0050008d8058004c
:1038d00002003b008040eb00ac0137002643800033
:1038e00006805300cf80de00000251008182590023
:1038f000868f5300020039000400be000400370028
:10390000e04280005e08b50000005200e0805a00ee
:103910000001560081815e004240a9002f00340062
:10392000e1428000f9428000018454006140b80007
:10393000800f5100818f590028003e00d868a900ef
:10394000d888a9007508a900204380000202400021
:103950002443880011468000808f50000400390005
:10396000848f50000d003100010052000400370028
:1039700008804000840f5000080031000000520011
:10398000d2458000e345800000004100e08049000e
:10399000d0458800e145880014468800f142800047
:1039a000810f520004003900e04280000080500086
:1039b000000052002043880012468000f14280003f
:1039c000810f51001c003900e0428000008050004f
:1039d000000051001046880017003700870f530081
:1039e00015003200c04680000038a30011003200ec
:1039f0000048a3000e003200d4458800e545880049
:103a000010468000860f500007003100e042800021
:103a10005e08b500cf80de000000520081805a00b1
:103a2000d0458800e1458800164688007548a80002
:103a3000d888a800d868a8002143800010438000df
:103a4000808f500012003a007568ab0007003a0002
:103a5000f690020000000000e5804000504388001e
:103a6000614388007488a90009003700d0458000b0
:103a7000e14580008c0f50008d8f580004003a0003
:103a8000d808ab00020032007488a9007568a9004c
:103a9000d04580008c0050007fa8970001005000a6
:103aa000c808e20003003a000000e0000100320014
:103ab0007528a8004046880090438000e80f500019
:103ac00013003a00d0458000e14580008c0f500083
:103ad0008d8f580020003a00d808ab001e0032003d
:103ae000f6900200000000000200280023002000e1
:103af00000014100818149005243880063438800ee
:103b00007488a800900020009043880012003700bd
:103b1000e90f500008003a00efb097000100e00004
:103b20000d003a00dc458800ed458800cfe897009d
:103b300040c1b300aafe3700ea0f500006003a0069
:103b4000d0458000e14580008c0f50008d8f5800db
:103b50001e013a00a3fe3700ffb497000902b2002d
:103b60001a013a0090438000eb0f50001701320019
:103b7000ea0f500015013200ec0f50001301320023
:103b80000e00e000980032000b0447000b00e0003c
:103b90004c003c006fa897004200de00c003b2005a
:103ba0000b005000d88b0200000000008a0f540068
:103bb00001003e0008057800f045800001468000c5
:103bc0000a004000e0804800f04588000146880077
:103bd00035438000024380000a8042008187200034
:103be00091407800820f5000130036000504510008
:103bf0000804e80008027800894178000081eb00a1
:103c00000500780045fa0700080455008187200068
:103c100091407800f04280000802780089417800e5
:103c20000081eb003dfa0700f042800000044400f0
:103c300038438800070037000a027800894178007d
:103c40000081eb000500780034fa07000a007800d4
:103c50006628b400b0468000e10f400062003200e8
:103c60008a005000b1468800504680000081400024
:103c7000120033000100e0005b003c00f0458000d2
:103c80000146800002004000e0804800f0458800c6
:103c900001468800304380008000410031438800a5
:103ca00000438000808f5000040036005e08b5009d
:103cb000008040000000e90030438800d6a8ef00f3
:103cc000490037008a0f5400010036000b075500e9
:103cd0006fa897004200de00c003b200d88b02003c
:103ce00000000000334380008b82410002438000cb
:103cf0000e804200820f500018003600818720009d
:103d000091407800030051000b0050000004e800cf
:103d10000a00330008027800894178000081eb0036
:103d200005007800fdf907008187200091407800a8
:103d3000f0428000080257000500370002007800ba
:103d40005e08b500008042000000e9000e02780025
:103d5000894178000081eb00060037008187200050
:103d6000914078000e027800894178000081eb00d4
:103d700005007800e9f90700b0468000e10f400037
:103d800003003a00bb4688005e46880016003700f4
:103d90000b04470051468000808f55000b00310016
:103da00081004000810f540002003e00800f54004b
:103db000020031005e468800020037000b80500090
:103dc00050468800bb46880007003700810040004d
:103dd000810f540004003600818f550002003e0020
:103de0000000540050468800afb097000100e0008a
:103df0001400320090438000e70f500002003200b0
:103e0000324380004243880074e8ab000500320072
:103e100011c0b30000c1b30085fa0700f5f907002f
:103e20000800370074e8a80074c8ab0005003a0029
:103e300074c8a800fe900200000000006c00400062
:103e400080438800afe997000304e0005f00320080
:103e5000f44580000546800061014200e0814a008f
:103e60002fb297003fb49700cfb4970004004400ee
:103e7000e0804c00800f5100818f590053003a00c0
:103e8000f24588000346880090438000e70f500009
:103e90000e00320003003e00e60f50003a003a00e8
:103ea00005003700e80f50000f003200e90f500006
:103eb00035003a0014003700c0002000904388000d
:103ec00011c0b30010c1b30031003700b0002000b2
:103ed00090438800fe90020000000000790040003e
:103ee0008043880028003700d0458000e1458000ed
:103ef0008c0f50008d8f580003003200a00020006e
:103f000090438800200037008040eb0000c1b300e0
:103f1000b3fd3700fe900200000000007449b900b4
:103f200072014100a487200000317a002700370089
:103f3000744cb900aa8720000a0044000900090057
:103f40003b587800a000b100ab00b1006a0044000b
:103f50008faa970005307d000a0044002fa9970022
:103f6000bfa9970062009800730098007000440099
:103f700001307d00fe900200000000007204440049
:103f800000347d001100370011c0b30000c1b30040
:103f900027fa07000d0037005fdc97004fae97004f
:103fa000dfae97002faa9700bfaa9700b4b79f0073
:103fb000c5b79f007408a9007428a9007448a90017
:103fc0007488ab0078fd3a0072fd3700b8460200f5
:103fd00000000000100020004f0778004f06be00d0
:103fe0004f05be004f04be000f03b10000000600e5
:103ff0000400fa00889fbe008a9fbe008c1f7800d4
:104000000006eb008c4578000c40780078f807003b
:10401000a0438000016020000100600031003200f8
:104020009e4d0200000000000000e0002d00320064
:10403000a04380004a00de006105600009c1b300b2
:104040002a0037006bf907007440b900800178003e
:10405000a287200002004000c18c20000900090056
:10406000b0587800a000b100ea804100e10079007a
:1040700021468800ec80410082804000160020002c
:104080000700200031024300a1824b00f445880064
:1040900005468800614680007746800087804000a2
:1040a0002246800082804000324680008280680084
:1040b000b14388006100200091438800620214002f
:1040c0007422b900e18820000181410013c0b300cf
:1040d0008340780011f90700b228ef0029c1b3002e
:1040e000310037008044eb000005eb0074a8ab0002
:1040f0000700320078438000fe90020000000000bc
:10410000000454004240a90001003c0009c1b30072
:1041100074c8ab000700320088438000fe900200a4
:1041200000000000000454004240a90001003c00cf
:1041300009c1b30090438000eb0f500009003a0022
:1041400088438000fe90020000000000000454003c
:104150004240a90003003c00c000200090438800ba
:1041600019c1b30090438000e40f50000c003a00e6
:10417000b24380000004eb00a18820001100780009
:104180000000e00006003200820f5000adff320058
:104190000804e800f4804000e30f5400f7ff3a0001
:1041a0000904e0000400320011c0b3008ac05000ce
:1041b000094078009ef907007488ab0023003a009c
:1041c00090438000e70f5000e5003a00f6900200af
:1041d0000000000052438000634380000200500052
:1041e00083805800de003300a143800067806000b8
:1041f000e60f50000b003a00430cde0061446400ff
:104200000b4078006cfb07000b4078006afb07004e
:104210000804e000d2003a00e0002000904388004b
:10422000cf003700f3f8070021c0b30000c1b3008e
:104230007ff90700f690020000000000e5804000d2
:104240005043880061438800c5003700f6900200a3
:1042500000000000524380006343800002005000d1
:1042600083805800be003300e2f8070090438000ce
:1042700001002000ec0f5000e08f580090003e003d
:10428000006001000c0037001500370037003700d0
:104290003e0037008a0037005c00370066003700b8
:1042a0006f00370077003700890037007a00370049
:1042b0006b0037007d003700d05b0200000000007b
:1042c0000000e0007e0032001100200091438800d1
:1042d00060468000f65b02000000000078003700b6
:1042e0006e805700ba5c0200000000000000e00091
:1042f00073003200dc5b0200000000000004780064
:104300000000e000120032001fb89700afb897001d
:104310006046880071468800200020009043880095
:1043200060468000ce08b4002146800001004000b5
:104330003146800001006800b0438800dc68ef006f
:1043400001022000b1458800b828ef005c0037006a
:10435000f690020000000000e58040005043880015
:10436000614388009843880055003700fe900200a2
:104370000000000070438800c08c2000aa82020068
:10438000000000003000200019003700018d2000df
:10439000c08c200082810200000000000000e000cc
:1043a00015003a00fe9002000000000072438000f9
:1043b00002005000b2458000820f500040003600dd
:1043c000dcc8bf00e54f500008003e000040e80098
:1043d000dce8b700b0458000c14580000000400027
:1043e00081804800b0458800c14588002000200039
:1043f000904388003200370050002000904388002e
:104400000004eb0029c0b3004f00370029c0b300ff
:10441000c08d200032c0b300904f110076003600ee
:1044200040c0b300dce8b70084002000c445880029
:10443000b628ef0070003700c08d200015c0b30013
:1044400090cf120067003600a04380006800600033
:104450001f003a0029c0b300000478001e00370096
:10446000c08d200046c0b300904f13005f0036009f
:10447000800020009043880019c1b3000004eb00c5
:1044800015003700c08d200047c0b30090cf130047
:10449000580036000e003700c08d200041c0b30028
:1044a00090cf10005100360009003700c08d200069
:1044b00042c0b300904f11004e0036000400370098
:1044c0000004eb000904e00003003a002400370078
:1044d00049c1b300180020000a00e0001a003200b1
:1044e000dc68ec00b0458000c14580000000400061
:1044f00081804800b0458800c14588001046800092
:104500002343800003015000830f5000030031005b
:10451000e04280005e08b50000014100d045800007
:10452000e145800002005000e0805800d04588003e
:10453000e145880002007800c828b40013468800ce
:104540008040eb000100370011c0b3000940780043
:10455000b7f807000800e0000100320043f8070048
:104560000c06e800ec0f5600a6fe3a008004eb00b3
:104570007448b9000004780070004000aa87200049
:1045800060007d000000e0001d003200fe9002008f
:10459000000000007201440062017d000200500032
:1045a00002182000820f50000a00360062821400b8
:1045b0007422b900e2882000020144000a0044008d
:1045c00013c0b30083407800d4f70700b228ef008f
:1045d0008904e9008904e800e28f540008003e00e5
:1045e000e3ff370029c1b3000300370009c1b3005e
:1045f0000100370019c1b3000004eb00b8ff370019
:104600004f0678004f05be004f04be000080fa0040
:10461000000006000f03b000889fbe008a9fbe0006
:104620008c9fbe008e1f780080447800e1b79f0009
:10463000820578000305780004047800f5b79f0030
:104640000000eb000200e000a30032000940780007
:10465000e7f607000940780030f707000a06500027
:104660008b0f56009b0039000800e0000300320069
:10467000880f56000100360008067800404380008d
:104680000001450001438000810f51000400360005
:10469000010078005e08b500000041000001e9005b
:1046a000028050000000e800c0b79f006fb3970081
:1046b000364478007fb097000000e000060032002a
:1046c000f0c9b30000404400f94f500002003e0022
:1046d00000ceb300004444008b047800aab79f00ca
:1046e000d2b79f00060578008006eb0001c2b30038
:1046f000e1e79f004fb19700ff0f510001003e001e
:10470000e2e79f00efe097000180fb008c0f500074
:1047100001003600ece79f00efe197000387fb0004
:104720000e02780083872000934178005fb19700e4
:1047300011c0b30040fc2f000f00400086bf9f0057
:1047400076f707005fb097000e004000d0b79f00db
:10475000cfb097008e805000c1b79f000fbb97006d
:1047600004003a00f2428000d2b79f008081eb0043
:10477000c3b79f008003eb0003ceb3007fb0970068
:104780000000e00025003a00000178003d003700fd
:104790000081fb0040fc2f000f0040008000410022
:1047a00011427800f5c9b30005404200f94f5000ae
:1047b00001003e0083484200914f540009003a0036
:1047c0008904e9003a0032003a4478000540440088
:1047d0001d002000f94f50000f003e00034444002c
:1047e0000d0037000d00e00002003a008b04780055
:1047f00009003700efb097001144780005404400ed
:10480000f94f500001003e00034444008b0478003f
:10481000060578008006eb008703e8000740780073
:104820006fe1970082cf5300d9ff3900190037009c
:104830008080fb0043fc2f008f81410003804000fb
:10484000904f540005003a008904e9001c00320032
:104850003a4478001d002000090037000d00e000f8
:1048600002003a008b047800050037006fb0970013
:10487000104478008b047800060578008006eb0071
:104880000201e80002407800efe09700814f5100fc
:10489000e7ff39000e065600890f56000d0039005b
:1048a0002fb197000e014100a2b79f008fff370084
:1048b000afb197000b8051000200400003003700a9
:1048c0002fb197000b005100010040000000e800ec
:1048d000010037000080eb004f0778004f06be0054
:1048e0004f05be004f04be000f03b10000000600dc
:1048f0000200fa00e1ff9f008402780003027800c2
:1049000082017800120020008f80e90041ff07003b
:104910000080fa0000000600889fbe008a9fbe004b
:10492000004578008105780082047800030478004f
:104930000200e000270032002df607000a40780050
:1049400076f607008000780009004400810f5000cf
:10495000010036008884500040438000000144007c
:1049600001438000810f51000400360001007800ef
:104970005e08b500000041000001e900028050001f
:104980000004e80078c8bf00888f540005003e008e
:10499000090278008041780011c0b3000b00780054
:1049a0000b003700080278008041780011c0b30086
:1049b0000b007800d9f60700f2428000088045001d
:1049c00008825400838720009341780011c0b3000f
:1049d000d2f60700090078004f05be004f04be0064
:1049e000000006000200fa00810178001200200099
:1049f0008f80e900c8ff0700eff897000180fb00f7
:104a00000080fa0000000600889fbe008a9fbe005a
:104a10000045780081047800020478003ff6070022
:104a2000800578000000e000320032000a40780083
:104a3000eff507008b0f5400010036000b047800df
:104a40004243800001438000080041000005eb0064
:104a5000810f50000e003600028050000005e80073
:104a60000900e000070032000a0278008387200076
:104a70009341780011c0b30009007800a7f6070041
:104a80008a8444000a045400f042800040438800b5
:104a90000900e0000700320042438000080278006d
:104aa000838720009341780011c0b300090078008b
:104ab0009af60700080078006828b4000a04440049
:104ac00008805500880f500002003e007548a8007d
:104ad0000700370074a8ab0005003a0074a8a800ce
:104ae000fe90020000000000790040007043880042
:104af000080078004f05be004f04be00000006000d
:104b0000889fbe008a1f78008044780001057800e5
:104b100002f60700000478000000e00016003200f2
:104b200009407800b2f507000a00e00007003200f3
:104b300042438000140020008387200093417800c6
:104b4000844078000a00780074f607004143800032
:104b50008100e8004143880000438000808f5000be
:104b600002003600f042800040438800e10f54000c
:104b700003003a007548a8000800780009003700d3
:104b80001000200074a8ab0006003a0074a8a8002a
:104b9000fe90020000000000790040007043880091
:104ba000100020004f0578004f04be0000000600f2
:104bb000889fbe008a9fbe008c9fbe000045780083
:104bc000810578008206780089f507000a407800a0
:104bd000b3f50700800478000000e00004003a000c
:104be0000a407800eaf8070009007800370037002b
:104bf0008d0f5000020036000d04780001003700d0
:104c0000000478007508ab0008003a00e04280001c
:104c10005e08b5000000d100808f540003003e0004
:104c20000a407800daf807007508a80015438000ec
:104c3000f1428000088042000006eb00810f500026
:104c40000c003900058650008187200091407800d3
:104c50000c02780013c0b3000b0178000500780047
:104c60002ef607008c8545000c045400e0428000bd
:104c70001043880081872000914078001043800015
:104c80000802780013c0b3000b01780023f6070078
:104c9000080078006228b4008d8f540003003e00a5
:104ca0000a407800baf807000700370074a8ab0084
:104cb00005003a0074a8a800fe9002000000000061
:104cc00065004000704388000c0044004f06be00a1
:104cd0004f05be004f04be0000000600889fbe00c6
:104ce000804478000104780001007800bc020200d2
:104cf000000000000001780088007800094078007a
:104d0000abff0700000044004f04be000000060097
:104d10000200fa00889fbe0080447800a1ff9f0037
:104d200033f50700094078005df5070000047800be
:104d30000000e00021003200e10f500002003a00c4
:104d40000940780092f807007508ab0008003a00a7
:104d5000e04280005e08b5000000d100800f5400e2
:104d600003003e000940780089f807007508a80094
:104d700081872000914078001043800014002000bb
:104d80008441780066815700e4f5070011438000f4
:104d90008100e80011438800f0428000808f5000bd
:104da00002003900e042800010438800e10f540007
:104db00004003a000940780075f807000800780000
:104dc000090037001000200074a8ab0006003a006c
:104dd00074a8a800fe9002000000000065004000da
:104de00070438800100020004f04be000080fa00cd
:104df00000000600decabf000080fb004200dd00ac
:104e0000e1c7b30022ae200060407900882604008c
:104e100000000000889fbe00de6aef00200037001f
:104e20000084fb004244dd0009ae20000001eb00dd
:104e300002b47c0084c0b300030520006000b80009
:104e400058180200000000000884e80000f47c000c
:104e500004ebef0005ebef00e2ad2000124178001b
:104e60000281fb00290820000991b90040df2100e0
:104e700002004000304b02000000000000047800f7
:104e80008900780000af2000fc4402000000000010
:104e900008007800304b020000000000de6aec00e1
:104ea000decabf00e34f5000ddff3600de6aef00d0
:104eb0004f04be0000000600889fbe008a9fbe000f
:104ec00000457800decabf00804f55001e0032004a
:104ed0000080fb00280820000880b9004bdf21007b
:104ee00000804500304b0200000000008004780084
:104ef0008800780000af2000fc44020000000000a1
:104f000009007800304b0200000000000a80fb001e
:104f10000880b90000804500f64a02000000000049
:104f2000800478008800780000af20003c44020034
:104f30000000000009007800f64a020000000000ae
:104f40000a007800deeab7004f05be004f04be003d
:104f5000000006000200fa00889fbe008a1f780049
:104f600000047800bc02020000000000800178000c
:104f7000080178002300370082047800b9407800e7
:104f80000305e900d0c3b30080cf50000300320016
:104f90007740500080cf500002003a00005ceb00e8
:104fa00016003700b0c2b30080cf500002003a00b4
:104fb0006b4050000e00370050c2b30080cf50004d
:104fc0000d003a00e10f55001000360099447800ba
:104fd00099ff9f002240900080ff9f00e304410062
:104fe000638551004fb897008874020000000000ec
:104ff000005c780001003700015c78008a017800cd
:10500000090178000300e000dbff3a00005ceb00e0
:1050100008007800004ceb004f0578004f04be00fc
:105020000080fa0000000600889fbe000004be0059
:10503000160037008800780009007800c8020200d6
:10504000000000000000e00006003a0009007800bf
:10505000bc02020000000000000044000000e80064
:105060000d00370008007800bc02020000000000bc
:10507000000044000004e80008007800bc020200c0
:1050800000000000000044000004e8001804e000f4
:10509000e8ff3a000000eb004f04be0000000600ed
:1050a000889fbe008a9fbe008c9fbe008e1f780026
:1050b0000bae2000e3ad200093417800004778005c
:1050c00001067800820678000004e0000b00320040
:1050d0000380fb004200dd000080e8000002eb00de
:1050e00084017800040178008e40780060c07d0063
:1050f0007824020000000000060037000380fb0057
:105100004200dd000080e80060c07d008e110200da
:1051100000000000000578002b002000e10f400097
:105120006b003200e18f560012003e000c00e000e0
:10513000120032008857800099578000decabf00f5
:105140000080fb004200dd000a0178008000eb00d7
:1051500023ae200060c0790004250200000000009a
:1051600000045400e0845c00885788009957880048
:10517000360037000c00e00010003a00885780002d
:1051800099578000decabf000080fb004200dd00ae
:105190000a0178008000eb0023ae200060c0790097
:1051a000042502000000000000045400e0845c00bc
:1051b0008857880099578800340037000d81e9002e
:1051c000e3ad2000934178000bae200088578000ab
:1051d00099578000820f50001e0036000380fb00ac
:1051e0004200dd000080e8008c00780060c07d0097
:1051f000042502000000000000045400e0845c006c
:1052000088578800995788000d0155000281e800f1
:10521000decabf000080fb004200dd000080e80025
:105220008000eb0060c07d0004250200000000004b
:1052300000005400e0805c0080578800915788008f
:105240008d0046000040eb00e0f89f001b002000ae
:105250000f0037000380fb004200dd000080e80003
:105260000a0178008c00780060c07d0004250200ef
:105270000000000000005400e0805c0080578800bf
:10528000915788000040eb0000757e008005eb0020
:105290000e04e0000e00320088578000995780000d
:1052a000decabf000080fb004200dd008000eb0092
:1052b00022ae20006040790080250200000000003e
:1052c00000045400e0845c008857880099578800e7
:1052d0000b0078004f0778004f06be004f05be0058
:1052e0004f04be0000000600889fbe000004780046
:1052f0000101780080007800d0c3b30068ff070088
:10530000800478000800e000040032001804e00087
:1053100002003200080078000eff07000900780044
:105320004f04be0000000600889fbe008a9fbe009a
:105330008c1f7800000578000106780001017800d4
:105340008000780060c2b30055ff07008005780038
:10535000e20f500012003a008857800099578000f1
:10536000decabf000080fb004200dd0021ae20004d
:1053700060c078008e1102000000000001002000d3
:10538000800f5400818f5c0005003a000c0178000a
:105390008a0078000040eb0041ff0700800578009c
:1053a0000a00e000040032001a04e00002003200ab
:1053b0000a007800e7fe07000b0078004f0678002f
:1053c0004f05be004f04be00000006004000fa007a
:1053d000889fbe008a1f780000017800e057800097
:1053e000f1578000e00f5000e08f580010003a00a5
:1053f000020078004862020000000000804478004b
:10540000e14f40003f0032009865020000000000bc
:10541000e05788001100370009407800ee60020074
:1054200000000000fc2aef00fe2aef0035003700e4
:10543000e05780009861020000000000804478007e
:10544000e14f40002f003200f2578000030020009f
:1054500021002000c463020000000000decabf007b
:105460000080fb004200dd0021ae200060c078001b
:1054700050110200000000000005780018003700fd
:105480000a01780000042000800f5500010036005a
:1054900000017800a1fb2f008f80400009407800b8
:1054a0000661020000000000000478000000e00037
:1054b000d9ff3200decabf000080fb004200dd00e1
:1054c00008017800a1fb2f008f80400023ae200050
:1054d00060c07900d82502000000000008055500d2
:1054e0000a00e000e6ff3a0009407800806502000b
:1054f00000000000f057880009407800ee600200cc
:10550000000000004f0578004f04be000080fa0044
:105510000000060061005000e08058008204200076
:10552000820f5000e08f5800c7003e00006001006d
:1055300048003700490037004a0037004b00370069
:105540004b0037004c0037004d0037004e0037004d
:105550004f0037005000370051003700520037002d
:10556000530037005400370055003700570037000c
:10557000580037005a0037005b0037005d003700e5
:105580005e003700610037006200370064003700ba
:105590006500370066003700670037006900370094
:1055a0006a0037006b0037006c0037006d00370071
:1055b0006e0037006f003700700037007100370051
:1055c0007200370073003700740037007500370031
:1055d0007600370077003700780037007900370011
:1055e0007a0037007b0037007c0037007d003700f1
:1055f0007e003700940037007f00370092003700ac
:1056000091003700900037008f0037008e00370080
:105610008d0037008c0037008b0037008a00370080
:105620008900370088003700870037008600370080
:1056300085003700720037007300370074003700b0
:105640007600370077003700780037007a0037009f
:105650007b003700be40040000000000e0ab2800e3
:1056600066003700f440040000000000e1fd370050
:10567000b83e040000000000700020002600370043
:105680006000200024003700500020002200370076
:105690004000200020003700300020001e003700ae
:1056a000200020001c003700100020001a003700e6
:1056b0002c40040000000000110020000100370011
:1056c0008000eb00400020000e0037001100200099
:1056d000010037008000eb00300020000900370097
:1056e00011002000010037008000eb0020002000a6
:1056f0000400370011002000010037008000eb009b
:10570000100020009e3f040000000000ec3e04005a
:10571000000000000000eb003a3f04000000000021
:105720000000eb00050037001000200003003700e8
:10573000200020000100370030002000fc3e040063
:10574000000000000e40040000000000244104009e
:1057500000000000ce430400000000006643040087
:105760000000000076430400000000005e430400d7
:1057700000000000604304000000000062430400d9
:1057800000000000f243040000000000ce420400cc
:105790000000000012420400000000002242040049
:1057a00000000000384204000000000056420400df
:1057b0000000000074420400000000009242040057
:1057c00000000000b0420400000000004a43040052
:1057d000000000004e430400000000000000eb0049
:1057e00003003700100020000100370020002000d7
:1057f000644304000000000090ac2800f3fe370072
:105800000000eb000300370010002000010037000b
:105810002000200046430400000000000000eb00d0
:105820000300370010002000010037002000200096
:105830004843040000000000ae43040000000000e4
:10584000be43040000000000decabf000080fb0071
:105850004200dd004200200041ad280023ae2000c0
:1058600060c07900d825040000000000ef06b000f9
:10587000889fbe008a9fbe008c9fbe008e1f78004e
:105880000007eb002dae20000e4578001d4078008b
:10589000e24f4000660632003011020000000000b6
:1058a0000000e0001e0032000e40780082fd07007c
:1058b000decabf000080fb004200dd0009ae200010
:1058c0000004eb0008b07c0004cbbf00e14f4000b7
:1058d00003003200ee6002000000000004ebef0065
:1058e00005cbbf00e14f400003003200ee60020034
:1058f0000000000005ebef00decabf000080fb00e7
:105900004200dd000080e80043c0b30008017800d9
:105910001100200060c07c00f016020000000000b2
:105920007db897000000e00005003a001d407800b7
:105930008e110200000000000000e0003c06320072
:105940000a4078005cfd0700decabf000081fb0052
:10595000c210dd0000ae20006100780001002000d0
:10596000eb0f5000e08f580031063e000060010050
:10597000180037003f003700760137009b023700e0
:10598000b4023700bd023700fc03370019043700aa
:10599000c30437006e053700f305370008063700eb
:1059a0000180fb004200dd000080e80022002000b2
:1059b0008000eb0060407e00042502000000000033
:1059c000decabf000080fb004200dd003100200085
:1059d000950137004210dd000080e80009ae20008c
:1059e00060c07c008e110200000000000000e0009a
:1059f0000f063200c0b0200000588800decabf0089
:105a00000080fb004200dd001800200008b07c0090
:105a100007ebef00066bef00f690020000000000bd
:105a2000020028006301200000014100818149003b
:105a3000c2578800d3578800fcaaef00feaaef00e7
:105a4000f02aef00f22aef00706bef00decabf0011
:105a50000080fb004200dd000080e80053c0b3007e
:105a60000001eb008800780060c07c00f0160200a6
:105a700000000000decabf000080fb004200dd0025
