:020000040000FA
:060000006AEF0DF0120092
:020006001200E6
:060008002DEF07F01200CD
:02000E000000F0
:020010000000EE
:060018001AEF07F01200D0
:02001E000300DD
:10002000081B0000000E0000240000000E0000006D
:10003000570E000004000000F01A0000240E00001B
:0400400018000000A4
:0C00440024EF00F0D9CFE6FFE1CFD9FF98
:10005000020EE126DE6ADD6ADECF14F0DDCF15F098
:10006000000E145C010E15583BE2DECFE9FFDDCF38
:10007000EAFF000EE926080EEA22EF6ADECFE9FF6A
:10008000DDCFEAFF000EE926090EEA22EF6ADECF95
:10009000E9FFDDCFEAFF000EE9260A0EEA22EF6A49
:1000A000DECFE9FFDDCFEAFF000EE9260B0EEA22E4
:1000B000EF6ADECF14F0DDCF15F0280E145C000ED1
:1000C000155809E2DECFE9FFDDCFEAFF000EE92691
:1000D0000C0EEA22EF6ADF2A010E01E3DB2ABCD70D
:1000E000020EE15C02E2E16AE552E16EE552E7CF21
:1000F000D9FF1200D9CFE6FFE1CFD9FF020EE126EA
:10010000E66AE66AFE0EDBCFE6FFE3EC06F0E552B8
:10011000E552E552DE6ADD6ADECF14F0DDCF15F080
:10012000000E145C010E15581CE2400EE66EDECF88
:1001300014F0DDCF15F0000E1426080E152214C0A1
:10014000E6FF15C0E6FFFE0EDBCFE6FF39EC05F05B
:10015000E552E552E552E552400EDE26000EDD2264
:10016000DBD7DE6ADD6ADECF14F0DDCF15F0000EDE
:10017000145C010E15581CE2400EE66EDECF14F042
:10018000DDCF15F0000E1426090E152214C0E6FF6F
:1001900015C0E6FFFE0EDBCFE6FF39EC05F0E552B9
:1001A000E552E552E552400EDE26000EDD22DBD799
:1001B000DE6ADD6ADECF14F0DDCF15F0000E145CD0
:1001C000010E15581CE2400EE66EDECF14F0DDCFB6
:1001D00015F0000E14260A0E152214C0E6FF15C0F5
:1001E000E6FFFE0EDBCFE6FF39EC05F0E552E55207
:1001F000E552E552400EDE26000EDD22DBD7DE6A38
:10020000DD6ADECF14F0DDCF15F0000E145C010EB8
:1002100015581CE2400EE66EDECF14F0DDCF15F06F
:10022000000E14260B0E152214C0E6FF15C0E6FFC3
:10023000FE0EDBCFE6FF39EC05F0E552E552E55264
:10024000E552400EDE26000EDD22DBD7280EE66EDC
:10025000000EE66E0C0EE66EFE0EDBCFE6FF39EC0E
:1002600005F0E552E552E552E552020EE15C02E28C
:10027000E16AE552E16EE552E7CFD9FF1200D9CF2E
:10028000E6FFE1CFD9FF080EE126060EDB6AFB0E82
:10029000DB1CE76E070EE7CFDBFFFB0EDB5001E157
:1002A0004ED1FE0EDB50070801E249D1FD0EDB50B6
:1002B000146E156A153404E214508408000E1554A7
:1002C00001E23DD1FE0EDB50DE6EDD6AFD0EDB503D
:1002D000166E176A850E086E096ADECF0DF0DDCF47
:1002E0000EF0BEEC0CF006501624146E07501720CA
:1002F000156E14C0DEFF15C0DDFFDECF14F0DDCFBC
:1003000015F015C014F0156A020E14C0DBFF030EC1
:1003100015C0DBFFDECF14F0DDCF15F0FF0E141695
:10032000000E1516040E14C0DBFF050E15C0DBFF12
:10033000020EDBCF08F0030EDBCF09F0040E081825
:1003400001E1095001E1CDD0030E081801E1095087
:1003500001E199D0020E081801E1095066E0010E92
:10036000081801E1095033E0085001E1095001E0AB
:10037000E6D0070EDBCFE6FF040EDBCFE9FF050E6C
:10038000DBCFEAFF000EE926080EEA22EF50E55225
:10039000E714E76E060EE7CFDBFFDBCFE6FFFB0ED1
:1003A000DBCFE6FFFC0EDB50E552E714E552E71029
:1003B000E66E040EDBCFE9FF050EDBCFEAFF000E91
:1003C000E926080EEA22E552E750EF6EB8D0070E94
:1003D000DBCFE6FF040EDBCFE9FF050EDBCFEAFF44
:1003E000000EE926090EEA22EF50E552E714E76E07
:1003F000060EE7CFDBFFDBCFE6FFFB0EDBCFE6FF32
:10040000FC0EDB50E552E714E552E710E66E040EF1
:10041000DBCFE9FF050EDBCFEAFF000EE926090E70
:10042000EA22E552E750EF6E8AD0070EDBCFE6FFF7
:10043000040EDBCFE9FF050EDBCFEAFF000EE92655
:100440000A0EEA22EF50E552E714E76E060EE7CFF8
:10045000DBFFDBCFE6FFFB0EDBCFE6FFFC0EDB5066
:10046000E552E714E552E710E66E040EDBCFE9FF34
:10047000050EDBCFEAFF000EE9260A0EEA22E5525E
:10048000E750EF6E5CD0070EDBCFE6FF040EDBCF4C
:10049000E9FF050EDBCFEAFF000EE9260B0EEA228C
:1004A000EF50E552E714E76E060EE7CFDBFFDBCF38
:1004B000E6FFFB0EDBCFE6FFFC0EDB50E552E71458
:1004C000E552E710E66E040EDBCFE9FF050EDBCF49
:1004D000EAFF000EE9260B0EEA22E552E750EF6E26
:1004E0002ED0070EDBCFE6FF040EDBCFE9FF050EB3
:1004F000DBCFEAFF000EE9260C0EEA22EF50E552B0
:10050000E714E76E060EE7CFDBFFDBCFE6FFFB0E5F
:10051000DBCFE6FFFC0EDB50E552E714E552E710B7
:10052000E66E040EDBCFE9FF050EDBCFEAFF000E1F
:10053000E9260C0EEA22E552E750EF6E00D0080ED5
:10054000E15C02E2E16AE552E16EE552E7CFD9FFF4
:100550001200D9CFE6FFE1CFD9FF170EE126FD0E3D
:10056000DB40E840E8401F0BE76E020EE7CFDBFF01
:10057000FD0EDB50070BE76E030EE7CFDBFFFE0E31
:10058000DB50E76E040EE7CFDBFFFA0EDB50010A0B
:1005900008E0010A01E00DD00F0EDB6A100EDB68E7
:1005A0000CD0C00EF36E0F0EF3CFDBFF100EDB6826
:1005B00004D00F0EDB6A100EDB6A0F0EDBCF16F0D5
:1005C000100EDBCF17F0030EDB5016C014F017C06F
:1005D00015F005E0D89015321432E804FBE1050E61
:1005E00014C0DBFF060E15C0DBFF050EDB50E76E07
:1005F0000D0EE7CFDBFF060EDB50E76E0E0EE7CFEA
:10060000DBFF0F0EDBCF16F0100EDBCF17F0030E63
:10061000DBCFE6FF100EE552D880E75416C014F089
:1006200017C015F005E0D89014361536E804FBE144
:10063000050E14C0DBFF060E15C0DBFFDB50E76EB6
:100640000C0EE7CFDBFFFB0EDBCF08F0FC0EDBCFA1
:1006500009F0110E08C0DBFF120E09C0DBFF110EFE
:10066000DBCFE9FF120EDBCFEAFFEF5001E118D13B
:10067000FA0EDBCFE6FFD9CFE6FFDACFE6FF110EA9
:10068000DBCFE9FFDB2A120EDBCFEAFF01E3DB2A37
:10069000EF50E66EE7EC08F0E552E552E552E55220
:1006A000130EF3CFDBFF140EF4CFDBFF010EDB6A7A
:1006B000DF50F36E010EDBCFF4FFF350F45C01E387
:1006C000BED0FA0EDB50010A17E0010A01E02BD080
:1006D000130EDBCFE9FF140EDBCFEAFFEECF14F0F1
:1006E000EFCF15F014C015F0146A150E14C0DBFF1F
:1006F000160E15C0DBFF1BD0130EDBCFE9FF140E67
:10070000DBCFEAFFEECF14F0EFCF15F0060ED89056
:1007100014361536E804FBE1150E14C0DBFF160E87
:1007200015C0DBFF04D0150EDB6A160EDB6A150E52
:10073000DBCF16F0160EDBCF17F0030EDB5016C022
:1007400014F017C015F005E0D89015321432E80403
:10075000FBE1070E14C0DBFF080E15C0DBFF070E20
:10076000DB50E76E0A0EE7CFDBFF080EDB50E76ECB
:100770000B0EE7CFDBFF150EDBCF16F0160EDBCF2F
:1007800017F0030EDBCFE6FF100EE552D880E754DA
:1007900016C014F017C015F005E0D89014361536C1
:1007A000E804FBE1070E14C0DBFF080E15C0DBFFF9
:1007B000DB50E76E090EE7CFDBFF0E0EDBCFE6FF67
:1007C0000B0EDBCFE6FF040EDBCFE6FF020EDBCF26
:1007D000E6FF55DDE552E552E552E5520D0EDBCF61
:1007E000E6FF0A0EDBCFE6FF040EDBCFE6FF020ECC
:1007F000DB28E66E44DDE552E552E552E5520C0E8B
:10080000DBCFE6FF090EDBCFE6FF040EDBCFE6FF12
:10081000020EDB50020FE66E32DDE552E552E55284
:10082000E552040EDB2AD950130FE96EDACFEAFF46
:10083000020EEE26000EEF22010EDB2A39D70E0E35
:10084000DBCFE6FFE66A040EDBCFE6FF020EDBCF6E
:10085000E6FF15DDE552E552E552E5520D0EDBCF20
:10086000E6FFE66A040EDBCFE6FF020EDB28E66E4B
:1008700006DDE552E552E552E5520C0EDBCFE6FF10
:10088000E66A040EDBCFE6FF020EDB50020FE66ED7
:10089000F6DCE552E552E552E552040EDB2ADFD6DE
:1008A000170EE15C02E2E16AE552E16EE552E7CF44
:1008B000D9FF1200D9CFE6FFE1CFD9FFE552E7CF4C
:0408C000D9FF12004A
:0C08C400D9CFE6FFE1CFD9FF0C0EE126F2
:1008D000020EDB6A030EDB6A949A8B9AF40EF36EB7
:1008E000040EF3CFDBFF010EF36E050EF3CFDBFF3B
:1008F000040EDBCF14F0DB06050EDBCF15F001E2B2
:10090000DB061450151006E00B0EE66E5AEC0DF0E7
:10091000E552EED78B8AF40EF36E060EF3CFDBFFB3
:10092000010EF36E070EF3CFDBFF060EDBCF14F0E4
:10093000DB06070EDBCF15F001E2DB0614501510C5
:1009400006E00B0EE66E5AEC0DF0E552EED78B9AF0
:10095000010EF36E080EF3CFDBFF090EDB6A080E03
:10096000DBCF14F0DB06090EDBCF15F001E2DB066E
:100970001450151006E00B0EE66E5AEC0DF0E55221
:10098000EED78B8A030EF36E0A0EF3CFDBFF0B0E4E
:10099000DB6A0A0EDBCF14F0DB060B0EDBCF15F0A3
:1009A00001E2DB061450151006E00B0EE66E5AEC61
:1009B0000DF0E552EED7DE6ADD6ADECF14F0DDCF52
:1009C00015F0140E145C000E15580EE2DECFE9FF90
:1009D000DDCFEAFF3C0EE9260E0EEA22EF6ADF2A9F
:1009E000010E01E3DB2AE9D7780EF36EFE0EF3CF9A
:1009F000DBFFC69A080EF36E020EF3CFDBFF800E0C
:100A0000F36E030EF3CFDBFFDBCFE6FF020EDBCF8F
:100A1000E6FF13EC0DF0E552E5520A0EC86EC75022
:100A2000040B01E0010E146E1F0EC514141001E03A
:100A3000F6D7170EE66E240EE66E0E0EE66EFE0E6E
:100A4000DBCFE6FF9DD8E552E552E552E5520C0EAC
:100A5000E15C02E2E16AE552E16EE552E7CFD9FFDF
:100A60001200D9CFE6FFE1CFD9FFE552E7CFD9FF9A
:100A70001200D9CFE6FFE1CFD9FF030EE126C582F0
:100A8000C5B2FED7C750040B01E0010E146E1F0E55
:100A9000C514141001E0F6D7C950DF6EFE0EDBCF8F
:100AA000E6FFE8EC0BF0E552E76E010EE7CFDBFF67
:100AB000DB50FF0803E1C950DF6EC69E010EDB501C
:100AC000EDE1400EE66EE8EC0BF0E552E76E010E4C
:100AD000E7CFDBFFDB50FF0803E1C950DF6EC69EA6
:100AE000010EDB50EEE1020EDB6AFB0EDB50F36E13
:100AF000020EDBCFF4FFF350F45C2BE2C6A621D04C
:100B0000FC0EDBCFE9FFFD0EDBCFEAFFEF50E66E18
:100B1000E8EC0BF0E552000904E0FD0EF36EF4681A
:100B200025D0C750040B01E0010E146E1F0EC51432
:100B3000141001E0F6D7C5AC04D0FE0EF36EF468D5
:100B400015D0FC0EDB2AFD0E01E3DB2A020EDB2AA8
:100B5000CCD7C750040B01E0010E146E1F0EC51454
:100B6000141001E0F6D7F36AF46A00D0030EE15CDA
:100B700002E2E16AE552E16EE552E7CFD9FF1200E9
:100B8000D9CFE6FFE1CFD9FF030EE1260E013B519D
:100B900004E0C582C5B2FED706D0C580C5B0FED779
:100BA0000E01010E3B6FC750040B01E0010E146EE5
:100BB0001F0EC514141001E0F6D7010EC9CFDBFFDC
:100BC000FE0EDBCFE6FFE8EC0BF0E552E76E020E1F
:100BD000E7CFDBFFDB50FF0804E1010EC9CFDBFFED
:100BE000C69E020EDB50ECE1E66AE8EC0BF0E55243
:100BF000E76E020EE7CFDBFFDB50FF0804E1010EDA
:100C0000C9CFDBFFC69E020EDB50EEE1DF6AFB0EB2
:100C1000DB50DF5C2AE2C6A621D0FC0EDBCFE9FF69
:100C2000FD0EDBCFEAFFEF50E66EE8EC0BF0E5528D
:100C3000000904E0FD0EF36EF46824D0C750040BE5
:100C400001E0010E146E1F0EC514141001E0F6D75A
:100C5000C5AC04D0FE0EF36EF46814D0FC0EDB2A93
:100C6000FD0E01E3DB2ADF2AD2D7C750040B01E0D7
:100C7000010E146E1F0EC514141001E0F6D7F36AAE
:100C8000F46A00D0030EE15C02E2E16AE552E16E33
:100C9000E552E7CFD9FF1200D9CFE6FFE1CFD9FF68
:100CA000040EE126010EDB6A070EF36E010EDBCFA8
:100CB000F4FFF350F45C01E379D0010EDBCFE6FFE3
:100CC000E66AFE0EDBCFE6FF7ED8E552E552E5523E
:100CD000C582C5B2FED7C750040B01E0010E146EE9
:100CE0001F0EC514141001E0F6D7020EC9CFDBFFAA
:100CF000FE0EDBCFE6FFE8EC0BF0E552E76E030EED
:100D0000E7CFDBFFDB50FF0804E1020EC9CFDBFFBA
:100D1000C69E030EDB50ECE1400EE66EE8EC0BF0F5
:100D2000E552E76E030EE7CFDBFFDB50FF0804E17F
:100D3000020EC9CFDBFFC69E030EDB50EDE1DF6A7A
:100D4000DF50146E156AD890155004E6800E145CBE
:100D5000000E15581EE2C6A61AD0E66AE8EC0BF0A3
:100D6000E552000904E0FD0EF36EF46822D0C7508E
:100D7000040B01E0010E146E1F0EC514141001E0E7
:100D8000F6D7C5AC04D0FE0EF36EF46812D0DF2A9D
:100D9000D7D7C750040B01E0010E146E1F0EC51407
:100DA000141001E0F6D7010EDB2A7ED7F36AF46A4D
:100DB00000D0040EE15C02E2E16AE552E16EE55228
:100DC000E7CFD9FF1200D9CFE6FFE1CFD9FF030E5D
:100DD000E126010EDF6EFC0EDB504009E76E010ECE
:100DE000E7CFDBFFFD0EDB508009E76E020EE7CF99
:100DF000DBFF030EE66ED9CFE6FFDACFE6FFFE0E8D
:100E0000DBCFE6FFBDDEE552E552E552E552030ECB
:100E1000E15C02E2E16AE552E16EE552E7CFD9FF1B
:020E20001200BE
:0E0E22009EA006D015CEE6FF7AEC00F0E55259
:100E30009E901200D8CFE4FFE0CFE4FFE46EDACF5B
:100E4000E4FFE2CFDAFFE652E552E5CFDAFFE55004
:100E5000E5CFE0FFE5CFD8FF1000D8CFE4FFE0CF2B
:100E6000E4FFE46EDACFE4FFE2CFDAFFE9CFE4FF9C
:100E7000EACFE4FFF6CFE4FFF7CFE4FFF8CFE4FFDB
:100E8000F5CFE4FFF3CFE4FFF4CFE4FFFACFE4FFC4
:100E9000FBCFE4FF00EE00F0140EE80403E3EECF16
:100EA000E4FFFBD700EE14F0080EE80403E3EECFF6
:100EB000E4FFFBD7E6523FEC0BF0B3DF9E6AA16A7A
:100EC000A46AE55200EE1BF0080EE80403E3E5CF48
:100ED000EDFFFBD700EE13F0140EE80403E3E5CFBB
:100EE000EDFFFBD7E5CFFBFFE5CFFAFFE5CFF4FF42
:100EF000E5CFF3FFE5CFF5FFE5CFF8FFE5CFF7FF4F
:100F0000E5CFF6FFE5CFEAFFE5CFE9FFE5CFDAFF72
:100F1000E550E5CFE0FFE5CFD8FF1000D9CFE6FFE1
:100F2000E1CFD9FF020EE1269382938493869388C2
:100F3000070E956E938A070E8C6E8A8A9590000034
:100F400081407F0B0E01176F958000009592000085
:100F50008150080DF3CF18FE95820F0E0E01171564
:100F60000E01196FF00E0E0118150E01191319CE8E
:100F700016FE020EE15C02E2E16AE552E16EE55224
:100F8000E7CFD9FF1200010E0E011615000802E28C
:100F9000010E02D0000E00D01200020E0E01161536
:100FA000000802E2010E02D0000E00D01200040E72
:100FB0000E011615000802E2010E02D0000E00D04C
:100FC0001200080E0E011615000802E2010E02D0F2
:100FD000000E00D01200D9CFE6FFE1CFD9FF440EBA
:100FE000E126DE6ADE6ADE6ADD6ADD52DD52040E6B
:100FF000DB6AD950200FE96EDACFEAFF540EEE6EAD
:10100000650EEE6E730EEE6E740EEE6E690EEE6E83
:101010006E0EEE6E670EEE6EEE6A110EEE6EEE6EF8
:10102000EE6EEE6EEE6EEE6EEE6EEE6EEE6EEE6EE0
:10103000EE6EEE6E350EDB6A360EDB6A370EDB6A5D
:10104000380EDB6A390EDB6A3A0EDB6A3B0EDB6A6E
:101050003C0EDB6A3D0EDB6A3E0EDB6A3F0EDB6A4E
:10106000400EDB6A410EDB6A420EDB6A430EDB6A2E
:10107000929092928990899215CEE6FF62EC04F0EC
:10108000E55222EC00F015CEE6FF7AEC00F0E552D6
:101090003F0EDB6A400EDB6A3F0EDBCFE6FF400E01
:1010A000DBCFE6FFDCEC0CF0E552E552F40EF36E1C
:1010B0003E0EF3CFDBFFDBCFE6FF9DEC0CF0E552FD
:1010C0009F90420EDB6A430EDB6A420EDB50CC6E11
:1010D0007B0EF36E410EF3CFDBFFDBCFE6FFF8ECC8
:1010E0000CF0E552E66A2EEC0DF0E552350EDB68A9
:1010F000DBCFE6FF7BEC0CF0E552390EDB6A0F0E1E
:10110000F36E3A0EF3CFDBFF390EDBCFE6FF3A0E7C
:10111000DBCFE6FF28EC0CF0E552E552A9EC0AF033
:10112000F28CF28EC4EC0AF00E011A51065C146EB9
:101130001B510758156E1C510858166E1D51095841
:10114000176ECC0E145C0C0E1558000E1658000EBF
:10115000175832E3C4EC0AF006C01AFE07C01BFEA3
:1011600008C01CFE09C01DFE8972D8DE20DF000900
:1011700002E00E01232B07DF000902E00E01222B03
:1011800020DF000902E00E01230707DF000902E06B
:101190000E012207010EE66ED950200FE66E000EFA
:1011A000DA20E66E23CEE6FF22CEE6FFA9EC02F0BF
:1011B000146E050EE15E1450B5D7440EE15C02E2F8
:0E11C000E16AE552E16EE552E7CFD9FF120079
:0211CE00D9CF77
:1011D000E6FFE1CFD9FF090EE126010EDB6A020E20
:1011E000DB6A030EDB6A040EDB6A050EDB6A060EA1
:1011F000DB6A070EDB6A080EDB6AFB0EDB50010AB6
:101200004CE0010A01E092D0030E146EB60E156E8A
:10121000000E166EFE0EDBCF17F0186A196AD89012
:1012200017361836193614501724F36E1550182037
:10123000F46E16501920F86EF4CFF7FFF3CFF6FFD7
:101240000900010EF5CFDBFF0A00020EF5CFDBFF30
:10125000030E146EB60E156E000E166EFE0EDB2813
:10126000176E186A196AD89017361836193614503E
:101270001724F36E15501820F46E16501920F86ECE
:10128000F4CFF7FFF3CFF6FF0900030EF5CFDBFF36
:101290000A00040EF5CFDBFF51D0050E146EB80E18
:1012A000156E000E166EFE0EDBCF17F0186A196A67
:1012B000D89017361836193614501724F36E155077
:1012C0001820F46E16501920F86EF4CFF7FFF3CF04
:1012D000F6FF0900010EF5CFDBFF0A00020EF5CF85
:1012E000DBFF050E146EB80E156E000E166EFE0EA8
:1012F000DB28176E186A196AD8901736183619360F
:1013000014501724F36E15501820F46E165019203F
:10131000F86EF4CFF7FFF3CFF6FF0900030EF5CF19
:10132000DBFF0A00040EF5CFDBFF08D0030EDB6AFB
:10133000040EDB6A010EDB6A020EDB6A030EDBCFF2
:1013400016F0040EDBCF17F0010EDB50165C146EA6
:10135000020EDB501758156E050E14C0DBFF060E8B
:1013600015C0DBFF070EDB6A080EDB6AD950050FDC
:10137000E96EDACFEAFFD890030EEB50000A08E6D8
:10138000010EEE5C000EEE58000EEE58000EEE5808
:101390000BE2FC0EDBCFE9FFFD0EDBCFEAFFEE6ACE
:1013A000ED6AF36AF46ACBD0FB0EDB50010A57E01A
:1013B000010A01E0AFD0DF6ADFCF14F0156A166AC8
:1013C000176A050EDBCF07F0060EDBCF08F0070E1D
:1013D000DBCF09F0080EDBCF0AF017500A18E8AE91
:1013E00002D00A3408D00750145C08501558095030
:1013F00016580A50175832E2000E146EAC0E156ED5
:10140000000E166EDF50E76E010EDBCF17F0020EF6
:10141000DBCF18F0E7501726000E1822196A145077
:101420001724F36E15501820F46E16501920F86E1C
:10143000F4CFF7FFF3CFF6FF0800F550E66EEA6A47
:10144000DF34FE0BEA36E96E3D0EE9260F0EEA2286
:10145000E552E750EE6EED6ADF2AAED75BD0DF6A69
:10146000DFCF14F0156A166A176A050EDBCF07F096
:10147000060EDBCF08F0070EDBCF09F0080EDBCF3E
:101480000AF017500A18E8AE02D00A3408D0075004
:10149000145C08501558095016580A50175839E26C
:1014A000AD0E166EAE0E176E000E186EDF50E76EA4
:1014B000010EDBCF19F0020EDBCF1AF0E750192630
:1014C000000E1A221B6AD89019361A361B3616508F
:1014D0001924F36E17501A20F46E18501B20F86E62
:1014E000F4CFF7FFF3CFF6FF0900F5CF14F00800B3
:1014F000F5CF15F0EA6ADF34FE0BEA36E96E3D0EF1
:10150000E9260F0EEA2214C0EEFF15C0EDFFDF2A18
:10151000A7D700D0FC0EDBCFE9FFFD0EDBCFEAFF43
:10152000050EDBCFEEFF060EDBCFEDFF3D0E146E9A
:101530000F0E156E14C0F3FF15C0F4FF00D0090E96
:10154000E15C02E2E16AE552E16EE552E7CFD9FFE4
:02155000120087
:0E155200D76AD66AF184F294F28A870ED56EBB
:101560001200F28A0000F29AD6CF51FED7CF52FE77
:1015700057CE53FE58CE54FE59CE55FE5ACE56FE87
:10158000F2B4EFD7F28A1200ECDF51CE06F052CE61
:1015900007F053CE08F054CE09F000D01200D9CF96
:1015A000E6FFE1CFD9FF040EE126DBDF52CEDFFFFD
:1015B000010E53CEDBFF020E54CEDBFF030E55CEE1
:1015C000DBFFDECF06F0DECF07F0DECF08F0DDCFA9
:1015D00009F0DD52DD52040EE15C03E200D0E16A65
:1015E000E552E16EE552E7CFD9FF1200D9CFE6FF11
:1015F000E1CFD9FF040EE126B4DF53CEDFFF010EA9
:1016000054CEDBFF020E55CEDBFF030E56CEDBFFC2
:10161000DECF06F0DECF07F0DECF08F0DDCF09F039
:10162000DD52DD52040EE15C03E200D0E16AE552D6
:10163000E16EE552E7CFD9FF1200D9CFE6FFE1CF47
:10164000D9FFFB0EDBCF06F0FC0EDBCF07F0FD0E63
:10165000DBCF08F0FE0EDBCF09F0100E0626000EE1
:10166000072208220922200E0B6E0C6A0D6A0E6AF0
:1016700057EC0CF000D0E552E7CFD9FF1200F2A4EE
:1016800009D00E01572B000E582359235A23FB0E65
:06169000F214F26E1200DC
:0A1696001E0EF66E000EF76E000E39
:1016A000F86E0F010900F5505A6F0900F5505B6F95
:1016B00003E15A6701D03DD00900F550556F09008C
:1016C000F550566F0900F550576F09000900F550A5
:1016D000E96E0900F550EA6E090009000900F550AD
:1016E000586F0900F550596F09000900F6CF5CFFEB
:1016F000F7CF5DFFF8CF5EFF55CFF6FF56CFF7FF70
:1017000057CFF8FF0F01585302E1595307E0090082
:10171000F550EE6E5807F8E25907F9D75CCFF6FF9F
:101720005DCFF7FF5ECFF8FF0F015A07000E5B5B3E
:04173000BFD712000D
:0C173400D9CFE6FFE1CFD9FF020EE1267D
:10174000010EDB6AFC0EDB50F36E010EDBCFF4FF03
:10175000F350F45C2FE2C6A611D0FD0EDBCFE9FFFB
:10176000FE0EDBCFEAFFEF50E66EE8EC0BF0E55241
:10177000DF6EDF5002E0DF501FD014D09E96FD0ECA
:10178000DBCFE9FFFE0EDBCFEAFFEF50C96EC68864
:101790009EA6FED7C750040B05E1C750010B02E11E
:1017A000FE0E0AD0FD0EDB2AFE0E01E3DB2A010E3F
:1017B000DB2AC8D7000E00D0146E020EE15C02E2F4
:1017C000E16AE552E16E1450E552E7CFD9FF12000D
:1017D000D9CFE6FFDACFE6FFE1CFD9FFE2CFDAFFDC
:1017E000FD0EDB50C96EC6AE02D0FF0E2BD00F0E21
:1017F000C61408080FE00F0EC6140B080BE0C688CD
:101800009EA6FED7C750040B03E1C750010B17E09B
:10181000000E18D00F0EC614080804E00F0EC614F0
:101820000B0810E1C7B0FED7C750040B01E0010E52
:10183000146E1F0EC5141410F7E1C5AC02D0FE0ED5
:1018400001D0000EE552E5CFDAFFE7CFD9FF120055
:10185000D9CFE6FFDACFE6FFE1CFD9FFE2CFDAFF5B
:10186000E652E652FC0EDBCF14F0FD0EDBCF15F096
:10187000060ED89014361536E804FBE114C0DEFFDE
:1018800015C0DDFF010EDB50716EDF50E840E8400F
:101890003F0B300B146ECF0E70141410706EE552A7
:0E18A000E552E552E5CFDAFFE7CFD9FF12009F
:0218AE00056AC9
:1018B000046A036A026A200EE76ED890063607367D
:1018C0000836093602360336043605360B50025CFC
:1018D0000C5003580D5004580E50055809E30B5096
:1018E000025E0C50035A0D50045A0E50055A062A37
:0618F000E72EE4D7120010
:0A18F600D9CFE6FFDACFE6FFE1CF1D
:10190000D9FFE2CFDAFF0C0E706EB150400B09E147
:10191000B150080B06E1CA94FD0EDB50CB6ECA84B1
:1019200005D07694FD0EDB50776E76849898E5525C
:0A193000E5CFDAFFE7CFD9FF120080
:06193A00D9CFE6FFDACF71
:10194000E6FFE1CFD9FFE2CFDAFFFD0EDB507E0BE1
:10195000CD6EFD0EDBAC02D0CD8E01D0CD9ECF6A18
:10196000CE6A9E90DBAE02D09D8001D09D90CD804E
:0C197000E552E5CFDAFFE7CFD9FF120007
:04197C0008C012F09D
:1019800008500D02F4CF07F0F3CF06F009500E0215
:10199000F4CF09F0F3CF08F00D02F3500726F4500E
:1019A0000822E86A092212500E02F3500726F4506A
:0819B0000822E86A0922000C7C
:0819B800D9CFE6FFDACFE6FF0C
:1019C000E1CFD9FFE2CFDAFFE652E652FC0EDBCFE1
:1019D000DEFFDBCFDDFF010EDB50CF6EDF50CE6EC2
:1019E000E552E552E552E5CFDAFFE7CFD9FF120025
:1019F000D9CFE6FFDACFE6FFE1CFD9FFE2CFDAFFBA
:101A0000FD0EDB50FB0BCA6ECC6A9E92FD0EDBAE68
:101A100002D09D8201D09D92CA84E552E5CFDAFFC3
:061A2000E7CFD9FF120020
:0A1A2600D9CFE6FFDACFE6FFE1CFEB
:101A3000D9FFE2CFDAFF3F0EC716C66AC56AFD0EB0
:101A4000DB50C612FC0EDB50C71294869488C68AFF
:0C1A5000E552E5CFDAFFE7CFD9FF120026
:041A5C00D9CFE6FFF9
:101A6000DACFE6FFE1CFD9FFE2CFDAFFB70EB1144C
:101A7000B16EFD0EDB50480BB110B16EE552E5CFF3
:081A8000DAFFE7CFD9FF1200E5
:081A8800800EF36E00EE00F089
:101A90000E0E07D8600EF36E0FEE00F00F0E01D899
:101AA0001200EA6002D0EE6AFCD7F350E96012003F
:041AB000EE6AFCD707
:0C1AB400FF0EE3501C6E480E01D04C0EDB
:101AC000E76EE72EFED7E76AE72EFED71C2EF7D784
:041AD0000000120000
:0C1AD4001DEE00F02DEE00F0F86A019C01
:101AE0004BEC0BF003EC00F0EBEC07F0FBD7120033
:101AF000010E1284060824010D050B17B7010B0413
:081B000008580110204080008C
:081B08004D4943524F43484987
:101B1000503A4932435F4D415354455200780000DA
:0C1B2000000000000000000000000000B9
:10AC000000000000002F030000247E24247E242462
:10AC10004AFF52240225120804122910102A252D59
:10AC2000123824037EC3C37E0A0A041F040A0A08DA
:10AC30001C08008008080880300C031E21211E0219
:10AC40003F223129261221251A1814123F101725E8
:10AC500025191E252519013905031A25251A262926
:10AC6000291E244024081422141414142214080247
:10AC70002906384492AABAA29C403E09093E3F25C3
:10AC8000251A1E2121123F21211E3F2525213F0586
:10AC900005011E21293A3F04043F213F21102020B5
:10ACA0001F3F040A313F2020203F0204023F3F188B
:10ACB000063F0C122121120C3F0909060C12212912
:10ACC000122C3F0909361225291201013F01011FEB
:10ACD00020201F030C300C03030C300C030C300C31
:10ACE0000321120C122103043804032131292523E6
:10ACF00021FF81033CC081FF0402010204808080A7
:10AD000080800102122A2A2A3C3F2424181C222275
:10AD1000221824243F1C2A2A2A04043F059CA2A2AC
:10AD20007E3F0404383D807D3F0814223F3E023EB2
:10AD3000023C3E02023C1C22221CFE22221C1C223F
:10AD400022FE3E040202242A2A12021F221E202072
:10AD50003E06182018061E201E201E320C0C329EA5
:10AD6000A0A07E322A2622106E00FF816E100804F9
:10AD70000408043E2B2A23221C2B2A2B043E0909FB
:10AD80003E3F252525193F2525251A3F01010101B3
:10AD9000603E21213E603F25252121310A043F04E8
:10ADA0000A312125251A3F1008043F3F1009043FAE
:10ADB0003F040A31203F01013F3F0204023F3F04AC
:10ADC000043F0C122121120C3F01013F3F090906EB
:10ADD0001E21212101013F0101072828281F0E11F2
:10ADE0003F110E310A040A313F20203F6007080856
:10ADF0003F3F203F203F3F203F203F60013F242432
:10AE0000183F2424183F3F242418122125251E3FD3
:10AE1000081E21211E360909093F122A2A2A3C1E32
:10AE20002525193E2A2A2A143E020202603C223EAF
:10AE3000601C2A2A2A2436083E0836222A2A143E72
:10AE400010083E3C11093C3E080836203E02023EF6
:10AE50003E0408043E3E08083E1C22221C3E02021C
:10AE60003E3E12120C1C2222223E023E023C9EA0BA
:10AE7000A07E1C227F221C320C0C323E20203E6021
:10AE80000E10103E3E203E203E3E203E203E600200
:10AE90003E2424183E2424183E3E24241814222A3A
:10AEA0002A1C3E081C22221C2C1212123E000000FA
:10AEB00000000000000000DF00DE000700070000C7
:10AEC0000007000700E4003C002700E4003C0027E6
:10AED000009C003201FF033201E4000F000900CFA3
:10AEE0000030000C00F3009000F0006000F6009FBE
:10AEF000009900F700E600B000030003007800FEB0
:10AF00000103030303FE0178000A0007000A001092
:10AF10000010007C0010001000C002C001100010E2
:10AF2000001000C000C000C0003C0003007E00FF15
:10AF3000008100FF007E000C000600FF00FF00C241
:10AF400000E300B1009F008E004200C3008900FFB3
:10AF500000760030002C002200FF00FF0020005C83
:10AF600000CF008B00F90071007E00FF008900FB1C
:10AF70000072000100F100FD000F0003007600FFE9
:10AF8000008900FF0076004E00DF009100FF007E88
:10AF900000CC00CC00CC02CC011800180024002406
:10AFA0000042002800280028002800080042002451
:10AFB000002400180018000200D300D9000F00067A
:10AFC000007800860172018D028502C502FD028DA6
:10AFD0000242013C01E000FC003F0023003F00FC76
:10AFE00000E000FF00FF0089008900FF0076003CC0
:10AFF000007E00C30081008100C3004200FF00FF0B
:10B000000081008100FF007E00FF00FF00890089B1
:10B010000089008100FF00FF00090009000900010C
:10B02000003C007E00C30081009100F3007200FF2D
:10B0300000FF0008000800FF00FF00FF00FF0040C5
:10B0400000C0008000FF007F00FF00FF0018003EEE
:10B0500000F700C100FF00FF00800080008000803A
:10B0600000FF00FF000F007C00E0007C000F00FFED
:10B0700000FF00FF00FF000C003000FF00FF003C5D
:10B08000007E00C3008100C3007E003C00FF00FF83
:10B0900000110011001F000E003C007E00C300A143
:10B0A00000C300FE003C010001FF00FF0011003161
:10B0B000007F00CE0080004E00CF0099009900F381
:10B0C00000720001000100FF00FF00010001007F8D
:10B0D00000FF0080008000FF007F0003003F00FCB5
:10B0E00000C000FC003F00030003003F00FC00E044
:10B0F000003E0007003E00E000FC003F000300C3EC
:10B1000000E7003C003C00E700C30003000F00F82C
:10B1100000F8000F000300C100E100B10099008DAC
:10B120000087008300FF03FF03010203003C00C00F
:10B13000000102FF03FF0308000E0003000E0008D9
:10B1400000000200020002000200020002010003EF
:10B150000002006800F4009400FC00F800FF00FF0B
:10B160000084008400FC0078007800FC008400CC9F
:10B170000048007800FC0084008400FF00FF007895
:10B1800000FC0094009400DC0058000400FE00FF66
:10B1900000050001007801FC0284028402FC03FC2B
:10B1A00001FF00FF0004000400FC00F800FD00FDAA
:10B1B000000002FD03FD01FF00FF0030007800ECFD
:10B1C000008400FE00FF00FC00FC0004000400FC02
:10B1D00000FC0004000400FC00F800FC00FC00047B
:10B1E000000400FC00F8007800FC0084008400FCEF
:10B1F000007800FC03FC0384008400FC00780078E5
:10B2000000FC0084008400FC03FC03FC00FC00083C
:10B21000000400040004005800DC00B400B400EC9A
:10B2200000680004007E00FF0084007C00FC0080B9
:10B23000008000FC00FC003C00FC00C000FC003C66
:10B24000001C00FC00E00078000C007800E000FC2E
:10B25000001C00CC00FC003000FC00CC0004023CD0
:10B2600002F803C001F8003C000400C400E400B48C
:10B27000009C008C002000FE0100000102FF030181
:10B2800002DF03FE01200010000800080010000883
:10B2900000FE00FF0092009200830082007800FD13
:10B2A0000094009400DD005800E000FC003F002303
:10B2B000003F00FC00E000FF00FF008900890089DA
:10B2C00000F9007000FF00FF0089008900FF007690
:10B2D00000FF00FF000100010001008003FF00FFEC
:10B2E000008100FF00FF008003FF00FF008900894C
:10B2F0000081008100F3007E000800FF00FF0008CD
:10B30000007E00F30081004200C30089008900FF35
:10B31000007600FF00FF00600030001800FF00FF13
:10B3200000FF00FF00600033001800FF00FF00FF77
:10B3300000FF0008007E00F30081008000FF007F16
:10B340000001000100FF00FF00FF00FF000F007C74
:10B3500000E0007C000F00FF00FF00FF00FF00087E
:10B36000000800FF00FF003C007E00C3008100C316
:10B37000007E003C00FF00FF00010001000100FF13
:10B3800000FF00FF00FF00110011001F000E003C35
:10B39000007E00C30081008100C300420001000163
:10B3A00000FF00FF000100010003008F00FC007897
:10B3B000001F0007003C007E004200FF00FF00422B
:10B3C000007E003C00C300E7003C003C00E700C3F7
:10B3D00000FF00FF0080008000FF00FF0080030FDF
:10B3E000001F00100010001000FF00FF00FF00FF12
:10B3F0000080008000FF00FF0080008000FF00FF51
:10B4000000FF00FF0080008000FF00FF0080008040
:10B4100000FF00FF00800301000100FF00FF008823
:10B420000088008800F8007000FF00FF0088008896
:10B43000008800F8007000FF00FF00FF00FF008898
:10B440000088008800F800700024006600C30089AE
:10B4500000CB007E003C00FF00FF0018003C007E97
:10B4600000C3008100C3007E003C008000CE007F4E
:10B470000031001100FF00FF006800F4009400FCA0
:10B4800000F8007E00FD0085008500FD007900FCCD
:10B4900000FC0094009400FC006800FC00FC000428
:10B4A0000004008003C000FC008400FC00FC00805D
:10B4B000037800FC0094009400DC005800C400EC09
:10B4C000001000FC00FC001000EC00C400480084E8
:10B4D000009400FC006800FC00FC0060001800FC08
:10B4E00000FC00FC00FD0061001900FD00FC00FCF8
:10B4F00000FC0010007800EC0084008000FC007C60
:10B50000000400FC00FC00FC00FC003000C0003027
:10B5100000FC00FC00FC00FC0010001000FC00FC23
:10B52000007800FC0084008400FC007800FC00FC33
:10B530000004000400FC00FC00FC03FC0384008405
:10B5400000FC0078007800FC008400CC0048000477
:10B5500000FC00FC00040004023C02F803C001F8F7
:10B56000003C0004007800FC008400FF03FF03841B
:10B5700000FC007800CC00FC003000FC00CC00FC9B
:10B5800000FC0080008000FC00FC0080031C003CEC
:10B59000002000FC00FC00FC00FC008000FC00FC23
:10B5A000008000FC00FC00FC00FC008000FC00FCB3
:10B5B000008000FC00FC0080030400FC00FC009004
:10B5C00000F0006000FC00FC009000F0006000FC57
:10B5D00000FC00FC00FC009000F00060004800CC83
:10B5E000009400FC007800FC00FC0010007800FCD7
:10B5F000008400FC0078008000D8007C002400FC5F
:10B6000000FC00000000000000000000000000003E
:10B61000000000000000000000000000000000002A
:10B62000000000000000000000000000000000001A
:10B63000000000000000000000000000000000000A
:10B6400000000000000500060009000F0014001CA7
:10B650000023002400260028002F00320034003789
:10B660000038003B003F004100450049004E0052B9
:10B670000056005A005E0062006300650068006CBE
:10B68000006F0072007A007E00820086008A008EC1
:10B6900000920096009A009D00A100A500A900AEAE
:10B6A00000B200B800BC00C200C600CA00CF00D380
:10B6B00000D800E100E600EB00F100F300F600F82E
:10B6C00000FD000201040109010D01110115011A1B
:10B6D000011D0121012501260128012C012D013226
:10B6E0000136013A013E01420146014A014D015134
:10B6F0000156015B015F01630167016A016B016E25
:10B700000173017301730173017301730173017399
:10B710000173017301730173017301730173017389
:10B720000173017301730173017301730173017379
:10B730000173017301730173017301730173017369
:10B740000173017301730173017301730173017359
:10B75000017301730178017801780178017801782B
:10B760000178017801780178017801780178017811
:10B7700001780178017D017D017D017D017D017DE3
:10B78000017D017D01810186018B01900196019B64
:10B7900001A201A601AB01B001B401B901BE01C211
:10B7A00001C801CC01D001D401D901DE01E301E8D7
:10B7B00001ED01F101F601FC01010206020A020F8E
:10B7C0000215021A021F02230228022C023102363D
:10B7D000023B023F02430247024B0250025502590C
:10B7E000025D026102650269026E02720277027BEB
:10B7F000028002840289028F02940299029D02A2B1
:10B8000002A802AD020000000000000000000000DD
:10B810000000000000000000000000000000000028
:10B820000000000000000000000000000000000018
:10B830000000000000000000000000000000000008
:10B8400000000000000000050007000C00120017B7
:10B85000001F00260028002B002E00310036003883
:10B86000003B003D004000450049004E0053005998
:10B87000005E00630068006D007200740076007B5B
:10B8800000800085008A0094009B00A100A800AE03
:10B8900000B400BA00C100C700C900CE00D400DA6D
:10B8A00000E300E900F000F600FE0005010B0111C5
:10B8B0000117011E0129012F0135013C013F014201
:10B8C0000145014A015001530158015E01630169BC
:10B8D000016F0174017A018001820185018B018D64
:10B8E0000197019D01A301A901AF01B501BB01BFF2
:10B8F00001C501CA01D301D801DF01E401E801E972
:10B9000001ED01F201F201F201F201F201F201F2A4
:10B9100001F201F201F201F201F201F201F201F28F
:10B9200001F201F201F201F201F201F201F201F27F
:10B9300001F201F201F201F201F201F201F201F26F
:10B9400001F201F201F201F201F201F201F201F25F
:10B9500001F201F201F201F801F801F801F801F831
:10B9600001F801F801F801F801F801F801F801F80F
:10B9700001F801F801F801FE01FE01FE01FE01FEE1
:10B9800001FE01FE01FE0105020C02120217021E59
:10B990000223022D0233023A02410247024E0257AD
:10B9A000025D0264026B02710278027E0284028CE4
:10B9B0000292029902A002AA02B502BE02C702CEFA
:10B9C00002D502DF02E602EB02F102F702FB0202FD
:10B9D000030803100315031B03210327032D03345E
:10B9E000033A03400346034C03510355035C0364CD
:10B9F000036903700375037D0386038C0393039827
:07BA0000039D03A503AB0346
:020000040001F9
:01FFF800A068
:01FFFA00C541
:01FFFD00F70C
:00000001FF
