:020000040000FA
:0600000028EF14F01200CD
:020006001200E6
:060008001CEF0CF01200D9
:02000E00C58AA1
:04001000C58812008D
:04001400C580120091
:06001800BFEF0BF0120027
:02001E000600DA
:100020004B290000F90000000100000047290000F2
:10003000E60000000400000045290000F600000072
:1000400002000000222900009400000023000000AC
:100050001E290000E200000004000000EA28000061
:08006000600000003400000004
:08006800E6C014FCE7C015FC22
:10007000E8C016FCE9C017FC0E0100510111021185
:10008000031105E1010E006F016B026B036B00CEE3
:10009000E6F001CEE7F002CEE8F003CEE9F00C0185
:1000A000186B100E185D04E20DD80C01182BF9D74F
:1000B00014CC06F015CC07F016CC08F017CC09F0DC
:1000C00000D012000C01196B0F0E195D38E2E6C06A
:1000D00014F0E7C015F0E8C016F0E9C017F0D890AA
:1000E0001732163215321432E6C018F0E7C019F094
:1000F000E8C01AF0E9C01BF0010E1816196A1A6A56
:100100001B6A000E186C191E19221A1E1A221B1EB9
:100110001B22010E1816196A1A6AD00E1B161450EB
:1001200018180001E66F15501918E76F16501A18C5
:10013000E86F17501B18E96F0C01192BC5D7E6C0E3
:10014000F3FFE7C0F4FF00D01200C2CF0FFCC0CF16
:1001500010FCD5CF11FCD6CF13FCD7CF12FC010E6B
:10016000C26E3F0EC06E880ED56E0C01006B0C0186
:10017000076B086B096B0A6B0C01056B066BA2DF42
:10018000F3CF0BFCF4CF0CFC0C010D6B0E6BD76A9C
:10019000D66AC2820400C2B2FED7D6CF03FCD7CF44
:1001A00004FC90DFF3CF01FCF4CF02FC0C010351FF
:1001B0000C0107270C0104510C010823000E092330
:1001C0000A231A0E0C01075DF20E08599E0E0959FA
:1001D000000E0A590FE376DFF3500C010B1BF450AD
:1001E0000C010C1B6FDFF3500C010D1BF4500C01C4
:1001F0000E1B39D00C0103510C01051904E10C014F
:1002000004510C01061901E1C2D70C0103510C0184
:10021000055D146E06510C010455156E0C010C01A0
:10022000015114240E01006F0C010C010251152024
:100230000E01016F0E01026B036B16DF03CC05FC90
:1002400004CC06FC0C01D8900B370C370D370E3759
:1002500039DFF350800B02E00C010B810C01002B05
:1002600001E101D094D70FCCC2FF10CCC0FF12CC5B
:10027000D7FF13CCD6FF11CCD5FF0BCC06F00CCC9E
:1002800007F00DCC08F00ECC09F000D012000C01E4
:10029000056B066B006B016B026B036B0E0104CEEA
:1002A000E9FF05CEEAFF042B000E0523EFCF04FC87
:1002B000EF5001E18CD00C010651030801E287D018
:1002C000300E045F055106E10451090802E2000EF8
:1002D000B5D071D0030E055D36E1FE0E045D02E07F
:1002E000000EACD0D880050E0055050E0155020E4B
:1002F0000255000E035502E2000EA0D00A0E0103C3
:10030000F3CF16F0640E0203F35016240025E66EB8
:1003100006CEE9FF07CEEAFFE9CF14F0EACF15F0E9
:100320000651062B0F011424E96E000E1520EA6E0B
:10033000E552E750EF6E0C01056B006B016B026B31
:10034000036BACD738D0FE0E045D30E1D880050ECB
:100350000055050E0155020E0255000E035502E22E
:10036000000E6CD00A0E0103F3CF16F0640E0203E8
:10037000F35016240025E66E06CEE9FF07CEEAFF0D
:10038000E9CF14F0EACF15F00651062B0F01142423
:10039000E96E000E1520EA6EE552E750EF6E0C0193
:1003A000056B006B016B026B036B78D70451090876
:1003B00002E2000E43D00C01052B02CC03FC01CC61
:1003C00002FC00CC01FC006B04CC00FC67D70C01E4
:1003D000045111E02F0E045D0EE00D0E045D0BE0E4
:1003E0000A0E045D08E0200E045D05E0090E045DC0
:1003F00002E0000E23D0D880050E0055050E0155F1
:10040000020E0255000E035502E2000E17D00A0E2E
:100410000103F3CF14F0640E0203F35014240025FB
:10042000E66E06CEE9FF07CEEAFF030EE926000ED0
:10043000EA22E552E750EF6E010E00D012000C01E7
:10044000056B066B006B016B026B036B0E0108CE34
:10045000F6FF082B09CEF7FF000E09230ACEF8FF9E
:100460000A230800F5CF04FCF55001E18CD00C0103
:100470000651030801E287D0300E045F055106E102
:100480000451090802E2000EB5D071D0030E055DDB
:1004900036E1FE0E045D02E0000EACD0D880050E01
:1004A0000055050E0155020E0255000E035502E2DD
:1004B000000EA0D00A0E0103F3CF16F0640E020363
:1004C000F35016240025E66E0BCEE9FF0CCEEAFFB2
:1004D000E9CF14F0EACF15F00651062B0F011424D2
:1004E000E96E000E1520EA6EE552E750EF6E0C0142
:1004F000056B006B016B026B036BA8D738D0FE0E47
:10050000045D30E1D880050E0055050E0155020E40
:100510000255000E035502E2000E6CD00A0E0103D4
:10052000F3CF16F0640E0203F35016240025E66E96
:100530000BCEE9FF0CCEEAFFE9CF14F0EACF15F0BD
:100540000651062B0F011424E96E000E1520EA6EE9
:10055000E552E750EF6E0C01056B006B016B026B0F
:10056000036B74D70451090802E2000E43D00C015A
:10057000052B02CC03FC01CC02FC00CC01FC006B7F
:1005800004CC00FC63D70C01045111E02F0E045D74
:100590000EE00D0E045D0BE00A0E045D08E0200E77
:1005A000045D05E0090E045D02E0000E23D0D88052
:1005B000050E0055050E0155020E0255000E03559D
:1005C00002E2000E17D00A0E0103F3CF14F0640EFE
:1005D0000203F35014240025E66E0BCEE9FF0CCE87
:1005E000EAFF030EE926000EEA22E552E750EF6E1D
:1005F000010E00D012000C01056B0E010D510E1101
:100600004EE00C01006B100E036F270E046F050EF9
:10061000005D44E20DCE08F00ECE09F003CC0DF0E3
:1006200004CC0EF0F0EC13F008C001FC09C002FC91
:100630000C010151021102E1055120E0300E0125AB
:10064000E66E0E010FCEE9FF10CEEAFF0F2B000E73
:100650001023E552E750EF6E01CC08F002CC09F010
:1006600003CC0DF004CC0EF0D2EC13F006500E01CA
:100670000D5F07500E5B0C01010E056F0A0E0D6E2B
:100680000E6A03CC08F004CC09F0F0EC13F008C0BB
:1006900003FC09C004FC0C01002BB9D709D00FCE14
:1006A000E9FF10CEEAFF0F2B000E1023300EEF6E85
:1006B0000FCEE9FF10CEEAFFEF6A12000E011251D1
:1006C000460802E2200E125F1151460802E2200E97
:1006D000115F1251390803E2370E125F02D0300E5B
:1006E000125F1151390803E2370E115F02D0300E4C
:1006F000115F1239F00B111100D012000E011339E5
:100700000F0B136F1351090804E2410E1325F60F66
:1007100002D0300E132500D012000F0E0E01141758
:100720001451090804E2410E1425F60F02D0300ED0
:10073000142500D0120015CEE9FF16CEEAFFEFCF48
:1007400000FC17CEF6FF18CEF7FF19CEF8FF080011
:10075000F5CF01FC0C01005134E0015132E0610E93
:10076000005D05E300517A0802E3200E005F610E90
:10077000015D05E301517A0802E3200E015F01519A
:10078000D880005502E2010E29D00151005D02E23D
:10079000FF0E24D00E01152B000E1623172B182345
:1007A000192315CEE9FF16CEEAFFEFCF00FC17CED6
:1007B000F6FF18CEF7FF19CEF8FF0800F5CF01FCC1
:1007C000C9D70151D880005502E2010E07D001516E
:1007D000005D02E2FF0E02D0000E00D012001ACE21
:1007E0003CFC1BCE3DFC3DCC3EFC3CCC3DFC3ECC21
:1007F0003CFC3CCCF3FF3DCCF4FF00D012000E01DA
:100800001F511C1B1C511F1B1F511C1B1E511D1B4C
:100810001D511E1B1E511D1B1CCE06F01DCE07F0C8
:100820001ECE08F01FCE09F000D0120022CE14FC1C
:1008300023CE15FC0C01D8901533143320CE16FCB2
:1008400021CE17FC186B196B1A6B1B6B14CC14F0B0
:1008500015CC15F01407000E155B1450151018E098
:1008600016CCE9FF17CCEAFF020E1627000E17235D
:10087000EECF14F0EFCF15F0000114500C01182743
:10088000000115500C011923000E1A231B23DED77B
:100890000E012251010B0EE016CCE9FF17CCEAFF46
:1008A000EFCF14F0000114500C011827000E19238B
:1008B0001A231B230C0118511A25186F19511B21DB
:1008C000196F1A6B1B6B1A5118271B51192318CC5F
:1008D00014F019CC15F0141E151E14C0F3FF15C02A
:1008E000F4FF00D0120028CE24FE29CE25FE2ACE09
:1008F00026FE2BCE27FE2CCE00FC080E0C01005D40
:100900000EE327CE01FC26CE27FE25CE26FE24CEE2
:1009100025FE01CC24FE080E0C01005FEED70C0171
:1009200000510BE00E01D89027BFD880243725371F
:10093000263727370C010007F2D724CE06F025CE44
:1009400007F026CE08F027CE09F000D012000F0ED7
:100950000E01EA6A2D25E96E2E51EA22EF6A2DCEAC
:10096000E6FF2ECEE6FF03EC13F0E552E5520C0154
:10097000006B0F0E005D1CE200510E01EA6A2D258E
:10098000E96E2E51EA22EF5010E10F0E0C01005DCE
:100990000BE20051002B0E01EA6A2D25E96E2E5163
:1009A000EA22200EEF6EF1D703D00C01002BE1D725
:1009B00012000E0131CE14F032CE15F03107000EC8
:1009C000325B145015101EE02FCEE9FF30CEEAFF47
:1009D0002F2B000E3023EFCF00FC0C01005103E160
:1009E000F36AF46A12D00E0133510C01005D09E183
:1009F0000E012F07000E305B2FCEF3FF30CEF4FF39
:0C0A000004D0D7D7F36AF46A00D01200CB
:040A0C00FC0E921634
:100A10000E01FE8B0E01FDA1FDD70E01386B0E01FC
:100A200038810E01346B356B0E01E86BE96B0E01FA
:100A3000090EEC6F0E011A0EED6F0E01090EEA6F32
:100A40001A0EEB6F0E010A0EE46F1A0EE56F0E011F
:100A50000A0EE26F1A0EE36F0E015A6BF1DB0E0104
:100A60000D0EA06F00000E01320EA26F00000E01ED
:100A7000120EA46F00000E01400EA36F00000E01C5
:100A8000120EA66F00000E010C0EA76F00000E01E3
:100A9000EE0EAA6F00000E01050EAB6F00002DCF09
:100AA00084FE00002ECF85FE00002FCF82FE0000C6
:100AB00030CF83FE000031CF80FE000032CF81FEB8
:100AC00000000E01100E666F010E676F0E01100E12
:100AD000656F74EC09F00E01720E666F340E676F6D
:100AE0000E01140E656F74EC09F00E01666B676BF6
:100AF0000E01656B74EC09F0D28412000E01010E38
:100B0000646FDADBF3CF14F0F4CF15F0000114506A
:100B1000040B01E0010E00D01200D2B602D0010E8B
:100B200018D0C4EC10F00E013951065C146E3A5125
:100B30000758156E166A176A7A0E145C000E15585F
:100B4000000E1658000E175802E3D29645D9000E33
:100B500000D012000E0138B132D0388134CE1CFCE6
:100B600035CE1DFC0C01010E1C5F000E1D5B1CCC64
:100B700014F01DCC15F0166A176A145C000E155897
:100B8000000E1658000E175810E31CCC18F01DCCA0
:100B900019F01A6A1B6AD880090E18541A0E1954D3
:100BA000000E1A54000E1B5404E2090E1C6F1A0E9C
:100BB0001D6F0E01FE8D1CCCECFE1DCCEDFE120057
:100BC000D9CE00FCEECE02FCEFCE03FC0C010051AE
:100BD0000E01D95DF5E1ECCE00FCEDCE01FC0C017F
:100BE0000251005D0351015920E2090E186E1A0EE0
:100BF000196E1A6A1B6A0051025D1C6E0351015581
:100C00001D6E1E6A1F6A1C50185C146E1D50195808
:100C1000156E1E501A58166E1F501B58176E14C0B2
:100C2000F3FF15C0F4FF1BD01AD00051021902E1E6
:100C30000151031906E1090EF36E1A0EF46E0FD07E
:100C40000ED00251005D146E01510355156E14064D
:100C5000000E155A14C0F3FF15C0F4FF00D01200A7
:100C60000E01D95102E1000E87D00E0138830E012A
:100C700038B103D06FDF000E7FD034CE36FE35CED4
:100C800037FE36CE7AFF37CE7BFF140E0E01586F3B
:100C9000596B0E01000E566F0C0E576F9EDA12CC78
:100CA0001AFE13CC1BFEEFEC03F0F3CF12FCF4CFD3
:100CB00013FC00CC14F001CC15F0166A176AD8802A
:100CC000090E14541A0E1554000E1654000E175423
:100CD0001BE30C010C010051010B16E10C010C018E
:100CE0000551800B11E10C010C010451100B0CE1BA
:100CF0000C01EE0ED8800255050E035505E30C01DC
:100D00000C010451800B01E1FF0000CC34FE01CC4A
:100D100035FE060EE66EE66A0C0EE66E0C0EE66E0C
:100D20003BCEE9FF3CCEEAFFE9CF14F0EACF15F065
:100D300014C0E6FF15C0E6FFD8EC12F0166E060EE2
:100D4000E15E16503DCEE9FF3ECEEAFFEF68080EA9
:100D50000C01135D0DE10C01125104E0060E0C01B3
:100D6000125D06E13DCEE9FF3ECEEAFF12CCEFFF79
:100D70000E013891010E00D012000E010B0EE26F31
:100D80001A0EE36F180E0E0142271A0E432342CEAD
:100D9000E6FE43CEE7FE060E0E015D6F5E6B3FCEB4
:100DA0005BFE40CE5CFE51DA060E0E015D6F5E6B9F
:100DB0000E012D0E5B6F0F0E5C6F47DA0E01080EF1
:100DC0005A6F3EDA0E01415102E1000E01D0060ECB
:100DD0000E015A6F20EF09F0D28ED29E0C01080E40
:100DE0001C6F1C511C07000901E0FBD76092D286E2
:100DF000C4EC10F006C039FE07C03AFE1200140E13
:100E00000E01156A3625146E3751152214504425EB
:100E10000C01006F15500E0145210C01016F00CC33
:100E200014F001CC15F0166A176AD880090E145414
:100E30001A0E1554000E1654000E175404E20A0E32
:100E4000005F1A0E015B00CC7AFF01CC7BFF120021
:100E5000E2CE1CFCE3CE1DFC46CEE2FE47CEE3FE16
:100E60001CCCF3FF1DCCF4FF00D012007ACF00FCA5
:100E70007BCF01FC48CE7AFF49CE7BFF00CCF3FF4D
:100E800001CCF4FF00D01200140E0E01156A3625B5
:100E9000146E3751152214504A250C013C6F155021
:100EA0000E014B210C013D6F3CCC14F03DCC15F0F4
:100EB000166A176AD880090E14541A0E1554000EBB
:100EC0001654000E175404E20A0E3C5F1A0E3D5BE6
:100ED0007ACF3EFC7BCF3FFC3CCC7AFF3DCC7BFF06
:100EE0004CCE4EFE4DCE4FFE0ED8F3CF3CFCF4CF91
:100EF0003DFC3ECC7AFF3FCC7BFF3CCCF3FF3DCCAE
:100F0000F4FF00D012000C01026B036B046B056B45
:100F10007ACF00FC7BCF01FC0E014E514F1152E005
:100F2000140ED8804E55000E4F5505E20C01140EDC
:100F3000066F076B04D04ECE06FC4FCE07FC06CCE6
:100F400058FE07CC59FE0E01080E566F0C0E576F57
:100F500044D90C0106510E014E5F0C0107510E01E0
:100F60004F5B0C0106A10AD0080E0625E96E0C0E97
:100F70000721EA6EEF6A062B000E0723080E1C6F8E
:100F80000C0E1D6F065107111CE01CCCE9FF1DCC97
:100F9000EAFF020E1C27000E1D23EECF14F0EFCF48
:100FA00015F0000114500C010227000115500C012E
:100FB0000323000E04230523020E065F000E075BC9
:100FC000E1D7AAD700CC7AFF01CC7BFF02CC14F08A
:100FD00003CC15F0166A176A04CC18F005CC19F08A
:100FE0001A6A1B6A145018240C01026F155019203C
:100FF000036F16501A20046F17501B20056F045101
:1010000002270551032302CC14F003CC15F0141E63
:10101000151E14C0F3FF15C0F4FF00D012000C0120
:10102000046B056B0E01501D01E1511D07E10C0120
:10103000010E046FE2CE50FEE3CE51FE0E01521DB2
:1010400001E1531D07E10C01010E056F7ACF52FE3D
:101050007BCF53FE0E01010ED8805455000E55551E
:101060002EE37ACF00FC7BCF01FCE2CE02FCE3CE84
:1010700003FC52CE7AFF53CE7BFF50CEE2FE51CE20
:10108000E3FE0E0154CE14F055CE15F05407000EB9
:10109000555B1450151005E09DD80E015A6FD0D83D
:1010A000F0D70C01055104E100CC7AFF01CC7BFFA5
:1010B000045104E102CCE2FE03CCE3FE83D00C0138
:1010C00004510EE00E01505154250C01026F0E0127
:1010D000515155210C01036F02CCE2FE03CCE3FE1B
:1010E00052CE14F053CE15F01406000E155A1450BB
:1010F0000E01542715505523D2BAFED752CEF0FE1A
:1011000053CEF1FE50CEF4FE51CEF5FE52CE14F089
:1011100053CE15F0166A176AD880090E14541A0EA9
:101120001554000E1654000E175415E354CE18F043
:1011300055CE19F01A6A1B6AD880090E18541A0E77
:101140001954000E1A54000E1B5405E20A0E0E012B
:10115000545F1A0E555B54CEF2FE55CEF3FED29874
:10116000D28AD2BAFED70C0105512CE00E01542BC5
:10117000000E552352CE14F053CE15F0166A176A9E
:10118000D880090E14541A0E1554000E1654000E71
:10119000175414E354CE18F055CE19F01A6A1B6A8E
:1011A000D880090E18541A0E1954000E1A54000E45
:1011B0001B5404E20A0E545F1A0E555B54CE7AFF9C
:1011C00055CE7BFF1200D250200B200A01E0010E09
:1011D00000D01200615000D0120058CE40FC59CE11
:1011E00041FC0E015651571117E00C0140CC14F090
:1011F00041CC15F04007000E415B145015100BE078
:101200000E0156CEE9FF57CEEAFF562B000E5723AC
:1012100061CFEFFFEAD70ED00C0140CC14F041CCE7
:1012200015F04007000E415B1450151003E061CF2C
:1012300042FCF2D758CEF3FF59CEF4FF00D0120093
:101240005ACEF3FF5ACE61FF12000E015DCE14F0AC
:101250005ECE15F05D07000E5E5B145015100DE0BC
:101260000E015BCEE9FF5CCEEAFF5B2B000E5C2338
:10127000EF50F36EF3CF61FFE8D712000E0162CE9C
:1012800014F063CE15F06207000E635B1450151066
:1012900012E00E015FCEF6FF5F2B60CEF7FF000E6F
:1012A000602361CEF8FF000E61230800F550F36E55
:1012B000F3CF61FFE3D7120064CEB4FE00000E014D
:1012C000010EB26F00000E018AB1FDD70E01B26BA4
:1012D0000000B8CE00FC0000B9CE01FC00CCF3FF4A
:1012E00001CCF4FF00D0120065CEB4FE66CEF3FF51
:1012F00067CEF4FFC00EF2140C01006F3F0EF21621
:10130000F3CFB6FE0000F4CFB7FE0C010051F2128D
:101310000E018AB1FDD71200D2940E01FDB5FDD7A2
:10132000D2B6FED70E01FE9B12000E01FE8BFDB160
:0813300002D0D284FCD71200A8
:081338008DEC05F0000901E154
:10134000FBD70E010B0E466F1A0E476F28EC07F005
:101350004BCFE9FF4CCFEAFF010EEE6EED6A4BCFAB
:10136000E9FF4CCFEAFF020EE926000EEA22EE6A00
:10137000080EED6E4BCFE9FF4CCFEAFF040EE926D5
:10138000000EEA22060EEF6E4BCFE9FF4CCFEAFFCC
:10139000050EE926000EEA22040EEF6E060EE66E3A
:1013A000E66A2D0EE66E0F0EE66E4BCFE9FF4CCFD0
:1013B000EAFF080EE926000EEA22E9CF14F0EACF90
:1013C00015F014C0E6FF15C0E6FFD8EC12F0166E5B
:1013D000060EE15E16504BCFE9FF4CCFEAFF0E0E32
:1013E000E926000EEA2200CFEEFF01CFEEFF02CF8A
:1013F000EEFF03CFEEFF4BCF5DFF4CCF5EFF70D90A
:101400001C0E0E01426F436B0E01060E416F4BCF57
:10141000E9FF4CCFEAFF120EE926000EEA22E9CFDF
:101420003FFEEACF40FEBDEC06F01C0E0E015D6FE4
:101430005E6B4BCF5BFE4CCF5CFE25EC09F0ECEC19
:1014400006F0010E00D012000F0145694669476998
:10145000486949694A69416B426B436B446B1200AE
:101460000001F951010A01E179D0010A01E09BD0A4
:101470001C0E0E01586F596B0E01000E566F0C0EAC
:10148000576FEDEC08F0AAEC05F00F01000E5D6F50
:101490000C0E5E6F25D90C01010E001901E10151FE
:1014A00010E10451146E156A060E141801E115506E
:1014B00008E10551166E176A040E161801E117505F
:1014C00002E0010E72D0020E061901E1075116E189
:1014D00008CC45FF09CC46FF0ACC47FF0BCC48FFA0
:1014E0000CCC49FF0DCC4AFF0ECC41FF0FCC42FF84
:1014F00010CC43FF11CC44FF010E57D0010E06194A
:1015000001E107512BE1180EE96E0C0EEA6EEE5068
:101510000F01001909E1EE50011906E1EE50021920
:1015200003E1EE50031900E102E0010E3ED00ECCC3
:101530004DFF0FCC4EFF10CC4FFF11CC50FF08CC0D
:1015400051FF09CC52FF0ACC53FF0BCC54FF0CCCFB
:1015500055FF0DCC56FF0001010EF96F020E0C0174
:10156000066F076B51CF12FC52CF13FC53CF14FC04
:1015700054CF15FC55CF16FC56CF17FC4DCF18FC99
:101580004ECF19FC4FCF1AFC50CF1BFC0F01000EA1
:101590004B6F0C0E4C6FD0DE000902E1000E05D03F
:1015A0000001F96B00D0010E00D01200010E0C01F9
:1015B000066F076B12691369146915691669176953
:1015C00057CFE9FF58CFEAFF0F010051EE18146E14
:1015D0000151EE18156E0251EE18166E0351EE18F9
:1015E000176E04511416055115160651161607519B
:1015F0001716145015101610171009E008CF18FC14
:1016000009CF19FC0ACF1AFC0BCF1BFC0CD057CF0B
:10161000E9FF58CFEAFFEECF18FCEECF19FCEECF72
:101620001AFCEFCF1BFC0F01000E4B6F0C0E4C6F22
:101630009CEF09F059CFE9FF5ACFEAFF0F01415162
:10164000EE1809E14251EE1806E14351EE1803E1AC
:101650004451EE1800E12FE0410EE96E0F0EEA6EE4
:10166000EE500F01081909E1EE50091906E1EE509C
:101670000A1903E1EE500B1900E12FE159CFE9FF00
:101680005ACFEAFF0051EE18146E0151EE18156E94
:101690000251EE18166E0351EE18176E045114160F
:1016A0000551151606511616075117161450151028
:1016B0001610171012E05BCFE9FF5CCFEAFF45CFB1
:1016C000EEFF46CFEEFF47CFEEFF48CFEEFF49CF0C
:1016D000EEFF4ACFEEFF010E02D0000E00D0120046
:1016E0005DCFE9FF5ECFEAFFEECF1AFEEDCF1BFE26
:1016F000EFEC03F0F3CF14F0F4CF15F05DCFE9FF7A
:101700005ECFEAFF14C0EEFF15C0EDFF5DCFE9FF2D
:101710005ECFEAFF020EE926000EEA22EECF1AFEA5
:10172000EDCF1BFEEFEC03F0F3CF14F0F4CF15F088
:101730005DCFE9FF5ECFEAFF020E14C0EBFF030EA0
:1017400015C0EBFF5DCFE9FF5ECFEAFF060EE9268D
:10175000000EEA22EECF1AFEEDCF1BFEEFEC03F0F7
:10176000F3CF14F0F4CF15F05DCFE9FF5ECFEAFFC1
:0E177000060E14C0EBFF070E15C0EBFF1200B3
:02177E00D8CFC2
:10178000E4FFE0CFE4FFE46EDACFE4FFE2CFDAFF7C
:10179000E9CFE4FFEACFE4FFF6CFE4FFF7CFE4FFC1
:1017A000F8CFE4FFF5CFE4FFF3CFE4FFF4CFE4FF9D
:1017B000FACFE4FFFBCFE4FF00EE00F0140EE804E4
:1017C00003E3EECFE4FFFBD700EE14F00C0EE804C9
:1017D00003E3EECFE4FFFBD7E6520CEC11F0E55249
:1017E00000EE1FF00C0EE80403E3E5CFEDFFFBD79E
:1017F00000EE13F0140EE80403E3E5CFEDFFFBD792
:10180000E5CFFBFFE5CFFAFFE5CFF4FFE5CFF3FF30
:10181000E5CFF5FFE5CFF8FFE5CFF7FFE5CFF6FF22
:10182000E5CFEAFFE5CFE9FFE5CFDAFFE550E5CF09
:10183000E0FFE5CFD8FF1000D8CFE4FFE0CFE4FF12
:10184000E46EDACFE4FFE2CFDAFFE652E552E5CF0D
:10185000DAFFE550E5CFE0FFE5CFD8FF10000C013F
:10186000006B400E9B6E020ED36E92909292899006
:101870008992E80E016F030E026F0C0101CC14F087
:1018800002CC15F00107000E025B1450151006E0A3
:101890000B0EE66E18EC14F0E552EFD78980E80ED7
:1018A000036F030E046F0C0103CC14F004CC15F08D
:1018B0000307000E045B1450151006E00B0EE66ED5
:1018C00018EC14F0E552EFD78982948694888F98AB
:1018D0008B8A949A9898A9EC10F00C01E80E056F89
:1018E000030E066F0C0105CC14F006CC15F00507AD
:1018F000000E065B1450151006E00B0EE66E18EC99
:1019000014F0E552EFD789908992E80E076F030E25
:10191000086F0C0107CC14F008CC15F00707000E77
:10192000085B1450151006E00B0EE66E18EC14F070
:10193000E552EFD7C69E0001800EF36F0001080E3E
:10194000F26F44EC14F0C580C5B0FED7010E0C0157
:10195000096F0A6B0C0109CC14F00ACC15F00907C9
:10196000000E0A5B1450151006E00B0EE66E18EC24
:1019700014F0E552EFD70E01780E7F6F18EC13F0DC
:10198000000901E189800E01010E7F6F18EC13F050
:10199000000901E18982C584C5B4FED70001AB2BE3
:1019A000000EAC23AD23AE23200EAB5D4E0EAC5922
:1019B000000EAD59000EAE5916E3AB6BAC6BAD6BC0
:1019C000AE6BAF2B000EB023B123B223FF0EAF5D81
:1019D000000EB059000EB159000EB25904E3AF6BBE
:1019E000B06BB16BB26BDAD712000C010A6B0A5103
:1019F000146E156A040E145C000E15581EE20E01DA
:101A0000060E0F6F0C0E106F0C010A51EA6A3D0FA3
:101A1000E96E0F0EEA22EF500E010D6F0E6BFBEC1C
:101A200002F00C010A51146E156A030E141801E13C
:101A3000155001E102D00A2BDAD71200C282C2B2DD
:101A4000FED7C0CF06FC070EC01206CCC0FF0E01A9
:101A5000350E0F6F0F0E106FC3CF0DFEC4CF0EFEED
:041A6000FBEF02F0A6
:0C1A6400140E0E01586F596B0E01200E7D
:101A7000566F0C0E576FEDEC08F0F00E0C012015B0
:101A8000400802E0000E67D01F0E2615146EFF0EF0
:101A90002715156E1450151002E0000E5CD00F0EC5
:101AA0002015040DF3CF68FE0E0168510E014C6F36
:101AB0004D6B0E014A6B4B6B44EC07F0F3CF1EFCF1
:101AC000F4CF1FFC0E0168510E01446F456BFFEC13
:101AD00006F00C011E511F1102E0000E3CD00E0159
:101AE000200E786F0C0E796FB7D80E0169516A110C
:101AF0000CE069CEE9FF6ACEEAFF30CCEEFF31CCD4
:101B0000EEFF32CCEEFF33CCEEFF6BCEE9FF6CCEB6
:101B1000EAFF2CCCEEFF2DCCEEFF2ECCEEFF2FCC2F
:101B2000EEFF6DCEE9FF6ECEEAFF29CCEFFF6851E4
:101B3000166E176A0C011650225D146E1750235949
:101B4000156E6FCEE9FF70CEEAFF14C0EEFF15C030
:101B5000EDFF010E00D012000E01140E686F0C0193
:101B6000450E006F016B140E0E0174250C01026FFF
:101B7000000E0E0175210C01036F0001F62B000E03
:101B8000F723F6C004FCF7C005FC0C01066B076BDD
:101B9000640E086F73CE09FC0A6B0B6B00CF0CFC54
:101BA00001CF0DFC02CF0EFC03CF0FFC71CEE9FF7D
:101BB00072CEEAFFEECF10FCEECF11FCEECF12FC9E
:101BC000EFCF13FC0E01000E786F0C0E796F44D826
:101BD000140E0E01226F236B0E01000E206F0C0EEF
:101BE000216F16EC04F0F3CF0AFCF4CF0BFC140EBB
:101BF0000E0174250E01426F000E0E0175210E01BB
:101C0000436F0E01416B71CEE9FF72CEEAFF040E05
:101C1000E926000EEA22E9CF3FFEEACF40FEBDEC06
:101C200006F0140E0E015D6F5E6B0E01000E5B6F11
:101C30000C0E5C6F25EC09F0F36AF46A00D0120018
:101C40000E01685176250E01446F000E0E017721BA
:101C50000E01456FFFEF06F078CEE9FF79CEEAFF7F
:101C6000020EE926000EEA22EECF1AFEEDCF1BFE91
:101C7000EFEC03F0F3CF14F0F4CF15F078CEE9FFDA
:101C800079CEEAFF020E14C0EBFF030E15C0EBFF86
:101C900078CEE9FF79CEEAFF040EE926000EEA22AB
:101CA000EECF1AFEEDCF1BFEEFEC03F0F3CF14F0F6
:101CB000F4CF15F078CEE9FF79CEEAFF040E14C018
:101CC000EBFF050E15C0EBFF78CEE9FF79CEEAFFFA
:101CD0000A0EE926000EEA22EECF1AFEEDCF1BFE19
:101CE000EFEC03F0F3CF14F0F4CF15F078CEE9FF6A
:101CF00079CEEAFF0A0E14C0EBFF0B0E15C0EBFF06
:021D00001200CF
:0E1D0200C580C5B0FED70E01780E7F6F18ECBD
:101D100013F0000903E0F36AF46A0DD0D6C07FFE29
:101D200018EC13F0000903E0F36AF46A04D0010E22
:101D3000F36EF46A00D012000001D8C0E9FFD9C0E8
:101D4000EAFF020ED827000ED923EFCF7FFE18EC52
:101D500013F0000903E0F36AF46A0BD00001DA071C
:101D6000000EDB5BDA51DB11E7E1010EF36EF46A82
:101D700000D012000001D66BD76BC3DF060E000146
:101D8000DA6FDB6B00018E0ED86F000ED96FD4DFD7
:101D9000C584C5B4FED712008B9A0C01F40E026FF5
:101DA000010E036F0C0102CC14F003CC15F00207F6
:101DB000000E035B1450151006E00B0EE66E18ECD7
:101DC00014F0E552EFD78B8AF40E046F010E056F05
:101DD0000C0104CC14F005CC15F00407000E055BD3
:101DE0001450151006E00B0EE66E18EC14F0E552D8
:101DF000EFD78B9A010E066F076B0C0106CC14F01F
:101E000007CC15F00607000E075B1450151006E00E
:101E10000B0EE66E18EC14F0E552EFD78B8A030E2A
:101E2000086F096B0C0108CC14F009CC15F00807F9
:101E3000000E095B1450151006E00B0EE66E18EC50
:101E400014F0E552EFD70001D66BD76B5ADFF3CF12
:101E500014F0F4CF15F0010E141801E1155014E13F
:101E60002E0E0001DA6FDB6B0001600ED86F000EE2
:101E7000D96F62DFF3CF14F0F4CF15F0010E141810
:101E800001E1155001E18980C584C5B4FED7400E3B
:101E90000001D66FD76B35DFF3CF14F0F4CF15F018
:101EA000010E141801E1155023E189820E011F0E65
:101EB0007F6F18EC13F00E01050E7F6F18EC13F016
:101EC0000E01070E7F6F18EC13F00E017F6B18ECFC
:101ED00013F00E011F0E7F6F18EC13F00E01040EAD
:101EE0007F6F18EC13F00E011F0E7F6F18EC13F0CC
:101EF000C584C5B4FED712000001D66BD76B01DFD5
:101F0000F3CF14F0F4CF15F01450151031E00E019A
:101F1000010E7F6F18EC13F00E010D0E7F6F18ECA1
:101F200013F00001800ED880DC55000EDD550BE269
:101F30000E01070E7F6F18EC13F0800E0001DC5FBE
:101F4000000EDD5B05D00E01050E7F6F18EC13F05F
:101F5000DCC014F0DDC015F0D89015321432800EBC
:101F600014100E017F6F18EC13F0C584C5B4FED7B2
:021F700012005D
:0E1F7200C750040B01E0010E146E1F0EC514C3
:101F8000141001E0F6D7C580C5B0FED7C5B0FED7A6
:101F9000A1A604D0F368F4686BD062D0F4C07FFED1
:101FA00018EC13F0000907E0C584C5B4FED7FD0E98
:101FB000F36EF4685DD0C5BC4CD0F5C07FFE18EC64
:101FC00013F0000907E0C584C5B4FED7FD0EF36E1B
:101FD000F4684ED0C5BC36D0C582C5B2FED7C5B2F6
:101FE000FED7A1A603D0F368F46842D00001F4291B
:101FF0000E017F6F18EC13F0000907E0C584C5B42B
:10200000FED7FD0EF36EF46833D0C5BC14D0C58680
:10201000C5B6FED7C58AC588C5B8FED7C5B8FED730
:10202000C584C5B4FED7C5B4FED7A1A603D0F36856
:10203000F4681ED015D0C584C5B4FED7FE0EF36E6D
:10204000F46816D0C584C5B4FED7FE0EF36EF468EE
:102050000FD0C584C5B4FED7FE0EF36EF46808D069
:10206000C950146E156A14C0F3FF15C0F4FF00D0F8
:0220700012005C
:0E207200C750040B01E0010E146E1F0EC514C2
:10208000141001E0F6D7C580C5B0FED7C5B0FED7A5
:10209000A1A603D0FF0E5CD059D07ACE7FFE18ECFB
:1020A00013F0000905E0C584C5B4FED7FD0E50D07D
:1020B000C5BC47D07BCE7FFE18EC13F0000905E0CD
:1020C000C584C5B4FED7FD0E43D0C5BC35D0C5828E
:1020D000C5B2FED7C5B2FED70E017A290E017F6FB9
:1020E00018EC13F0000905E0C584C5B4FED7FD0E59
:1020F0002FD0C5BC1CD07ECEECF07CCEEAF07DCEDD
:10210000EBF082EC13F0000902E0FF0E21D0C58A4B
:10211000C588C5B8FED7C5B8FED7C584C5B4FED737
:10212000C5B4FED7A1A602D0FF0E12D00FD0C58431
:10213000C5B4FED7FE0E0CD0C584C5B4FED7FE0EC6
:1021400007D0C584C5B4FED7FE0E02D0000E00D065
:0221500012007B
:0E215200D76AD66AF194F294F28A870ED56E9F
:102160001200F28A0000F29AD6CFCCF0D7CFCDF091
:10217000E2C0CEF0E3C0CFF0E4C0D0F0E5C0D1F0D3
:10218000F2B4EFD7F28A1200ECDFCCC006F0CDC07B
:1021900007F0CEC008F0CFC009F000D01200E1DF98
:1021A000CDC000FCCEC001FCCFC002FCD0C003FCFF
:1021B00000CC06F001CC07F002CC08F003CC09F00B
:1021C00000D01200CEDFCEC000FCCFC001FCD0C0DA
:1021D00002FCD1C003FC00CC06F001CC07F002CC1D
:1021E00008F003CC09F000D01200D2C006F0D3C032
:1021F00007F0D4C008F0D5C009F0140E0626000E72
:10220000072208220922280E0B6E0C6A0D6A0E6A3C
:10221000AEEC13F000D01200F2A407D00001E22BC4
:0C222000000EE323E423E523F2941200F7
:04222C00C750040B88
:1022300001E0010E146E1F0EC514141001E0F6D754
:10224000C580C5B0FED7C5B0FED7A1A603D0FF0E8E
:102250003ED032D0DEC07FFE18EC13F0000905E05E
:10226000C584C5B4FED7FD0E32D0C5BC20D0DFC0BA
:102270007FFE18EC13F0000905E0C584C5B4FED755
:10228000FD0E25D0C5BC0ED0E0C0F0F0E1C0F1F0ED
:1022900051EC13F0000905E0C584C5B4FED7FC0E6F
:1022A00016D00AD0C584C5B4FED7FE0E10D0C584A2
:1022B000C5B4FED7FE0E0BD0C584C5B4FED7C5B4D9
:1022C000FED7A1A602D0FF0E02D0000E00D0120051
:1022D000C750040B01E0010E146E1F0EC51414103C
:1022E00001E0F6D7C580C5B0FED7C5B0FED7A1A620
:1022F00003D0FF0E3CD030D0EDC07FFE18EC13F0C1
:10230000000905E0C584C5B4FED7FD0E30D0C5BCBC
:102310001ED0EEC07FFE18EC13F0000905E0C58466
:10232000C5B4FED7FD0E23D0C5BC0CD0EFC07FFED8
:1023300018EC13F0000905E0C584C5B4FED7FD0E06
:1023400016D00AD0C584C5B4FED7FE0E10D0C58401
:10235000C5B4FED7FE0E0BD0C584C5B4FED7C5B438
:10236000FED7A1A602D0FF0E02D0000E00D01200B0
:102370001E0EF66E000EF76E000EF86E00010900DC
:10238000F550C76F0900F550C86F03E1C76701D06A
:102390003DD00900F550C26F0900F550C36F090028
:1023A000F550C46F09000900F550E96E0900F550B9
:1023B000EA6E090009000900F550C56F0900F550E3
:1023C000C66F09000900F6CFC9F0F7CFCAF0F8CF01
:1023D000CBF0C2C0F6FFC3C0F7FFC4C0F8FF0001D6
:1023E000C55302E1C65307E00900F550EE6EC5077C
:1023F000F8E2C607F9D7C9C0F6FFCAC0F7FFCBC0DD
:0E240000F8FF0001C707000EC85BBFD712002F
:02240E00C750B5
:10241000040B01E0010E146E1F0EC514141001E030
:10242000F6D7C580C5B0FED7C5B0FED7A1A604D0EB
:10243000F368F46833D02AD05FCF7FFE18EC13F036
:10244000000907E0C584C5B4FED7FD0EF36EF4683D
:1024500025D0C5BC14D0C586C5B6FED7C58AC588EB
:10246000C5B8FED7C5B8FED7C584C5B4FED7C5B4B8
:10247000FED7A1A603D0F368F46810D007D0C584B6
:10248000C5B4FED7FE0EF36EF46808D0C950146EC2
:0E249000156A14C0F3FF15C0F4FF00D012004F
:02249E0000013B
:1024A000B76BA5EC00F006C000FE07C001FE08C037
:1024B00002FE09C003FE34EC00F006EC05F024EF48
:1024C0000AF00E013A0E3D6F0C0E3E6F0E01BC0E6F
:1024D0003B6F000E3C6F30EC06F0000901E124D0A8
:1024E0000C013A5106E0060A01E01DD030EC0AF07A
:1024F0001AD00E01340E6F6F0C0E706F0E013B0E72
:102500006D6F0C0E6E6F0E01B80E6B6F000E6C6F60
:102510000E01360E696F0C0E6A6F32EC0DF0000979
:0C25200001E101D000D0CDD71200120064
:04252C00C750040B85
:1025300001E0010E146E1F0EC514141001E0F6D751
:10254000C580C5B0FED7C5B0FED7A1A603D0FF0E8B
:102550002ED022D0F8C07FFE18EC13F0FF0805E162
:10256000C584C5B4FED7FD0E22D0C5AC15D0C5823A
:10257000C5B2FED7C5B2FED7A1A602D0FF0E17D0B6
:10258000F8C07FFE18EC13F0FF0805E1C584C5B460
:10259000FED7FD0E0CD0E9D7C584C5B4FED7C5B4AF
:1025A000FED7A1A602D0FF0E02D0000E00D012006E
:1025B000D9CFE6FFDACFE6FFFA0EE3CFD9FFFB0E65
:1025C000E3CFDAFFFC0EE3CFE9FFFD0EE3CFEAFF36
:1025D000E9CFF3FFEACFF4FFF80EE35003E1F90E81
:1025E000E35008E0F80EE30602E2F90EE306DECF60
:1025F000EEFFF2D7FF0EE3CFDAFFE552FF0EE3CF97
:10260000D9FFE5521200FE0EE3CFE9FFFF0EE3CF44
:10261000EAFFE9CFF3FFEACFF4FF610EEF5C05E6D6
:102620007B0EEF5C02E7DF0EEF16EE52F6E11200D2
:102630007FCEC9FFC6AE03D0010E32D031D00F0E0F
:10264000C614080812E00F0EC6140B080EE0C68868
:102650009EA6FED7C750040B06E1C750010B03E14D
:10266000020E1ED01DD0000E1BD00F0EC61408087F
:1026700004E00F0EC6140B0813E1C7B0FED7C75015
:10268000040B01E0010E146E1F0EC514141001E0BE
:10269000F6D7C5AC03D0020E03D002D0000E00D096
:0226A000120026
:0E26A200F0C0E9FFF1C0EAFFEF5028E0C6A645
:1026B0000FD0F0C0E9FFF1C0EAFFEFCF7FFE18ECCA
:1026C00013F00C01006F005102E000511AD012D03B
:1026D0009E96F0C0E9FFF1C0EAFFEF50C96EC688D0
:1026E0009EA6FED7C750040B05E1C750010B02E1BF
:1026F000FE0E07D00001F02B000EF123D2D7000E02
:0427000000D01200F3
:0C2704000001EC51EC07000924E036EC69
:1027100014F0E66E0001EAC0E9FFEBC0EAFFEA2B25
:10272000000EEB23E552E750EF6EC5B6FED7A1A62B
:1027300002D0FF0E12D00F0EC614080804E00F0ED0
:10274000C6140B0807E10001EC5104E0C59AC588E6
:0C275000C5B8FED7D7D7000E00D012008D
:04275C00056A046A9C
:10276000036A026A200EE76ED890063607360836EE
:10277000093602360336043605360B50025C0C501F
:1027800003580D5004580E50055809E30B50025ED3
:102790000C50035A0D50045A0E50055A062AE72EC3
:0427A000E4D7120068
:0C27A40008C012F008500D02F4CF07F03E
:1027B000F3CF06F009500E02F4CF09F0F3CF08F082
:1027C0000D02F3500726F4500822E86A092212503D
:1027D0000E02F3500726F4500822E86A0922000C82
:1027E000056A046A100EE76ED8900836093604367A
:1027F00005360D50045C0E50055805E30D50045E7F
:0C2800000E50055A082AE72EF0D71200EF
:04280C000200C800FE
:1028100096000500C80001000800C800C8000800B4
:10282000C800C8000900C800C8000A001900140048
:10283000FF0EE350206E480E01D04C0EE76EE72EDF
:10284000FED7E76AE72EFED7202EF7D7000012004A
:102850001DEE00F02DEE00F0F86A019CB8EC11F0CE
:0C28600003EC00F02FEC0CF0FBD7120092
:04286C000F0EC61471
:10287000080804E00F0EC6140B0801E1C586C7A0C6
:08288000FED7C95000D0120080
:082888003F0EC716C66AC56ABF
:102890000001F251C612F351C71294869488C68A79
:0228A000120024
:0E28A200C750040B01E0010E146E1F0EC5148A
:0A28B000141002E0F6D7F5D712006D
:0628BA00C7A003D0010ECF
:0A28C00003D002D0000E00D0120079
:0628CA0000EE00F00E0E0E
:0828D000EE6AEA62FDD7120076
:0628D800C59AC58812003C
:0228DE00C584AF
:0228E0001200E4
:0428E200C582120099
:0428E600C69A12007C
:0628EA0001000E001200C7
:1028F000840005000E00240001000D000500090001
:102900001700B30001000B0004000800580001008C
:0E291000100020004000800001004000800008
:02291E000000B7
:022920000000B5
:0E292200010E1284050E24010D050917B301E4
:102930000B04085801102040800000000000000037
:05294000000000000092
:02294500000090
:042947009E9FFE4110
:01294B00008B
:020000040001F9
:01FFF800A068
:01FFFA00C541
:01FFFD00F70C
:00000001FF
