:020000040000FA
:06000000D8EF0AF0120027
:020006001200E6
:06000800B6EF06F0120045
:02000E000000F0
:020010000000EE
:0600180059EF06F0120092
:02001E000200DE
:10002000EF150000520F00000C0000000E00000051
:08003000280E0000040000008E
:08003800D9CFE6FFE1CFD9FFAB
:10004000E652DF6ADF50146E156AD890155004E648
:10005000000E145C010E155828E2DF50EA6A000F0A
:10006000E96E080EEA22EF6ADF50EA6A000FE96ED5
:10007000090EEA22EF6ADF50EA6A000FE96E0A0E03
:10008000EA22EF6ADF50EA6A000FE96E0B0EEA22FD
:10009000EF6A280EDF5C07E2DF50EA6A000FE96EC4
:1000A0000C0EEA22EF6ADF2ACDD7E552E552E7CF00
:1000B000D9FF1200D9CFE6FFE1CFD9FFE66AE66AA1
:1000C000FE0EDBCFE6FF2BEC06F0E552E552E552E3
:1000D000800EE66E000EE66E080EE66EFE0EDBCFBC
:1000E000E6FF85EC04F0E552E552E552E552800E5C
:1000F000E66E800EE66E080EE66EFE0EDBCFE6FFC5
:1001000085EC04F0E552E552E552E552800EE66ECC
:10011000000EE66E090EE66EFE0EDBCFE6FF85EC06
:1001200004F0E552E552E552E552800EE66E800E8F
:10013000E66E090EE66EFE0EDBCFE6FF85EC04F000
:10014000E552E552E552E552800EE66E000EE66E8F
:100150000A0EE66EFE0EDBCFE6FF85EC04F0E552FC
:10016000E552E552E552800EE66E800EE66E0A0E0E
:10017000E66EFE0EDBCFE6FF85EC04F0E552E552BD
:10018000E552E552800EE66E000EE66E0B0EE66E50
:10019000FE0EDBCFE6FF85EC04F0E552E552E552BA
:1001A000E552800EE66E800EE66E0B0EE66EFE0EDB
:1001B000DBCFE6FF85EC04F0E552E552E552E5526F
:1001C000280EE66E000EE66E0C0EE66EFE0EDBCF1F
:1001D000E6FF85EC04F0E552E552E552E552E552C2
:1001E000E7CFD9FF1200D9CFE6FFE1CFD9FF080E44
:1001F000E126060EDB6AFB0EDB1CE76E070EE7CF7F
:10020000DBFFFB0EDB5001E14ED1FE0EDB50070899
:1002100001E249D1FD0EDB50146E156A153404E27B
:1002200014508408000E155401E23DD1FE0EDB503F
:10023000DE6EDD6AFD0EDB50166E176A850E086EE7
:10024000096ADECF0DF0DDCF0EF079EC0AF0065032
:100250001624146E07501720156E14C0DEFF15C04B
:10026000DDFFDECF14F0DDCF15F015C014F0156AF8
:10027000020E14C0DBFF030E15C0DBFFDECF14F04F
:10028000DDCF15F0FF0E1416000E1516040E14C067
:10029000DBFF050E15C0DBFF020EDBCF08F0030EFF
:1002A000DBCF09F0040E081801E1095001E1CDD0BF
:1002B000030E081801E1095001E199D0020E081857
:1002C00001E1095066E0010E081801E1095033E030
:1002D000085001E1095001E0E6D0070EDBCFE6FF50
:1002E000040EDBCFE9FF050EDBCFEAFF000EE926A7
:1002F000080EEA22EF50E552E714E76E060EE7CF4C
:10030000DBFFDBCFE6FFFB0EDBCFE6FFFC0EDB50B7
:10031000E552E714E552E710E66E040EDBCFE9FF85
:10032000050EDBCFEAFF000EE926080EEA22E552B1
:10033000E750EF6EB8D0070EDBCFE6FF040EDBCF41
:10034000E9FF050EDBCFEAFF000EE926090EEA22DF
:10035000EF50E552E714E76E060EE7CFDBFFDBCF89
:10036000E6FFFB0EDBCFE6FFFC0EDB50E552E714A9
:10037000E552E710E66E040EDBCFE9FF050EDBCF9A
:10038000EAFF000EE926090EEA22E552E750EF6E79
:100390008AD0070EDBCFE6FF040EDBCFE9FF050EA8
:1003A000DBCFEAFF000EE9260A0EEA22EF50E55203
:1003B000E714E76E060EE7CFDBFFDBCFE6FFFB0EB1
:1003C000DBCFE6FFFC0EDB50E552E714E552E71009
:1003D000E66E040EDBCFE9FF050EDBCFEAFF000E71
:1003E000E9260A0EEA22E552E750EF6E5CD0070ECE
:1003F000DBCFE6FF040EDBCFE9FF050EDBCFEAFF24
:10040000000EE9260B0EEA22EF50E552E714E76EE4
:10041000060EE7CFDBFFDBCFE6FFFB0EDBCFE6FF11
:10042000FC0EDB50E552E714E552E710E66E040ED1
:10043000DBCFE9FF050EDBCFEAFF000EE9260B0E4E
:10044000EA22E552E750EF6E2ED0070EDBCFE6FF33
:10045000040EDBCFE9FF050EDBCFEAFF000EE92635
:100460000C0EEA22EF50E552E714E76E060EE7CFD6
:10047000DBFFDBCFE6FFFB0EDBCFE6FFFC0EDB5046
:10048000E552E714E552E710E66E040EDBCFE9FF14
:10049000050EDBCFEAFF000EE9260C0EEA22E5523C
:1004A000E750EF6E00D0080EE15C02E2E16AE5522F
:1004B000E16EE552E7CFD9FF1200D9CFE6FFE1CFD9
:1004C000D9FF150EE126FD0EDB40E840E8401F0B8A
:1004D000E76E020EE7CFDBFFFD0EDB50070BE76E8A
:1004E000030EE7CFDBFFFE0EDB50E76E040EE7CF17
:1004F000DBFF0F0EDB68030EF36E100EF3CFDBFF96
:100500000F0EDBCF16F0100EDBCF17F0030EDB5013
:1005100016C014F017C015F005E0D8901436153643
:10052000E804FBE1050E14C0DBFF060E15C0DBFF7F
:10053000050EDB50E76E0C0EE7CFDBFF060EDB503F
:10054000E76E0D0EE7CFDBFF0F0EDBCF16F0100EC0
:10055000DBCF17F0030EDBCFE6FF100EE552D8809D
:10056000E75416C014F017C015F005E0D890153206
:100570001432E804FBE1050E14C0DBFF060E15C0C3
:10058000DBFF050EDB50E76E0E0EE7CFDBFFFB0E49
:10059000DBCF08F0FC0EDBCF09F0110E08C0DBFF4B
:1005A000120E09C0DBFF110EDBCFE9FF120EDBCF0D
:1005B000EAFFEF5001E1E7D0D9CFE6FFDACFE6FF5F
:1005C000110EDBCFE9FFDB2A120EDBCFEAFF01E3DE
:1005D000DB2AEF50E66ECBEC07F0E552E552E55230
:1005E000130EF3CFDBFF140EF4CFDBFF010EDB6A3B
:1005F000DF50F36E010EDBCFF4FFF350F45C01E348
:1006000091D0130EDBCFE9FF140EDBCFEAFFEECF64
:1006100016F0EFCF17F0030EDB5016C014F017C022
:1006200015F005E0D89014361536E804FBE1070E06
:1006300014C0DBFF080E15C0DBFF070EDB50E76EB2
:10064000090EE7CFDBFF080EDB50E76E0A0EE7CF9F
:10065000DBFF130EDBCFE9FF140EDBCFEAFFEECF9B
:1006600016F0EFCF17F0030EDBCFE6FF100EE552CA
:10067000D880E75416C014F017C015F005E0D890E4
:1006800015321432E804FBE1070E14C0DBFF080E3C
:1006900015C0DBFF070EDB50E76E0B0EE7CFDBFF6D
:1006A0000C0EDBCFE6FF090EDBCFE6FF040EDBCF3F
:1006B000E6FF020EDBCFE6FF96DDE552E552E5529E
:1006C000E5520D0EDBCFE6FF0A0EDBCFE6FF040E90
:1006D000DBCFE6FF020EDB28E66E85DDE552E55254
:1006E000E552E5520E0EDBCFE6FF0B0EDBCFE6FF49
:1006F000040EDBCFE6FF020EDB50020FE66E73DD69
:10070000E552E552E552E552040EDB2AD950130FAB
:10071000E96EDACFEAFF020EEE26000EEF22010E9E
:10072000DB2A66D70C0EDBCFE6FFE66A040EDBCFD2
:10073000E6FF020EDBCFE6FF56DDE552E552E5525D
:10074000E5520D0EDBCFE6FFE66A040EDBCFE6FFD7
:10075000020EDB28E66E47DDE552E552E552E55232
:100760000E0EDBCFE6FFE66A040EDBCFE6FF020EDD
:10077000DB50020FE66E37DDE552E552E552E552F9
:10078000040EDB2A10D7150EE15C02E2E16AE552A5
:0A079000E16EE552E7CFD9FF120039
:06079A00D9CFE6FFE1CF1C
:1007A000D9FF0C0EE126020EDB6A030EDB6A8B9A80
:1007B000F40EF36E040EF3CFDBFF010EF36E050EA5
:1007C000F3CFDBFF040EDBCF14F0DB06050EDBCF2F
:1007D00015F001E2DB061450151006E00B0EE66E74
:1007E000C8EC0AF0E552EED78B8AF40EF36E060ED3
:1007F000F3CFDBFF010EF36E070EF3CFDBFF060E28
:10080000DBCF14F0DB06070EDBCF15F001E2DB06D1
:100810001450151006E00B0EE66EC8EC0AF0E55217
:10082000EED78B9A010EF36E080EF3CFDBFF090EA5
:10083000DB6A080EDBCF14F0DB06090EDBCF15F008
:1008400001E2DB061450151006E00B0EE66EC8EC54
:100850000AF0E552EED78B8A030EF36E0A0EF3CF41
:10086000DBFF0B0EDB6A0A0EDBCF14F0DB060B0E90
:10087000DBCF15F001E2DB061450151006E00B0E7D
:10088000E66EC8EC0AF0E552EED7C69A080EF36E93
:10089000020EF3CFDBFF030EDB6ADBCFE6FF020EB7
:1008A000DBCFE6FF97EC0AF0E552E5520A0EC86E80
:1008B000C750040B01E0010E146E1F0EC514141076
:1008C00001E0F6D7C580C5B0FED7180EE66ECC0E97
:1008D000E66E150EE66EFE0EDBCFE6FF9FD8E55204
:1008E000E552E552E5520C0EE15C02E2E16AE552A6
:1008F000E16EE552E7CFD9FF1200D9CFE6FFE1CF95
:10090000D9FFE552E7CFD9FF1200D9CFE6FFE1CFFB
:10091000D9FF030EE126C582C5B2FED7C750040B2E
:1009200001E0010E146E1F0EC514141001E0F6D77D
:10093000C950DF6EFE0EDBCFE6FF15EC0AF0E55284
:10094000E76E010EE7CFDBFFDB50FF0804E1C95083
:10095000DF6EC69E8982010EDB50ECE1400EE66E32
:1009600015EC0AF0E552E76E010EE7CFDBFFDB5036
:10097000FF0804E1C950DF6EC69E8982010EDB507C
:10098000EDE1020EDB6AFB0EDB50F36E020EDBCFF5
:10099000F4FFF350F45C2BE2C6A621D0FC0EDBCFB3
:1009A000E9FFFD0EDBCFEAFFEF50E66E15EC0AF033
:1009B000E552000904E0FD0EF36EF46825D0C7503F
:1009C000040B01E0010E146E1F0EC514141001E09B
:1009D000F6D7C5AC04D0FE0EF36EF46815D0FC0E4D
:1009E000DB2AFD0E01E3DB2A020EDB2ACCD7C7503F
:1009F000040B01E0010E146E1F0EC514141001E06B
:100A0000F6D7F36AF46A00D0030EE15C02E2E16A11
:100A1000E552E16EE552E7CFD9FF1200D9CFE6FFEC
:100A2000E1CFD9FF030EE126C582C5B2FED7C7507C
:100A3000040B01E0010E146E1F0EC514141001E02A
:100A4000F6D7010EC9CFDBFFFE0EDBCFE6FF15ECBC
:100A50000AF0E552E76E020EE7CFDBFFDB50FF083E
:100A600005E1010EC9CFDBFFC69E8982020EDB5075
:100A7000EBE1E66A15EC0AF0E552E76E020EE7CF0D
:100A8000DBFFDB50FF0805E1010EC9CFDBFFC69E8F
:100A90008982020EDB50EDE1DF6AFB0EDB50DF5C8A
:100AA0002AE2C6A621D0FC0EDBCFE9FFFD0EDBCF8C
:100AB000EAFFEF50E66E15EC0AF0E552000904E09B
:100AC000FD0EF36EF46824D0C750040B01E0010E54
:100AD000146E1F0EC514141001E0F6D7C5AC04D077
:100AE000FE0EF36EF46814D0FC0EDB2AFD0E01E35B
:100AF000DB2ADF2AD2D7C750040B01E0010E146EA7
:100B00001F0EC514141001E0F6D7F36AF46A00D082
:100B1000030EE15C02E2E16AE552E16EE552E7CFE5
:100B2000D9FF1200D9CFE6FFE1CFD9FF040EE126AD
:100B3000010EDB6A070EF36E010EDBCFF4FFF350FC
:100B4000F45C01E37BD0010EDBCFE6FFE66AFE0E2C
:100B5000DBCFE6FF80D8E552E552E552C582C5B24B
:100B6000FED7C750040B01E0010E146E1F0EC51412
:100B7000141001E0F6D7020EC9CFDBFFFE0EDBCF6B
:100B8000E6FF15EC0AF0E552E76E030EE7CFDBFF58
:100B9000DB50FF0805E1020EC9CFDBFFC69E89824C
:100BA000030EDB50EBE1400EE66E15EC0AF0E55269
:100BB000E76E030EE7CFDBFFDB50FF0805E1020E17
:100BC000C9CFDBFFC69E8982030EDB50ECE1DF6AF2
:100BD000DF50146E156AD890155004E6850E145C2B
:100BE000000E15581EE2C6A61AD0E66A15EC0AF0E9
:100BF000E552000904E0FD0EF36EF46822D0C75000
:100C0000040B01E0010E146E1F0EC514141001E058
:100C1000F6D7C5AC04D0FE0EF36EF46812D0DF2A0E
:100C2000D7D7C750040B01E0010E146E1F0EC51478
:100C3000141001E0F6D7010EDB2A7CD7F36AF46AC0
:100C400000D0040EE15C02E2E16AE552E16EE55299
:100C5000E7CFD9FF1200D9CFE6FFE1CFD9FF030ECE
:100C6000E126010EDF6EFC0EDB504009E76E010E3F
:100C7000E7CFDBFFFD0EDB508009E76E020EE7CF0A
:100C8000DBFF030EE66ED9CFE6FFDACFE6FFFE0EFE
:100C9000DBCFE6FFC3DEE552E552E552E552030E37
:100CA000E15C02E2E16AE552E16EE552E7CFD9FF8D
:020CB000120030
:0E0CB200D8CFE4FFE0CFE4FFE46EDACFE4FF3A
:100CC000E2CFDAFFE9CFE4FFEACFE4FFF6CFE4FFBB
:100CD000F7CFE4FFF8CFE4FFF5CFE4FFF3CFE4FF75
:100CE000F4CFE4FFFACFE4FFFBCFE4FF00EE00F027
:100CF000140EE80403E3EECFE4FFFBD700EE14F09C
:100D0000080EE80403E3EECFE4FFFBD7E6526EECF7
:100D100009F0E55200EE1BF0080EE80403E3E5CF0E
:100D2000EDFFFBD700EE13F0140EE80403E3E5CF6C
:100D3000EDFFFBD7E5CFFBFFE5CFFAFFE5CFF4FFF3
:100D4000E5CFF3FFE5CFF5FFE5CFF8FFE5CFF7FF00
:100D5000E5CFF6FFE5CFEAFFE5CFE9FFE5CFDAFF24
:100D6000E550E5CFE0FFE5CFD8FF1000D8CFE4FF96
:100D7000E0CFE4FFE46EDACFE4FFE2CFDAFFE65241
:100D8000E552E5CFDAFFE550E5CFE0FFE5CFD8FF4C
:100D90001000D9CFE6FFE1CFD9FF340EE126DF6A9C
:100DA000DE52780EDD6ED9501D0FE96EDACFEAFF04
:100DB000D70EEE6EF20EEE6EEE0EEE6E200EEE6EB4
:100DC000FD0EEE6EF20EEE6EEE0EEE6E200EEE6E7E
:100DD000EE0EEE6E5F0EEE6ECE0EEE6E3F0EEE6E11
:100DE000EE6AEE6AEE6AEE6AEE6AEE6AEE6AEE6A43
:100DF000400E9B6E020ED36ED8EC08F09290929249
:100E000089908992948694888F988B8A949A9898DE
:100E10008B9AF40EF36E320EF3CFDBFF010EF36EFE
:100E2000330EF3CFDBFF320EDBCF14F0DB06330ED5
:100E3000DBCF15F001E2DB061450151006E00B0EB7
:100E4000E66EC8EC0AF0E552EED78B8A010EDBCFD6
:100E5000E6FFCDEC03F0E552010EDBCFE6FF92ECAE
:100E600005F0E552E66AE66A010EDBCFE6FF2BEC01
:100E700006F0E552E552E552080EE66EE70EE66E24
:100E8000150EE66E010EDBCFE6FF85EC04F0E552B1
:100E9000E552E552E552070EF36E020EF3CFDBFF8B
:100EA000DB5000081EE2020EDBCFE6FFE66A010E11
:100EB000DBCFE6FF2BEC06F0E552E552E552080EDB
:100EC000E66EE70EE66E150EE66E010EDBCFE6FF70
:100ED00085EC04F0E552E552E552E552020EDB06E0
:100EE000DFD7F3EC08F00F015251065C146E53513A
:100EF0000758156E54510858166E55510958176EFB
:100F0000000E145C400E1558000E1658000E1758AF
:100F100011E3F3EC08F006C052FF07C053FF08C00E
:100F200054FF09C055FF8972010EDBCFE6FF5AEC72
:100F300000F0E5520F01522B000E5323542355238A
:100F4000C80E525D000E5359000E5459000E5559EB
:100F500017E3526B536B546B556B8F78562B000E07
:100F6000572358235923FF0E565D000E5759000E84
:100F70005859000E595904E3566B576B586B596B0F
:100F8000B0D7340EE15C02E2E16AE552E16EE5526F
:060F9000E7CFD9FF1200BB
:0A0F9600D9CFE6FFE1CFD9FF090E25
:100FA000E126010EDB6A020EDB6A030EDB6A040E29
:100FB000DB6A050EDB6A060EDB6A070EDB6A080ECB
:100FC000DB6A560E146EB30E156E000E166EFE0E14
:100FD000DBCF17F0186A196AD89017361836193609
:100FE00014501724F36E15501820F46E1650192063
:100FF000F86EF4CFF7FFF3CFF6FF0900010EF5CF3F
:10100000DBFF0A00020EF5CFDBFF560E146EB30EA7
:10101000156E000E166EFE0EDB28176E186A196A22
:10102000D89017361836193614501724F36E155009
:101030001820F46E16501920F86EF4CFF7FFF3CF96
:10104000F6FF0900030EF5CFDBFF0A00040EF5CF13
:10105000DBFF030EDBCF16F0040EDBCF17F0010E23
:10106000DB50165C146E020EDB501758156E050E21
:1010700014C0DBFF060E15C0DBFF070EDB6A080E8F
:10108000DB6AD950050FE96EDACFEAFFD890030E7C
:10109000EB50000A08E6010EEE5C000EEE58000E62
:1010A000EE58000EEE580BE2FC0EDBCFE9FFFD0E12
:1010B000DBCFEAFFEE6AED6AF36AF46A6FD0DF6AAB
:1010C000DFCF14F0156A166A176A050EDBCF07F03A
:1010D000060EDBCF08F0070EDBCF09F0080EDBCFE2
:1010E0000AF017500A18E8AE02D00A3408D00750A8
:1010F000145C08501558095016580A50175839E210
:10110000000E166EAC0E176E000E186EDF50E76EF6
:10111000010EDBCF19F0020EDBCF1AF0E7501926D3
:10112000000E1A221B6AD89019361A361B36165032
:101130001924F36E17501A20F46E18501B20F86E05
:10114000F4CFF7FFF3CFF6FF0900F5CF14F0080056
:10115000F5CF15F0EA6ADF34FE0BEA36E96E000ED1
:10116000E9260E0EEA2214C0EEFF15C0EDFFDF2ABD
:10117000A7D7FC0EDBCFE9FFFD0EDBCFEAFF050EA4
:10118000DBCFEEFF060EDBCFEDFF000E146E0E0E72
:10119000156E14C0F3FF15C0F4FF00D0090EE15C1A
:1011A00002E2E16AE552E16EE552E7CFD9FF1200B3
:1011B000D76AD66AF194F294F28A870ED56E12003D
:1011C000F28A0000F29AD6CF22FED7CF23FE28CE95
:1011D00024FE29CE25FE2ACE26FE2BCE27FEF2B4F3
:1011E000EFD7F28A1200ECDF22CE06F023CE07F012
:1011F00024CE08F025CE09F000D01200D9CFE6FFAA
:10120000E1CFD9FF040EE126DBDF23CEDFFF010EA5
:1012100024CEDBFF020E25CEDBFF030E26CEDBFF46
:10122000DECF06F0DECF07F0DECF08F0DDCF09F02D
:10123000DD52DD52040EE15C03E200D0E16AE552CA
:10124000E16EE552E7CFD9FF1200D9CFE6FFE1CF3B
:10125000D9FF040EE126B4DF24CEDFFF010E25CE38
:10126000DBFF020E26CEDBFF030E27CEDBFFDECF39
:1012700006F0DECF07F0DECF08F0DDCF09F0DD525B
:10128000DD52040EE15C03E200D0E16AE552E16E5A
:10129000E552E7CFD9FF1200D9CFE6FFE1CFD9FF62
:1012A000FB0EDBCF06F0FC0EDBCF07F0FD0EDBCF35
:1012B00008F0FE0EDBCF09F0100E0626000E072206
:1012C00008220922200E0B6E0C6A0D6A0E6A55EC7C
:1012D0000AF000D0E552E7CFD9FF1200F2A407D000
:1012E0000E01282B000E29232A232B23F29412000F
:1012F0001E0EF66E000EF76E000EF86E0E0109005F
:10130000F5501D6F0900F5501E6F03E11D6701D0F8
:101310003DD00900F550186F0900F550196F09000C
:10132000F5501A6F09000900F550E96E0900F550F3
:10133000EA6E090009000900F5501B6F0900F5501D
:101340001C6F09000900F6CF1FFEF7CF20FEF8CF73
:1013500021FE18CEF6FF19CEF7FF1ACEF8FF0E01C8
:101360001B5302E11C5307E00900F550EE6E1B070A
:10137000F8E21C07F9D71FCEF6FF20CEF7FF21CEEB
:0E138000F8FF0E011D07000E1E5BBFD7120006
:02138E00D9CFB5
:10139000E6FFE1CFD9FF020EE126010EDB6AFC0E6B
:1013A000DB50F36E010EDBCFF4FFF350F45C2FE261
:1013B000C6A611D0FD0EDBCFE9FFFE0EDBCFEAFFA4
:1013C000EF50E66E15EC0AF0E552DF6EDF5002E0FA
:1013D000DF501FD014D09E96FD0EDBCFE9FFFE0E2E
:1013E000DBCFEAFFEF50C96EC6889EA6FED7C75076
:1013F000040B05E1C750010B02E1FE0E0AD0FD0E01
:10140000DB2AFE0E01E3DB2A010EDB2AC8D7000E21
:1014100000D0146E020EE15C02E2E16AE552E16E78
:0A1420001450E552E7CFD9FF120087
:06142A00D9CFE6FFDACF86
:10143000E6FFE1CFD9FFE2CFDAFFFD0EDB50C96E48
:10144000C6AE02D0FF0E2BD00F0EC61408080FE058
:101450000F0EC6140B080BE0C6889EA6FED7C75019
:10146000040B03E1C750010B17E0000E18D00F0E5C
:10147000C614080804E00F0EC6140B0810E1C7B02C
:10148000FED7C750040B01E0010E146E1F0EC514E9
:101490001410F7E1C5AC02D0FE0E01D0000EE552EB
:0A14A000E5CFDAFFE7CFD9FF120015
:0614AA00056A046A036AF2
:1014B000026A200EE76ED8900636073608360936DF
:1014C00002360336043605360B50025C0C500358C6
:1014D0000D5004580E50055809E30B50025E0C5095
:1014E000035A0D50045A0E50055A062AE72EE4D727
:0214F0001200E8
:0E14F20008C012F008500D02F4CF07F0F3CF3F
:1015000006F009500E02F4CF09F0F3CF08F00D02F7
:10151000F3500726F4500822E86A092212500E02FE
:0E152000F3500726F4500822E86A0922000C56
:02152E00D9CF13
:10153000E6FFDACFE6FFE1CFD9FFE2CFDAFF3F0ED9
:10154000C716C66AC56AFD0EDB50C612FC0EDB501C
:10155000C71294869488C68AE552E5CFDAFFE7CFB2
:04156000D9FF12009D
:0C156400800EF36E00EE00F00E0E07D8B3
:10157000600EF36E0FEE00F00F0E01D81200EA605D
:1015800002D0EE6AFCD7F350E9601200EE6AFCD795
:10159000FF0EE3501C6E480E01D04C0EE76EE72E96
:1015A000FED7E76AE72EFED71C2EF7D70000120001
:1015B0001DEE00F02DEE00F0F86A019C78EC09F0C9
:0C15C00003EC00F0C9EC06F0FBD71200B1
:0415CC0000010E12FA
:1015D00084060824010D050B17B3010B04085801FC
:0415E0001020408017
:0B15E40001408080E0B8179FFCE08011
:0115EF0000FB
:0B15F0000000000000000000000000F0
:10AC000000000000000000000000DF00DE00070080
:10AC10000700000007000700E4003C002700E400F4
:10AC20003C0027009C003201FF033201E4000F00CA
:10AC30000900CF0030000C00F3009000F00060002D
:10AC4000F6009F009900F700E600B0000300030043
:10AC50007800FE0103030303FE0178000A000700E9
:10AC60000A00100010007C0010001000C002C0019B
:10AC7000100010001000C000C000C0003C00030025
:10AC80007E00FF008100FF007E000C000600FF0038
:10AC9000FF00C200E300B1009F008E004200C3002D
:10ACA0008900FF00760030002C002200FF00FF002A
:10ACB00020005C00CF008B00F90071007E00FF00D7
:10ACC0008900FB0072000100F100FD000F0003008D
:10ACD0007600FF008900FF0076004E00DF00910043
:10ACE000FF007E00CC00CC00CC02CC011800180084
:10ACF0002400240042002800280028002800080022
:10AD0000420024002400180018000200D300D900DB
:10AD10000F0006007800860172018D028502C502CF
:10AD2000FD028D0242013C01E000FC003F002300D7
:10AD30003F00FC00E000FF00FF0089008900FF00E9
:10AD400076003C007E00C30081008100C300420009
:10AD5000FF00FF0081008100FF007E00FF00FF0078
:10AD60008900890089008100FF00FF0009000900B7
:10AD7000090001003C007E00C30081009100F30047
:10AD80007200FF00FF0008000800FF00FF00FF0046
:10AD9000FF004000C0008000FF007F00FF00FF00B8
:10ADA00018003E00F700C100FF00FF008000800097
:10ADB00080008000FF00FF000F007C00E0007C00AE
:10ADC0000F00FF00FF00FF00FF000C003000FF003D
:10ADD000FF003C007E00C3008100C3007E003C00F9
:10ADE000FF00FF00110011001F000E003C007E005C
:10ADF000C300A100C300FE003C010001FF00FF00F2
:10AE0000110031007F00CE0080004E00CF0099007D
:10AE10009900F300720001000100FF00FF00010033
:10AE200001007F00FF0080008000FF007F00030022
:10AE30003F00FC00C000FC003F00030003003F0097
:10AE4000FC00E0003E0007003E00E000FC003F0088
:10AE50000300C300E7003C003C00E700C300030020
:10AE60000F00F800F8000F000300C100E100B1007E
:10AE700099008D0087008300FF03FF030102030098
:10AE80003C00C0000102FF03FF0308000E000300A6
:10AE90000E00080000020002000200020002000290
:10AEA0000100030002006800F4009400FC00F800B8
:10AEB000FF00FF0084008400FC0078007800FC00A4
:10AEC0008400CC0048007800FC0084008400FF006F
:10AED000FF007800FC0094009400DC00580004009F
:10AEE000FE00FF00050001007801FC0284028402DC
:10AEF000FC03FC01FF00FF0004000400FC00F8005C
:10AF0000FD00FD000002FD03FD01FF00FF00300019
:10AF10007800EC008400FE00FF00FC00FC00040050
:10AF20000400FC00FC0004000400FC00F800FC002D
:10AF3000FC0004000400FC00F8007800FC00840021
:10AF40008400FC007800FC03FC0384008400FC0007
:10AF500078007800FC0084008400FC03FC03FC0003
:10AF6000FC0008000400040004005800DC00B400E9
:10AF7000B400EC00680004007E00FF0084007C0048
:10AF8000FC0080008000FC00FC003C00FC00C000D5
:10AF9000FC003C001C00FC00E00078000C00780085
:10AFA000E000FC001C00CC00FC003000FC00CC00E9
:10AFB00004023C02F803C001F8003C000400C40095
:10AFC000E400B4009C008C002000FE01000001029F
:10AFD000FF030102DF03FE0120001000080008004B
:10AFE00010000800FE00FF00920092008300820023
:10AFF0007800FD0094009400DD005800E000FC00A3
:10B000003F0023003F00FC00E000FF00FF0089003C
:10B0100089008900F9007000FF00FF0089008900A5
:10B02000FF007600FF00FF00010001000100800327
:10B03000FF00FF008100FF00FF008003FF00FF0012
:10B040008900890081008100F3007E000800FF0074
:10B05000FF0008007E00F30081004200C300890069
:10B060008900FF007600FF00FF006000300018003C
:10B07000FF00FF00FF00FF00600033001800FF002A
:10B08000FF00FF00FF0008007E00F3008100800049
:10B09000FF007F0001000100FF00FF00FF00FF0034
:10B0A0000F007C00E0007C000F00FF00FF00FF00AD
:10B0B000FF0008000800FF00FF003C007E00C30006
:10B0C0008100C3007E003C00FF00FF000100010082
:10B0D0000100FF00FF00FF00FF00110011001F0032
:10B0E0000E003C007E00C30081008100C3004200CE
:10B0F00001000100FF00FF000100010003008F00BC
:10B10000FC0078001F0007003C007E004200FF00AA
:10B11000FF0042007E003C00C300E7003C003C0012
:10B12000E700C300FF00FF0080008000FF00FF0079
:10B1300080030F001F00100010001000FF00FF0030
:10B14000FF00FF0080008000FF00FF008000800003
:10B15000FF00FF00FF00FF0080008000FF00FF00F5
:10B1600080008000FF00FF00800301000100FF005D
:10B17000FF00880088008800F8007000FF00FF00D2
:10B18000880088008800F8007000FF00FF00FF00C2
:10B19000FF00880088008800F80070002400660026
:10B1A000C3008900CB007E003C00FF00FF001800B8
:10B1B0003C007E00C3008100C3007E003C00800094
:10B1C000CE007F0031001100FF00FF006800F40096
:10B1D0009400FC00F8007E00FD0085008500FD0065
:10B1E0007900FC00FC0094009400FC006800FC0066
:10B1F000FC00040004008003C000FC008400FC008C
:10B20000FC0080037800FC0094009400DC005800EF
:10B21000C400EC001000FC00FC001000EC00C400B6
:10B22000480084009400FC006800FC00FC00600002
:10B230001800FC00FC00FC00FD0061001900FD008E
:10B24000FC00FC00FC0010007800EC008400800092
:10B25000FC007C000400FC00FC00FC00FC00300052
:10B26000C0003000FC00FC00FC00FC0010001000DE
:10B27000FC00FC007800FC0084008400FC007800E6
:10B28000FC00FC0004000400FC00FC00FC03FC03C8
:10B2900084008400FC0078007800FC008400CC006E
:10B2A00048000400FC00FC00040004023C02F80317
:10B2B000C001F8003C0004007800FC008400FF039B
:10B2C000FF038400FC007800CC00FC003000FC0090
:10B2D000CC00FC00FC0080008000FC00FC0080032F
:10B2E0001C003C002000FC00FC00FC00FC00800076
:10B2F000FC00FC008000FC00FC00FC00FC00800066
:10B30000FC00FC008000FC00FC0080030400FC004A
:10B31000FC009000F0006000FC00FC009000F000D9
:10B320006000FC00FC00FC00FC009000F0006000ED
:10B330004800CC009400FC007800FC00FC001000E9
:10B340007800FC008400FC0078008000D8007C00BD
:10B350002400FC00FC0000000000000000000000D1
:10B3600000000000000000000000000000000000DD
:10B3700000000000000000000000000000000000CD
:10B3800000000000000000000000000000000000BD
:10B390000000000000000000050007000C00120083
:10B3A00017001F00260028002B002E003100360059
:10B3B00038003B003D004000450049004E0053006E
:10B3C00059005E00630068006D0072007400760032
:10B3D0007B00800085008A0094009B00A100A800EB
:10B3E000AE00B400BA00C100C700C900CE00D4004E
:10B3F000DA00E300E900F000F600FE0005010B01B1
:10B40000110117011E0129012F0135013C013F01E6
:10B41000420145014A015001530158015E01630197
:10B4200069016F0174017A018001820185018B013C
:10B430008D0197019D01A301A901AF01B501BB01D8
:10B44000BF01C501CA01D301D801DF01E401E80150
:10B45000E901ED01F201F201F201F201F201F20162
:10B46000F201F201F201F201F201F201F201F20144
:10B47000F201F201F201F201F201F201F201F20134
:10B48000F201F201F201F201F201F201F201F20124
:10B49000F201F201F201F201F201F201F201F20114
:10B4A000F201F201F201F201F801F801F801F801EC
:10B4B000F801F801F801F801F801F801F801F801C4
:10B4C000F801F801F801F801F801FE01FE01FE01A2
:10B4D000FE01FE01FE01FE0105020C02120217022E
:10B4E0001E0223022D0233023A02410247024E029B
:10B4F00057025D0264026B02710278027E028402CE
:10B500008C0292029902A002AA02B502BE02C702F0
:10B51000CE02D502DF02E602EB02F102F702FB02E5
:10B5200002030803100315031B03210327032D0344
:10B5300034033A03400346034C03510355035C03B1
:10B5400064036903700375037D0386038C0393030F
:08B5500098039D03A503AB0362
:020000040001F9
:01FFF800A068
:01FFFA00C541
:01FFFD00F70C
:00000001FF
