:020000040000FA
:06000000D2EF0CF012002B
:020006001200E6
:0600080003EF09F01200F5
:01000E0000F1
:01000F0000F0
:0400100000000000EC
:0100140000EB
:06001800A6EF08F0120043
:02001E000500DB
:1000200014000000430E000001000000D71900007A
:100030003D0F000023000000100000003D0E0000F6
:10004000040000000F000000420E0000010000004C
:0C0050000E000000410E00000100000046
:04005C0030EF00F091
:10006000D9CFE6FFE1CFD9FF020EE126DE6ADD6AD5
:10007000DECF14F0DDCF15F0000E145C010E155824
:100080003BE2DECFE9FFDDCFEAFF000EE926080EF6
:10009000EA22EF6ADECFE9FFDDCFEAFF000EE926B4
:1000A000090EEA22EF6ADECFE9FFDDCFEAFF000E9C
:1000B000E9260A0EEA22EF6ADECFE9FFDDCFEAFF8A
:1000C000000EE9260B0EEA22EF6ADECF14F0DDCF38
:1000D00015F0280E145C000E155809E2DECFE9FF7A
:1000E000DDCFEAFF000EE9260C0EEA22EF6ADF2AD6
:1000F000010E01E3DB2ABCD7020EE15C02E2E16AF9
:10010000E552E16EE552E7CFD9FF1200D9CFE6FF05
:10011000E1CFD9FFE66AE66AFE0EDBCFE6FFB7EC79
:1001200006F0E552E552E552800EE66E000EE66EF0
:10013000080EE66EFE0EDBCFE6FF0DEC05F0E55295
:10014000E552E552E552800EE66E800EE66E080E30
:10015000E66EFE0EDBCFE6FF0DEC05F0E552E55254
:10016000E552E552800EE66E000EE66E090EE66E72
:10017000FE0EDBCFE6FF0DEC05F0E552E552E55251
:10018000E552800EE66E800EE66E090EE66EFE0EFD
:10019000DBCFE6FF0DEC05F0E552E552E552E55206
:1001A000800EE66E000EE66E0A0EE66EFE0EDBCFE9
:1001B000E6FF0DEC05F0E552E552E552E552800E02
:1001C000E66E800EE66E0A0EE66EFE0EDBCFE6FFF2
:1001D0000DEC05F0E552E552E552E552800EE66E73
:1001E000000EE66E0B0EE66EFE0EDBCFE6FF0DECAC
:1001F00005F0E552E552E552E552800EE66E800EBE
:10020000E66E0B0EE66EFE0EDBCFE6FF0DEC05F0A4
:10021000E552E552E552E552280EE66E000EE66E16
:100220000C0EE66EFE0EDBCFE6FF0DEC05F0E552A0
:10023000E552E552E552E552E7CFD9FF1200D9CF9A
:10024000E6FFE1CFD9FF080EE126060EDB6AFB0EC2
:10025000DB1CE76E070EE7CFDBFFFB0EDB5001E197
:100260004ED1FE0EDB50070801E249D1FD0EDB50F6
:10027000146E156A153404E214508408000E1554E7
:1002800001E23DD1FE0EDB50DE6EDD6AFD0EDB507D
:10029000166E176A850E086E096ADECF0DF0DDCF87
:1002A0000EF026EC0CF006501624146E07501720A2
:1002B000156E14C0DEFF15C0DDFFDECF14F0DDCFFC
:1002C00015F015C014F0156A020E14C0DBFF030E02
:1002D00015C0DBFFDECF14F0DDCF15F0FF0E1416D6
:1002E000000E1516040E14C0DBFF050E15C0DBFF53
:1002F000020EDBCF08F0030EDBCF09F0040E081866
:1003000001E1095001E1CDD0030E081801E10950C7
:1003100001E199D0020E081801E1095066E0010ED2
:10032000081801E1095033E0085001E1095001E0EB
:10033000E6D0070EDBCFE6FF040EDBCFE9FF050EAC
:10034000DBCFEAFF000EE926080EEA22EF50E55265
:10035000E714E76E060EE7CFDBFFDBCFE6FFFB0E11
:10036000DBCFE6FFFC0EDB50E552E714E552E71069
:10037000E66E040EDBCFE9FF050EDBCFEAFF000ED1
:10038000E926080EEA22E552E750EF6EB8D0070ED4
:10039000DBCFE6FF040EDBCFE9FF050EDBCFEAFF84
:1003A000000EE926090EEA22EF50E552E714E76E47
:1003B000060EE7CFDBFFDBCFE6FFFB0EDBCFE6FF72
:1003C000FC0EDB50E552E714E552E710E66E040E32
:1003D000DBCFE9FF050EDBCFEAFF000EE926090EB1
:1003E000EA22E552E750EF6E8AD0070EDBCFE6FF38
:1003F000040EDBCFE9FF050EDBCFEAFF000EE92696
:100400000A0EEA22EF50E552E714E76E060EE7CF38
:10041000DBFFDBCFE6FFFB0EDBCFE6FFFC0EDB50A6
:10042000E552E714E552E710E66E040EDBCFE9FF74
:10043000050EDBCFEAFF000EE9260A0EEA22E5529E
:10044000E750EF6E5CD0070EDBCFE6FF040EDBCF8C
:10045000E9FF050EDBCFEAFF000EE9260B0EEA22CC
:10046000EF50E552E714E76E060EE7CFDBFFDBCF78
:10047000E6FFFB0EDBCFE6FFFC0EDB50E552E71498
:10048000E552E710E66E040EDBCFE9FF050EDBCF89
:10049000EAFF000EE9260B0EEA22E552E750EF6E66
:1004A0002ED0070EDBCFE6FF040EDBCFE9FF050EF3
:1004B000DBCFEAFF000EE9260C0EEA22EF50E552F0
:1004C000E714E76E060EE7CFDBFFDBCFE6FFFB0EA0
:1004D000DBCFE6FFFC0EDB50E552E714E552E710F8
:1004E000E66E040EDBCFE9FF050EDBCFEAFF000E60
:1004F000E9260C0EEA22E552E750EF6E00D0080E16
:10050000E15C02E2E16AE552E16EE552E7CFD9FF34
:100510001200D9CFE6FFE1CFD9FF170EE126FD0E7D
:10052000DB40E840E8401F0BE76E020EE7CFDBFF41
:10053000FD0EDB50070BE76E030EE7CFDBFFFE0E71
:10054000DB50E76E040EE7CFDBFF0E014351010ADB
:1005500008E0010A01E00DD00F0EDB6A100EDB6A25
:100560000CD0C00EF36E0F0EF3CFDBFF100EDB6866
:1005700004D00F0EDB6A100EDB6A0F0EDBCF16F015
:10058000100EDBCF17F0030EDB5016C014F017C0AF
:1005900015F005E0D89015321432E804FBE1050EA1
:1005A00014C0DBFF060E15C0DBFF050EDB50E76E47
:1005B0000D0EE7CFDBFF060EDB50E76E0E0EE7CF2A
:1005C000DBFF0F0EDBCF16F0100EDBCF17F0030EA4
:1005D000DBCFE6FF100EE552D880E75416C014F0CA
:1005E00017C015F005E0D89014361536E804FBE185
:1005F000050E14C0DBFF060E15C0DBFFDB50E76EF7
:100600000C0EE7CFDBFFFB0EDBCF08F0FC0EDBCFE1
:1006100009F0110E08C0DBFF120E09C0DBFF110E3E
:10062000DBCFE9FF120EDBCFEAFFEF5001E114D17F
:10063000D9CFE6FFDACFE6FF110EDBCFE9FFDB2AE9
:10064000120EDBCFEAFF01E3DB2AEF50E66EE5ECAA
:1006500006F0E552E552E552130EF3CFDBFF140E20
:10066000F4CFDBFF010EDB6ADF50F36E010EDBCF50
:10067000F4FFF350F45C01E3BED00E014351010AD4
:1006800017E0010A01E02BD0130EDBCFE9FF140EB7
:10069000DBCFEAFFEECF14F0EFCF15F014C015F06A
:1006A000146A150E14C0DBFF160E15C0DBFF1BD03D
:1006B000130EDBCFE9FF140EDBCFEAFFEECF14F011
:1006C000EFCF15F0060ED89014361536E804FBE18E
:1006D000150E14C0DBFF160E15C0DBFF04D0150E7F
:1006E000DB6A160EDB6A150EDBCF16F0160EDBCFBB
:1006F00017F0030EDB5016C014F017C015F005E01C
:10070000D89015321432E804FBE1070E14C0DBFF69
:10071000080E15C0DBFF070EDB50E76E0A0EE7CFB1
:10072000DBFF080EDB50E76E0B0EE7CFDBFF150E8D
:10073000DBCF16F0160EDBCF17F0030EDBCFE6FF94
:10074000100EE552D880E75416C014F017C015F00B
:1007500005E0D89014361536E804FBE1070E14C006
:10076000DBFF080E15C0DBFFDB50E76E090EE7CF9D
:10077000DBFF0E0EDBCFE6FF0B0EDBCFE6FF040E3A
:10078000DBCFE6FF020EDBCFE6FF59DDE552E55297
:10079000E552E5520D0EDBCFE6FF0A0EDBCFE6FF9A
:1007A000040EDBCFE6FF020EDB28E66E48DDE552E5
:1007B000E552E552E5520C0EDBCFE6FF090EDBCF2A
:1007C000E6FF040EDBCFE6FF020EDB50020FE66E03
:1007D00036DDE552E552E552E552040EDB2AD950EA
:1007E000130FE96EDACFEAFF020EEE26000EEF22BB
:1007F000010EDB2A39D70E0EDBCFE6FFE66A040EC8
:10080000DBCFE6FF020EDBCFE6FF19DDE552E55256
:10081000E552E5520D0EDBCFE6FFE66A040EDBCFB4
:10082000E6FF020EDB28E66E0ADDE552E552E552F0
:10083000E5520C0EDBCFE6FFE66A040EDBCFE6FFE7
:10084000020EDB50020FE66EFADCE552E552E5528D
:10085000E552040EDB2AE3D6170EE15C02E2E16A00
:0C086000E552E16EE552E7CFD9FF12002F
:04086C00D9CFE6FFFB
:10087000E1CFD9FF0C0EE126020EDB6A030EDB6A24
:10088000949A8B9AF40EF36E040EF3CFDBFF010EF5
:10089000F36E050EF3CFDBFF040EDBCF14F0DB06A7
:1008A000050EDBCF15F001E2DB061450151006E053
:1008B0000B0EE66EC2EC0CF0E552EED78B8AF40E0E
:1008C000F36E060EF3CFDBFF010EF36E070EF3CFD0
:1008D000DBFF060EDBCF14F0DB06070EDBCF15F0D7
:1008E00001E2DB061450151006E00B0EE66EC2ECBA
:1008F0000CF0E552EED78B9A010EF36E080EF3CF93
:10090000DBFF090EDB6A080EDBCF14F0DB06090EF5
:10091000DBCF15F001E2DB061450151006E00B0EDC
:10092000E66EC2EC0CF0E552EED78B8A030EF36E46
:100930000A0EF3CFDBFF0B0EDB6A0A0EDBCF14F0DF
:10094000DB060B0EDBCF15F001E2DB0614501510B1
:1009500006E00B0EE66EC2EC0CF0E552EED7DE6A56
:10096000DD6ADECF14F0DDCF15F0140E145C000E3E
:1009700015580EE2DECFE9FFDDCFEAFF180EE926BB
:100980000E0EEA22EF6ADF2A010E01E3DB2AE9D725
:10099000780EF36EFE0EF3CFDBFFC69A080EF36EF1
:1009A000020EF3CFDBFF800EF36E030EF3CFDBFFFF
:1009B000DBCFE6FF020EDBCFE6FF7BEC0CF0E5526F
:1009C000E5520A0EC86EC750040B01E0010E146E0A
:1009D0001F0EC514141001E0F6D7170EE66EC00EF8
:1009E000E66E190EE66EFE0EDBCFE6FF9DD8E552F1
:1009F000E552E552E5520C0EE15C02E2E16AE55295
:100A0000E16EE552E7CFD9FF1200D9CFE6FFE1CF83
:100A1000D9FFE552E7CFD9FF1200D9CFE6FFE1CFEA
:100A2000D9FF030EE126C582C5B2FED7C750040B1D
:100A300001E0010E146E1F0EC514141001E0F6D76C
:100A4000C950DF6EFE0EDBCFE6FF50EC0BF0E55237
:100A5000E76E010EE7CFDBFFDB50FF0803E1C95073
:100A6000DF6EC69E010EDB50EDE1400EE66E50ECEF
:100A70000BF0E552E76E010EE7CFDBFFDB50FF081E
:100A800003E1C950DF6EC69E010EDB50EEE1020E9F
:100A9000DB6AFB0EDB50F36E020EDBCFF4FFF3508C
:100AA000F45C2BE2C6A621D0FC0EDBCFE9FFFD0EE5
:100AB000DBCFEAFFEF50E66E50EC0BF0E552000999
:100AC00004E0FD0EF36EF46825D0C750040B01E07E
:100AD000010E146E1F0EC514141001E0F6D7C5AC3C
:100AE00004D0FE0EF36EF46815D0FC0EDB2AFD0E6A
:100AF00001E3DB2A020EDB2ACCD7C750040B01E04E
:100B0000010E146E1F0EC514141001E0F6D7F36A1F
:100B1000F46A00D0030EE15C02E2E16AE552E16EA4
:100B2000E552E7CFD9FF1200D9CFE6FFE1CFD9FFD9
:100B3000030EE1260E01415104E0C582C5B2FED785
:100B400006D0C580C5B0FED70E01010E416FC7505B
:100B5000040B01E0010E146E1F0EC514141001E009
:100B6000F6D7010EC9CFDBFFFE0EDBCFE6FF50EC60
:100B70000BF0E552E76E020EE7CFDBFFDB50FF081C
:100B800004E1010EC9CFDBFFC69E020EDB50ECE193
:100B9000E66A50EC0BF0E552E76E020EE7CFDBFFA2
:100BA000DB50FF0804E1010EC9CFDBFFC69E020E39
:100BB000DB50EEE1DF6AFB0EDB50DF5C2AE2C6A60B
:100BC00021D0FC0EDBCFE9FFFD0EDBCFEAFFEF50BB
:100BD000E66E50EC0BF0E552000904E0FD0EF36EFA
:100BE000F46824D0C750040B01E0010E146E1F0EF0
:100BF000C514141001E0F6D7C5AC04D0FE0EF36E98
:100C0000F46814D0FC0EDB2AFD0E01E3DB2ADF2A98
:100C1000D2D7C750040B01E0010E146E1F0EC5148D
:100C2000141001E0F6D7F36AF46A00D0030EE15C19
:100C300002E2E16AE552E16EE552E7CFD9FF120028
:100C4000D9CFE6FFE1CFD9FF040EE126010EDB6A22
:100C5000070EF36E010EDBCFF4FFF350F45C01E3FB
:100C600079D0010EDBCFE6FFE66AFE0EDBCFE6FFB2
:100C70007ED8E552E552E552C582C5B2FED7C750CF
:100C8000040B01E0010E146E1F0EC514141001E0D8
:100C9000F6D7020EC9CFDBFFFE0EDBCFE6FF50EC2E
:100CA0000BF0E552E76E030EE7CFDBFFDB50FF08EA
:100CB00004E1020EC9CFDBFFC69E030EDB50ECE160
:100CC000400EE66E50EC0BF0E552E76E030EE7CFF8
:100CD000DBFFDB50FF0804E1020EC9CFDBFFC69E3D
:100CE000030EDB50EDE1DF6ADF50146E156AD89019
:100CF000155004E6800E145C000E15581EE2C6A6C0
:100D00001AD0E66A50EC0BF0E552000904E0FD0E43
:100D1000F36EF46822D0C750040B01E0010E146E8C
:100D20001F0EC514141001E0F6D7C5AC04D0FE0E9A
:100D3000F36EF46812D0DF2AD7D7C750040B01E056
:100D4000010E146E1F0EC514141001E0F6D7010E2B
:100D5000DB2A7ED7F36AF46A00D0040EE15C02E27B
:100D6000E16AE552E16EE552E7CFD9FF1200D9CF33
:100D7000E6FFE1CFD9FF030EE126010EDF6EFC0E88
:100D8000DB504009E76E010EE7CFDBFFFD0EDB50C5
:100D90008009E76E020EE7CFDBFF030EE66ED9CFC8
:100DA000E6FFDACFE6FFFE0EDBCFE6FFBDDEE55263
:100DB000E552E552E552030EE15C02E2E16AE552DA
:0A0DC000E16EE552E7CFD9FF120003
:060DCA00D9CFE6FFE1CFE6
:100DD000D9FF090EE126010EDB6A020EDB6A030E63
:100DE000DB6A040EDB6A050EDB6A060EDB6A070EA1
:100DF000DB6A080EDB6A0E014251010A4CE0010A6F
:100E000001E092D0030E146EB60E156E000E166E33
:100E1000FE0EDBCF17F0186A196AD890173618360D
:100E2000193614501724F36E15501820F46E16500E
:100E30001920F86EF4CFF7FFF3CFF6FF0900010E8B
:100E4000F5CFDBFF0A00020EF5CFDBFF030E146EB9
:100E5000B60E156E000E166EFE0EDB28176E186AA3
:100E6000196AD89017361836193614501724F36EAD
:100E700015501820F46E16501920F86EF4CFF7FFB5
:100E8000F3CFF6FF0900030EF5CFDBFF0A00040ED7
:100E9000F5CFDBFF51D0050E146EB80E156E000EA7
:100EA000166EFE0EDBCF17F0186A196AD890173647
:100EB0001836193614501724F36E15501820F46E96
:100EC00016501920F86EF4CFF7FFF3CFF6FF0900A4
:100ED000010EF5CFDBFF0A00020EF5CFDBFF050E9A
:100EE000146EB80E156E000E166EFE0EDB28176E11
:100EF000186A196AD89017361836193614501724FC
:100F0000F36E15501820F46E16501920F86EF4CFB9
:100F1000F7FFF3CFF6FF0900030EF5CFDBFF0A0062
:100F2000040EF5CFDBFF08D0030EDB6A040EDB6A8C
:100F3000010EDB6A020EDB6A030EDBCF16F0040E35
:100F4000DBCF17F0010EDB50165C146E020EDB5087
:100F50001758156E050E14C0DBFF060E15C0DBFF1B
:100F6000070EDB6A080EDB6AD950050FE96EDACF8F
:100F7000EAFFD890030EEB50000A08E6010EEE5C83
:100F8000000EEE58000EEE58000EEE580BE2FC0E6E
:100F9000DBCFE9FFFD0EDBCFEAFFEE6AED6AF36A15
:100FA000F46ACAD04251010A57E0010A01E0AFD009
:100FB000DF6ADFCF14F0156A166A176A050EDBCFF9
:100FC00007F0060EDBCF08F0070EDBCF09F0080EA6
:100FD000DBCF0AF017500A18E8AE02D00A3408D066
:100FE0000750145C08501558095016580A501758E5
:100FF00032E2000E146EAC0E156E000E166EDF504F
:10100000E76E010EDBCF17F0020EDBCF18F0E750D2
:101010001726000E1822196A14501724F36E155063
:101020001820F46E16501920F86EF4CFF7FFF3CFA6
:10103000F6FF0800F550E66EEA6ADF34FE0BEA368A
:10104000E96E000EE9260E0EEA22E552E750EE6E3A
:10105000ED6ADF2AAED75BD0DF6ADFCF14F0156A06
:10106000166A176A050EDBCF07F0060EDBCF08F015
:10107000070EDBCF09F0080EDBCF0AF017500A1875
:10108000E8AE02D00A3408D00750145C0850155856
:10109000095016580A50175839E2AD0E166EAE0EAA
:1010A000176E000E186EDF50E76E010EDBCF19F0E1
:1010B000020EDBCF1AF0E7501926000E1A221B6A27
:1010C000D89019361A361B3616501924F36E17505D
:1010D0001A20F46E18501B20F86EF4CFF7FFF3CFF0
:1010E000F6FF0900F5CF14F00800F5CF15F0EA6A15
:1010F000DF34FE0BEA36E96E000EE9260E0EEA2218
:1011000014C0EEFF15C0EDFFDF2AA7D700D0FC0EFC
:10111000DBCFE9FFFD0EDBCFEAFF050EDBCFEEFFF5
:10112000060EDBCFEDFF000E146E0E0E156E14C012
:10113000F3FF15C0F4FF00D0090EE15C02E2E16AA2
:0C114000E552E16EE552E7CFD9FF120046
:04114C00D8CFE4FF15
:10115000E0CFE4FFE46EDACFE4FFE2CFDAFFE9CFDD
:10116000E4FFEACFE4FFF6CFE4FFF7CFE4FFF8CFE8
:10117000E4FFF5CFE4FFF3CFE4FFF4CFE4FFFACFD1
:10118000E4FFFBCFE4FF00EE00F0140EE80403E3FD
:10119000EECFE4FFFBD700EE14F0080EE80403E303
:1011A000EECFE4FFFBD7E652A9EC0AF0E55200EEE1
:1011B0001BF0080EE80403E3E5CFEDFFFBD700EEDC
:1011C00013F0140EE80403E3E5CFEDFFFBD7E5CF02
:1011D000FBFFE5CFFAFFE5CFF4FFE5CFF3FFE5CF67
:1011E000F5FFE5CFF8FFE5CFF7FFE5CFF6FFE5CF59
:1011F000EAFFE5CFE9FFE5CFDAFFE550E5CFE0FF15
:10120000E5CFD8FF1000D8CFE4FFE0CFE4FFE46ED5
:10121000DACFE4FFE2CFDAFFE9CFE4FFEACFE4FF81
:10122000F6CFE4FFF7CFE4FFF8CFE4FFF5CFE4FF1C
:10123000F3CFE4FFF4CFE4FFFACFE4FFFBCFE4FF0A
:1012400000EE00F0140EE80403E3EECFE4FFFBD75A
:1012500000EE14F0080EE80403E3EECFE4FFFBD742
:10126000E6522DD8E55200EE1BF0080EE80403E329
:10127000E5CFEDFFFBD700EE13F0140EE80403E317
:10128000E5CFEDFFFBD7E5CFFBFFE5CFFAFFE5CFDD
:10129000F4FFE5CFF3FFE5CFF5FFE5CFF8FFE5CFAE
:1012A000F7FFE5CFF6FFE5CFEAFFE5CFE9FFE5CFB2
:1012B000DAFFE550E5CFE0FFE5CFD8FF100053CFD0
:1012C000E6FF86EC00F0E5521200D9CFE6FFE1CF51
:1012D000D9FF3D0EE126DF6AD9501C0FE96EDACF47
:1012E000EAFF540EEE6E650EEE6E730EEE6E740E29
:1012F000EE6E690EEE6E6E0EEE6E670EEE6EEE6ABE
:101300002B0EEE6EEE6EEE6EEE6EEE6EEE6EEE6E20
:10131000EE6EEE6EEE6EEE6EEE6E310EDB6A320E3D
:10132000DB6A330EDB6A340EDB6A350EDB6A360E9F
:10133000DB6A370EDB6A380EDB6A390EDB6A3A0E7F
:10134000DB6A3B0EDB6A3C0EDB6A400E9B6E020ED4
:10135000D36E13EC0AF053CFE6FF36EC04F0E552FF
:101360002EEC00F030EC00F0D9501C0FE66E000EB1
:10137000DA20E66EE66AE66A89EC02F0E552E552AA
:10138000E552E552380EDB6A390EDB6A380EDBCFE8
:10139000E6FF390EDBCFE6FF44EC0CF0E552E552F8
:1013A0009F80F40EF36E370EF3CFDBFFDBCFE6FF4B
:1013B00005EC0CF0E5523B0EDB6A3C0EDB6A3B0EA3
:1013C000DB50CC6E7B0EF36E3A0EF3CFDBFFDBCF40
:1013D000E6FF60EC0CF0E552E66A96EC0CF0E552A4
:1013E000310EDB68DBCFE6FFE3EC0BF0E552350EA8
:1013F000DB6A0F0EF36E360EF3CFDBFF350EDBCF5D
:10140000E6FF360EDBCFE6FF90EC0BF0E552E5523F
:10141000FFD73D0EE15C02E2E16AE552E16EE55282
:06142000E7CFD9FF120026
:0A142600D76AD66AF194F294F28AB4
:10143000870ED56E1200F28A0000F29AD6CF37FEE0
:10144000D7CF38FE3DCE39FE3ECE3AFE3FCE3BFEF4
:1014500040CE3CFEF2B4EFD7F28A1200ECDF37CE7A
:1014600006F038CE07F039CE08F03ACE09F000D0B9
:101470001200D9CFE6FFE1CFD9FF040EE126DBDF72
:1014800038CEDFFF010E39CEDBFF020E3ACEDBFF96
:10149000030E3BCEDBFFDECF06F0DECF07F0DECF64
:1014A00008F0DDCF09F0DD52DD52040EE15C03E20D
:1014B00000D0E16AE552E16EE552E7CFD9FF1200B4
:1014C000D9CFE6FFE1CFD9FF040EE126B4DF39CE54
:1014D000DFFF010E3ACEDBFF020E3BCEDBFF030E39
:1014E0003CCEDBFFDECF06F0DECF07F0DECF08F02C
:1014F000DDCF09F0DD52DD52040EE15C03E200D0E5
:10150000E16AE552E16EE552E7CFD9FF1200D9CF8B
:10151000E6FFE1CFD9FFFB0EDBCF06F0FC0EDBCF01
:1015200007F0FD0EDBCF08F0FE0EDBCF09F0100E4A
:101530000626000E072208220922200E0B6E0C6AD6
:101540000D6A0E6ABFEC0BF000D0E552E7CFD9FF71
:101550001200F2A407D00E013D2B000E3E233F23C4
:061560004023F29412008A
:0A1566001E0EF66E000EF76E000E6A
:10157000F86E0E010900F550326F0900F550336F17
:1015800003E1326701D03DD00900F5502D6F09000D
:10159000F5502E6F0900F5502F6F09000900F55026
:1015A000E96E0900F550EA6E090009000900F550DE
:1015B000306F0900F550316F09000900F6CF34FE95
:1015C000F7CF35FEF8CF36FE2DCEF6FF2ECEF7FF45
:1015D0002FCEF8FF0E01305302E1315307E009002E
:1015E000F550EE6E3007F8E23107F9D734CEF6FF4A
:1015F00035CEF7FF36CEF8FF0E013207000E335B13
:04160000BFD712003E
:0C160400D9CFE6FFE1CFD9FF020EE126AE
:10161000010EDB6AFC0EDB50F36E010EDBCFF4FF34
:10162000F350F45C2FE2C6A611D0FD0EDBCFE9FF2C
:10163000FE0EDBCFEAFFEF50E66E50EC0BF0E5520A
:10164000DF6EDF5002E0DF501FD014D09E96FD0EFB
:10165000DBCFE9FFFE0EDBCFEAFFEF50C96EC68895
:101660009EA6FED7C750040B05E1C750010B02E14F
:10167000FE0E0AD0FD0EDB2AFE0E01E3DB2A010E70
:10168000DB2AC8D7000E00D0146E020EE15C02E225
:10169000E16AE552E16E1450E552E7CFD9FF12003E
:1016A000D9CFE6FFDACFE6FFE1CFD9FFE2CFDAFF0D
:1016B000FD0EDB50C96EC6AE02D0FF0E2BD00F0E52
:1016C000C61408080FE00F0EC6140B080BE0C688FE
:1016D0009EA6FED7C750040B03E1C750010B17E0CD
:1016E000000E18D00F0EC614080804E00F0EC61422
:1016F0000B0810E1C7B0FED7C750040B01E0010E84
:10170000146E1F0EC5141410F7E1C5AC02D0FE0E06
:1017100001D0000EE552E5CFDAFFE7CFD9FF120086
:10172000D9CFE6FFDACFE6FFE1CFD9FFE2CFDAFF8C
:10173000E652E652FC0EDBCF14F0FD0EDBCF15F0C7
:10174000060ED89014361536E804FBE114C0DEFF0F
:1017500015C0DDFF010EDB50716EDF50E840E84040
:101760003F0B300B146ECF0E70141410706EE552D8
:0E177000E552E552E5CFDAFFE7CFD9FF1200D0
:02177E00056AFA
:10178000046A036A026A200EE76ED89006360736AE
:101790000836093602360336043605360B50025C2D
:1017A0000C5003580D5004580E50055809E30B50C7
:1017B000025E0C50035A0D50045A0E50055A062A68
:0617C000E72EE4D7120041
:0A17C600D9CFE6FFDACFE6FFE1CF4E
:1017D000D9FFE2CFDAFF0C0E706EB150400B09E179
:1017E000B150080B06E1CA94FD0EDB50CB6ECA84E3
:1017F00005D07694FD0EDB50776E76849898E5528E
:0A180000E5CFDAFFE7CFD9FF1200B1
:06180A00D9CFE6FFDACFA2
:10181000E6FFE1CFD9FFE2CFDAFFFD0EDB507E0B12
:10182000CD6EFD0EDBAC02D0CD8E01D0CD9ECF6A49
:10183000CE6A9E90DBAE02D09D8001D09D90CD807F
:0C184000E552E5CFDAFFE7CFD9FF120038
:04184C0008C012F0CE
:1018500008500D02F4CF07F0F3CF06F009500E0246
:10186000F4CF09F0F3CF08F00D02F3500726F4503F
:101870000822E86A092212500E02F3500726F4509B
:081880000822E86A0922000CAD
:08188800D9CFE6FFDACFE6FF3D
:10189000E1CFD9FFE2CFDAFFE652E652FC0EDBCF12
:1018A000DEFFDBCFDDFF010EDB50CF6EDF50CE6EF3
:1018B000E552E552E552E5CFDAFFE7CFD9FF120056
:1018C000D9CFE6FFDACFE6FFE1CFD9FFE2CFDAFFEB
:1018D000FD0EDB50FB0BCA6ECC6A9E92FD0EDBAE9A
:1018E00002D09D8201D09D92CA84E552E5CFDAFFF5
:0618F000E7CFD9FF120052
:0A18F600D9CFE6FFDACFE6FFE1CF1D
:10190000D9FFE2CFDAFF3F0EC716C66AC56AFD0EE1
:10191000DB50C612FC0EDB50C71294869488C68A30
:0C192000E552E5CFDAFFE7CFD9FF120057
:04192C00D9CFE6FF2A
:10193000DACFE6FFE1CFD9FFE2CFDAFFB70EB1147D
:10194000B16EFD0EDB50480BB110B16EE552E5CF24
:08195000DAFFE7CFD9FF120016
:08195800800EF36E00EE00F0BA
:101960000E0E07D8600EF36E0FEE00F00F0E01D8CA
:101970001200EA6002D0EE6AFCD7F350E960120070
:04198000EE6AFCD738
:0C198400FF0EE3501C6E480E01D04C0E0C
:10199000E76EE72EFED7E76AE72EFED71C2EF7D7B5
:0419A0000000120031
:0C19A4001DEE00F02DEE00F0F86A019C32
:1019B000B3EC0AF003EC00F065EC09F0FBD7120081
:1019C000010E1284060824010D050B17B3010B0448
:0719D00008580110204080BF
:0919D700004D4943524F434849B9
:1019E000503A4932435F4D4153544552007800000C
:0A19F00000000000000000000000ED
:10AC000000000000002F030000247E24247E242462
:10AC10004AFF52240225120804122910102A252D59
:10AC2000123824037EC3C37E0A0A041F040A0A08DA
:10AC30001C08008008080880300C031E21211E0219
:10AC40003F223129261221251A1814123F101725E8
:10AC500025191E252519013905031A25251A262926
:10AC6000291E244024081422141414142214080247
:10AC70002906384492AABAA29C403E09093E3F25C3
:10AC8000251A1E2121123F21211E3F2525213F0586
:10AC900005011E21293A3F04043F213F21102020B5
:10ACA0001F3F040A313F2020203F0204023F3F188B
:10ACB000063F0C122121120C3F0909060C12212912
:10ACC000122C3F0909361225291201013F01011FEB
:10ACD00020201F030C300C03030C300C030C300C31
:10ACE0000321120C122103043804032131292523E6
:10ACF00021FF81033CC081FF0402010204808080A7
:10AD000080800102122A2A2A3C3F24241818242475
:10AD1000241824243F1C2A2A2A04043F0598A4A4AA
:10AD20007C3F0404383D807D3F080C343F3C043CAC
:10AD300004383C04043818242418FC24241818244B
:10AD400024FC3C080404242A2A12021F221C20206E
:10AD50003C0C1020100C1C201C201C241818249CB7
:10AD6000A0A07C24342C24106E00FF816E100804F7
:10AD70000408043E2B2A23221C2B2A2B043E0909FB
:10AD80003E3F252525193F2525251A3F01010101B3
:10AD9000603E21213E603F25252121310A043F04E8
:10ADA0000A312125251A3F1008043F3F1009043FAE
:10ADB0003F040A31203F01013F3F0204023F3F04AC
:10ADC000043F0C122121120C3F01013F3F090906EB
:10ADD0001E21212101013F0101072828281F0E11F2
:10ADE0003F110E310A040A313F20203F6007080856
:10ADF0003F3F203F203F3F203F203F60013F242432
:10AE0000183F2424183F3F242418122125251E3FD3
:10AE1000081E21211E360909093F122A2A2A3C1E32
:10AE20002525193E2A2A2A143C0404046038243CAF
:10AE3000601C2A2A2A2434083C0834222A2A143C7A
:10AE400010083C3C11093C3C080834203C04043CFC
:10AE50003C0810083C3C08083C182424183C040416
:10AE60003C3C1414081824242404043C04049CA02E
:10AE7000A07C18247E2418241818243C20203C6030
:10AE80000C10103C3C203C203C3C203C203C60040E
:10AE90003C2828103C2828103C3C28281014222A42
:10AEA0002A1C3C0818242418281414143C00000000
:10AEB00000000000000000DF00DE000700070000C7
:10AEC0000007000700E4003C002700E4003C0027E6
:10AED000009C003201FF033201E4000F000900CFA3
:10AEE0000030000C00F3009000F0006000F6009FBE
:10AEF000009900F700E600B000030003007800FEB0
:10AF00000103030303FE0178000A0007000A001092
:10AF10000010007C0010001000C002C001100010E2
:10AF2000001000C000C000C0003C0003007E00FF15
:10AF3000008100FF007E000C000600FF00FF00C241
:10AF400000E300B1009F008E004200C3008900FFB3
:10AF500000760030002C002200FF00FF0020005C83
:10AF600000CF008B00F90071007E00FF008900FB1C
:10AF70000072000100F100FD000F0003007600FFE9
:10AF8000008900FF0076004E00DF009100FF007E88
:10AF900000CC00CC00CC02CC011800180024002406
:10AFA0000042002800280028002800080042002451
:10AFB000002400180018000200D300D9000F00067A
:10AFC000007800860172018D028502C502FD028DA6
:10AFD0000242013C01E000FC003F0023003F00FC76
:10AFE00000E000FF00FF0089008900FF0076003CC0
:10AFF000007E00C30081008100C3004200FF00FF0B
:10B000000081008100FF007E00FF00FF00890089B1
:10B010000089008100FF00FF00090009000900010C
:10B02000003C007E00C30081009100F3007200FF2D
:10B0300000FF0008000800FF00FF00FF00FF0040C5
:10B0400000C0008000FF007F00FF00FF0018003EEE
:10B0500000F700C100FF00FF00800080008000803A
:10B0600000FF00FF000F007C00E0007C000F00FFED
:10B0700000FF00FF00FF000C003000FF00FF003C5D
:10B08000007E00C3008100C3007E003C00FF00FF83
:10B0900000110011001F000E003C007E00C300A143
:10B0A00000C300FE003C010001FF00FF0011003161
:10B0B000007F00CE0080004E00CF0099009900F381
:10B0C00000720001000100FF00FF00010001007F8D
:10B0D00000FF0080008000FF007F0003003F00FCB5
:10B0E00000C000FC003F00030003003F00FC00E044
:10B0F000003E0007003E00E000FC003F000300C3EC
:10B1000000E7003C003C00E700C30003000F00F82C
:10B1100000F8000F000300C100E100B10099008DAC
:10B120000087008300FF03FF03010203003C00C00F
:10B13000000102FF03FF0308000E0003000E0008D9
:10B1400000000200020002000200020002010003EF
:10B150000002006800F4009400FC00F800FF00FF0B
:10B160000084008400FC0078007800FC008400CC9F
:10B170000048007800FC0084008400FF00FF007895
:10B1800000FC0094009400DC0058000400FE00FF66
:10B1900000050001007801FC0284028402FC03FC2B
:10B1A00001FF00FF0004000400FC00F800FD00FDAA
:10B1B000000002FD03FD01FF00FF0030007800ECFD
:10B1C000008400FE00FF00FC00FC0004000400FC02
:10B1D00000FC0004000400FC00F800FC00FC00047B
:10B1E000000400FC00F8007800FC0084008400FCEF
:10B1F000007800FC03FC0384008400FC00780078E5
:10B2000000FC0084008400FC03FC03FC00FC00083C
:10B21000000400040004005800DC00B400B400EC9A
:10B2200000680004007E00FF0084007C00FC0080B9
:10B23000008000FC00FC003C00FC00C000FC003C66
:10B24000001C00FC00E00078000C007800E000FC2E
:10B25000001C00CC00FC003000FC00CC0004023CD0
:10B2600002F803C001F8003C000400C400E400B48C
:10B27000009C008C002000FE0100000102FF030181
:10B2800002DF03FE01200010000800080010000883
:10B2900000FE00FF0092009200830082007800FD13
:10B2A0000094009400DD005800E000FC003F002303
:10B2B000003F00FC00E000FF00FF008900890089DA
:10B2C00000F9007000FF00FF0089008900FF007690
:10B2D00000FF00FF000100010001008003FF00FFEC
:10B2E000008100FF00FF008003FF00FF008900894C
:10B2F0000081008100F3007E000800FF00FF0008CD
:10B30000007E00F30081004200C30089008900FF35
:10B31000007600FF00FF00600030001800FF00FF13
:10B3200000FF00FF00600033001800FF00FF00FF77
:10B3300000FF0008007E00F30081008000FF007F16
:10B340000001000100FF00FF00FF00FF000F007C74
:10B3500000E0007C000F00FF00FF00FF00FF00087E
:10B36000000800FF00FF003C007E00C3008100C316
:10B37000007E003C00FF00FF00010001000100FF13
:10B3800000FF00FF00FF00110011001F000E003C35
:10B39000007E00C30081008100C300420001000163
:10B3A00000FF00FF000100010003008F00FC007897
:10B3B000001F0007003C007E004200FF00FF00422B
:10B3C000007E003C00C300E7003C003C00E700C3F7
:10B3D00000FF00FF0080008000FF00FF0080030FDF
:10B3E000001F00100010001000FF00FF00FF00FF12
:10B3F0000080008000FF00FF0080008000FF00FF51
:10B4000000FF00FF0080008000FF00FF0080008040
:10B4100000FF00FF00800301000100FF00FF008823
:10B420000088008800F8007000FF00FF0088008896
:10B43000008800F8007000FF00FF00FF00FF008898
:10B440000088008800F800700024006600C30089AE
:10B4500000CB007E003C00FF00FF0018003C007E97
:10B4600000C3008100C3007E003C008000CE007F4E
:10B470000031001100FF00FF006800F4009400FCA0
:10B4800000F8007E00FD0085008500FD007900FCCD
:10B4900000FC0094009400FC006800FC00FC000428
:10B4A0000004008003C000FC008400FC00FC00805D
:10B4B000037800FC0094009400DC005800C400EC09
:10B4C000001000FC00FC001000EC00C400480084E8
:10B4D000009400FC006800FC00FC0060001800FC08
:10B4E00000FC00FC00FD0061001900FD00FC00FCF8
:10B4F00000FC0010007800EC0084008000FC007C60
:10B50000000400FC00FC00FC00FC003000C0003027
:10B5100000FC00FC00FC00FC0010001000FC00FC23
:10B52000007800FC0084008400FC007800FC00FC33
:10B530000004000400FC00FC00FC03FC0384008405
:10B5400000FC0078007800FC008400CC0048000477
:10B5500000FC00FC00040004023C02F803C001F8F7
:10B56000003C0004007800FC008400FF03FF03841B
:10B5700000FC007800CC00FC003000FC00CC00FC9B
:10B5800000FC0080008000FC00FC0080031C003CEC
:10B59000002000FC00FC00FC00FC008000FC00FC23
:10B5A000008000FC00FC00FC00FC008000FC00FCB3
:10B5B000008000FC00FC0080030400FC00FC009004
:10B5C00000F0006000FC00FC009000F0006000FC57
:10B5D00000FC00FC00FC009000F00060004800CC83
:10B5E000009400FC007800FC00FC0010007800FCD7
:10B5F000008400FC0078008000D8007C002400FC5F
:10B6000000FC00000000000000000000000000003E
:10B61000000000000000000000000000000000002A
:10B62000000000000000000000000000000000001A
:10B63000000000000000000000000000000000000A
:10B6400000000000000500060009000F0014001CA7
:10B650000023002400260028002F00320034003789
:10B660000038003B003F004100450049004E0052B9
:10B670000056005A005E0062006300650068006CBE
:10B68000006F0072007A007E00820086008A008EC1
:10B6900000920096009A009D00A100A500A900AEAE
:10B6A00000B200B800BC00C200C600CA00CF00D380
:10B6B00000D800E100E600EB00F100F300F600F82E
:10B6C00000FD000201040109010D01110115011A1B
:10B6D000011D0121012501260128012C012D013226
:10B6E0000136013A013E01420146014A014D015134
:10B6F0000156015B015F01630167016A016B016E25
:10B700000173017301730173017301730173017399
:10B710000173017301730173017301730173017389
:10B720000173017301730173017301730173017379
:10B730000173017301730173017301730173017369
:10B740000173017301730173017301730173017359
:10B75000017301730178017801780178017801782B
:10B760000178017801780178017801780178017811
:10B7700001780178017D017D017D017D017D017DE3
:10B78000017D017D01810186018B01900196019B64
:10B7900001A201A601AB01B001B401B901BE01C211
:10B7A00001C801CC01D001D401D901DE01E301E8D7
:10B7B00001ED01F101F601FC01010206020A020F8E
:10B7C0000215021A021F02230228022C023102363D
:10B7D000023B023F02430247024B0250025502590C
:10B7E000025D026102650269026E02720277027BEB
:10B7F000028002840289028F02940299029D02A2B1
:10B8000002A802AD020000000000000000000000DD
:10B810000000000000000000000000000000000028
:10B820000000000000000000000000000000000018
:10B830000000000000000000000000000000000008
:10B8400000000000000000050007000C00120017B7
:10B85000001F00260028002B002E00310036003883
:10B86000003B003D004000450049004E0053005998
:10B87000005E00630068006D007200740076007B5B
:10B8800000800085008A0094009B00A100A800AE03
:10B8900000B400BA00C100C700C900CE00D400DA6D
:10B8A00000E300E900F000F600FE0005010B0111C5
:10B8B0000117011E0129012F0135013C013F014201
:10B8C0000145014A015001530158015E01630169BC
:10B8D000016F0174017A018001820185018B018D64
:10B8E0000197019D01A301A901AF01B501BB01BFF2
:10B8F00001C501CA01D301D801DF01E401E801E972
:10B9000001ED01F201F201F201F201F201F201F2A4
:10B9100001F201F201F201F201F201F201F201F28F
:10B9200001F201F201F201F201F201F201F201F27F
:10B9300001F201F201F201F201F201F201F201F26F
:10B9400001F201F201F201F201F201F201F201F25F
:10B9500001F201F201F201F801F801F801F801F831
:10B9600001F801F801F801F801F801F801F801F80F
:10B9700001F801F801F801FE01FE01FE01FE01FEE1
:10B9800001FE01FE01FE0105020C02120217021E59
:10B990000223022D0233023A02410247024E0257AD
:10B9A000025D0264026B02710278027E0284028CE4
:10B9B0000292029902A002AA02B502BE02C702CEFA
:10B9C00002D502DF02E602EB02F102F702FB0202FD
:10B9D000030803100315031B03210327032D03345E
:10B9E000033A03400346034C03510355035C0364CD
:10B9F000036903700375037D0386038C0393039827
:07BA0000039D03A503AB0346
:020000040001F9
:01FFF800A068
:01FFFA00C541
:01FFFD00F70C
:00000001FF
