:020000040000FA
:0600000050EF1DF012009C
:020006001200E6
:0600080018EF0FF01200DA
:02000E000000F0
:020010000000EE
:020012000000EC
:040014009E9FFE416C
:06001800BBEF0EF0120028
:02001E000600DA
:100020007F3A0000770E000001000000140000007D
:10003000720E000004000000120000005E0F0000BD
:1000400002000000F03A0000520F00000C00000017
:100050000E0000006E0E000004000000BC3A00001C
:08006000000E00003400000056
:08006800D9CFE6FFE1CFD9FF7B
:10007000050EE12672CEDFFF010E73CEDBFF020E0E
:1000800074CEDBFF030E75CEDBFFFB0EDBCF14F06F
:10009000FC0EDBCF15F0FD0EDBCF16F0FE0EDBCF36
:1000A00017F014501510161017100BE1010EF36E17
:1000B000FB0EF3CFDBFFFC0EDB6AFD0EDB6AFE0EF0
:1000C000DB6AFB0EDBCF72FEFC0EDBCF73FEFD0E98
:1000D000DBCF74FEFE0EDBCF75FE040EDB6A100E66
:1000E000F36E040EDBCFF4FFF350F45C04E218D897
:1000F000040EDB2AF4D7DECF06F0DECF07F0DECF2A
:1001000008F0DDCF09F0DD52DD52050EE15C03E2BF
:1001100000D0E16AE552E16EE552E7CFD9FF120067
:10012000D9CFE6FFE1CFD9FFE652DF6A0F0EDF5CE1
:1001300037E272CE14F073CE15F074CE16F075CE91
:1001400017F0D890173216321532143272CE18F0DA
:1001500073CE19F074CE1AF075CE1BF0010E18167E
:10016000196A1A6A1B6A000E186C191E19221A1EC7
:100170001A221B1E1B22010E1816196A1A6AD00EAB
:100180001B16145018180E01726F15501918736F42
:1001900016501A18746F17501B18756FDF2AC6D7C0
:1001A00072CEF3FF73CEF4FF00D0E552E552E7CFF5
:1001B000D9FF1200D9CFE6FFE1CFD9FF140EE12617
:1001C0000F0EC2CFDBFF100EC0CFDBFF110ED5CF5D
:1001D000DBFF130ED6CFDBFF120ED7CFDBFF010EF6
:1001E000C26E3F0EC06E880ED56EDF6A070EDB6AE8
:1001F000080EDB6A090EDB6A0A0EDB6A050EDB6A93
:10020000060EDB6A8DDFF3CF14F0F4CF15F00B0E82
:1002100014C0DBFF0C0E15C0DBFF0D0EDB6A0E0EEB
:10022000DB6AD76AD66AC2820400C2B2FED7030E66
:10023000D6CFDBFF040ED7CFDBFF72DFDE52F3CF6A
:10024000DEFFF4CFDDFFDD52030EDBCF14F0040E32
:10025000DBCF15F0166A176AD950070FE96EDACFAF
:10026000EAFF1450EE261550EE221650EE221750DB
:10027000EE22D950070FE96EDACFEAFF1A0EEE5CD4
:10028000F20EEE589E0EEE58000EEE581DE348DFBB
:10029000F3CF14F0F4CF15F0D9500B0FE96EDACF8D
:1002A000EAFF1450EE1A1550ED1A3ADFF3CF14F0AE
:1002B000F4CF15F0D9500D0FE96EDACFEAFF1450E4
:1002C000EE1A1550ED1A5CD0050EDBCF14F0060EB9
:1002D000DBCF15F0030EDB50141803E1040EDB50E6
:1002E000151801E19ED7050EDBCF1AF0060EDBCF05
:1002F0001BF0030EDB501A5C186E040EDB501B580B
:10030000196E010EDB501824146E020EDB501920FA
:10031000156E166A176A14C0E6FF15C0E6FF16C010
:10032000E6FF17C0E6FFA0DEE552E552E552E552D2
:10033000030EDBCF08F0040EDBCF09F0050E08C07A
:10034000DBFF060E09C0DBFFD9500B0FE96EDACFD9
:10035000EAFFD890EF36010EEB36020EEB36030EB5
:10036000EB36DEDEF350800B07E0D9500B0FE96E61
:10037000DACFEAFFEE80ED52DF2A01E101D051D75A
:100380000F0EDB50C26E100EDB50C06E120EDB5033
:10039000D76E130EDB50D66E110EDB50D56E0B0EE2
:1003A000DBCF14F00C0EDBCF15F00D0EDBCF16F00B
:1003B0000E0EDBCF17F014C006F015C007F016C004
:1003C00008F017C009F000D0140EE15C02E2E16A07
:1003D000E552E16EE552E7CFD9FF1200D9CFE6FF33
:1003E000E1CFD9FF070EE126050EDB6A060EDB6AB8
:1003F000DE6ADE6ADE6ADD6ADD52DD52FD0EDBCFCB
:10040000E9FFDB2AFE0EDBCFEAFF01E3DB2A040E65
:10041000EFCFDBFFEF5001E1BBD0060EDB5003084E
:1004200001E2B6D0300E146E040EDBCFE7FF14509D
:10043000E75E040EE7CFDBFF050EDB5007E1040E9D
:10044000DB50090802E2000EE7D08FD0050EDB502A
:10045000030844E1040EDB50FE0802E0000EDCD08D
:10046000D9CFE9FFDACFEAFFD880050EEE54050EAA
:10047000EE54020EEE54000EEE5402E2000ECCD00A
:10048000010EDB500A0DF3CF16F0020EDB50640DA7
:10049000F3501624DF24E66EFB0EDBCFE9FFFC0EE3
:1004A000DBCFEAFFE9CF14F0EACF15F0060EDBCF81
:1004B000F3FFDB2AF3500F011424E96E000E152020
:1004C000EA6EE552E750EF6E050EDB6ADE6ADE6A21
:1004D000DE6ADD6ADD52DD5291D747D0040EDB5073
:1004E000FE083DE1D9CFE9FFDACFEAFFD880050E5B
:1004F000EE54050EEE54020EEE54000EEE5402E2DF
:10050000000E8AD0010EDB500A0DF3CF16F0020E5A
:10051000DB50640DF3501624DF24E66EFB0EDBCFB8
:10052000E9FFFC0EDBCFEAFFE9CF14F0EACF15F0CC
:10053000060EDBCFF3FFDB2AF3500F011424E96E24
:10054000000E1520EA6EE552E750EF6E050EDB6AED
:10055000DE6ADE6ADE6ADD6ADD52DD524FD7040EE6
:10056000DB50090802E2000E57D0050EDB2AD9CF76
:10057000E9FFDACFEAFFEF50EE6AEFCFF4FFEE6E5D
:10058000EF50F4CFEEFFEF6E040EDB50DF6E36D788
:10059000040EDB5016E0040EDB502F0812E0040EB0
:1005A000DB500D080EE0040EDB500A080AE0040ED2
:1005B000DB50200806E0040EDB50090802E0000EC4
:1005C0002BD0D9CFE9FFDACFEAFFD880050EEE5461
:1005D000050EEE54020EEE54000EEE5402E2000E32
:1005E0001BD0010EDB500A0DF3CF14F0020EDB50CE
:1005F000640DF3501424DF24E66EFB0EDBCFE9FF1D
:10060000FC0EDBCFEAFF030EE926000EEA22E552DC
:10061000E750EF6E010E00D0146E070EE15C02E2AF
:10062000E16AE552E16E1450E552E7CFD9FF1200BE
:10063000D9CFE6FFE1CFD9FF070EE126050EDB6A31
:10064000060EDB6ADE6ADE6ADE6ADD6ADD52DD52D4
:10065000FD0EDBCFF6FFDB2AFE0EDBCFF7FF01E35B
:10066000DB2A0800040EF5CFDBFFF55001E1BBD01B
:10067000060EDB50030801E2B6D0300E146E040EF5
:10068000DBCFE7FF1450E75E040EE7CFDBFF050E7C
:10069000DB5007E1040EDB50090802E2000EE7D050
:1006A0008FD0050EDB50030844E1040EDB50FE083A
:1006B00002E0000EDCD0D9CFE9FFDACFEAFFD88024
:1006C000050EEE54050EEE54020EEE54000EEE54DE
:1006D00002E2000ECCD0010EDB500A0DF3CF16F073
:1006E000020EDB50640DF3501624DF24E66EFB0E81
:1006F000DBCFE9FFFC0EDBCFEAFFE9CF14F0EACF56
:1007000015F0060EDBCFF3FFDB2AF3500F011424A4
:10071000E96E000E1520EA6EE552E750EF6E050E09
:10072000DB6ADE6ADE6ADE6ADD6ADD52DD5290D7A0
:1007300047D0040EDB50FE083DE1D9CFE9FFDACF08
:10074000EAFFD880050EEE54050EEE54020EEE546C
:10075000000EEE5402E2000E8AD0010EDB500A0DAC
:10076000F3CF16F0020EDB50640DF3501624DF2495
:10077000E66EFB0EDBCFE9FFFC0EDBCFEAFFE9CF35
:1007800014F0EACF15F0060EDBCFF3FFDB2AF350AF
:100790000F011424E96E000E1520EA6EE552E750B1
:1007A000EF6E050EDB6ADE6ADE6ADE6ADD6ADD5246
:1007B000DD524ED7040EDB50090802E2000E57D07E
:1007C000050EDB2AD9CFE9FFDACFEAFFEF50EE6A58
:1007D000EFCFF4FFEE6EEF50F4CFEEFFEF6E040EAE
:1007E000DB50DF6E35D7040EDB5016E0040EDB5015
:1007F0002F0812E0040EDB500D080EE0040EDB5053
:100800000A080AE0040EDB50200806E0040EDB5064
:10081000090802E0000E2BD0D9CFE9FFDACFEAFFBA
:10082000D880050EEE54050EEE54020EEE54000E66
:10083000EE5402E2000E1BD0010EDB500A0DF3CF86
:1008400014F0020EDB50640DF3501424DF24E66E26
:10085000FB0EDBCFE9FFFC0EDBCFEAFF030EE92640
:10086000000EEA22E552E750EF6E010E00D0146E42
:10087000070EE15C02E2E16AE552E16E1450E552D6
:10088000E7CFD9FF1200D9CFE6FFE1CFD9FF060E9F
:10089000E126050EDB6AD950FD0FE96EFF0EDA2066
:1008A000EA6EEE50ED1001E178D0DF6A100EF36EC3
:1008B000030EF3CFDBFF270EF36E040EF3CFDBFF47
:1008C000050EDF5C69E2FD0EDBCF08F0FE0EDBCF2C
:1008D00009F0030EDBCF0DF0040EDBCF0EF0F0ECD1
:1008E0001CF0DE5208C0DEFF09C0DDFFDD52D9502A
:1008F000010FE96EDACFEAFFEE50ED1003E1050ECD
:10090000DB5036E0010EDBCF14F0020EDBCF15F02A
:10091000300E1426000E1522FB0EDBCFE9FFDB2A7A
:10092000FC0EDBCFEAFF01E3DB2A14C0EFFF010E70
:10093000DBCF08F0020EDBCF09F0030EDBCF0DF0AA
:10094000040EDBCF0EF0B7EC1CF006C014F007C0AD
:1009500015F0D950FD0FE96EFF0EDA20EA6E145043
:10096000EE5E1550ED5A010EF36E050EF3CFDBFF70
:10097000D950030FE96EDACFEAFF0A0E0D6E0E6A48
:10098000EECF08F0EDCF09F0F0EC1CF008C0EEFF60
:1009900009C0EDFFDF2A94D70BD0FB0EDBCFE9FFB8
:1009A000DB2AFC0EDBCFEAFF01E3DB2A300EEF6E21
:1009B000FB0EDBCFE9FFFC0EDBCFEAFFEF6A060E92
:1009C000E15C02E2E16AE552E16EE552E7CFD9FF70
:1009D0001200D9CFE6FFE1CFD9FFFE0EDB5046086B
:1009E0000AE2200E146EFE0EDBCFE7FF1450E75E26
:1009F000FE0EE7CFDBFFFD0EDB5046080AE2200EBD
:100A0000146EFD0EDBCFE7FF1450E75EFD0EE7CF5F
:100A1000DBFFFE0EDB5039080BE2370E146EFE0EC4
:100A2000DBCFE7FF1450E75EFE0EE7CFDBFF0AD017
:100A3000300E146EFE0EDBCFE7FF1450E75EFE0EA5
:100A4000E7CFDBFFFD0EDB5039080BE2370E146EEB
:100A5000FD0EDBCFE7FF1450E75EFD0EE7CFDBFFB7
:100A60000AD0300E146EFD0EDBCFE7FF1450E75EA8
:100A7000FD0EE7CFDBFFDBCFE6FFFE0EDB38F00B32
:100A8000E552E71000D0E552E7CFD9FF1200D9CFE9
:100A9000E6FFE1CFD9FFFE0EDB380F0BF36EFE0E43
:100AA000F3CFDBFFDB50090805E2FE0EDB50410F00
:100AB000F60F03D0FE0EDB50300F00D0E552E7CF2B
:100AC000D9FF1200D9CFE6FFE1CFD9FFFE0EDB98A8
:100AD000DB9ADB9CDB9EFE0EDB50090805E2FE0E76
:100AE000DB50410FF60F03D0FE0EDB50300F00D06D
:100AF000E552E7CFD9FF1200D9CFE6FFE1CFD9FF0A
:100B0000020EE126FD0EDBCFE9FFFE0EDBCFEAFF92
:100B1000EFCFDFFFFB0EDBCFF6FFFC0EDBCFF7FFE7
:100B20000800010EF5CFDBFFDF504BE0010EDB507C
:100B300048E0610EDF5C05E3DF507A0802E3200E37
:100B4000DF5E610EF36E010EDBCFF4FFF350F45C59
:100B50000EE3010EDB507A080AE3200E146E010E3C
:100B6000DBCFE7FF1450E75E010EE7CFDBFF010E9E
:100B7000DB50D880DF5402E2010E32D0010EDB5090
:100B8000DF5C02E2FF0E2CD0FD0EDB2AFE0E01E33D
:100B9000DB2AFB0EDB2AFC0E01E3DB2AFD0EDBCF9A
:100BA000E9FFFE0EDBCFEAFFEFCFDFFFFB0EDBCF6F
:100BB000F6FFFC0EDBCFF7FF0800010EF5CFDBFFE1
:100BC000B3D7010EDB50D880DF5402E2010E08D00B
:100BD000010EDB50DF5C02E2FF0E02D0000E00D0FF
:100BE000146E020EE15C02E2E16AE552E16E14501D
:100BF000E552E7CFD9FF1200D9CFE6FFE1CFD9FF09
:100C0000030EE126FD0EDBCFDEFFDBCFDDFF010EA5
:100C1000DB50E76E020EE7CFDBFF010EDFCFDBFF1D
:100C2000020EDB50DF6EDECF14F0DDCF15F014C006
:100C3000F3FF15C0F4FF030EE15C03E200D0E16AAC
:100C4000E552E16EE552E7CFD9FF1200D9CFE6FFBA
:100C5000E1CFD9FFFB0EDBCFE7FFFE0EDB50E71A3B
:100C6000FB0EE7CFDBFFFE0EDBCFE7FFFB0EDB501B
:100C7000E71AFE0EE7CFDBFFFB0EDBCFE7FFFE0E32
:100C8000DB50E71AFB0EE7CFDBFFFC0EDBCFE7FF05
:100C9000FD0EDB50E71AFC0EE7CFDBFFFD0EDBCFCE
:100CA000E7FFFC0EDB50E71AFD0EE7CFDBFFFC0E83
:100CB000DBCFE7FFFD0EDB50E71AFC0EE7CFDBFFD3
:100CC000FB0EDBCF14F0FC0EDBCF15F0FD0EDBCFFF
:100CD00016F0FE0EDBCF17F014C006F015C007F0BB
:100CE00016C008F017C009F000D0E552E7CFD9FFD1
:100CF0001200D9CFE6FFE1CFD9FF080EE126FB0EA7
:100D0000DBCF14F0FC0EDBCF15F0D8901532143287
:100D100014C0DEFF15C0DDFFFD0EDBCF08F0FE0EB8
:100D2000DBCF09F0020E08C0DBFF030E09C0DBFFBA
:100D3000040EDB6A050EDB6A060EDB6A070EDB6A51
:100D4000DFCF14F0DF06010EDBCF15F001E2DB068A
:100D50001450151025E0D950020FE96EDACFEAFFE2
:100D6000EECFF3FFEDCFF4FF020EEE26000EEF22E2
:100D7000F3CFE9FFF4CFEAFFEECF14F0EFCF15F099
:100D8000166A176AD950040FE96EDACFEAFF1450D9
:100D9000EE261550EE221650EE221750EE22D0D736
:100DA000FB0EDB50010B18E0020EDBCFE9FF030E58
:100DB000DBCFEAFFEFCF14F0156A166A176AD95035
:100DC000040FE96EDACFEAFF1450EE261550EE223A
:100DD0001650EE221750EE22060EDBCF16F0070E4D
:100DE000DBCF17F0040EDB501624146E050EDB501B
:100DF0001720156E040E14C0DBFF050E15C0DBFFB7
:100E0000060EDB6A070EDB6A060EDBCF14F0070E58
:100E1000DBCF15F0D950040FE96EDACFEAFF14509A
:100E2000EE261550ED22040EDB1C146E050EDB1CA5
:100E3000156E14C0F3FF15C0F4FF080EE15C03E269
:100E400000D0E16AE552E16EE552E7CFD9FF12002A
:100E5000D9CFE6FFE1CFD9FF020EE126FB0EDBCFB3
:100E60006AFEFC0EDBCF6BFEFD0EDBCF6CFEFE0ED2
:100E7000DBCF6DFEFA0EDB50DF6E080EDF5C0FE39A
:100E8000010E6DCEDBFF6CCE6DFE6BCE6CFE6ACEBE
:100E90006BFE010EDBCF6AFE080EDF5EEED7DF5081
:100EA0000AE00E01D8906DBFD8806A376B376C3777
:100EB0006D37DF06F4D76ACE06F06BCE07F06CCE46
:100EC00008F06DCE09F000D0020EE15C02E2E16AAA
:100ED000E552E16EE552E7CFD9FF1200D9CFE6FF28
:100EE000E1CFD9FFE6520F0EE76EFD0EDBCFE9FF33
:100EF000FE0EDBCFEAFFE750E926000EEA22EF6A9A
:100F0000FD0EDBCFE6FFFE0EDBCFE6FF3EEC1CF076
:100F1000E552E552DF6A0F0EDF5C24E2DF50E76E38
:100F2000FD0EDBCFE9FFFE0EDBCFEAFFE750E9263F
:100F3000000EEA22EF5014E10F0EDF5C10E2DF50EA
:100F4000DF2AE76EFD0EDBCFE9FFFE0EDBCFEAFF07
:100F5000E750E926000EEA22200EEF6EEDD702D010
:100F6000DF2AD9D7E552E552E7CFD9FF1200D9CF12
:100F7000E6FFE1CFD9FFE652FB0EDBCF14F0DB0634
:100F8000FC0EDBCF15F001E2DB061450151023E058
:100F9000FD0EDBCFE9FFDB2AFE0EDBCFEAFF01E32C
:100FA000DB2AEFCFDFFFDF5003E1F36AF46A16D0EC
:100FB000FA0EDB50DF5C0EE1FD0EDB06DBCF14F03A
:100FC000FE0E01E2DB06DBCF15F014C0F3FF15C007
:100FD000F4FF04D0D1D7F36AF46A00D0E552E552A9
:060FE000E7CFD9FF12006B
:0A0FE600D9CFE6FFE1CFD9FFE652B4
:100FF000FC0E92160E01FE8B0E01FDA1FDD70E0117
:10100000616B0E0161810E015D6B5E6B0E01E86B21
:10101000E96B0E01090EEC6F0E011A0EED6F0E0159
:10102000090EEA6F1A0EEB6F0E010A0EE46F1A0E2C
:10103000E56F0E010A0EE26F1A0EE36FE66A0AEC24
:101040000EF0E5520E010D0EA06F00000E01320EE3
:10105000A26F00000E01120EA46F00000E01400EE0
:10106000A36F00000E01120EA66F00000E010C0E01
:10107000A76F00000E01EE0EAA6F00000E01050E14
:10108000AB6F00002DCF84FE00002ECF85FE000048
:101090002FCF82FE000030CF83FE000031CF80FED4
:1010A000000032CF81FE0000100EE66E010EE66EEB
:1010B000100EE66E89EC0EF0E552E552E552720E26
:1010C000E66E340EE66E140EE66E89EC0EF0E55216
:1010D000E552E552000EE66EE66AE66A89EC0EF02D
:1010E000E552E552E552D284E552E552E7CFD9FF09
:1010F0001200010EE66E5CEC0EF0E552F3CF14F038
:10110000F4CF15F000011450040B01E0010E00D0E3
:101110001200D2B602D0010E18D087EC1AF00E01E0
:101120006251065C146E63510758156E166A176A91
:10113000620E145C000E1558000E1658000E17585B
:1011400002E3D296D1D9000E00D01200D9CFE6FF2B
:10115000E1CFD9FF020EE1260E0161B135D06181E8
:101160005DCE14F05ECE15F01406000E155A14C0B4
:10117000DEFF15C0DDFFDECF14F0DDCF15F0166AFF
:10118000176A145C000E1558000E1658000E1758FA
:1011900010E3DECF18F0DDCF19F01A6A1B6AD88091
:1011A000090E18541A0E1954000E1A54000E1B542E
:1011B00004E2090EDE6E1A0EDD6E0E01FE8DDFCF2B
:1011C000ECFE010EDBCFEDFE020EE15C02E2E16A15
:1011D000E552E16EE552E7CFD9FF1200D9CFE6FF25
:1011E000E1CFD9FF040EE126D9CEDFFF020EEECE0D
:1011F000DBFF030EEFCEDBFFDF500E01D95DF4E124
:10120000ECCEDEFFEDCEDDFF020EDBCF14F0030EE1
:10121000DBCF15F0DECF16F0DDCF17F01450165CE3
:101220001550175826E2090E186E1A0E196E1A6A12
:101230001B6A020EDBCF20F0030EDBCF21F0DE5065
:10124000205C1C6EDD5021581D6E1E6A1F6A1C50EA
:10125000185C146E1D501958156E1E501A58166ED3
:101260001F501B58176E14C0F3FF15C0F4FF28D091
:1012700027D0020EDBCF14F0030EDBCF15F0DF50CA
:10128000141803E1DE52DD50151806E1090EF36E65
:101290001A0EF46E15D014D0DECF16F0DDCF17F095
:1012A000020EDB50165C146E030EDB501758156EE1
:1012B0001406000E155A14C0F3FF15C0F4FF00D039
:1012C000040EE15C02E2E16AE552E16EE552E7CF2D
:1012D000D9FF1200D9CFE6FFE1CFD9FF140EE126E6
:1012E0000E01D95102E1000EAFD00E0161830E0153
:1012F00061B103D02BDF000EA7D05DCE5FFE5ECEC6
:1013000060FE5FCE7AFF60CE7BFF140EE66EE66A6B
:10131000D9CFE6FFDACFE6FFBAEC0DF0E552E552A1
:10132000E552E552120EDBCFE6FF130EDBCFE6FFF0
:10133000FCEC05F0E552E552120EF3CFDBFF130E85
:10134000F4CFDBFFDECF14F0DDCF15F0166A176A9D
:10135000D880090E14541A0E1554000E1654000E9F
:10136000175431E3D9CFE9FFDACFEAFFEF50010B91
:101370002AE1D950020FE96EDACFEAFFEE52EE52BF
:10138000EE52EF50800B1FE1D950020FE96EDACF19
:10139000EAFFEE52EE52EF50100B15E1D950020F5A
:1013A000E96EDACFEAFFEE0ED880EE54050EED546A
:1013B0000AE3D950020FE96EDACFEAFFEE52EE529D
:1013C000EF50800B01E1FF00DECF5DFEDDCF5EFE62
:1013D000060EE66EE66AD9500C0FE66E000EDA20B5
:1013E000E66EFD0EDBCFE9FFFE0EDBCFEAFFE9CFB5
:1013F00014F0EACF15F014C0E6FF15C0E6FF13ECB9
:101400001CF0166E060EE15E1650FB0EDBCFE9FFF8
:10141000FC0EDBCFEAFFEF68130EDB50080810E18B
:10142000120EDB5004E0120EDB50060809E1FB0E41
:10143000DBCFE9FFFC0EDBCFEAFF120EDBCFEFFFC5
:101440000E016191010E00D0146E140EE15C02E2F7
:10145000E16AE552E16E1450E552E7CFD9FF120080
:10146000D9CFE6FFE1CFD9FF0E010B0EE26F1A0EC6
:10147000E36FD950FA0FE96EFF0EDA20EA6E180E0C
:10148000EE261A0EED22FA0EDBCFE6FEFB0EDBCFC8
:10149000E7FE060EE66EE66AFD0EDBCFE6FFFE0E09
:1014A000DBCFE6FFC4DBE552E552E552E552060E1E
:1014B000E66EE66A2D0EE66E0F0EE66EB8DBE552BE
:1014C000E552E552E552080EE66EA4DBE552FC0E4D
:1014D000DB5002E1000E01D0060EE66E9BDBE5520A
:1014E000E552E7CFD9FF1200D9CFE6FFE1CFD9FF10
:1014F000E652D28ED29E080EDF6EDF50DF06000964
:1015000001E0FBD76092D28687EC1AF006C062FE3B
:1015100007C063FEE552E552E7CFD9FF1200D9CFED
:10152000E6FFE1CFD9FF020EE126140E0E01176A85
:101530005F25166E60511722FD0EDB501624146EC7
:10154000FE0EDB501720156E14C0DEFF15C0DDFF48
:10155000DECF14F0DDCF15F0166A176AD880090EB9
:1015600014541A0E1554000E1654000E175408E2A7
:10157000D9CFE9FFDACFEAFF0A0EEE5E1A0EED5A76
:10158000DF507A6E010EDB507B6E020EE15C02E2F0
:10159000E16AE552E16EE552E7CFD9FF1200D9CFFB
:1015A000E6FFE1CFD9FF020EE126E2CEDEFFE3CE79
:1015B000DDFFFD0EDBCFE2FEFE0EDBCFE3FEDECF76
:1015C00014F0DDCF15F014C0F3FF15C0F4FF020EC8
:1015D000E15C03E200D0E16AE552E16EE552E7CF5B
:1015E000D9FF1200D9CFE6FFE1CFD9FF020EE126E5
:1015F0007ACFDEFF7BCFDDFFFD0EDBCF7AFFFE0E65
:10160000DBCF7BFFDECF14F0DDCF15F014C0F3FF8E
:1016100015C0F4FF020EE15C03E200D0E16AE5527E
:10162000E16EE552E7CFD9FF1200D9CFE6FFE1CF57
:10163000D9FF040EE126140E0E01176A5F25166EFF
:1016400060511722FD0EDB501624146EFE0EDB5087
:101650001720156E14C0DEFF15C0DDFFDECF14F0BD
:10166000DDCF15F0166A176AD880090E14541A0EC9
:101670001554000E1654000E175408E2D9CFE9FF96
:10168000DACFEAFF0A0EEE5E1A0EED5A020E7ACF9C
:10169000DBFF030E7BCFDBFFDECF7AFFDDCF7BFFEF
:1016A000FB0EDBCFE6FFFC0EDBCFE6FF1FD8E552DB
:1016B000E552F3CFDEFFF4CFDDFF020EDBCF7AFF82
:1016C000030EDBCF7BFFDECF14F0DDCF15F014C0AF
:1016D000F3FF15C0F4FF040EE15C03E200D0E16A01
:1016E000E552E16EE552E7CFD9FF1200D9CFE6FF10
:1016F000E1CFD9FF1E0EE126020EDB6A030EDB6A84
:10170000040EDB6A050EDB6A7ACFDEFF7BCFDDFFDE
:10171000D950FD0FE96EFF0EDA20EA6EEE50ED10A3
:1017200001E19AD0D950FD0FE96EFF0EDA20EA6E82
:10173000140ED880EE54000EED5404E2140E146E14
:10174000156A06D0FD0EDBCF14F0FE0EDBCF15F0D0
:10175000060E14C0DBFF070E15C0DBFF060EDBCF45
:10176000E6FF070EDBCFE6FFD950080FE66E000E4E
:10177000DA20E66EFFD9E552E552E552E552060E53
:10178000DBCF14F0070EDBCF15F0D950FD0FE96E5B
:10179000FF0EDA20EA6E1450EE5E1550ED5AD95065
:1017A000060FE96EDACFEAFFEF50010B13E0D950D4
:1017B000080F146EDACF15F0060EDB501424E96E14
:1017C000070EDB501520EA6EEF6A060EDB2A070EC5
:1017D00001E3DB2AD950080F146EDACF15F01C0E86
:1017E00014C0DBFF1D0E15C0DBFFD950060FE96EDC
:1017F000DACFEAFFEE50ED102EE0D9501C0FE96E63
:10180000DACFEAFFEECFF3FFEDCFF4FF020EEE26C4
:10181000000EEF22F3CFE9FFF4CFEAFFEECF14F092
:10182000EFCF15F0166A176AD950020FE96EDACFBA
:10183000EAFF1450EE261550EE221650EE221750F5
:10184000EE22D950060FE96EDACFEAFF020EEE5E05
:10185000000EED5ACAD75CD7DECF7AFFDDCF7BFF13
:10186000020EDBCF14F0030EDBCF15F0166A176AF9
:10187000040EDBCF18F0050EDBCF19F01A6A1B6AD5
:1018800018501426195015221A5016221B501722D0
:10189000020E14C0DBFF030E15C0DBFF040E16C0E2
:1018A000DBFF050E17C0DBFF040EDBCF14F0050EC7
:1018B000DBCF15F0D950020FE96EDACFEAFF1450F2
:1018C000EE261550ED22020EDB1C146E030EDB1CFF
:1018D000156E14C0F3FF15C0F4FF1E0EE15C03E2A9
:1018E00000D0E16AE552E16EE552E7CFD9FF120080
:1018F000D9CFE6FFE1CFD9FF060EE126040EDB6A61
:10190000050EDB6AD950FD0FE96EFF0EDA20EA6E94
:10191000FF0EEE1802E1FF0EED180BE1010EF36E63
:10192000040EF3CFDBFFFD0EE2CEDBFFFE0EE3CEB7
:10193000DBFFD950FB0FE96EFF0EDA20EA6EFF0ED7
:10194000EE1802E1FF0EED180BE1010EF36E050E2D
:10195000F3CFDBFFFB0E7ACFDBFFFC0E7BCFDBFF91
:10196000D950F90FE96EFF0EDA20EA6E010ED88029
:10197000EE54000EED5438E37ACFDEFF7BCFDDFF6F
:10198000020EE2CEDBFF030EE3CEDBFFFB0EDBCF6E
:101990007AFFFC0EDBCF7BFFFD0EDBCFE2FEFE0EFF
:1019A000DBCFE3FEF90EDBCF14F0DB06FA0EDBCF64
:1019B00015F001E2DB061450151005E0D8D8E66EEC
:1019C00029D9E552EFD7050EDB5004E1DECF7AFFCF
:1019D000DDCF7BFF040EDB5006E1020EDBCFE2FE23
:1019E000030EDBCFE3FEB2D0040EDB501AE0F90E9B
:1019F000DBCF16F0FA0EDBCF17F0FD0EDB5016240E
:101A0000146EFE0EDB501720156E020E14C0DBFFA5
:101A1000030E15C0DBFF020EDBCFE2FE030EDBCFB1
:101A2000E3FEFB0EDBCF14F0FC0EDBCF15F014064B
:101A3000000E155AD950F90FE96EFF0EDA20EA6E42
:101A40001450EE261550ED22D2BAFED7FB0EDBCF96
:101A5000F0FEFC0EDBCFF1FEFD0EDBCFF4FEFE0E42
:101A6000DBCFF5FEFB0EDBCF14F0FC0EDBCF15F069
:101A7000166A176AD880090E14541A0E1554000EEF
:101A80001654000E17541CE3F90EDBCF18F0FA0EB3
:101A9000DBCF19F01A6A1B6AD880090E18541A0E87
:101AA0001954000E1A54000E1B540AE2D950F90FB3
:101AB000E96EFF0EDA20EA6E0A0EEE5E1A0EED5A9D
:101AC000F90EDBCFF2FEFA0EDBCFF3FED298D28A0C
:101AD000D2BAFED7050EDB5039E0F90EDB2AFA0E3A
:101AE00001E3DB2AFB0EDBCF14F0FC0EDBCF15F09D
:101AF000166A176AD880090E14541A0E1554000E6F
:101B00001654000E17541CE3F90EDBCF18F0FA0E32
:101B1000DBCF19F01A6A1B6AD880090E18541A0E06
:101B20001954000E1A54000E1B540AE2D950F90F32
:101B3000E96EFF0EDA20EA6E0A0EEE5E1A0EED5A1C
:101B4000F90EDBCF7AFFFA0EDBCF7BFF060EE15CEE
:101B500002E2E16AE552E16EE552E7CFD9FF1200F9
:101B6000D250200B200A01E0010E00D0120061507B
:101B700000D01200D9CFE6FFE1CFD9FF030EE12656
:101B8000FB0EDBCFDEFFDBCFDDFFD950FD0FE96EB3
:101B9000FF0EDA20EA6EEE50ED1018E0DFCF14F001
:101BA000DF06010EDBCF15F001E2DB061450151045
:101BB0000CE0FD0EDBCFE9FFDB2AFE0EDBCFEAFFF8
:101BC00001E3DB2A61CFEFFFE9D70FD0DFCF14F0BD
:101BD000DF06010EDBCF15F001E2DB061450151015
:101BE00004E0020E61CFDBFFF1D7FB0EDBCF14F078
:101BF000FC0EDBCF15F014C0F3FF15C0F4FF030E8D
:101C0000E15C03E200D0E16AE552E16EE552E7CF24
:101C1000D9FF1200D9CFE6FFE1CFD9FFFE0EDB508E
:101C2000F36EFECF61FFE552E7CFD9FF1200D9CFA7
:101C3000E6FFE1CFD9FFFB0EDBCF14F0DB06FC0E95
:101C4000DBCF15F001E2DB06145015100EE0FD0E9F
:101C5000DBCFE9FFDB2AFE0EDBCFEAFF01E3DB2A65
:101C6000EF50F36EF3CF61FFE6D7E552E7CFD9FF30
:101C70001200D9CFE6FFE1CFD9FFFB0EDBCF14F086
:101C8000DB06FC0EDBCF15F001E2DB06145015106D
:101C90000FE0FD0EDBCFF6FFDB2AFE0EDBCFF7FFFA
:101CA00001E3DB2A0800F550F36EF3CF61FFE5D7BF
:101CB000E552E7CFD9FF1200D9CFE6FFE1CFD9FF38
:101CC000020EE126FE0EDBCFB4FE00000E01010E77
:101CD000B26F00000E018AB1FDD70E01B26B000099
:101CE000B8CEDFFF0000010EB9CEDBFFDECF14F06F
:101CF000DDCF15F014C0F3FF15C0F4FF00D0020EC5
:101D0000E15C02E2E16AE552E16EE552E7CFD9FF1C
:101D10001200D9CFE6FFE1CFD9FFE652FE0EDBCFAE
:101D2000B4FEFC0EDB50F36EFD0EDB50F46EC00E05
:101D3000F214DF6E3F0EF216F3CFB6FE0000F4CFC2
:101D4000B7FEDF50F2120E018AB1FDD7E552E5521F
:101D5000E7CFD9FF1200D2940E01FDB5FDD7D2B660
:101D6000FED70E01FE9B12000E01FE8BFDB102D0CC
:061D7000D284FCD7120032
:0A1D7600D8CFE4FFE0CFE4FFE46EF5
:101D8000DACFE4FFE2CFDAFFE9CFE4FFEACFE4FF06
:101D9000F6CFE4FFF7CFE4FFF8CFE4FFF5CFE4FFA1
:101DA000F3CFE4FFF4CFE4FFFACFE4FFFBCFE4FF8F
:101DB00000EE00F0140EE80403E3EECFE4FFFBD7DF
:101DC00000EE14F00E0EE80403E3EECFE4FFFBD7C1
:101DD000E65202EC1BF0E55200EE21F00E0EE80494
:101DE00003E3E5CFEDFFFBD700EE13F0140EE8049C
:101DF00003E3E5CFEDFFFBD7E5CFFBFFE5CFFAFF30
:101E0000E5CFF4FFE5CFF3FFE5CFF5FFE5CFF8FF32
:101E1000E5CFF7FFE5CFF6FFE5CFEAFFE5CFE9FF36
:101E2000E5CFDAFFE550E5CFE0FFE5CFD8FF1000C2
:101E3000D8CFE4FFE0CFE4FFE46EDACFE4FFE2CFF7
:101E4000DAFFE652E552E5CFDAFFE550E5CFE0FFF5
:101E5000E5CFD8FF1000D9CFE6FFE1CFD9FF0E0EB6
:101E6000E126DF6A010EDB6A020EDB6A400E9B6E22
:101E7000020ED36ED9500B0FE66E000EDA20E66E1E
:101E8000410EE66E7DEC19F0E552E552E552090E81
:101E9000F3CFDBFF0A0EF4CFDBFF92909292899092
:101EA0008992948694888F988B8A949A98988B9A22
:101EB000F40EF36E0C0EF3CFDBFF010EF36E0D0E7E
:101EC000F3CFDBFF0C0EDBCF14F0DB060D0EDBCF08
:101ED00015F001E2DB061450151006E00B0EE66E5D
:101EE00040EC1DF0E552EED78B8A6CEC1AF0040E34
:101EF000DB6A140EF36E040EDBCFF4FFF350F45CD8
:101F00000BE2040EDB50EA6A3D0FE96E0F0EEA2287
:101F1000EF6A040EDB2AEDD7780EF36E030EF3CFD3
:101F2000DBFFC69ADE52080EDD6E800EF36E020EE7
:101F3000F3CFDBFFDBCFE6FF010EDBCFE6FFD5EC17
:101F40001CF0E552E5520A0EC86EC750040B01E0C2
:101F5000010E146E1F0EC514141001E0F6D7C580D3
:101F6000C5B0FED7180EE66E5C0EE66E3A0EE66E53
:101F7000030EDBCFE6FFEAD8E552E552E552E55223
:101F8000030EDBCFE6FF6DD9E552070EF36E050EAB
:101F9000F3CFDBFFDB5000081CE2050EDBCFE6FFD2
:101FA000E66A030EDBCFE6FFF7D9E552E552E552CC
:101FB000080EE66E770EE66E3A0EE66E030EDBCF87
:101FC000E6FF38D8E552E552E552E552050EDB064C
:101FD000E1D70F01522B000E532354235523C80E73
:101FE000525D000E5359000E5459000E555917E317
:101FF000526B536B546B556B8F78562B000E5723D7
:1020000058235923FF0E565D000E5759000E58599C
:10201000000E595904E3566B576B586B596BD9D75F
:102020000E0EE15C02E2E16AE552E16EE552E7CFB5
:10203000D9FF1200D9CFE6FFE1CFD9FF070EE12685
:10204000DF6A010EDB6AC582C5B2FED7C750040B3A
:1020500001E0010E146E1F0EC514141001E0F6D736
:10206000040EC9CFDBFFFE0EDBCFE6FF53EC1CF006
:10207000E552E76E050EE7CFDBFFDB50FF0805E119
:10208000040EC9CFDBFFC69E8982050EDB50EBE153
:10209000400EE66E53EC1CF0E552E76E050EE7CFFE
:1020A000DBFFDB50FF0805E1040EC9CFDBFFC69E56
:1020B0008982050EDB50ECE1020EDB6AFB0EDB5081
:1020C000F36E020EDBCFF4FFF350F45C27E2C6A6FA
:1020D0001DD0FC0EDBCFE9FFFD0EDBCFEAFFEF509A
:1020E000E66E53EC1CF0E552000902E0FD0E22D032
:1020F000C750040B01E0010E146E1F0EC51414101E
:1021000001E0F6D7C5AC02D0FE0E14D0FC0EDB2ADF
:10211000FD0E01E3DB2A020EDB2AD0D7C750040BE9
:1021200001E0010E146E1F0EC514141001E0F6D765
:10213000000E00D0146E070EE15C02E2E16AE55287
:10214000E16E1450E552E7CFD9FF1200D9CFE6FF78
:10215000E1CFD9FF070EE126DF6A010EDB6AC582F7
:10216000C5B2FED7C750040B01E0010E146E1F0E5E
:10217000C514141001E0F6D7040EC9CFDBFFFE0E24
:10218000DBCFE6FF53EC1CF0E552E76E050EE7CF20
:10219000DBFFDB50FF0805E1040EC9CFDBFFC69E65
:1021A0008982050EDB50EBE1E66A53EC1CF0E55248
:1021B000E76E050EE7CFDBFFDB50FF0805E1040EFD
:1021C000C9CFDBFFC69E8982050EDB50EDE1020E12
:1021D000DB6AFB0EDB50F36E020EDBCFF4FFF35035
:1021E000F45C27E2C6A61DD0FC0EDBCFE9FFFD0E96
:1021F000DBCFEAFFEF50E66E53EC1CF0E55200092E
:1022000002E0FD0E22D0C750040B01E0010E146E57
:102210001F0EC514141001E0F6D7C5AC02D0FE0E97
:1022200014D0FC0EDB2AFD0E01E3DB2A020EDB2AB2
:10223000D0D7C750040B01E0010E146E1F0EC51459
:10224000141001E0F6D7000E00D0146E070EE15C0A
:1022500002E2E16AE552E16E1450E552E7CFD9FFA0
:102260001200D9CFE6FFE1CFD9FF080EE126DF6AE1
:10227000010EDB6A030EDB6A060EF36E030EDBCF84
:10228000F4FFF350F45C01E379D0030EDBCFE6FFFB
:10229000E66AFE0EDBCFE6FF7FD8E552E552E55257
:1022A000C582C5B2FED7C750040B01E0010E146E03
:1022B0001F0EC514141001E0F6D7050EC9CFDBFFC1
:1022C000FE0EDBCFE6FF53EC1CF0E552E76E060E88
:1022D000E7CFDBFFDB50FF0805E1050EC9CFDBFFD1
:1022E000C69E8982060EDB50EBE1400EE66E53EC93
:1022F0001CF0E552E76E060EE7CFDBFFDB50FF0870
:1023000005E1050EC9CFDBFFC69E8982060EDB50B4
:10231000ECE1020EDB6ADB50146E156AD8901550A2
:1023200004E6800E145C000E15581BE2C6A616D0FB
:10233000E66A53EC1CF0E552000902E0FD0E20D0E5
:10234000C750040B01E0010E146E1F0EC5141410CB
:1023500001E0F6D7C5AC02D0FE0E12D0020EDB2A89
:10236000DAD7C750040B01E0010E146E1F0EC5141E
:10237000141001E0F6D7030EDB2A7ED7000E00D042
:10238000146E080EE15C02E2E16AE552E16E14505F
:10239000E552E7CFD9FF1200D9CFE6FFE1CFD9FF51
:1023A000030EE126010EDF6EFC0EDB504009E76EE6
:1023B000010EE7CFDBFFFD0EDB508009E76E020E5A
:1023C000E7CFDBFF030EE66ED9CFE6FFDACFE6FFFD
:1023D000FE0EDBCFE6FFBADEE552E552E552E552EE
:1023E000030EE15C02E2E16AE552E16EE552E7CFFD
:0423F000D9FF1200FF
:0C23F400D9CFE6FFE1CFD9FF89EC08F05B
:10240000000901E1FBD70B0EE66E1A0EE66ECFEC6B
:102410000AF0E552E552FD0EDBCFE9FFFE0EDBCF01
:10242000EAFF010EEE6EED6AFD0EDBCFE9FFFE0E58
:10243000DBCFEAFF020EE926000EEA22EE6A080E62
:10244000ED6EFD0EDBCFE9FFFE0EDBCFEAFF040EE3
:10245000E926000EEA22060EEF6EFD0EDBCFE9FF45
:10246000FE0EDBCFEAFF050EE926000EEA22040E7F
:10247000EF6E060EE66EE66A2D0EE66E0F0EE66E47
:10248000FD0EDBCFE9FFFE0EDBCFEAFF080EE926EB
:10249000000EEA22E9CF14F0EACF15F014C0E6FFEF
:1024A00015C0E6FF13EC1CF0166E060EE15E16502A
:1024B000FD0EDBCFE9FFFE0EDBCFEAFF0E0EE926B5
:1024C000000EEA2200CFEEFF01CFEEFF02CFEEFFBB
:1024D00003CFEEFFFD0EDBCFE6FFFE0EDBCFE6FF08
:1024E000FED9E552E5521C0EE66EE66A060EE66E71
:1024F000FD0EDBCFE9FFFE0EDBCFEAFF120EE92671
:10250000000EEA22E9CF14F0EACF15F014C0E6FF7E
:1025100015C0E6FF30EC0AF0166E050EE15E1650AF
:102520001C0EE66EE66AFD0EDBCFE6FFFE0EDBCF8D
:10253000E6FF17EC0EF0E552E552E552E55274EC79
:102540000AF0010E00D0E552E7CFD9FF12000E01CC
:10255000386939693A693B693C693D69346B356B67
:10256000366B376B1200D9CFE6FFE1CFD9FF1C0ED7
:10257000E1260E017751010A01E1A0D0010A01E034
:10258000D0D01C0EE66EE66AD9CFE6FFDACFE6FFC2
:10259000BAEC0DF0E552E552E552E552A6EC08F032
:1025A000D9CFE6FFDACFE6FF9AD9E552E552D9CF87
:1025B000E9FFDACFEAFF010EEE1801E1ED5012E17A
:1025C000040EDB50146E156A060E141801E1155046
:1025D00009E1050EDB50166E176A040E161801E1AC
:1025E000175002E0010E9FD0D950060FE96EDACFE6
:1025F000EAFF020EEE1801E1ED5020E1080EDBCFFC
:1026000038FE090EDBCF39FE0A0EDBCF3AFE0B0E89
:10261000DBCF3BFE0C0EDBCF3CFE0D0EDBCF3DFED9
:102620000E0EDBCF34FE0F0EDBCF35FE100EDBCFF0
:1026300036FE110EDBCF37FE010E75D0D950060FD6
:10264000E96EDACFEAFF010EEE1801E1ED5036E156
:10265000D950180FE96EDACFEAFFEE500F010019DA
:1026600009E1EE50011906E1EE50021903E1EE50C6
:10267000031900E102E0010E56D00E0EDBCF3EFE44
:102680000F0EDBCF3FFE100EDBCF40FE110EDBCF77
:1026900041FE080EDBCF42FE090EDBCF43FE0A0EE1
:1026A000DBCF44FE0B0EDBCF45FE0C0EDBCF46FE30
:1026B0000D0EDBCF47FE0E01010E776F020EF36E9B
:1026C000060EF3CFDBFF070EDB6A120E42CEDBFFF6
:1026D000130E43CEDBFF140E44CEDBFF150E45CEAA
:1026E000DBFF160E46CEDBFF170E47CEDBFF180EC4
:1026F0003ECEDBFF190E3FCEDBFF1A0E40CEDBFFD6
:102700001B0E41CEDBFFD9CFE6FFDACFE6FF72DE4C
:10271000E552E552000902E1000E05D00E01776B8B
:1027200000D0010E00D0146E1C0EE15C02E2E16AE2
:10273000E552E16E1450E552E7CFD9FF1200D9CF30
:10274000E6FFE1CFD9FF1C0EE126010EF36E060E67
:10275000F3CFDBFF070EDB6A120EDB68130EDB68BC
:10276000140EDB68150EDB68160EDB68170EDB68CF
:10277000FD0EDBCFE9FFFE0EDBCFEAFF0F010051BC
:10278000EE18186E0151EE18196E0251EE181A6EFD
:102790000351EE181B6E04511816055119160651F7
:1027A0001A1607511B16185019101A101B1009E0A1
:1027B00008CF14F009CF15F00ACF16F00BCF17F0A1
:1027C0000ED0FD0EDBCFE9FFFE0EDBCFEAFFEECF32
:1027D00014F0EECF15F0EECF16F0EFCF17F0180E85
:1027E00014C0DBFF190E15C0DBFF1A0E16C0DBFF8D
:1027F0001B0E17C0DBFFD9CFE6FFDACFE6FFFADD0D
:10280000E552E5521C0EE15C02E2E16AE552E16E3E
:10281000E552E7CFD9FF1200D9CFE6FFE1CFD9FFCC
:10282000FD0EDBCFE9FFFE0EDBCFEAFF0E013451D8
:10283000EE1809E13551EE1806E13651EE1803E1C4
:102840003751EE1800E131E0340EE96E0E0EEA6EFB
:10285000EE500F01081909E1EE50091906E1EE509A
:102860000A1903E1EE500B1900E133E1FD0EDBCF55
:10287000E9FFFE0EDBCFEAFF0051EE18146E0151A6
:10288000EE18156E0251EE18166E0351EE18176E03
:102890000451141605511516065116160751171630
:1028A000145015101610171014E0FB0EDBCFE9FFC3
:1028B000FC0EDBCFEAFF38CEEEFF39CEEEFF3ACE8C
:1028C000EEFF3BCEEEFF3CCEEEFF3DCEEEFF010E27
:1028D00002D0000E00D0E552E7CFD9FF1200D9CFC9
:1028E000E6FFE1CFD9FFFD0EDBCFE9FFFE0EDBCF28
:1028F000EAFFEECFE6FFEFCFE6FFFCEC05F0E55296
:10290000E552F3CF14F0F4CF15F0FD0EDBCFE9FF65
:10291000FE0EDBCFEAFF14C0EEFF15C0EDFFFD0E8B
:10292000DBCFE9FFFE0EDBCFEAFF020EE926000E49
:10293000EA22EECFE6FFEFCFE6FFFCEC05F0E55232
:10294000E552F3CF14F0F4CF15F0FD0EDBCFE9FF25
:10295000FE0EDBCFEAFF020EE926000EEA2214C0CB
:10296000EEFF15C0EDFFFD0EDBCFE9FFFE0EDBCF66
:10297000EAFF060EE926000EEA22EECFE6FFEFCFD1
:10298000E6FFFCEC05F0E552E552F3CF14F0F4CF8E
:1029900015F0FD0EDBCFE9FFFE0EDBCFEAFF060EE2
:1029A000E926000EEA2214C0EEFF15C0EDFFE55245
:0629B000E7CFD9FF120081
:0A29B600D9CFE6FFE1CFD9FF160EDE
:1029C000E126140EE66EE66AD950020FE66E000E9E
:1029D000DA20E66EBAEC0DF0E552E552E552E5522A
:1029E000020EDB50F00B400802E0000E92D0080E01
:1029F000DBCF14F0090EDBCF15F01F0E1416FF0EFF
:102A000015161450151002E0000E83D0020EDB5094
:102A10000F0B040DF3CF76FE0E017651E66EE66ADB
:102A2000000EE66EE66A15EC0BF0E552E552E55253
:102A3000E552F3CFDEFFF4CFDDFF0E017651E66EF7
:102A4000E66A8FEC0AF0E552E552D9CFE9FFDACF1A
:102A5000EAFFEE50ED1002E0000E5BD0D950020FFD
:102A6000E66E000EDA20E66E2FD9E552E552D95017
:102A7000FD0FE96EFF0EDA20EA6EEE50ED1012E067
:102A8000FD0EDBCFE9FFFE0EDBCFEAFF120EDBCF40
:102A9000EEFF130EDBCFEEFF140EDBCFEEFF150EB5
:102AA000DBCFEEFFFB0EDBCFE9FFFC0EDBCFEAFF57
:102AB0000E0EDBCFEEFF0F0EDBCFEEFF100EDBCFE7
:102AC000EEFF110EDBCFEEFFF90EDBCFE9FFFA0EC2
:102AD000DBCFEAFF0B0EDBCFEFFF0E017651166E58
:102AE000176A040EDBCF08F0050EDBCF09F0165095
:102AF000085C146E17500958156EF70EDBCFE9FF0E
:102B0000F80EDBCFEAFF14C0EEFF15C0EDFF010E9B
:102B100000D0146E160EE15C02E2E16AE552E16E4D
:102B20001450E552E7CFD9FF1200D9CFE6FFE1CF2D
:102B3000D9FF140EE1260E01766F450EDF6E010EF1
:102B4000DB6AFA0EDBCF14F0FB0EDBCF15F0140EB0
:102B50001426000E1522020E14C0DBFF030E15C052
:102B6000DBFF0F015E2B000E5F23040E5ECFDBFF49
:102B7000050E5FCFDBFF060EDB6A070EDB6A640E15
:102B8000F36E080EF3CFDBFFFC0EDB50E76E090E91
:102B9000E7CFDBFF0A0EDB6A0B0EDB6A0C0E00CF01
:102BA000DBFF0D0E01CFDBFF0E0E02CFDBFF0F0EA2
:102BB00003CFDBFFFD0EDBCFE9FFFE0EDBCFEAFF2D
:102BC000100EEECFDBFF110EEECFDBFF120EEECFBD
:102BD000DBFF130EEECFDBFFD9CFE6FFDACFE6FF48
:102BE00073D8E552E552140EE66EE66AD9CFE6FFD9
:102BF000DACFE6FF79EC06F0E552E552E552E55210
:102C00000A0EF3CFDBFF0B0EF4CFDBFFFA0EDBCFA8
:102C100014F0FB0EDBCF15F0140E1426000E152257
:102C200014C0E6FF15C0E6FFE66AFD0EDBCFE9FF44
:102C3000FE0EDBCFEAFF040EE926000EEA22E9CF02
:102C400016F0EACF17F016C0E6FF17C0E6FF30EC2B
:102C50000AF0186E050EE15E1850140EE66EE66A74
:102C6000D9CFE6FFDACFE6FF17EC0EF0E552E552DA
:102C7000E552E552F36AF46A140EE15C03E200D017
:102C8000E16AE552E16EE552E7CFD9FF1200D9CFF4
:102C9000E6FFE1CFD9FF0E017651E76EFD0EDBCFE7
:102CA00014F0FE0EDBCF15F0E7501426000E1522AF
:102CB00014C0E6FF15C0E6FF8FEC0AF0E552E552BE
:102CC000E552E7CFD9FF1200D9CFE6FFE1CFD9FF18
:102CD000FD0EDBCFE9FFFE0EDBCFEAFF020EE92699
:102CE000000EEA22EECFE6FFEFCFE6FFFCEC05F0A8
:102CF000E552E552F3CF14F0F4CF15F0FD0EDBCF23
:102D0000E9FFFE0EDBCFEAFF020EE926000EEA2203
:102D100014C0EEFF15C0EDFFFD0EDBCFE9FFFE0E88
:102D2000DBCFEAFF040EE926000EEA22EECFE6FF33
:102D3000EFCFE6FFFCEC05F0E552E552F3CF14F0DF
:102D4000F4CF15F0FD0EDBCFE9FFFE0EDBCFEAFF7F
:102D5000040EE926000EEA2214C0EEFF15C0EDFFB6
:102D6000FD0EDBCFE9FFFE0EDBCFEAFF0A0EE92600
:102D7000000EEA22EECFE6FFEFCFE6FFFCEC05F017
:102D8000E552E552F3CF14F0F4CF15F0FD0EDBCF92
:102D9000E9FFFE0EDBCFEAFF0A0EE926000EEA226B
:102DA00014C0EEFF15C0EDFFE552E7CFD9FF1200CA
:102DB000D9CFE6FFE1CFD9FFC580C5B0FED7780EE9
:102DC000E66E53EC1CF0E552000903E0F36AF46A86
:102DD0000FD0FD0EDBCFE6FF53EC1CF0E5520009EF
:102DE00003E0F36AF46A04D0010EF36EF46A00D0D3
:102DF000E552E7CFD9FF1200D9CFE6FFE1CFD9FFE7
:102E0000D950FD0FE96EFF0EDA20EA6EEECFF3FF28
:102E1000EDCFF4FF020EEE26000EEF22F3CFE9FF16
:102E2000F4CFEAFFEF50E66E53EC1CF0E5520009D8
:102E300003E0F36AF46A10D0FB0EDB06DBCF14F07C
:102E4000FC0E01E2DB06DBCF15F014501510D8E1C3
:102E5000010EF36EF46A00D0E552E7CFD9FF1200FD
:102E6000000EE66EE66AA4DFE552E552060EE66E57
:102E7000E66A2E0EE66E0E0EE66EBEDFE552E552F7
:102E8000E552E552C584C5B4FED71200D9CFE6FF9E
:102E9000E1CFD9FF0A0EE1268B9AF40EF36E020EF3
:102EA000F3CFDBFF010EF36E030EF3CFDBFF020E59
:102EB000DBCF14F0DB06030EDBCF15F001E2DB06FF
:102EC0001450151006E00B0EE66E40EC1DF0E552B6
:102ED000EED78B8AF40EF36E040EF3CFDBFF010EF8
:102EE000F36E050EF3CFDBFF040EDBCF14F0DB0631
:102EF000050EDBCF15F001E2DB061450151006E0DD
:102F00000B0EE66E40EC1DF0E552EED78B9A010EEB
:102F1000F36E060EF3CFDBFF070EDB6A060EDBCF88
:102F200014F0DB06070EDBCF15F001E2DB061450D0
:102F3000151006E00B0EE66E40EC1DF0E552EED7E4
:102F40008B8A030EF36E080EF3CFDBFF090EDB6AEC
:102F5000080EDBCF14F0DB06090EDBCF15F001E223
:102F6000DB061450151006E00B0EE66E40EC1DF06B
:102F7000E552EED7000EE66EE66A1ADFE552E5523C
:102F80002E0EE66EE66A000EE66E0E0EE66E34DF7C
:102F9000E552E552E552E5528980C584C5B4FED7B5
:102FA000400EE66EE66A04DFE552E55289821F0EA6
:102FB000E66E53EC1CF0E552050EE66E53EC1CF089
:102FC000E552070EE66E53EC1CF0E552E66A53EC50
:102FD0001CF0E5521F0EE66E53EC1CF0E552040E99
:102FE000E66E53EC1CF0E5521F0EE66E53EC1CF03F
:102FF000E552C584C5B4FED70A0EE15C02E2E16A7F
:10300000E552E16EE552E7CFD9FF1200D9CFE6FFD6
:10301000E1CFD9FF000EE66EE66ACADEE552E55260
:10302000F3CF14F0F4CF15F0145015103DE0010E5D
:10303000E66E53EC1CF0E5520D0EE66E53EC1CF000
:10304000E552D950FD0FE96EFF0EDA20EA6E800ED0
:10305000D880EE54000EED5410E2070EE66E53ECED
:103060001CF0E552D950FD0FE96EFF0EDA20EA6E32
:10307000800EEE5E000EED5A05D0050EE66E53ECA6
:103080001CF0E552FD0EDBCF14F0FE0EDBCF15F089
:10309000D89015321432800E1410E66E53EC1CF0EA
:1030A000E552C584C5B4FED7E552E7CFD9FF12007B
:1030B000DFFB3F233FFBDFFEFE8888FE763C7EC2BF
:1030C0008080C242FEFE8080FE7EFEFE8888888070
:1030D000FEFE090909013C7EC28090F272FEFE08E4
:1030E00008FEFEFEFE40BF7FFE7FFEFE183EF6C0DD
:1030F000FEFE7F7F7F7FFEFE0F7CDF7C0FFEFEFEED
:10310000FE0C30FEFE3C7EC280C27E3CFEFE1111F3
:103110001F0E3C7EC2A0C2FD3C00FEFE11317FCDE1
:103120007F4ECE9898F2720101FEFE01017FFE7F74
:103130007FFE7F033FFBBFFB3F03033FFBDF3E07F9
:103140003EDFFB3F03C2E63C3CE6C2030FF7F70F4E
:1031500003C0E0B0988C868268F393FBF7FEFE8391
:1031600083FB7878FB83CB4878FB8383FEFE78FB78
:103170009393DB5804FDFE050178FB8383FBFBFE84
:10318000FE0404FBF7FCFC00FCFCFEFE3078EB8345
:10319000FEFEFBFB0404FBFB0404FBF7FBFB040447
:1031A000FBF778FB8383FB78FBFB8383FB7878FB5F
:1031B0008383FBFBFBFB0804040458DBB3B3EB681D
:1031C000047EFE837CFB7F7FFBFB3CFBBFFB3C1C48
:1031D000FBDF780C78DFFB1CCBFB30FBCB043CF730
:1031E000BFF73C04C3E3B39B8B000000000000006A
:1031F00000000000000000000000000000000000CF
:1032000000000000000000000000000000000000BE
:1032100000000000000000000000000000000000AE
:103220000000000000000000000000070D141A203C
:10323000262D33353A40464F555C626A71777D835F
:103240008A959BA1000000000000A8ADB3B8BEC4E1
:10325000C9CFD5D7DAE0E2ECF2F8FE040A10141A6E
:103260001F282D34000000000000000000000000B6
:10327000000000000000000000000000000000004E
:10328000000000000000000000000000000000003E
:10329000000000000000000000000000000000002E
:1032A000000000000000000000000000000000001E
:1032B000000000000000000000000000000000000E
:1032C00000000000000000000000000000000000FE
:1032D00000000000000000000000000000000000EE
:1032E00000000000000000000000000000000000DE
:0932F000000000000000000000D5
:0632FA00D9CFE6FFE1CF91
:10330000D9FF140EE126E90E146E310E156E000E73
:10331000166EFE0EDBCF17F0186A196A14501724C8
:10332000F36E15501820F46E16501920F86EF4CF75
:10333000F7FFF3CFF6FF0800F550E66ED9500E0FF9
:10334000E96EDACFEAFFE552E750EE6EED6AE90E7C
:10335000146E310E156E000E166EFE0EDB28176E03
:10336000186A196A14501724F36E15501820F46E59
:1033700016501920F86EF4CFF7FFF3CFF6FF0800D0
:10338000F550E66ED950100FE96EDACFEAFFE5523C
:10339000E750EE6EED6A100EDBCF16F0110EDBCFAC
:1033A00017F00E0EDB50165C146E0F0EDB50175824
:1033B000156E120E14C0DBFF130E15C0DBFF0C0ED2
:1033C000DB6A0D0EDB6A0C0EDBCF14F00D0EDBCFCB
:1033D00015F00C0E145C000E155813E2D9CF14F042
:1033E000DACF15F00C0EDB501424E96E0D0EDB5015
:1033F0001520EA6EEF6A0C0EDB2A0D0E01E3DB2AC4
:10340000E2D70C0EDB6A0D0EDB6A0C0EDBCF14F07C
:103410000D0EDBCF15F0120EDBCF16F0130EDBCF47
:1034200017F01650145C175015583AE2B00E166E8D
:10343000300E176E000E186E0C0EDBCF1CF00D0E4A
:10344000DBCF1DF00E0EDB501C24196E0F0EDB506F
:103450001D201A6E1B6A16501924F36E17501A207D
:10346000F46E18501B20F86EF4CFF7FFF3CFF6FF81
:103470000800F550E66ED9CF14F0DACF15F00C0E37
:10348000DB501424E96E0D0EDB501520EA6EE55278
:10349000E750EF6E0C0EDB2A0D0E01E3DB2AB5D7E9
:1034A000FC0EDBCFE9FFFD0EDBCFEAFF120EDBCF18
:1034B000EFFFD9CF14F0DACF15F014C0F3FF15C029
:1034C000F4FF140EE15C03E200D0E16AE552E16E24
:0834D000E552E7CFD9FF12001D
:0834D800D76AD66AF194F29460
:1034E000F28A870ED56E1200F28A0000F29AD6CFC9
:1034F00064FED7CF65FE6ECE66FE6FCE67FE70CEE1
:1035000068FE71CE69FEF2B4EFD7F28A1200ECDFEA
:1035100064CE06F065CE07F066CE08F067CE09F0FF
:1035200000D01200D9CFE6FFE1CFD9FF040EE1268B
:10353000DBDF65CEDFFF010E66CEDBFF020E67CE5E
:10354000DBFF030E68CEDBFFDECF06F0DECF07F039
:10355000DECF08F0DDCF09F0DD52DD52040EE15C74
:1035600003E200D0E16AE552E16EE552E7CFD9FF10
:103570001200D9CFE6FFE1CFD9FF040EE126B4DF78
:1035800066CEDFFF010E67CEDBFF020E68CEDBFFEB
:10359000030E69CEDBFFDECF06F0DECF07F0DECF15
:1035A00008F0DDCF09F0DD52DD52040EE15C03E2EC
:1035B00000D0E16AE552E16EE552E7CFD9FF120093
:1035C000D9CFE6FFE1CFD9FFFB0EDBCF06F0FC0E33
:1035D000DBCF07F0FD0EDBCF08F0FE0EDBCF09F0EE
:1035E000100E0626000E072208220922200E0B6E5E
:1035F0000C6A0D6A0E6A93EC1CF000D0E552E7CF1E
:10360000D9FF1200F2A407D00E016E2B000E6F231B
:0836100070237123F2941200F3
:083618000E01486BDAEC00F032
:1036200006C014F007C015F008C016F009C017F066
:1036300014C0E6FF15C0E6FF16C0E6FF17C0E6FFA0
:1036400034EC00F0E552E552E552E552F3EC07F0B8
:10365000A7EF12F0D9CFE6FFE1CFD9FF080EE126A0
:10366000D950060FE66E000EDA20E66E4D0EE66EBD
:103670000E0EE66E6AEC09F0E552E552E552E552AF
:10368000000904E1080EE15C2BE228D0060EDB50B5
:1036900006E0060A01E021D0B3EC12F01ED0D9CF2B
:1036A000E6FFDACFE6FFD950070FE66E000EDA200C
:1036B000E66E490EE66E0E0EE66ED950020FE66E0D
:1036C000000EDA20E66EDBEC14F0146E080EE15EFC
:1036D0001450000901E101D000D0C2D7E16AE552DF
:0C36E000E16EE552E7CFD9FF12001200A6
:0436EC001E0EF66E4A
:1036F000000EF76E000EF86E0E010900F550586FBF
:103700000900F550596F03E1586701D03DD0090019
:10371000F550536F0900F550546F0900F550556F7F
:1037200009000900F550E96E0900F550EA6E09003C
:1037300009000900F550566F0900F550576F090050
:103740000900F6CF5AFEF7CF5BFEF8CF5CFE53CEF2
:10375000F6FF54CEF7FF55CEF8FF0E01565302E1A7
:10376000575307E00900F550EE6E5607F8E2570789
:10377000F9D75ACEF6FF5BCEF7FF5CCEF8FF0E010D
:0A3780005807000E595BBFD7120076
:06378A00D9CFE6FFE1CFFC
:10379000D9FF020EE126010EDB6AFC0EDB50F36E50
:1037A000010EDBCFF4FFF350F45C2FE2C6A611D07C
:1037B000FD0EDBCFE9FFFE0EDBCFEAFFEF50E66E3A
:1037C00053EC1CF0E552DF6EDF5002E0DF501FD0FB
:1037D00014D09E96FD0EDBCFE9FFFE0EDBCFEAFF95
:1037E000EF50C96EC6889EA6FED7C750040B05E1F0
:1037F000C750010B02E1FE0E0AD0FD0EDB2AFE0EC1
:1038000001E3DB2A010EDB2AC8D7000E00D0146EBC
:10381000020EE15C02E2E16AE552E16E1450E5520B
:06382000E7CFD9FF120002
:0A382600D9CFE6FFDACFE6FFFA0E75
:10383000E3CFD9FFFB0EE3CFDAFFFC0EE3CFE9FFC6
:10384000FD0EE3CFEAFFE9CFF3FFEACFF4FFF80E76
:10385000E35003E1F90EE35008E0F80EE30602E25C
:10386000F90EE306DECFEEFFF2D7FF0EE3CFDAFF6D
:10387000E552FF0EE3CFD9FFE5521200FE0EE3CF73
:10388000E9FFFF0EE3CFEAFFE9CFF3FFEACFF4FF52
:10389000610EEF5C05E67B0EEF5C02E7DF0EEF16D4
:0638A000EE52F6E11200F9
:0A38A600D9CFE6FFDACFE6FFE1CF4D
:1038B000D9FFE2CFDAFFFD0EDB50C96EC6AE02D0F3
:1038C000FF0E2BD00F0EC61408080FE00F0EC61403
:1038D0000B080BE0C6889EA6FED7C750040B03E179
:1038E000C750010B17E0000E18D00F0EC6140808C1
:1038F00004E00F0EC6140B0810E1C7B0FED7C75086
:10390000040B01E0010E146E1F0EC5141410F7E134
:10391000C5AC02D0FE0E01D0000EE552E5CFDAFFB5
:06392000E7CFD9FF120001
:0A392600056A046A036A026A200EB3
:10393000E76ED89006360736083609360236033663
:10394000043605360B50025C0C5003580D500458D9
:103950000E50055809E30B50025E0C50035A0D50EF
:0E396000045A0E50055A062AE72EE4D712002C
:02396E0008C08F
:1039700012F008500D02F4CF07F0F3CF06F0095013
:103980000E02F4CF09F0F3CF08F00D02F350072632
:10399000F4500822E86A092212500E02F35007265A
:0A39A000F4500822E86A0922000C26
:0639AA00D9CFE6FFDACFE1
:1039B000E6FFE1CFD9FFE2CFDAFF3F0EC716C66AB6
:1039C000C56AFD0EDB50C612FC0EDB50C712948692
:1039D0009488C68AE552E5CFDAFFE7CFD9FF120017
:1039E000056A046A100EE76ED89008360936043668
:1039F00005360D50045C0E50055805E30D50045E6D
:0C3A00000E50055A082AE72EF0D71200DD
:043A0C00800EF36EC7
:103A100000EE00F00E0E07D8600EF36E0FEE00F011
:103A20000F0E01D81200EA6002D0EE6AFCD7F35004
:083A3000E9601200EE6AFCD708
:083A38000200C8009600050021
:103A4000C80001000800C800C8000800C800C8007D
:0C3A50000900C800C8000A00190014009A
:043A5C0000010E1245
:103A600084060824010D050B17B3010B0408580147
:0F3A70001020408001408080E0B8179FFCE0806C
:013A7F000046
:103A8000FF0EE350226E480E01D04C0EE76EE72E7B
:103A9000FED7E76AE72EFED7222EF7D700001200E6
:103AA0001DEE00F02DEE00F0F86A019C76EC1BF0A4
:0C3AB00003EC00F02BEC0FF0FBD7120031
:043ABC0001000E00F7
:103AC0001200840005000E00240001000D00070014
:103AD0000B001700B30001000B00040008005800A1
:103AE0000100100020004000800001004000800024
:0C3AF000000000000000000000000000CA
:020000040001F9
:01FFF800A068
:01FFFA00C541
:01FFFD00F70C
:00000001FF
