:020000040000FA
:060000002EEF15F01200C6
:020006001200E6
:06000800F9EF09F01200FF
:02000E00C58AA1
:04001000C58812008D
:04001400C580120091
:060018009CEF09F012004C
:02001E000600DA
:10002000212C0000E3000000010000001D2C000056
:10003000D1000000040000001B2C0000DF000000C5
:10004000020000002E2B000000010000ED00000067
:100050002A2B0000CD00000004000000F62A00005A
:08006000600000003400000004
:08006800D1C014FCD2C015FC4C
:10007000D3C016FCD4C017FC0E01005101110211AF
:10008000031105E1010E006F016B026B036B00CEE3
:10009000D1F001CED2F002CED3F003CED4F00C01D9
:1000A000186B100E185D04E20DD80C01182BF9D74F
:1000B00014CC06F015CC07F016CC08F017CC09F0DC
:1000C00000D012000C01196B0F0E195D38E2D1C07F
:1000D00014F0D2C015F0D3C016F0D4C017F0D890E9
:1000E0001732163215321432D1C018F0D2C019F0BE
:1000F000D3C01AF0D4C01BF0010E1816196A1A6A80
:100100001B6A000E186C191E19221A1E1A221B1EB9
:100110001B22010E1816196A1A6AD00E1B161450EB
:1001200018180001D16F15501918D26F16501A18EF
:10013000D36F17501B18D46F0C01192BC5D7D1C022
:10014000F3FFD2C0F4FF00D01200C2CF0FFCC0CF2B
:1001500010FCD5CF11FCD6CF13FCD7CF12FC010E6B
:10016000C26E3F0EC06E880ED56E0C01006B0C0186
:10017000076B086B096B0A6B0C01056B066BA2DF42
:10018000F3CF0BFCF4CF0CFC0C010D6B0E6BD76A9C
:10019000D66AC2820400C2B2FED7D6CF03FCD7CF44
:1001A00004FC90DFF3CF01FCF4CF02FC0C010351FF
:1001B0000C0107270C0104510C010823000E092330
:1001C0000A231A0E0C01075DF20E08599E0E0959FA
:1001D000000E0A590FE376DFF3500C010B1BF450AD
:1001E0000C010C1B6FDFF3500C010D1BF4500C01C4
:1001F0000E1B39D00C0103510C01051904E10C014F
:1002000004510C01061901E1C2D70C0103510C0184
:10021000055D146E06510C010455156E0C010C01A0
:10022000015114240E01006F0C010C010251152024
:100230000E01016F0E01026B036B16DF03CC05FC90
:1002400004CC06FC0C01D8900B370C370D370E3759
:1002500039DFF350800B02E00C010B810C01002B05
:1002600001E101D094D70FCCC2FF10CCC0FF12CC5B
:10027000D7FF13CCD6FF11CCD5FF0BCC06F00CCC9E
:1002800007F00DCC08F00ECC09F000D012000C01E4
:10029000056B066B006B016B026B036B0E0104CEEA
:1002A000E9FF05CEEAFF042B000E0523EFCF04FC87
:1002B000EF5001E18CD00C010651030801E287D018
:1002C000300E045F055106E10451090802E2000EF8
:1002D000B5D071D0030E055D36E1FE0E045D02E07F
:1002E000000EACD0D880050E0055050E0155020E4B
:1002F0000255000E035502E2000EA0D00A0E0103C3
:10030000F3CF16F0640E0203F35016240025E66EB8
:1003100006CEE9FF07CEEAFFE9CF14F0EACF15F0E9
:100320000651062B0F011424E96E000E1520EA6E0B
:10033000E552E750EF6E0C01056B006B016B026B31
:10034000036BACD738D0FE0E045D30E1D880050ECB
:100350000055050E0155020E0255000E035502E22E
:10036000000E6CD00A0E0103F3CF16F0640E0203E8
:10037000F35016240025E66E06CEE9FF07CEEAFF0D
:10038000E9CF14F0EACF15F00651062B0F01142423
:10039000E96E000E1520EA6EE552E750EF6E0C0193
:1003A000056B006B016B026B036B78D70451090876
:1003B00002E2000E43D00C01052B02CC03FC01CC61
:1003C00002FC00CC01FC006B04CC00FC67D70C01E4
:1003D000045111E02F0E045D0EE00D0E045D0BE0E4
:1003E0000A0E045D08E0200E045D05E0090E045DC0
:1003F00002E0000E23D0D880050E0055050E0155F1
:10040000020E0255000E035502E2000E17D00A0E2E
:100410000103F3CF14F0640E0203F35014240025FB
:10042000E66E06CEE9FF07CEEAFF030EE926000ED0
:10043000EA22E552E750EF6E010E00D012000C01E7
:10044000056B066B006B016B026B036B0E0108CE34
:10045000F6FF082B09CEF7FF000E09230ACEF8FF9E
:100460000A230800F5CF04FCF55001E18CD00C0103
:100470000651030801E287D0300E045F055106E102
:100480000451090802E2000EB5D071D0030E055DDB
:1004900036E1FE0E045D02E0000EACD0D880050E01
:1004A0000055050E0155020E0255000E035502E2DD
:1004B000000EA0D00A0E0103F3CF16F0640E020363
:1004C000F35016240025E66E0BCEE9FF0CCEEAFFB2
:1004D000E9CF14F0EACF15F00651062B0F011424D2
:1004E000E96E000E1520EA6EE552E750EF6E0C0142
:1004F000056B006B016B026B036BA8D738D0FE0E47
:10050000045D30E1D880050E0055050E0155020E40
:100510000255000E035502E2000E6CD00A0E0103D4
:10052000F3CF16F0640E0203F35016240025E66E96
:100530000BCEE9FF0CCEEAFFE9CF14F0EACF15F0BD
:100540000651062B0F011424E96E000E1520EA6EE9
:10055000E552E750EF6E0C01056B006B016B026B0F
:10056000036B74D70451090802E2000E43D00C015A
:10057000052B02CC03FC01CC02FC00CC01FC006B7F
:1005800004CC00FC63D70C01045111E02F0E045D74
:100590000EE00D0E045D0BE00A0E045D08E0200E77
:1005A000045D05E0090E045D02E0000E23D0D88052
:1005B000050E0055050E0155020E0255000E03559D
:1005C00002E2000E17D00A0E0103F3CF14F0640EFE
:1005D0000203F35014240025E66E0BCEE9FF0CCE87
:1005E000EAFF030EE926000EEA22E552E750EF6E1D
:1005F000010E00D012000C01056B0E010D510E1101
:100600004EE00C01006B100E036F270E046F050EF9
:10061000005D44E20DCE08F00ECE09F003CC0DF0E3
:1006200004CC0EF0F6EC14F008C001FC09C002FC8A
:100630000C010151021102E1055120E0300E0125AB
:10064000E66E0E010FCEE9FF10CEEAFF0F2B000E73
:100650001023E552E750EF6E01CC08F002CC09F010
:1006600003CC0DF004CC0EF0D8EC14F006500E01C3
:100670000D5F07500E5B0C01010E056F0A0E0D6E2B
:100680000E6A03CC08F004CC09F0F6EC14F008C0B4
:1006900003FC09C004FC0C01002BB9D709D00FCE14
:1006A000E9FF10CEEAFF0F2B000E1023300EEF6E85
:1006B0000FCEE9FF10CEEAFFEF6A12000E011251D1
:1006C000460802E2200E125F1151460802E2200E97
:1006D000115F1251390803E2370E125F02D0300E5B
:1006E000125F1151390803E2370E115F02D0300E4C
:1006F000115F1239F00B111100D012000E011339E5
:100700000F0B136F1351090804E2410E1325F60F66
:1007100002D0300E132500D012000F0E0E01141758
:100720001451090804E2410E1425F60F02D0300ED0
:10073000142500D0120015CEE9FF16CEEAFFEFCF48
:1007400000FC17CEF6FF18CEF7FF19CEF8FF080011
:10075000F5CF01FC0C01005134E0015132E0610E93
:10076000005D05E300517A0802E3200E005F610E90
:10077000015D05E301517A0802E3200E015F01519A
:10078000D880005502E2010E29D00151005D02E23D
:10079000FF0E24D00E01152B000E1623172B182345
:1007A000192315CEE9FF16CEEAFFEFCF00FC17CED6
:1007B000F6FF18CEF7FF19CEF8FF0800F5CF01FCC1
:1007C000C9D70151D880005502E2010E07D001516E
:1007D000005D02E2FF0E02D0000E00D012001ACE21
:1007E0003CFC1BCE3DFC3DCC3EFC3CCC3DFC3ECC21
:1007F0003CFC3CCCF3FF3DCCF4FF00D012000E01DA
:100800001F511C1B1C511F1B1F511C1B1E511D1B4C
:100810001D511E1B1E511D1B1CCE06F01DCE07F0C8
:100820001ECE08F01FCE09F000D0120022CE14FC1C
:1008300023CE15FC0C01D8901533143320CE16FCB2
:1008400021CE17FC186B196B1A6B1B6B14CC14F0B0
:1008500015CC15F01407000E155B1450151018E098
:1008600016CCE9FF17CCEAFF020E1627000E17235D
:10087000EECF14F0EFCF15F0000114500C01182743
:10088000000115500C011923000E1A231B23DED77B
:100890000E012251010B0EE016CCE9FF17CCEAFF46
:1008A000EFCF14F0000114500C011827000E19238B
:1008B0001A231B230C0118511A25186F19511B21DB
:1008C000196F1A6B1B6B1A5118271B51192318CC5F
:1008D00014F019CC15F0141E151E14C0F3FF15C02A
:1008E000F4FF00D0120028CE24FE29CE25FE2ACE09
:1008F00026FE2BCE27FE2CCE00FC080E0C01005D40
:100900000EE327CE01FC26CE27FE25CE26FE24CEE2
:1009100025FE01CC24FE080E0C01005FEED70C0171
:1009200000510BE00E01D89027BFD880243725371F
:10093000263727370C010007F2D724CE06F025CE44
:1009400007F026CE08F027CE09F000D012000F0ED7
:100950000E01EA6A2D25E96E2E51EA22EF6A2DCEAC
:10096000E6FF2ECEE6FFD5EC13F0E552E5520C0182
:10097000006B0F0E005D1CE200510E01EA6A2D258E
:10098000E96E2E51EA22EF5010E10F0E0C01005DCE
:100990000BE20051002B0E01EA6A2D25E96E2E5163
:1009A000EA22200EEF6EF1D703D00C01002BE1D725
:1009B00012000E0131CE14F032CE15F03107000EC8
:1009C000325B145015101EE02FCEE9FF30CEEAFF47
:1009D0002F2B000E3023EFCF00FC0C01005103E160
:1009E000F36AF46A12D00E0133510C01005D09E183
:1009F0000E012F07000E305B2FCEF3FF30CEF4FF39
:0C0A000004D0D7D7F36AF46A00D01200CB
:040A0C00FC0E921634
:100A10000E01FE8B0E01FDA1FDD70E01386B0E01FC
:100A200038810E01346B356B0E01E86BE96B0E01FA
:100A3000090EEC6F0E011A0EED6F0E01090EEA6F32
:100A40001A0EEB6F0E010A0EE46F1A0EE56F0E011F
:100A50000A0EE26F1A0EE36F0E015A6BF1DB0E0104
:100A60000D0EA06F00000E01320EA26F00000E01ED
:100A7000120EA46F00000E01400EA36F00000E01C5
:100A8000120EA66F00000E010C0EA76F00000E01E3
:100A9000EE0EAA6F00000E01050EAB6F00002DCF09
:100AA00084FE00002ECF85FE00002FCF82FE0000C6
:100AB00030CF83FE000031CF80FE000032CF81FEB8
:100AC00000000E01100E666F010E676F0E01100E12
:100AD000656F74EC09F00E01720E666F340E676F6D
:100AE0000E01140E656F74EC09F00E01666B676BF6
:100AF0000E01656B74EC09F0D28412000E01010E38
:100B0000646FDADBF3CF14F0F4CF15F0000114506A
:100B1000040B01E0010E00D01200D2B602D0010E8B
:100B200018D096EC11F00E013951065C146E3A5152
:100B30000758156E166A176A620E145C000E155877
:100B4000000E1658000E175802E3D29645D9000E33
:100B500000D012000E0138B132D0388134CE1CFCE6
:100B600035CE1DFC0C01010E1C5F000E1D5B1CCC64
:100B700014F01DCC15F0166A176A145C000E155897
:100B8000000E1658000E175810E31CCC18F01DCCA0
:100B900019F01A6A1B6AD880090E18541A0E1954D3
:100BA000000E1A54000E1B5404E2090E1C6F1A0E9C
:100BB0001D6F0E01FE8D1CCCECFE1DCCEDFE120057
:100BC000D9CE00FCEECE02FCEFCE03FC0C010051AE
:100BD0000E01D95DF5E1ECCE00FCEDCE01FC0C017F
:100BE0000251005D0351015920E2090E186E1A0EE0
:100BF000196E1A6A1B6A0051025D1C6E0351015581
:100C00001D6E1E6A1F6A1C50185C146E1D50195808
:100C1000156E1E501A58166E1F501B58176E14C0B2
:100C2000F3FF15C0F4FF1BD01AD00051021902E1E6
:100C30000151031906E1090EF36E1A0EF46E0FD07E
:100C40000ED00251005D146E01510355156E14064D
:100C5000000E155A14C0F3FF15C0F4FF00D01200A7
:100C60000E01D95102E1000E87D00E0138830E012A
:100C700038B103D06FDF000E7FD034CE36FE35CED4
:100C800037FE36CE7AFF37CE7BFF140E0E01586F3B
:100C9000596B0E01000E566F0C0E576F9EDA12CC78
:100CA0001AFE13CC1BFEEFEC03F0F3CF12FCF4CFD3
:100CB00013FC00CC14F001CC15F0166A176AD8802A
:100CC000090E14541A0E1554000E1654000E175423
:100CD0001BE30C010C010051010B16E10C010C018E
:100CE0000551800B11E10C010C010451100B0CE1BA
:100CF0000C01EE0ED8800255050E035505E30C01DC
:100D00000C010451800B01E1FF0000CC34FE01CC4A
:100D100035FE060EE66EE66A0C0EE66E0C0EE66E0C
:100D20003BCEE9FF3CCEEAFFE9CF14F0EACF15F065
:100D300014C0E6FF15C0E6FFAAEC13F0166E060E0F
:100D4000E15E16503DCEE9FF3ECEEAFFEF68080EA9
:100D50000C01135D0DE10C01125104E0060E0C01B3
:100D6000125D06E13DCEE9FF3ECEEAFF12CCEFFF79
:100D70000E013891010E00D012000E010B0EE26F31
:100D80001A0EE36F180E0E0142271A0E432342CEAD
:100D9000E6FE43CEE7FE060E0E015D6F5E6B3FCEB4
:100DA0005BFE40CE5CFE51DA060E0E015D6F5E6B9F
:100DB0000E012D0E5B6F0F0E5C6F47DA0E01080EF1
:100DC0005A6F3EDA0E01415102E1000E01D0060ECB
:100DD0000E015A6F20EF09F0D28ED29E0C01080E40
:100DE0001C6F1C511C07000901E0FBD76092D286E2
:100DF00096EC11F006C039FE07C03AFE1200140E40
:100E00000E01156A3625146E3751152214504425EB
:100E10000C01006F15500E0145210C01016F00CC33
:100E200014F001CC15F0166A176AD880090E145414
:100E30001A0E1554000E1654000E175404E20A0E32
:100E4000005F1A0E015B00CC7AFF01CC7BFF120021
:100E5000E2CE1CFCE3CE1DFC46CEE2FE47CEE3FE16
:100E60001CCCF3FF1DCCF4FF00D012007ACF00FCA5
:100E70007BCF01FC48CE7AFF49CE7BFF00CCF3FF4D
:100E800001CCF4FF00D01200140E0E01156A3625B5
:100E9000146E3751152214504A250C013C6F155021
:100EA0000E014B210C013D6F3CCC14F03DCC15F0F4
:100EB000166A176AD880090E14541A0E1554000EBB
:100EC0001654000E175404E20A0E3C5F1A0E3D5BE6
:100ED0007ACF3EFC7BCF3FFC3CCC7AFF3DCC7BFF06
:100EE0004CCE4EFE4DCE4FFE0ED8F3CF3CFCF4CF91
:100EF0003DFC3ECC7AFF3FCC7BFF3CCCF3FF3DCCAE
:100F0000F4FF00D012000C01026B036B046B056B45
:100F10007ACF00FC7BCF01FC0E014E514F1152E005
:100F2000140ED8804E55000E4F5505E20C01140EDC
:100F3000066F076B04D04ECE06FC4FCE07FC06CCE6
:100F400058FE07CC59FE0E01080E566F0C0E576F57
:100F500044D90C0106510E014E5F0C0107510E01E0
:100F60004F5B0C0106A10AD0080E0625E96E0C0E97
:100F70000721EA6EEF6A062B000E0723080E1C6F8E
:100F80000C0E1D6F065107111CE01CCCE9FF1DCC97
:100F9000EAFF020E1C27000E1D23EECF14F0EFCF48
:100FA00015F0000114500C010227000115500C012E
:100FB0000323000E04230523020E065F000E075BC9
:100FC000E1D7AAD700CC7AFF01CC7BFF02CC14F08A
:100FD00003CC15F0166A176A04CC18F005CC19F08A
:100FE0001A6A1B6A145018240C01026F155019203C
:100FF000036F16501A20046F17501B20056F045101
:1010000002270551032302CC14F003CC15F0141E63
:10101000151E14C0F3FF15C0F4FF00D012000C0120
:10102000046B056B0E01501D01E1511D07E10C0120
:10103000010E046FE2CE50FEE3CE51FE0E01521DB2
:1010400001E1531D07E10C01010E056F7ACF52FE3D
:101050007BCF53FE0E01010ED8805455000E55551E
:101060002EE37ACF00FC7BCF01FCE2CE02FCE3CE84
:1010700003FC52CE7AFF53CE7BFF50CEE2FE51CE20
:10108000E3FE0E0154CE14F055CE15F05407000EB9
:10109000555B1450151005E09DD80E015A6FD0D83D
:1010A000F0D70C01055104E100CC7AFF01CC7BFFA5
:1010B000045104E102CCE2FE03CCE3FE83D00C0138
:1010C00004510EE00E01505154250C01026F0E0127
:1010D000515155210C01036F02CCE2FE03CCE3FE1B
:1010E00052CE14F053CE15F01406000E155A1450BB
:1010F0000E01542715505523D2BAFED752CEF0FE1A
:1011000053CEF1FE50CEF4FE51CEF5FE52CE14F089
:1011100053CE15F0166A176AD880090E14541A0EA9
:101120001554000E1654000E175415E354CE18F043
:1011300055CE19F01A6A1B6AD880090E18541A0E77
:101140001954000E1A54000E1B5405E20A0E0E012B
:10115000545F1A0E555B54CEF2FE55CEF3FED29874
:10116000D28AD2BAFED70C0105512CE00E01542BC5
:10117000000E552352CE14F053CE15F0166A176A9E
:10118000D880090E14541A0E1554000E1654000E71
:10119000175414E354CE18F055CE19F01A6A1B6A8E
:1011A000D880090E18541A0E1954000E1A54000E45
:1011B0001B5404E20A0E545F1A0E555B54CE7AFF9C
:1011C00055CE7BFF1200D250200B200A01E0010E09
:1011D00000D01200615000D0120058CE40FC59CE11
:1011E00041FC0E015651571117E00C0140CC14F090
:1011F00041CC15F04007000E415B145015100BE078
:101200000E0156CEE9FF57CEEAFF562B000E5723AC
:1012100061CFEFFFEAD70ED00C0140CC14F041CCE7
:1012200015F04007000E415B1450151003E061CF2C
:1012300042FCF2D758CEF3FF59CEF4FF00D0120093
:101240005ACEF3FF5ACE61FF12000E015DCE14F0AC
:101250005ECE15F05D07000E5E5B145015100DE0BC
:101260000E015BCEE9FF5CCEEAFF5B2B000E5C2338
:10127000EF50F36EF3CF61FFE8D712000E0162CE9C
:1012800014F063CE15F06207000E635B1450151066
:1012900012E00E015FCEF6FF5F2B60CEF7FF000E6F
:1012A000602361CEF8FF000E61230800F550F36E55
:1012B000F3CF61FFE3D7120064CEB4FE00000E014D
:1012C000010EB26F00000E018AB1FDD70E01B26BA4
:1012D0000000B8CE00FC0000B9CE01FC00CCF3FF4A
:1012E00001CCF4FF00D0120065CEB4FE66CEF3FF51
:1012F00067CEF4FFC00EF2140C01006F3F0EF21621
:10130000F3CFB6FE0000F4CFB7FE0C010051F2128D
:101310000E018AB1FDD71200D2940E01FDB5FDD7A2
:10132000D2B6FED70E01FE9B12000E01FE8BFDB160
:0813300002D0D284FCD71200A8
:08133800D8CFE4FFE0CFE4FF91
:10134000E46EDACFE4FFE2CFDAFFE9CFE4FFEACFE1
:10135000E4FFF6CFE4FFF7CFE4FFF8CFE4FFF5CFEB
:10136000E4FFF3CFE4FFF4CFE4FFFACFE4FFFBCFD9
:10137000E4FF00EE00F0140EE80403E3EECFE4FF18
:10138000FBD700EE14F00C0EE80403E3EECFE4FF0D
:10139000FBD7E652DEEC11F0E55200EE1FF00C0E2A
:1013A000E80403E3E5CFEDFFFBD700EE13F0140EE6
:1013B000E80403E3E5CFEDFFFBD7E5CFFBFFE5CF87
:1013C000FAFFE5CFF4FFE5CFF3FFE5CFF5FFE5CF7B
:1013D000F8FFE5CFF7FFE5CFF6FFE5CFEAFFE5CF72
:1013E000E9FFE5CFDAFFE550E5CFE0FFE5CFD8FF35
:1013F0001000D8CFE4FFE0CFE4FFE46EDACFE4FFE3
:10140000E2CFDAFFE652E552E5CFDAFFE550E5CF6D
:10141000E0FFE5CFD8FF10000C01006B016B026B01
:10142000400E9B6E020ED36E92909292899089929A
:10143000948694888F988B8A949A98988B9AF40EB5
:10144000096F010E0A6F0C0109CC14F00ACC15F0DB
:101450000907000E0A5B1450151006E00B0EE66E2D
:101460001EEC15F0E552EFD78B8A7BEC11F00C01E6
:10147000046B140E045D09E20451EA6A3D0FE96E43
:101480000F0EEA22EF6A042BF4D7780E036FC69A88
:10149000080E016F800E026F02CCDCF001CCDBF095
:1014A0004AEC15F00A0EC86EC750040B01E0010E9D
:1014B000146E1F0EC514141001E0F6D7C580C5B018
:1014C000FED70F01180E596F0F01000E576F010E56
:1014D000586F03CC56FFA8D803CC5AFF06D90C018D
:1014E000070E056F0551000815E205CC5DFF0F01E1
:1014F0005C6B03CC5BFF67D90F01810E556F0F0149
:101500001B0E536F010E546F03CC52FF2BD80C01EE
:101510000507E8D70101E12B000EE223E323E423D2
:10152000C80EE15D000EE259000EE359000EE459C9
:1015300017E3E16BE26BE36BE46B8F78E52B000E56
:10154000E623E723E823FF0EE55D000EE659000ED3
:10155000E759000EE85904E3E56BE66BE76BE86BCF
:10156000D9D712000C010B6B0C6BC582C5B2FED72C
:10157000C750040B01E0010E146E1F0EC5141410A9
:1015800001E0F6D7C9CF0FFC52CFFFF1EAEC13F020
:101590000C01106FFF0E105D04E1C9CF0FFCC69E59
:1015A00089821051F1E10101400EFF6FEAEC13F066
:1015B0000C01106FFF0E105D04E1C9CF0FFCC69E39
:1015C00089821051F0E10D6B0F0155510C010D5D39
:1015D00020E2C6A617D053CFE9FF54CFEAFFEFCFE2
:1015E000FFF1EAEC13F0000901E01DD0C750040B35
:1015F00001E0010E146E1F0EC514141001E0F6D7A1
:10160000C5BC11D00F01532B000E54230C010D2B20
:10161000DBD7C750040B01E0010E146E1F0EC5147A
:10162000141001E0F6D712000C01136B146BC58285
:10163000C5B2FED7C750040B01E0010E146E1F0E99
:10164000C514141001E0F6D7C9CF17FC56CFFFF12F
:10165000EAEC13F00C01186FFF0E185D04E1C9CF1E
:1016600017FCC69E89821851F1E10101FF6BEAEC7B
:1016700013F00C01186FFF0E185D04E1C9CF17FCC1
:10168000C69E89821851F1E1156B0F0159510C0169
:10169000155D20E2C6A617D057CFE9FF58CFEAFF65
:1016A000EFCFFFF1EAEC13F0000901E01DD0C750C5
:1016B000040B01E0010E146E1F0EC514141001E09E
:1016C000F6D7C5BC11D00F01572B000E58230C01C3
:1016D000152BDBD7C750040B01E0010E146E1F0E53
:1016E000C514141001E0F6D712000C010B6B0C6B43
:1016F0000E6B060E0E5D66E20ECC5DFF0F015C6B9D
:101700005ACF5BFF60D8C582C5B2FED7C750040B65
:1017100001E0010E146E1F0EC514141001E0F6D77F
:10172000C9CF10FC5ACFFFF1EAEC13F00C01116F96
:10173000FF0E115D04E1C9CF10FCC69E89821151D4
:10174000F1E10101400EFF6FEAEC13F00C01116FA3
:10175000FF0E115D04E1C9CF10FCC69E89821151B4
:10176000F0E10D6B0D51146E156AD890155004E61A
:10177000800E145C000E155818E2C6A613D00101A5
:10178000FF6BEAEC13F0000901E01CD0C750040B1A
:1017900001E0010E146E1F0EC514141001E0F6D7FF
:1017A000C5BC10D00C010D2BDDD7C750040B01E0D8
:1017B000010E146E1F0EC514141001E0F6D70C01B3
:1017C0000E2B97D712000C01010E1A6F400E0F015D
:1017D0005D110C011B6F800E0F015C110C011C6F61
:1017E0000F01030E596F0F011A0E576F0C0E586F31
:0817F0005BCF56FF14EF0BF074
:0817F8008DEC05F0000901E190
:10180000FBD70E010B0E466F1A0E476F28EC07F040
:101810009EC0E9FF9FC0EAFF010EEE6EED6A9EC01A
:10182000E9FF9FC0EAFF020EE926000EEA22EE6AF7
:10183000080EED6E9EC0E9FF9FC0EAFF040EE92688
:10184000000EEA22060EEF6E9EC0E9FF9FC0EAFF7F
:10185000050EE926000EEA22040EEF6E060EE66E75
:10186000E66A2D0EE66E0F0EE66E9EC0E9FF9FC083
:10187000EAFF080EE926000EEA22E9CF14F0EACFCB
:1018800015F014C0E6FF15C0E6FFAAEC13F0166EC3
:10189000060EE15E16509EC0E9FF9FC0EAFF0E0EE5
:1018A000E926000EEA2200CFEEFF01CFEEFF02CFC5
:1018B000EEFF03CFEEFF9EC0B0F09FC0B1F070D935
:1018C0001C0E0E01426F436B0E01060E416F9EC04F
:1018D000E9FF9FC0EAFF120EE926000EEA22E9CFD7
:1018E0003FFEEACF40FEBDEC06F01C0E0E015D6F20
:1018F0005E6B9EC05BFE9FC05CFE25EC09F0ECECCD
:1019000006F0010E00D012000001986999699A69E9
:101910009B699C699D69946B956B966B976B1200A4
:101920000001E351010A01E179D0010A01E09BD0F5
:101930001C0E0E01586F596B0E01000E566F0C0EE7
:10194000576FEDEC08F0AAEC05F00001000EB06F47
:101950000C0EB16F25D90C01010E001901E10151E6
:1019600010E10451146E156A060E141801E11550A9
:1019700008E10551166E176A040E161801E117509A
:1019800002E0010E72D0020E061901E1075116E1C4
:1019900008CC98F009CC99F00ACC9AF00BCC9BF0CB
:1019A0000CCC9CF00DCC9DF00ECC94F00FCC95F0AF
:1019B00010CC96F011CC97F0010E57D0010E0619FD
:1019C00001E107512BE1180EE96E0C0EEA6EEE50A4
:1019D0000F01001909E1EE50011906E1EE5002195C
:1019E00003E1EE50031900E102E0010E3ED00ECCFF
:1019F000A0F00FCCA1F010CCA2F011CCA3F008CC39
:101A0000A4F009CCA5F00ACCA6F00BCCA7F00CCC26
:101A1000A8F00DCCA9F00001010EE36F020E0C013D
:101A2000066F076BA4C012FCA5C013FCA6C014FC73
:101A3000A7C015FCA8C016FCA9C017FCA0C018FCC4
:101A4000A1C019FCA2C01AFCA3C01BFC0001000E1F
:101A50009E6F0C0E9F6FD0DE000902E1000E05D0D4
:101A60000001E36B00D0010E00D01200010E0C014A
:101A7000066F076B1269136914691569166917698E
:101A8000AAC0E9FFABC0EAFF0F010051EE18146EC7
:101A90000151EE18156E0251EE18166E0351EE1834
:101AA000176E0451141605511516065116160751D6
:101AB0001716145015101610171009E008CF18FC4F
:101AC00009CF19FC0ACF1AFC0BCF1BFC0CD0AAC003
:101AD000E9FFABC0EAFFEECF18FCEECF19FCEECF6A
:101AE0001AFCEFCF1BFC0001000E9E6F0C0E9F6FC7
:101AF000FCEF0BF0ACC0E9FFADC0EAFF0001945170
:101B0000EE1809E19551EE1806E19651EE1803E141
:101B10009751EE1800E12FE0940EE96E000EEA6E88
:101B2000EE500F01081909E1EE50091906E1EE50D7
:101B30000A1903E1EE500B1900E12FE1ACC0E9FFF7
:101B4000ADC0EAFF0051EE18146E0151EE18156E8B
:101B50000251EE18166E0351EE18176E045114164A
:101B60000551151606511616075117161450151063
:101B70001610171012E0AEC0E9FFAFC0EAFF98C020
:101B8000EEFF99C0EEFF9AC0EEFF9BC0EEFF9CC037
:101B9000EEFF9DC0EEFF010E02D0000E00D012003D
:101BA000B0C0E9FFB1C0EAFFEECF1AFEEDCF1BFED9
:101BB000EFEC03F0F3CF14F0F4CF15F0B0C0E9FF71
:101BC000B1C0EAFF14C0EEFF15C0EDFFB0C0E9FFE1
:101BD000B1C0EAFF020EE926000EEA22EECF1AFE9D
:101BE000EDCF1BFEEFEC03F0F3CF14F0F4CF15F0C4
:101BF000B0C0E9FFB1C0EAFF020E14C0EBFF030E54
:101C000015C0EBFFB0C0E9FFB1C0EAFF060EE92640
:101C1000000EEA22EECF1AFEEDCF1BFEEFEC03F032
:101C2000F3CF14F0F4CF15F0B0C0E9FFB1C0EAFF74
:0E1C3000060E14C0EBFF070E15C0EBFF1200EE
:021C3E00140E82
:101C40000E01586F596B0E01200E566F0C0E576F18
:101C5000EDEC08F0F00E0C012015400802E0000E3B
:101C600067D01F0E2615146EFF0E2715156E145023
:101C7000151002E0000E5CD00F0E2015040DF3CFFE
:101C8000EDF10101ED510E014C6F4D6B0E014A6BF0
:101C90004B6B44EC07F0F3CF1EFCF4CF1FFC0101AB
:101CA000ED510E01446F456BFFEC06F00C011E5127
:101CB0001F1102E0000E3CD00101200EFD6F0C0E42
:101CC000FE6FB7D80101EE51EF110CE0EEC1E9FF54
:101CD000EFC1EAFF30CCEEFF31CCEEFF32CCEEFFAD
:101CE00033CCEEFFF0C1E9FFF1C1EAFF2CCCEEFFEF
:101CF0002DCCEEFF2ECCEEFF2FCCEEFFF2C1E9FF94
:101D0000F3C1EAFF29CCEFFFED51166E176A0C0103
:101D10001650225D146E17502359156EF4C1E9FF59
:101D2000F5C1EAFF14C0EEFF15C0EDFF010E00D0B3
:101D300012000101140EED6F0C01450E006F016BD6
:101D4000140E0101F9250C01026F000E0101FA21A8
:101D50000C01036F0001DF2B000EE023DFC004FC49
:101D6000E0C005FC0C01066B076B640E086FF8C140
:101D700009FC0A6B0B6B00CF0CFC01CF0DFC02CFF2
:101D80000EFC03CF0FFCF6C1E9FFF7C1EAFFEECF6F
:101D900010FCEECF11FCEECF12FCEFCF13FC0101D3
:101DA000000EFD6F0C0EFE6F44D8140E0E01226F54
:101DB000236B0E01000E206F0C0E216F16EC04F049
:101DC000F3CF0AFCF4CF0BFC140E0101F9250E0130
:101DD000426F000E0101FA210E01436F0E01416BAB
:101DE000F6C1E9FFF7C1EAFF040EE926000EEA2278
:101DF000E9CF3FFEEACF40FEBDEC06F0140E0E0127
:101E00005D6F5E6B0E01000E5B6F0C0E5C6F25EC60
:101E100009F0F36AF46A00D012000101ED51FB25CC
:101E20000E01446F000E0101FC210E01456FFFEF12
:101E300006F0FDC1E9FFFEC1EAFF020EE926000E31
:101E4000EA22EECF1AFEEDCF1BFEEFEC03F0F3CF4C
:101E500014F0F4CF15F0FDC1E9FFFEC1EAFF020E58
:101E600014C0EBFF030E15C0EBFFFDC1E9FFFEC17F
:101E7000EAFF040EE926000EEA22EECF1AFEEDCFAD
:101E80001BFEEFEC03F0F3CF14F0F4CF15F0FDC11F
:101E9000E9FFFEC1EAFF040E14C0EBFF050E15C0FA
:101EA000EBFFFDC1E9FFFEC1EAFF0A0EE926000EC5
:101EB000EA22EECF1AFEEDCF1BFEEFEC03F0F3CFDC
:101EC00014F0F4CF15F0FDC1E9FFFEC1EAFF0A0EE0
:0C1ED00014C0EBFF0B0E15C0EBFF12005E
:041EDC00C580C5B048
:101EE000FED70101780EFF6FEAEC13F0000903E062
:101EF000F36AF46A0DD0BCC0FFF1EAEC13F00009FC
:101F000003E0F36AF46A04D0010EF36EF46A00D0C1
:101F100012000001BEC0E9FFBFC0EAFF020EBE27EB
:101F2000000EBF23EFCFFFF1EAEC13F0000903E04E
:101F3000F36AF46A0BD00001C007000EC15BC05108
:101F4000C111E7E1010EF36EF46A00D01200000146
:101F5000BC6BBD6BC3DF060E0001C06FC16B00011F
:101F60008E0EBE6F000EBF6FD4DFC584C5B4FED722
:101F700012008B9A0C01F40E026F010E036F0C011C
:101F800002CC14F003CC15F00207000E035B1450D2
:101F9000151006E00B0EE66E1EEC15F0E552EFD7BD
:101FA0008B8AF40E046F010E056F0C0104CC14F043
:101FB00005CC15F00407000E055B1450151006E063
:101FC0000B0EE66E1EEC15F0E552EFD78B9A010E64
:101FD000066F076B0C0106CC14F007CC15F0060752
:101FE000000E075B1450151006E00B0EE66E1EEC9B
:101FF00015F0E552EFD78B8A030E086F096B0C01C1
:1020000008CC14F009CC15F00807000E095B145039
:10201000151006E00B0EE66E1EEC15F0E552EFD73C
:102020000001BC6BBD6B5ADF2E0E0001C06FC16B8F
:102030000001600EBE6F000EBF6F6BDF8980C5842C
:10204000C5B4FED7400E0001BC6FBD6B47DF89826F
:1020500001011F0EFF6FEAEC13F00101050EFF6F87
:10206000EAEC13F00101070EFF6FEAEC13F0010137
:10207000FF6BEAEC13F001011F0EFF6FEAEC13F0A7
:102080000101040EFF6FEAEC13F001011F0EFF6F58
:10209000EAEC13F0C584C5B4FED712000001BC6B96
:1020A000BD6B1CDFF3CF14F0F4CF15F014501510F6
:1020B00031E00101010EFF6FEAEC13F001010D0E9A
:1020C000FF6FEAEC13F00001800ED880C255000EBD
:1020D000C3550BE20101070EFF6FEAEC13F0800E0F
:1020E0000001C25F000EC35B05D00101050EFF6F4A
:1020F000EAEC13F0C2C014F0C3C015F0D89015324A
:102100001432800E14100101FF6FEAEC13F0C58445
:06211000C5B4FED7120069
:0A211600C750040B01E0010E146E27
:102120001F0EC514141001E0F6D7C580C5B0FED748
:10213000C5B0FED7A1A604D0F368F4686BD062D016
:10214000DDC0FFF1EAEC13F0000907E0C584C5B477
:10215000FED7FD0EF36EF4685DD0C5BC4CD0DEC07A
:10216000FFF1EAEC13F0000907E0C584C5B4FED71F
:10217000FD0EF36EF4684ED0C5BC36D0C582C5B234
:10218000FED7C5B2FED7A1A603D0F368F46842D04B
:102190000001DD290101FF6FEAEC13F0000907E0FF
:1021A000C584C5B4FED7FD0EF36EF46833D0C5BC4C
:1021B00014D0C586C5B6FED7C58AC588C5B8FED7B2
:1021C000C5B8FED7C584C5B4FED7C5B4FED7A1A691
:1021D00003D0F368F4681ED015D0C584C5B4FED70B
:1021E000FE0EF36EF46816D0C584C5B4FED7FE0E9D
:1021F000F36EF4680FD0C584C5B4FED7FE0EF36E3F
:10220000F46808D0C950146E156A14C0F3FF15C0E5
:06221000F4FF00D01200F3
:0A221600C750040B01E0010E146E26
:102220001F0EC514141001E0F6D7C580C5B0FED747
:10223000C5B0FED7A1A603D0FF0E5CD059D0C4C054
:10224000FFF1EAEC13F0000905E0C584C5B4FED740
:10225000FD0E50D0C5BC47D0C5C0FFF1EAEC13F06D
:10226000000905E0C584C5B4FED7FD0E43D0C5BC4A
:1022700035D0C582C5B2FED7C5B2FED70001C4298C
:102280000101FF6FEAEC13F0000905E0C584C5B455
:10229000FED7FD0E2FD0C5BC1CD0C8C0D7F0C6C01D
:1022A000D5F0C7C0D6F088EC14F0000902E0FF0EAC
:1022B00021D0C58AC588C5B8FED7C5B8FED7C584A4
:1022C000C5B4FED7C5B4FED7A1A602D0FF0E12D06A
:1022D0000FD0C584C5B4FED7FE0E0CD0C584C5B4DE
:1022E000FED7FE0E07D0C584C5B4FED7FE0E02D0C1
:0622F000000E00D01200F8
:0A22F600D76AD66AF194F294F28AD6
:10230000870ED56E1200F28A0000F29AD6CFB2F094
:10231000D7CFB3F0CDC0B4F0CEC0B5F0CFC0B6F0DB
:10232000D0C0B7F0F2B4EFD7F28A1200ECDFB2C03F
:1023300006F0B3C007F0B4C008F0B5C009F000D093
:102340001200E1DFB3C000FCB4C001FCB5C002FC68
:10235000B6C003FC00CC06F001CC07F002CC08F0BC
:1023600003CC09F000D01200CEDFB4C000FCB5C031
:1023700001FCB6C002FCB7C003FC00CC06F001CCE7
:1023800007F002CC08F003CC09F000D01200B8C06E
:1023900006F0B9C007F0BAC008F0BBC009F0100ED3
:1023A0000626000E072208220922200E0B6E0C6A58
:1023B0000D6A0E6AB4EC14F000D01200F2A407D03B
:1023C0000001CD2B000ECE23CF23D023F294120098
:1023D000C750040B01E0010E146E1F0EC51414103B
:1023E00001E0F6D7C580C5B0FED7C5B0FED7A1A61F
:1023F00003D0FF0E3ED032D0C9C0FFF1EAEC13F09B
:10240000000905E0C584C5B4FED7FD0E32D0C5BCB9
:1024100020D0CAC0FFF1EAEC13F0000905E0C58442
:10242000C5B4FED7FD0E25D0C5BC0ED0CBC05EFF17
:10243000CCC05FFF57EC14F0000905E0C584C5B4BB
:10244000FED7FC0E16D00AD0C584C5B4FED7FE0E4A
:1024500010D0C584C5B4FED7FE0E0BD0C584C5B45C
:10246000FED7C5B4FED7A1A602D0FF0E02D0000E43
:0424700000D0120086
:0C247400C750040B01E0010E146E1F0E97
:10248000C514141001E0F6D7C580C5B0FED7C5B09D
:10249000FED7A1A603D0FF0E3CD030D0D8C0FFF1AC
:1024A000EAEC13F0000905E0C584C5B4FED7FD0EC3
:1024B00030D0C5BC1ED0D9C0FFF1EAEC13F0000942
:1024C00005E0C584C5B4FED7FD0E23D0C5BC0CD035
:1024D000DAC0FFF1EAEC13F0000905E0C584C5B4E9
:1024E000FED7FD0E16D00AD0C584C5B4FED7FE0EA9
:1024F00010D0C584C5B4FED7FE0E0BD0C584C5B4BC
:10250000FED7C5B4FED7A1A602D0FF0E02D0000EA2
:0425100000D01200E5
:0C2514001E0EF66E000EF76E000EF86E44
:102520000E010900F550786F0900F550796F03E14D
:10253000786701D03DD00900F550736F0900F55060
:10254000746F0900F550756F09000900F550E96EC8
:102550000900F550EA6E090009000900F550766F90
:102560000900F550776F09000900F6CF7AFEF7CF22
:102570007BFEF8CF7CFE73CEF6FF74CEF7FF75CEF0
:10258000F8FF0E01765302E1775307E00900F5509A
:10259000EE6E7607F8E27707F9D77ACEF6FF7BCEB4
:1025A000F7FF7CCEF8FF0E017807000E795BBFD7EE
:0225B000120017
:0E25B200C750040B01E0010E146E1F0EC5147D
:1025C000141001E0F6D7C580C5B0FED7C5B0FED760
:1025D000A1A604D0F368F46833D02AD0E1C0FFF19B
:1025E000EAEC13F0000907E0C584C5B4FED7FD0E80
:1025F000F36EF46825D0C5BC14D0C586C5B6FED729
:10260000C58AC588C5B8FED7C5B8FED7C584C5B4C8
:10261000FED7C5B4FED7A1A603D0F368F46810D0E6
:1026200007D0C584C5B4FED7FE0EF36EF46808D09B
:10263000C950146E156A14C0F3FF15C0F4FF00D022
:02264000120086
:0E2642000E01686BA5EC00F006C000FE07C09C
:1026500001FE08C002FE09C003FE34EC00F006ECE7
:1026600005F084EF0CF00E013A0E3D6F0C0E3E6F3C
:102670000E016D0E3B6F0E0E3C6F30EC06F0000944
:1026800001E124D00C013A5106E0060A01E01DD018
:1026900090EC0CF01AD00101340EF46F0C0EF56FB3
:1026A00001013B0EF26F0C0EF36F0101690EF06F2A
:1026B0000E0EF16F0101360EEE6F0C0EEF6F1FEC78
:1026C0000EF0000901E101D000D0CDD712001200B8
:1026D000C750040B01E0010E146E1F0EC514141038
:1026E00001E0F6D7C580C5B0FED7C5B0FED7A1A61C
:1026F00003D0FF0E2ED022D0E2C0FFF1EAEC13F09F
:10270000FF0805E1C584C5B4FED7FD0E22D0C5ACD7
:1027100015D0C582C5B2FED7C5B2FED7A1A602D0DC
:10272000FF0E17D0E2C0FFF1EAEC13F0FF0805E15D
:10273000C584C5B4FED7FD0E0CD0E9D7C584C5B499
:10274000FED7C5B4FED7A1A602D0FF0E02D0000E60
:0427500000D01200A3
:0C275400D9CFE6FFDACFE6FFFA0EE3CFA4
:10276000D9FFFB0EE3CFDAFFFC0EE3CFE9FFFD0E4E
:10277000E3CFEAFFE9CFF3FFEACFF4FFF80EE3502F
:1027800003E1F90EE35008E0F80EE30602E2F90E69
:10279000E306DECFEEFFF2D7FF0EE3CFDAFFE5521E
:1027A000FF0EE3CFD9FFE5521200FE0EE3CFE9FFA3
:1027B000FF0EE3CFEAFFE9CFF3FFEACFF4FF610EAC
:1027C000EF5C05E67B0EEF5C02E7DF0EEF16EE52E4
:0427D000F6E112001C
:0C27D400FFC1C9FFC6AE03D0FF0E32D01B
:1027E00031D00F0EC614080812E00F0EC6140B08E5
:1027F0000EE0C6889EA6FED7C750040B06E1C75060
:10280000010B03E1FE0E1ED01DD0000E1BD00F0EDB
:10281000C614080804E00F0EC6140B0813E1C7B075
:10282000FED7C750040B01E0010E146E1F0EC51435
:10283000141001E0F6D7C5AC03D0FE0E03D002D0D1
:06284000000E00D01200A2
:0A2846000C01016B0E017F510C0123
:10285000015D2AE2C6A60FD07DCEE9FF7ECEEAFF5B
:10286000EFCFFFF1EAEC13F00C01006F005102E032
:1028700000511CD012D09E967DCEE9FF7ECEEAFF9D
:10288000EF50C96EC6889EA6FED7C750040B05E15F
:10289000C750010B02E1FE0E09D00E017D2B000E88
:0E28A0007E230C01012BD1D7000E00D01200B8
:0228AE005ECFFB
:1028B000E9FF5FCFEAFFEF5028E0C6A60FD05ECF5A
:1028C000E9FF5FCFEAFFEFCFFFF1EAEC13F00C0175
:1028D000006F005102E000511AD012D09E965ECFD8
:1028E000E9FF5FCFEAFFEF50C96EC6889EA6FED70C
:1028F000C750040B05E1C750010B02E1FE0E07D0E3
:102900000F015E2B000E5F23D2D7000E00D0120005
:102910000001D751D707000924E03CEC15F0E66E22
:102920000001D5C0E9FFD6C0EAFFD52B000ED623A3
:10293000E552E750EF6EC5B6FED7A1A602D0FF0E56
:1029400012D00F0EC614080804E00F0EC6140B08B0
:1029500007E10001D75104E0C59AC588C5B8FED784
:08296000D7D7000E00D01200D1
:08296800056A046A036A026AB1
:10297000200EE76ED890063607360836093602363E
:102980000336043605360B50025C0C5003580D50CC
:1029900004580E50055809E30B50025E0C50035AC0
:1029A0000D50045A0E50055A062AE72EE4D712009D
:1029B00008C012F008500D02F4CF07F0F3CF06F074
:1029C00009500E02F4CF09F0F3CF08F00D02F350D6
:1029D0000726F4500822E86A092212500E02F3502A
:0C29E0000726F4500822E86A0922000CC7
:0429EC00056A046A0A
:1029F000100EE76ED89008360936043605360D50AD
:102A0000045C0E50055805E30D50045E0E50055A47
:082A1000082AE72EF0D712009E
:082A18000200C8009600050051
:102A2000C80001000800C800C8000800C800C800AD
:0C2A30000900C800C8000A0019001400CA
:042A3C00FF0EE35056
:102A4000206E480E01D04C0EE76EE72EFED7E76AE7
:0C2A5000E72EFED7202EF7D70000120062
:042A5C001DEE00F07B
:102A60002DEE00F0F86A019C8AEC12F003EC00F005
:082A70000CEC0AF0FBD7120088
:082A78000F0EC614080804E06B
:102A80000F0EC6140B0801E1C586C7A0FED7C950BA
:042A900000D0120060
:0C2A94003F0EC716C66AC56A0001DB5180
:0E2AA000C612DC51C71294869488C68A1200B2
:022AAE00C7500F
:102AB000040B01E0010E146E1F0EC514141002E089
:062AC000F6D7F5D7120065
:0A2AC600C7A003D0010E03D002D018
:062AD000000E00D0120010
:0A2AD60000EE00F00E0EEE6AEA6258
:042AE000FDD712000C
:062AE400C59AC58812002E
:042AEA00C58412008D
:022AEE00C5829F
:022AF0001200D2
:042AF200C69A12006E
:0A2AF60001000E001200840005002C
:102B00000E00240001000D0007000B001700B300A9
:102B100001000B0004000800580001001000200014
:0A2B2000400080000100400080002A
:042B2A0000000000A7
:022B2E000001A4
:102B30000E1284060824010D050B17B3010B0408BF
:102B400058011020408001408080E0B8179FFCE0D1
:102B50008081FFFF8989FF76003C7EC381818247A7
:102B60000081FFFF8181C37E3C81FFFF899DC3817E
:102B7000FFFF891D03003C7EC381A1E2672081FF26
:102B8000FF890889FFFF8181FFFF8160E081FF7F6E
:102B90000181FFFF993CE3C18181FFFF8180C0E09B
:102BA00081FF873FF83C87FFFF8181FF830E1C7107
:102BB000FF013C7EC38181C37E3C81FFFF911111E7
:102BC0001F0E3C7EC381A1C3FEBC81FFFF8939F784
:102BD000CC80CE5F99FA730381FFFF8103017FFFF1
:102BE0008180817F0101073FF9C039070101073F5B
:102BF000F8E11B1FF9E01D030181C3AF3DF4C38160
:102C000001038FFDF08D030180C7F1BD8FC3E1008B
:0B2C10000000000000000000000000B9
:022C1B000000B7
:032C1D009E9FFE79
:012C20004172
:012C210000B2
:020000040001F9
:01FFF800A068
:01FFFA00C541
:01FFFD00F70C
:00000001FF
