:020000040000fa
:080000000002040000000000f2
:020000040000fa
:100400004fb220000e7f24000e0188000000000083
:100410000c000700802025000100200011000700cb
:10042000000020000000e000020032000000020096
:1004300000000000fe470200000000000040da005b
:100440000000fe004440a900002520000000e0005c
:100450000300320000002000a00188004440a800f2
:100460000000060091018800800078000000eb0089
:1004700015003700e280400032a0b4009101ba00bc
:10048000e280400032a0b4009102ba00e280400055
:1004900032a0b4000002eb00472bde00f507b200eb
:1004a000602ce10004003a000059eb008301e900f0
:1004b000fdff3e00040037006128e100010032002a
:1004c0000082eb00040007001101ba000200e00006
:1004d000e8ff3a00000006003159ba008301e90044
:1004e0000c0032002159ba008301e90008003200f3
:1004f0000400e00003003a00e280400032a0b400b3
:10050000f5ff370011d9ba008301e900faff3a007c
:100510008100e800e180400032a0b4000000060045
:100520000040da000000fe00020ab900001bb9001a
:100530000200b80081004200810043000000060074
:100540008001eb000200370061f079008301e800d0
:10055000828f5100fcff3a00000006008001eb0092
:1005600002003700817178008301e800828f51001a
:10057000fcff3a00000006000400fa00e0bf9f0004
:10058000e4815700812978000002eb000f0037005a
:100590006fb89700904078007fb8970010407800bf
:1005a0000402e80080cf5000040032008180fb008c
:1005b0000080fb0000805000070037006fb89700f4
:1005c0000000e800e0bf9f009309e800820f52009e
:1005d000efff3a000000eb000080fa000000060088
:1005e00080017800000178003140780000597800df
:1005f0000004e000fcff3a00030078000000060061
:10060000800078003004e000feff3a000100500056
:100610000000e90000000600800178000001780079
:10062000010037000201e8001204e000fdff3a007b
:1006300031407800005978000004e000fcff3a00e7
:08064000030078000000060031
:020000040000fa
:0200000401f009
:04000c00fbff0000f6
:020000040000fa
:0200000401f009
:04001000fdff0000f0
:020000040000fa
:0200000401f009
:040014007fff00006a
:020000040000fa
:1000080090020000900200009a460000a0460000fe
:100018009002000090020000900200009002000090
:10002800900200009002000090020000f4510000cd
:100038009002000090020000900200009002000070
:100048009002000090020000900200009002000060
:100058009002000090020000900200009002000050
:100068009002000090020000900200009002000040
:100078009002000090020000900200009002000030
:100088009002000090020000900200009002000020
:100098009002000090020000900200009002000010
:1000a8009002000090020000900200009002000000
:1000b80090020000900200009002000090020000f0
:1000c80090020000900200009002000090020000e0
:1000d80090020000900200009002000090020000d0
:1000e80090020000900200009002000090020000c0
:1000f80090020000900200009002000090020000b0
:10010800900200009002000090020000900200009f
:10011800900200009002000090020000900200008f
:10012800900200009002000090020000900200007f
:10013800900200009002000090020000900200006f
:10014800900200009002000090020000900200005f
:10015800900200009002000090020000900200004f
:10016800900200009002000090020000900200003f
:10017800900200009002000090020000900200002f
:10018800900200009002000090020000900200001f
:10019800900200009002000090020000900200000f
:1001a80090020000900200009002000090020000ff
:1001b80090020000900200009002000090020000ef
:1001c80090020000900200009002000090020000df
:1001d80090020000900200009002000090020000cf
:1001e80090020000900200009002000090020000bf
:0801f8009002000090020000db
:020000040000fa
:1002080090020000900200009a460000a0460000fc
:10021800900200009002000090020000900200008e
:10022800900200009002000090020000f4510000cb
:10023800900200009002000090020000900200006e
:10024800900200009002000090020000900200005e
:10025800900200009002000090020000900200004e
:10026800900200009002000090020000900200003e
:10027800900200009002000090020000900200002e
:10028800900200009002000090020000900200001e
:10029800900200009002000090020000900200000e
:1002a80090020000900200009002000090020000fe
:1002b80090020000900200009002000090020000ee
:1002c80090020000900200009002000090020000de
:1002d80090020000900200009002000090020000ce
:1002e80090020000900200009002000090020000be
:1002f80090020000900200009002000090020000ae
:10030800900200009002000090020000900200009d
:10031800900200009002000090020000900200008d
:10032800900200009002000090020000900200007d
:10033800900200009002000090020000900200006d
:10034800900200009002000090020000900200005d
:10035800900200009002000090020000900200004d
:10036800900200009002000090020000900200003d
:10037800900200009002000090020000900200002d
:10038800900200009002000090020000900200001d
:10039800900200009002000090020000900200000d
:1003a80090020000900200009002000090020000fd
:1003b80090020000900200009002000090020000ed
:1003c80090020000900200009002000090020000dd
:1003d80090020000900200009002000090020000cd
:1003e80090020000900200009002000090020000bd
:0803f8009002000090020000d9
:020000040000fa
:100648000d0a00000d0a0000476f00006f640000eb
:1006580062790000652100000d0a000000200000fa
:100668002020000020200000202000002020000082
:10067800200000000d0a0000534e000054500000f6
:1006880020540000696d0000653a00002020000039
:1006980020200000286400006973000061620000e7
:1006a8006c650000642900000d0a0000416e00001e
:1006b800616c00006f6700003a20000020200000f5
:1006c8002020000020200000202000002020000022
:1006d8002020000031300000323300000d0a0000f5
:1006e80042750000747400006f6e0000733a0000d9
:1006f80020200000202000002020000020200000f2
:10070800203300002032000020310000203000009b
:100718000d0a00004c450000447300003a20000018
:10072800202000002037000020360000203500007f
:100738002034000020330000203200002031000067
:1007480020300000000d00000a4c00006f67000018
:100758006765000064200000696e000020730000d7
:100768007563000063650000737300006675000020
:100778006c6c0000790d00000a0d00000a0d0000e5
:100788000a50000072650000737300002027000003
:1007980071270000207400006f20000071750000b0
:1007a800697400000d0a0000000d00000a410000f5
:1007b8006363000065730000732000006465000037
:1007c8006e690000656400000d0a00000d0a000053
:1007d8000050000061730000737700006f72000022
:1007e800643a000020ff0000fd2d0000001b0000ff
:1007f8005b3200004a1b00005b330000316d0000d3
:100808001b5b0000316d00004d6900006372000041
:100818006f630000686900007020000054650000e4
:100828006c6e0000657400002053000065720000c3
:100838007665000072200000312e0000311b000098
:100848005b3000006d0d00000a280000666f000094
:1008580072200000746800006973000020640000c2
:10086800656d00006f2c0000207400007970000096
:100878006520000027610000646d0000696e0000bb
:1008880027200000666f00007220000074680000d6
:10089800652000006c6f0000676900006e20000092
:1008a800616e000064200000276d0000696300008d
:1008b800726f000063680000697000002720000064
:1008c800666f000072200000746800006520000058
:1008d8007061000073730000776f0000726400009d
:1008e8002e2900000d0a00004c6f00006769000007
:1008f8006e3a0000200000000d0a0000546f00004e
:100908006f2000006d75000063680000206400001f
:1009180061740000612e00000d0a000000610000f3
:10092800646d0000696e0000005400006f6f0000e5
:10093800206d0000756300006820000064610000fd
:10094800746100002e0d00000a0000006d690000af
:10095800637200006f6300006869000070000000a7
:100968001b5b0000316d0000001b00005b310000c4
:10097800313b000032310000660000001b5b0000c4
:10098800313200003b31000038660000001b0000d7
:100998005b310000333b000031300000660000008e
:1009a8001b5b0000313400003b3100006600000092
:1009b80000040000a3000000000000004d430000f8
:1009c80048500000424f000041520000440000001f
:1009d800544300005053000074610000636b000032
:1009e80020760000352e0000333100002020000062
:1009f80020200000202000002020000020200000ef
:100a080020200000202000002020000020200000de
:100a180000000000506900006e67000020740000ac
:100a2800696d000065640000206f000075740000a7
:100a380000430000616e000027740000207200006f
:100a4800657300006f6c00007665000020490000a7
:100a58005000000052650000706c0000793a0000f8
:100a6800200000006d730000000000000d0a000067
:100a780044480000435000002f5000006f770000ea
:100a88006572000020650000766500006e74000045
:100a9800206f00006363000075720000726500003b
:100aa80064000000426f00006f7400006c6f00006b
:100ab8006164000065720000205200006573000048
:100ac800657400000000000002000000c80000007b
:100ad800960000000a000000190000001400000041
:020000040000fa
:100ae800804078001acbbf00814f500017003200b9
:100af800e24f400008003200e2c1b3000440bc00ed
:100b0800e08d200000014100c08520000e00090092
:100b180030197800e201b100010078001aebb70043
:100b2800e2cf40000900320001407800e2c1b30082
:100b38000440bc00e08d200000014100c085200079
:100b48000e00090032187800e201b100000006002a
:100b5800e3ff0700a143800000002100008060003f
:100b6800020032007588a90010002000000006006d
:100b7800dbff07008000eb0090438000e70f500088
:100b880001003a0011002000010078000000060072
:100b9800d3ff07002187200091407800e7cf50005d
:100ba800030032000000eb00ebcf50000c003a00cd
:100bb8001243800021438000810f51000600390054
:100bc800e04280005e08b5008280500001004000cd
:100bd8000000e90000000600028050000000e90063
:100be80000000600889fbe0000447800bcff070094
:100bf800e04280005e08b5008004e9000840780003
:100c0800e3ff0700008054004f04be000000060008
:100c1800b3ff07003243800041438000810f510039
:100c28000200390001005100000006000043800066
:100c380081005000f0428000000051008080400098
:100c48000100e80000000600889fbe00004478000c
:100c5800a3ff0700f9428000004380008904500088
:100c680008407800eaff07008084540009007800f3
:100c78004f04be0000000600881f780000047800ba
:100c8800100078002a3d020000000000000c7800e7
:100c9800180090002a3d020000000000100498008f
:100ca80028009000b80090003c3d020000000000c1
:100cb800200498003104980048009000d800900063
:100cc8003c3d0200000000004004980051049800d8
:100cd800780090002a3d020000000000700498008f
:100ce800080890002a3d020000000000000c98004f
:100cf800180890002a3d020000000000100c98001f
:100d08004f047800000006000200fa00889fbe0029
:100d1800c0002000284d0200000000008c1d0200c9
:100d280000000000000fb2004280de00f4445000d2
:100d380033003200710020000000eb00d41b0200d9
:100d4800000000002b0037008c1d0200000000008e
:100d58000004e0002a003200e14f50002500320074
:100d6800e24f500017003a00e2cf5400240036004a
:100d78000000eb00d0bf9f008c1d020000000000a7
:100d8800e44f500006003a008c1d020000000000ed
:100d9800b0ff9f008c1d020000000000a0ff9f0014
:100da800dfb8970070212000808f500014003600b3
:100db800d039b000808f500012003e00010078004a
:100dc80010003700e1cf54000d0036008c1d0200e2
:100dd800000000000044780080cf5400080039006b
:100de8008080fb000000eb00d41b02000000000024
:100df80088c454008944e900e1cf4400d2ff3a0096
:100e0800802120004f04be000080fa000000060088
:100e1800889fbe008a1f78000005780002047800c9
:100e2800840478000304e00015003200e1cf51008b
:100e38002a003a000104e00008003200e1cf500027
:100e480026003a0004017800880078000a0078003b
:100e5800a00202000000000020003700e10f45005a
:100e6800030032000a007800782102000000000028
:100e78000800be00461c02000000000017003700f2
:100e88000104e0000c003200e1cf500013003a00ea
:100e9800e10f410003003200020078003e21020009
:100ea80000000000890078000a007800d41b0200c6
:100eb800000000000900370004017800880078006d
:100ec8000a007800dc1e020000000000a81d0200d5
:100ed800000000000000e000fcff32004f05780031
:100ee8004f04be00000006001bcbbf00a1b12000cc
:100ef800914078000104e10019003200e24f4000ff
:100f08000c003200e2c1b3000440bc007c03410085
:100f1800e58d200062807a0081fd2f0001004000ed
:100f28008402200013c0b300628b2000e6c07a0060
:100f3800b7ff07001acbbf001bebb70082fd2f00dd
:100f4800e1428000010141008402200083872000e3
:100f58009341780011c0b300608b2000acff0700fc
:100f680000000600889fbe008a9fbe008c1f780084
:100f78000006780081057800900190000300e000e9
:100f880095003200214090000080fb00b1409000a5
:100f9800c808dd00808070001b81fb001b409000aa
:100fa8004800dd0002007000808040009c80400006
:100fb80083846800eacfb3000004eb00084078009f
:100fc800c7fe070090438000ed0f5000210032005b
:100fd800e40f500006003a009c009000b0438000e7
:100fe800810f50001b003a000845780019003700af
:100ff800b0438000890f500016003a00baff07007e
:101008009c00900030468000808f500011003a000c
:10101800204680009c0f10000e003a009b80fb00c9
:101028001b4090004800dd0001017000ab409000bb
:101038008180fb003b4090004800dd00810170008a
:101048006046800071468000800f5100818f5900f2
:10105800130032000804e800e20f5400d7ff3a00fa
:10106800e24f45002d0032000a4078009cfe070040
:101078009dff0700b9438800c08c200009000900c3
:101088003b587800ab00b1001c017800224688006c
:101098001c0690003c468800e34280001346880006
:1010a800100020004d003700ae5102000000000083
:1010b8007451b90072014100a487200000317a0000
:1010c800450037007454b900aa8720000a0044007c
:1010d800090009003b587800a000b100ab00b1003e
:1010e8006a0044001c307d000a0044002c01900076
:1010f800bc019000620098007300980070004400e2
:101108001c0690000c307d00ae510200000000006b
:101118007204440000347d002f0037006c009000fa
:101128000098a3002c003200b208e2002a003a001e
:101138000005eb00a4882000940078000100e0007e
:10114800180032001c009000808f500011003a00f7
:1011580054b897009c0f50000e003a009b80fb008b
:101168001b4090004800dd0001017000ab4090007a
:101178008180fb003b4090004800dd008101700049
:1011880004b8970094b89700820f5000838f5800d6
:10119800c5ff32000a05e80074024200e30f55005b
:1011a800e5ff3a000004eb00084078004cfe070019
:1011b8007468ab00050032004bff07009c009000ec
:1011c80030468000810f5000beff32000804e8005e
:1011d800e20f5400f4ff3a000000eb004f067800dd
:1011e8004f05be004f04be00000006003eff07008a
:1011f80030468000b0438800e042800010438800f9
:1012080020438800f0428000304388004043880033
:10121800400020007468ab0001003a00d0002000b4
:10122800904388007408a9007428a9007448a9008c
:101238007488a90074a8a90074c8a90074e8a90052
:101248007508a9007528a9007548a9007568a9003e
:101258007588a800d808a900d828a900d868a900c6
:10126800d888a900e042800010468800763a02003b
:1012780000000000d0458800763a02000000000017
:10128800e0458800d6a8ef001000200040468800fe
:101298000000060012fe070013ff0700008520006b
:1012a800c18c2000090009003158780020468000d0
:1012b800d04288000085200000000600889fbe00fc
:1012c8008a9fbe008c1f78001c0be20007003a00c2
:1012d800d63a020000000000f27f20000200600001
:1012e8000240200002004000e0588800c2032000ad
:1012f8008000eb00a0872000ae0202000000000082
:1013080019e121000005eb00985628000a407800f2
:10131800f3fd0700080678000800e8009000780050
:1013280063004400100178001804e00008003a0047
:101338000280400000804400ab0220008085450008
:10134800c0ff2100808f550002003600fdff3700e6
:10135800ffff37007868ef00800220000900400096
:10136800e0428800010040000000e800f0428800e8
:101378000200400000438800d0002000904388000d
:101388007468a900d8fe07007cf89700dde8b7006c
:1013980096ff07000a05e80066044400e20f5500be
:1013a800020032008b047800d8ff37004f0678001f
:1013b8004f05be004f04be00000006002600fa00dc
:1013c800889fbe008a9fbe000044780001457800cf
:1013d800c5fe07000808a300020032007568a800cf
:1013e8000804a10074a8a90074c8a90074e8a90099
:1013f8007528a9007548a9007508a900be1b020038
:10140800000000000000e000fcff320066006400fd
:101418008004eb0055003a0010438000124680001b
:101428008004eb00820f50004500320014003600a3
:101438000200500041468000810f50000100360034
:1014480001007800d9468000890f500002003e0054
:1014580080047800010037007548a8000902780068
:1014680083872000934178008040eb00608521004d
:1014780067fe070009007800c228b4003000370072
:10148800f14280008281500093b79f008080410024
:10149800e04280000080500041468000810f5000eb
:1014a8000100360001007800d9468000890f5000fd
:1014b80002003e0080047800010037007548a8004b
:1014c800898f51000100360099b79f001fb297001d
:1014d80083872000934178008040eb0060852100dd
:1014e8004bfe07001fb097000082540094b79f007e
:1014f80009003200e2428000104680005e08b50014
:101508006185210001004000838720009341780015
:101518008040eb003efe07001046800080804400bb
:1015280011468800f2428000828f50000400390082
:10153800e042800000005100008050001046880002
:101548007568ab000700320040468000808f540069
:1015580004003200d0468000808f54000100320021
:101568000804a0000900e00002003a0063006400db
:101578001500320009007800c828b5000900e0000d
:10158800010032000834a0000a08a3000400320059
:10159800dc68ef0001002800b1458800b828ef009a
:1015a800a651020000000000b2458000c34580003b
:1015b800000141008181490052438800634388004b
:1015c8007488a8002b0037000a18a3000f00320007
:1015d800a04380008040e800e780600082ff2f0081
:1015e8000200600001007000a0438800d045800020
:1015f800e145800061005000e0805800d045880037
:10160800e1458800190020001a003700a043800037
:101618007000600002003a0080047800150037006e
:101628000a08a3000a003a00dcc8bf00080032001c
:101638000040e900dce8b700b0458000c145800003
:101648008100d1000080d300b0458800c1458800e2
:10165800a651020000000000b2458000c34580008a
:10166800000141008181490052438800634388009a
:101678008004eb0031468000a1b79f00224680001d
:10168800b2b79f00d2458000e3458000c2b79f00f3
:10169800d3b79f00f045800001468000e0b79f0067
:1016a800f1b79f000fb89700f1ff23000100600019
:1016b80001ff2f000100600080bf9f0098f79f0086
:1016c8000000eb00b0bf9f0009014100e081490024
:1016d800d2458800e34588008880fb000100d100de
:1016e80061006000804578000004e00013003200cb
:1016f8000148a30003003a006000b800e0b79f006b
:10170800f1b79f00d828ab00070032004fb0970010
:10171800dfb0970061005000e0805800c0b79f001c
:10172800d1b79f000500370061014100e081490001
:10173800d2458800e3458800d828a8000808a300f7
:1017480010003200d808ab00070032004fb09700f5
:10175800dfb0970061005000e0805800c0b79f00dc
:10176800d1b79f0007003700d0458000e1458000d1
:1017780061004000e0804800d0458800e1458800cd
:10178800d808a8003243800041438000810f5100ef
:1017980005003900f04280006008b5008100510062
:1017a8000100500002003700028050000000e900ec
:1017b80090bf9f00061d02000000000001fc2f00e2
:1017c8000100400090af9f0002003b008000eb004a
:1017d80091af9f009fa897001fb89700810f5000f6
:1017e8000100360091bf9f007c80570022fd070052
:1017f80074854400f2f02f000fb897008200600053
:101808000105b30081bf9f000b04e0000a0032000d
:101818007885440020c0b300c0d79f0040c0b30003
:10182800d0d79f0020802100b0af9f0002806000c9
:101838000006b30080bf9f0001a2200091407800fd
:101848008180fb0021cabf004800dd000101700053
:1018580021a22000914078008180fb0023cabf00ac
:101868004800dd008101700080fd2f000f0440005a
:10187800028cbe006046800071468000e0af9f0089
:10188800f1af9f000040eb0080e79f0069c0b30004
:1018980099e79f009ab79f000a0078002a3d020046
:1018a8000000000090b79f00c100200008007800e9
:1018b8006a3d0200000000000080ea00a0bf9f000f
:1018c800e082210078210200000000000a0178006f
:1018d80089407800c08c2000544d020000000000b0
:1018e800410120007c805700461c020000000000d7
:1018f8000b04e000050032004100200042fd2f00eb
:101908000f004100461c0200000000002084210056
:101918003e210200000000000a0078005220020068
:101928000000000090af9f00208521007821020070
:10193800000000002100200020fd2f000f004000c3
:10194800461c020000000000d42102000000000034
:101958004f05be004f04be000080fa0000000600dc
:10196800889fbe008a9fbe000104780002057800a7
:10197800834478005afc07000800e00001003a00a0
:1019880018002000e04280006008b5008005e900ea
:101998000a0444008b0f54004b003e0052fd070020
:1019a8006380640001003a003940b30008805500a4
:1019b8008981fb000318a30002003a008a0078001e
:1019c800040037000308a300010032000000d10022
:1019d80080004500e0428000008040000004e800ec
:1019e80034438000b1468000e18f40000900320096
:1019f8005046800000804000000242000043800002
:101a0800800f5200030036005e08b5000000420057
:101a18000002e90040438000840f500002003900b2
:101a280005003600f0428000800f540004003600a4
:101a38000328a30024003a0048438800384388005c
:101a480040438000800f5200110031000328a3009a
:101a58000f003200f2428000818720009140780018
:101a6800020252008141780008007800e8fc070073
:101a78003143800040438000808f500004003100d3
:101a8800080078005e08b5000080500030438800e8
:101a9800f8428800e0428000104688002043880011
:101aa800104388001100200090438000e70f500089
:101ab80006003a0011c0b30000c1b3003ffe0700a2
:101ac80011002000010037008000eb0001007800c1
:101ad8004f05be004f04be0000000600881f7800b6
:101ae800004478004afc07000000e00007003200cc
:101af80008407800fafb0700304380004043880024
:101b080011c0b30000c1b3002cfe07004f047800d9
:101b180000000600f2fb0700f3fc070011438000f9
:101b280010468000808f50000300320011c0b300bf
:101b380000c1b30021fe070000000600e8fb070013
:101b4800304380004043880090438000e50f5000f8
:101b58002c00320006003e000000e00029003200a0
:101b68000080e900e10f500023003e002500370007
:101b7800eb0f50001200320003003e00e70f500048
:101b88001d003e0003003700ee0f50001a003a0017
:101b98001600370011c0b30010c1b30007fe0700dc
:101ba800c808e2000400320011438000104680009b
:101bb800808f5000f7ff3a00800020000c003700ab
:101bc80011c0b30010c1b300fcfd0700c808e20053
:101bd800040032001143800010468000808f5000be
:101be800f7ff3a00c000200001003700d0002000b5
:101bf80090438800000006008040eb0040c1b3001d
:101c0800eefd070079fd3700881f78000044780052
:101c1800b3fb07007468a90008407800c7ff0700f5
:101c28004f047800000006000400fa00889fbe00f8
:101c38008a9fbe008c1f780090bf9f00a1bf9f00a5
:101c48008244780003057800844578000004eb009e
:101c58000846780008407800a1fb07009043800000
:101c6800ed0f500050003a009ffc07000b40780031
:101c7800dd48e3004c003a0080212000d04688006f
:101c88000904e00006003a003a4688007468a80093
:101c98004000200090438800ba4388004000370085
:101ca80000c02f001c0bb40081f82000810f5000e9
:101cb8000200360000402000e0588800e05880000c
:101cc800304688000000e800e05888002a4688006e
:101cd800a6510200000000005043880061438800bc
:101ce8007488a800e3cf540003003200e4cf540006
:101cf8002b003a00120037002fb897009fb89700c2
:101d0800010040000a0040003146800001006800e0
:101d1800b04388001fb89700afb8970060468800a6
:101d280071468800dc68ef0001022000b145880098
:101d3800b828ef00200020009043880018003700e2
:101d48001fb99700224090000080fb00b24090002d
:101d5800c808dd00808070009281fb00124090006e
:101d68004800dd0003007000808040008a80400049
:101d78003046800080806800b1438800c08c200015
:101d88000900090032587800a200b1005000200074
:101d98009043880011c0b30020c0b30087fd07003e
:101da8000c80fb00040037000804e800e20f540030
:101db800a7ff3a00e00f20004f0678004f05be004d
:101dc8004f04be000080fa0000000600f0874700bc
:101dd800889fbe008a9fbe008c9fbe008e1f780021
:101de80080bf9f0001077800504c9000400590008c
:101df800d0059000b000900020009000b0b79f0080
:101e0800c1b79f007408a9007428a9007448a900e4
:101e18007488ab0005003a00a651020000000000db
:101e2800e580400050438800614388009443800067
:101e3800e40f520003003200e50f520046003a005a
:101e4800170037000880fb000028a30007003a00ad
:101e58000048a30007003200da458800eb458800f7
:101e68008040eb0040c0b30054fd0700dffc0700d2
:101e78005b0237000018a300fcff32003fb1970057
:101e8800cfb1970061014100e0814900f245880027
:101e9800034688009cfb0700d046880028003700ce
:101ea8008880fb000128a3004d023a004408de00a8
:101eb80061006000004678000004e0000500320080
:101ec800d8458000e9458000880f5500898f5d005e
:101ed8008b003a000118a300410232003fb297007c
:101ee800cfb2970061024200e0824a00f4458800c0
:101ef800054688008fba9700f5029000454688008d
:101f080081fb0700d04688000c04e0000c0032007a
:101f180011c0b30000c1b30028fd07007000200005
:101f280090438800a651020000000000e5804000b0
:101f380050438800614388007488a900280237004c
:101f480011c0b30020c1b3001cfd070060002000d1
:101f580090438800220237000883fb006100630079
:101f6800e0b79f00a0ef9f004fe997000204e00050
:101f780002003a00aeb79f00020037008e02e80068
:101f8800a5b79f000884fb00f8b79f000818a300b6
:101f9800030032002fb097000000e800a0b79f00b0
:101fa8003243800041438000810f51000500390011
:101fb800f04280006008b5008100510081065000a1
:101fc80002003700028050008006e900f0458000da
:101fd800014680003fb19700cfb197000000510043
:101fe800818059000001be0000067800afb297005a
:101ff8000500e0001f0032000d00e000280032005c
:10200800e00f5000e08f5800040035006168b80008
:10201800820f5000838f58000a003e00afb297002d
:1020280005004100e08049004240a9000700340053
:1020380005805600cf80de00800f5100818f590047
:1020480002003c0015002000010037008002eb0070
:102058006168b800800f5100818f59000e003d0063
:10206800afb09700010046004240a90010003c00b4
:1020780009003700e00f5000e08f58000c003200d4
:10208800070035006168b800820f5000838f580040
:1020980007003e00020037000500e00004003a0097
:1020a8007fb197000228a300cd013a00c90137008b
:1020b800660063006dff3a00ffb197000348a30074
:1020c800c7013200eb0f520005003e00e70f520037
:1020d80015003100e60f5200c4003a000300370033
:1020e800ec0f5200c1003a00ba003700d845800012
:1020f800e9458000880f5500898f5d00080032008f
:10210800da458800eb45880011c0b30040c0b30031
:10211800aafc0700d8458800e9458800b0013700c7
:102128007000200090438800174680001443800008
:102138008700520003003b00e04280005e08b500c3
:1021480080804000d2458000e345800001004100c6
:10215800e08049000a0050008b80580002003b00d4
:102168008040eb009c013700264380000680530026
:10217800cf80de000002510081825900868f530013
:10218800020039000400be0004003700e04280006d
:102198005e08b50000005200e0805a0000015500ba
:1021a80081815d004240a90030003400e042800097
:1021b8005e08b50001002000800f5100818f590092
:1021c8002a003e00d868a900d888a9007508a90087
:1021d800204380000202400024438800114680000a
:1021e800808f500004003900848f50000f003100a8
:1021f8000100520006003700e04280005e08b5008a
:1022080000804000840f5000080031000000520098
:10221800d2458000e345800000004100e08049008d
:10222800d0458800e145880014468800f1428000c6
:10223800810f520004003900e04280000080500005
:10224800000052002043880012468000f1428000be
:10225800810f51001c003900e042800000805000ce
:10226800000051001046880017003700870f530000
:1022780015003200c04680000038a300110032006b
:102288000048a3000e003200d4458800e5458800c8
:1022980010468000860f500007003100e0428000a1
:1022a8005e08b500cf80de000000520081805a0031
:1022b800d0458800e1458800164688007548a80082
:1022c800d888a800d868a80021438000104380005f
:1022d800808f500012003a007568ab0007003a0082
:1022e800a651020000000000e5804000504388002d
:1022f800614388007488a90009003700d045800030
:10230800e14580008a0f50008b8f580004003a0086
:10231800d808ab00020032007488a9007568a900cb
:10232800d54580008a8052000fbb97007600900048
:1023380001005000c808e20003003a000000e00075
:10234800010032007528a8004046880090438000ac
:10235800e80f500013003a00d0458000e1458000a6
:102368008a0f50008b8f580020003a00d808ab0025
:102378001e003200a65102000000000002002800e2
:102388002300200000014100818149005243880058
:10239800634388007488a800900020009043880058
:1023a80012003700e90f500008003a006fb097009c
:1023b8000000e0000d003a00da458800eb4588008f
:1023c8008040780040c1b300a7fe3700ea0f5000f4
:1023d80006003a00d0458000e14580008a0f500091
:1023e8008b8f5800fe003a00a0fe3700ffb0970020
:1023f8000158a300fa003a0090438000eb0f500008
:10240800f7003200ea0f5000f5003200ec0f5000e0
:10241800f30032000e00e000a30032000c04780044
:102428000c00e00050003c000fb9970062009000db
:102438004200de00c003b2000c005000284d02002c
:10244800000000008c0447008d8f54000100360006
:102458008d047800f04580000146800009004000a6
:10246800e0804800f0458800014688003543800038
:102478000143800009804200810f5000150036009a
:10248800058450000804e800818720009140780006
:10249800080278008041eb000081eb00050078001d
:1024a8005bfa070008845400818720009140780077
:1024b800f0428000080278008041eb000081eb00c8
:1024c80053fa0700f04280000004440038438800b3
:1024d80009003700818720009140780009027800c0
:1024e8008041eb000081eb000500780048fa070006
:1024f800090078006628b400b0468000e10f40006b
:102508006900320089005000b146880050468000ba
:1025180000814000120033000100e00062003c002e
:10252800f04580000146800002004000e08048003d
:10253800f045880001468800304380008000410053
:102548003143880000438000808f5000040036002b
:102558005e08b500008040000000e90030438800b4
:10256800d6a8ef00500037000c0047008d0f500030
:10257800010036000c8756008fb897006100900064
:102588004200de00c003b200284d02000000000037
:10259800314380008c824000024380000e8042005c
:1025a800820f50001a003600010051000c00500044
:1025b8008004e8000c0033008187200091407800f7
:1025c800090278008041eb000081eb0005007800eb
:1025d8000ffa07008187200091407800f0428000c0
:1025e80009025700070037008187200091407800d2
:1025f800020078005e08b500008042000000e90093
:102608000e0278008041eb000081eb0006003700e5
:1026180081872000914078000e0278008041eb000d
:102628000081eb0005007800f9f90700b04680004a
:10263800e10f400003003a00b84688005e46880073
:102648001900370080007800800f56000d00310017
:102658000e0146005046800000804000800f510067
:1026680002003e00810f5100020031005e468800e2
:10267800020037000c00500050468800b846880019
:10268800090037000e0146005046800000804000d7
:10269800800f510004003600800f560002003e00f3
:1026a80001005100504688002fb197000200e00059
:1026b8001400320090438000e70f500002003200ff
:1026c800334380004343880074e8ab0005003200c0
:1026d80011c0b30000c1b30038fb070002fa0700bd
:1026e8000800370074e8a80074c8ab0005003a0079
:1026f80074c8a800ae510200000000006c00400041
:10270800804388002fea97000404e0003400320078
:10271800f04580000146800061014000e0814800ea
:102728002fb397003fb29700cfb297000600420040
:10273800e0804a00800f5100818f590028003a003c
:10274800f24588000346880090438000e70f500058
:102758000e00320003003e00e60f50001d003a0054
:1027680005003700e80f50000f003200e90f500055
:1027780018003a0014003700c00020009043880079
:1027880011c0b30010c1b30014003700b00020001e
:1027980090438800ae51020000000000790040001c
:1027a800804388000b003700d0458000e145800059
:1027b8008a0f50008b8f580003003200a0002000c1
:1027c80090438800030037008040eb0000c1b3004d
:1027d800a5fd370011c0b30000c1b300f7fa070028
:1027e8004f0778004f06be004f05be004f04be00dd
:1027f8000f01b100000006002000fa00889fbe000b
:102808008a9fbe0080047800820578001082fb0051
:10281800104090004800dd0004017000294290003b
:102828000482fb00394090004800dd0084017000fc
:10283800c2af9f00d3af9f001101be00e2af9f005f
:10284800f3af9f000040eb0080e79f0060c0b3003b
:1028580090e79f009bb79f000b0078002a3d02007d
:102868000000000090b79f00c100200080fd2f00ed
:102878000f0040006a3d02000000000000047800dc
:102888000b00780052200200000000008880ea0057
:10289800808f50001a003a000000eb00284d02001b
:1028a800000000007c855700410120000a007800e4
:1028b800d41b0200000000000a007800eef80700b0
:1028c8000fb897004400de006f4060004200dd0052
:1028d800744050000080fb000080550074045000d4
:1028e800890078000a0078009ef907000000e000df
:1028f80003003200880078000a00780033fd0700e2
:102908003623020000000000100020004f05be0022
:102918004f04be000080fa0000000600889fbe0039
:102928008a9fbe008c1f78000006eb008c4578005b
:102938000c4078006af80700a0438000016020007e
:102948000100600031003200be1b020000000000e0
:102958000000e0002d003200a04380004a00de00a5
:102968006105600009c1b3002a0037005ef907005d
:102978007440b90080017800a2872000020040005e
:10298800c18c200009000900b0587800a000b100ef
:10299800ea804100e100790021468800ec8041008e
:1029a800828040001600200007002000310243000a
:1029b800a1824b00f44588000546880061468000e6
:1029c8007746800087804000224680008280400051
:1029d8003246800082806800b14388006100200090
:1029e80091438800620214007422b900e188200033
:1029f8000181410013c0b3008340780004f9070047
:102a0800b228ef0029c1b300310037008044eb0041
:102a18000005eb0074a8ab00070032007843800083
:102a2800ae51020000000000000454004240a9001a
:102a380001003c0009c1b30074c8ab0007003200b4
:102a480088438000ae5102000000000000045400da
:102a58004240a90001003c0009c1b3009043800036
:102a6800eb0f500009003a0088438000ae51020085
:102a780000000000000454004240a90003003c008c
:102a8800c00020009043880019c1b3009043800023
:102a9800e40f50000c003a00b24380000004eb0041
:102aa800a1882000110078000000e0000600320034
:102ab800820f5000adff32000804e800f4804000a7
:102ac800e30f5400f7ff3a000904e0000400320065
:102ad80011c0b3008ac050000940780037fa0700d7
:102ae8007488ab0023003a0090438000e70f500041
:102af800b9003a00a65102000000000052438000cd
:102b0800634380000200500083805800b200330005
:102b1800a143800067806000e60f50000b003a0078
:102b2800430cde00614464000b40780003fc07009e
:102b38000b40780001fc07000804e000a6003a00fa
:102b4800e000200090438800a3003700e6f8070063
:102b580021c0b30000c1b30018fa0700a651020053
:102b680000000000e5804000504388006143880071
:102b780099003700a651020000000000524380006f
:102b880063438000020050008380580092003300a5
:102b9800d5f8070090438000010020006200500033
:102ba800e0805800ea0f5000e08f580062003e00b5
:102bb800006001000a003700110037005e0037008e
:102bc8002f0037003a003700430037004b0037002a
:102bd8005d0037004e0037003f00370051003700d6
:102be800ae5102000000000070438800c08c200035
:102bf8005645020000000000300020001900370090
:102c0800018d2000c08c2000284402000000000034
:102c18000000e00015003a00ae510200000000007c
:102c28007243800002005000b2458000820f5000bd
:102c380041003600dcc8bf00e54f500008003e00e8
:102c48000040e800dce8b700b0458000c1458000de
:102c58000000400081804800b0458800c1458800d8
:102c680020002000904388003300370050002000e7
:102c7800904388000004eb0029c0b30050003700df
:102c880029c0b300c08d200031c0b30090cf100020
:102c98007700360040c0b300dce8b70082002000af
:102ca800c2458800b628ef0029c0b300700037007d
:102cb800c08d200014c0b300904f1200670036008a
:102cc800a0438000680060001f003a0029c0b300dc
:102cd800000478001e003700c08d200045c0b300f6
:102ce80090cf12005f0036008000200090438800db
:102cf80019c1b3000004eb0015003700c08d200097
:102d080046c0b300904f1300580036000e0037003d
:102d1800c08d200047c0b30090cf1300510036008b
:102d280009003700c08d200041c0b30090cf1000cb
:102d38004e003600040037000004eb000904e000f0
:102d480003003a002400370049c1b30018002000ee
:102d58000a00e0001a003200dc68ec00b045800090
:102d6800c14580000000400081804800b0458800cf
:102d7800c1458800104680002343800003015000ad
:102d8800830f500003003100e04280005e08b50068
:102d980000014100d0458000e1458000020050005c
:102da800e0805800d0458800e1458800020078009e
:102db800c828b400134688008040eb0001003700a3
:102dc80011c0b300094078007cf907000800e00052
:102dd8000100320005f907000c06e800e20f560072
:102de800d2fe3a008004eb007448b9000004780071
:102df80070004000aa87200060007d000000e0000d
:102e08001d003200ae5102000000000072014400b3
:102e180062017d000200500002182000820f50005d
:102e28000a003600628214007422b900e288200089
:102e3800020144000a00440013c0b3008340780034
:102e4800f3f70700b228ef008904e9008904e800d5
:102e5800e28f540008003e00e3ff370029c1b300a9
:102e68000300370009c1b3000100370019c1b300de
:102e78000004eb00b8ff37004f0678004f05be008e
:102e88004f04be00000006000f03b000889fbe007c
:102e98008a9fbe008c9fbe008e1f780080447800f9
:102ea800f1b79f00020678008305780004047800d3
:102eb80085bf9f000000eb000200e000aa0032007e
:102ec8000940780006f707000940780050f7070026
:102ed8008b0650008c8f5600a20039000800e000d5
:102ee80003003200888f56000100360088067800fb
:102ef800404380000081450001438000810f51005c
:102f080004003600010078005e08b50000004100aa
:102f18000001e900028050000000e800d0b79f00df
:102f28007fb09700a0b79f00b0447800a0b79f007b
:102f38008fb897000100e00006003200f0c9b30026
:102f480000c04400f94f500002003e0000ceb3001c
:102f580080c444000c057800bbb79f00e2b79f000f
:102f6800afb597000007eb0002c2b30082ef9f00e5
:102f7800dfb19700ff8f510002003e002fe8970055
:102f880080ef9f008fe897000180fb008d0f5000b5
:102f9800010036008def9f008fe997000384fb0046
:102fa8000802780083872000934178006fb197006a
:102fb80011c0b30040fc2f000f00400094f7070039
:102fc800880278006fb0970008004000e0b79f00c3
:102fd800dfb0970088805000d1b79f0004003a0006
:102fe800f2428000e2b79f008081eb00d3b79f00d8
:102ff8000fb897000000e00002003a0000017800d6
:10300800440037000004eb00f7c9b30006ceb30054
:10301800260037000182fb0042fc2f000f0141000f
:10302800820142001341780007404100f94f5000e7
:1030380001003e008649410043fc2f008f8141007a
:103048000300420090cf54000a003a000a05e90044
:103058003b003200bb44780007c044001e0020003b
:10306800f94f500010003e0086c444001e002000a6
:103078000d0037000e00e00002003a000c05780051
:10308800090037007fb097009044780007c04400db
:10309800f94f500001003e0086c444000c0578003a
:1030a800afb597000007eb000804e80088407800f7
:1030b8000fe99700824f5400d6ff390019003700f6
:1030c8008080fb0043fc2f008f814100038040007b
:1030d80090cf540005003a000a05e9001c003200b0
:1030e800bb4478001e002000090037000e00e000f5
:1030f80002003a000c057800050037007fb0970001
:10310800904478000c057800afb597000007eb00f5
:103118000201e800024078008fe89700814f5100d3
:10312800e7ff3900858656008a8f56000d00390062
:103138003fb1970005014100b2b79f008aff3700f1
:10314800bfb197000c8051008180fb00020037005e
:103158003fb197000c005100010040000000e8005a
:10316800010037000080eb004f0778004f06be00d3
:103178004f05be004f04be000f03b100000006005b
:103188000200fa00e1ff9f00840278000302780041
:1031980082017800120020008f80e9003aff0700c2
:1031a8000080fa0000000600889fbe008a9fbe00cb
:1031b80000457800810578008204780003047800cf
:1031c8000200e0002800320045f607000a407800b7
:1031d8008ff607008000780009004400810f500036
:1031e80001003600888450004043800000014400fc
:1031f80001438000810f510004003600010078006f
:103208005e08b500000041000001e900028050009e
:103218000004e800888f540006003e000902780088
:10322800838720009341780011c0b3000b00780019
:103238000c0037000802780083872000934178004b
:1032480011c0b3000b007800f1f60700f2428000cd
:103258000880450008825400838720009341780045
:1032680011c0b300eaf60700090078004f05be0058
:103278004f04be00000006000200fa008101780039
:10328800120020008f80e900c7ff0700eff89700c1
:103298000180fb000080fa0000000600889fbe0045
:1032a8008a9fbe00004578008104780002047800f7
:1032b80057f60700800578000000e0003200320071
:1032c8000a40780006f607008b0f5400010036000c
:1032d8000b0478004243800001438000080041004d
:1032e8000005eb00810f50000e00360002805000f0
:1032f8000005e8000900e000070032000a02780033
:10330800838720009341780011c0b300090078003a
:10331800bff607008a8444000a045400f042800083
:10332800404388000900e000070032004243800063
:1033380008027800838720009341780011c0b30009
:1033480009007800b2f60700080078006828b40081
:103358000a04440008805500880f500002003e000f
:103368007548a8000700370074a8ab0005003a00ac
:1033780074a8a800ae5102000000000079004000c7
:1033880070438800080078004f05be004f04be0057
:1033980000000600889fbe008a1f780080447800dd
:1033a800010578001af60700000478000000e00024
:1033b8001600320009407800c9f507000a00e0004d
:1033c8000700320042438000140020008387200059
:1033d80093417800844078000a0078008cf6070052
:1033e800414380008100e800414388000043800099
:1033f800808f500002003600f04280004043880071
:10340800e10f540003003a007548a800080078004e
:10341800090037001000200074a8ab0006003a002d
:1034280074a8a800ae510200000000007900400016
:1034380070438800100020004f0578004f04be003c
:1034480000000600889fbe008a9fbe008c9fbe00b9
:10345800004578008105780082067800a0f507000d
:103468000a407800caf50700800478000000e000f0
:1034780004003a000a407800a6f90700090078001d
:10348800370037008d0f5000020036000d04780019
:1034980001003700000478007508ab0008003a0006
:1034a800e04280005e08b5000000d100808f540023
:1034b80003003e000a40780096f907007508a80046
:1034c80015438000f1428000088042000006eb00ae
:1034d800810f50000c0039000586500081872000bc
:1034e800914078000c02780013c0b3000b017800fb
:1034f8000500780046f607008c8545000c0454004a
:10350800e0428000104388008187200091407800c5
:10351800104380000802780013c0b3000b01780044
:103528003bf60700080078006228b4008d8f54002d
:1035380003003e000a40780076f9070007003700cc
:1035480074a8ab0005003a0074a8a800ae510200a8
:103558000000000065004000704388000c00440033
:103568004f06be004f05be004f04be000000060017
:10357800889fbe008044780001047800010078002c
:1035880000030200000000000001780088007800b5
:1035980009407800abff0700000044004f04be005c
:1035a800000006000200fa00889fbe0080447800f0
:1035b800a1ff9f004af507000940780074f507004d
:1035c800000478000000e00021003200e10f500004
:1035d80002003a00094078004ef907007508ab0070
:1035e80008003a00e04280005e08b5000000d10003
:1035f800800f540003003e000940780045f9070099
:103608007508a80081872000914078001043800049
:10361800140020008441780066815700fcf50700fb
:10362800114380008100e80011438800f0428000c7
:10363800808f500002003900e0428000104388006b
:10364800e10f540004003a000940780031f90700fe
:1036580008007800090037001000200074a8ab00ab
:1036680006003a0074a8a800ae510200000000004d
:103678006500400070438800100020004f04be0021
:103688000080fa000000060060c2bf000018a30016
:10369800fdff3a0060c2bf000008a300faff320035
:1036a80000000600881f780000047800e922a900bd
:1036b8008180fb0041138800f3ff0700401380005e
:1036c8006822ef00f0ff070040138000e922a800fd
:1036d800004c7800080078004f04780000000600cd
:1036e8000200fa00e922a90061e2a9006342a800e9
:1036f80061e2a8000080fb0001a027000100700023
:1037080040138800e0ff070061e2a9006342a900b6
:1037180061e2a80040138000e0ff9f00e922a800b2
:103728000080fa00000006000200fa00881f7800f6
:1037380001447800e922a9000074a0000080fb0081
:1037480040138800d0ff070040138000c0ff9f008f
:103758000880fb0040138800cbff0700401380005f
:10376800c0ff9f00e922a8004f0478000080fa00fb
:10377800000006000200fa00f1c1b3000f80e90062
:10378800c8ff0700eff897000180fb004300de0048
:103798000000a200610060000080fa00000006003e
:1037a8000200fa00889fbe008a1f78000004780093
:1037b80001057800e922a900a00320004013880031
:1037c8000800e000010032000804e900aeff07002d
:1037d8004013800080ff9f008004eb00e10f55003c
:1037e8002000360061e2a9006342a80061e2a80057
:1037f8008004eb006822ef008984e800a2ff07003c
:10380800411380000800e000040032004808de0090
:10381800104498000884e800014c7800090055001d
:10382800e10f5000f3ff3e0061e2a9006342a900e6
:1038380061e2a8000b0037006822ef008904e80065
:103848000800e000040032008fff070040138000ea
:10385800006c7800030037008bff070040138000de
:1038680080ff9f008a8f5400f3ff3900e922a800e7
:10387800090078004f0578004f04be000080fa0068
:10388800000006000200fa00889fbe008a1f780028
:103898008004780001057800e922a900a00720002b
:1038a8004013880078ff07004013800080ff9f00c6
:1038b800e10f550002003e000004eb002d00370028
:1038c8001980fb004800dd000884fb000004740038
:1038d800194090000080fb0001f02f0001046400f3
:1038e800000474008984e80061e2a9006342a8002a
:1038f80061e2a800481388000a85e900e10f550035
:103908000e0036001980fb004800dd00f80fb200f9
:1039180000047400194090000080fb0001f02f00a3
:1039280001046400000474008984e80056ff07005d
:103938004013800080ff9f00eeff370052ff070012
:103948004013800080ff9f0061e2a9006342a90044
:1039580061e2a800d8ff370069407c000080fb00c6
:103968004013880048ff07004013800080ff9f0035
:103978000804e8008a0f5400f7ff3a00e922a8007b
:103988004f0578004f04be000080fa0000000600d2
:103998000200fa00881f780001447800e922a90093
:1039a8000080fb00000ab3004013880036ff0700c0
:1039b80040138000c0ff9f000880fb004013880070
:1039c80031ff070040138000c0ff9f00e922a800d4
:1039d8004f0478000080fa00000006000200fa0098
:1039e800f0bf9f0031c0b300f0c1b300e8ff07008b
:1039f800fff89700f0c1b3004bff07000080fa0002
:103a0800000006000600fa00889fbe008a9fbe00dc
:103a180090112000f1ff070091c1b3006e8057009c
:103a280020ff07002ff49700e0002000ebff0700bd
:103a3800e1c0b3006d8057001aff07003ff0970000
:103a48000080fb000af02f008a84640080847400e0
:103a5800f1c0b3006c80570012ff07004ff09700c9
:103a68004800dd00fb0f20008b8464008084740014
:103a780090112000d9ff070091c1b3006b80570057
:103a880008ff07005ff09700884f5000e2ff3a00f8
:103a9800c0002000d1ff0700c1c0b3006a805700f2
:103aa80000ff07006ff097000080fb000a04640025
:103ab80000047400d1c0b30069805700f9fe070004
:103ac8007ff097004800dd000b04640000007400dc
:103ad800808f54000400360080805400d08121007b
:103ae8000101500005003700d2812100808f540069
:103af80002003200090050000001e90002007800cd
:103b08004f05be004f04be000080fa00000006000a
:103b1800e922a90061e2a9006342a80061e2a800c5
:103b280000a0230040138800d7fe070061e2a90027
:103b38006342a90061e2a80040138000e922a800be
:103b48000080fb00000006000200fa00f1c1b3008b
:103b58000f80e900d3fe0700eff897000180fb0013
:103b68004500de000000a200610060000080fa004d
:103b7800000006000200fa0001c2b300e0c1b30071
:103b880083ff0700100020009a5302000000000085
:103b9800e922a900f00f200040138800bafe0700b0
:103ba80040138000e0ff9f00e922a80010002000d9
:103bb8009a530200000000000080fa00000006008e
:103bc800889fbe0080047800e922a9008180fb005c
:103bd80041138800acfe0700401380000004eb008e
:103be80048138800a8fe0700401380004813880087
:103bf800a5fe070040138000e922a800804c780049
:103c0800090078004f04be00000006000200fa0018
:103c1800881f780001447800e922a9000064a00008
:103c28000080fb004013880097fe070040138000c7
:103c3800c0ff9f000880fb004013880092fe070029
:103c480040138000c0ff9f0000000000000000003b
:103c5800e922a8004f0478000080fa00000006005e
:103c68000400fa00881f780000447800d1bf9f0044
:103c78004021200059ff07008840780040c1b30068
:103c8800e2ff0700aff8970060c1b300dfff07004d
:103c9800bff8970070c1b300dcff0700a030200018
:103ca8004eff0700a1c0b30064805700c4ff07009f
:103cb8004ff897000008a300faff3a000000eb0055
:103cc80046ff07004f0478000080fa000000060055
:103cd8000400fa00889fbe00800478000144780040
:103ce800402120003dff07008840780040c1b30014
:103cf800c6ff070011c0b30020c1b300c3ff07000f
:103d0800a030200035ff0700a1c0b300688057002d
:103d1800abff07000ff8970061446000faff3a0014
:103d2800402120002dff07008840780020c1b30003
:103d3800b6ff070081c1b30067805700a0ff0700e6
:103d48001ff897000080fb0001f02f0001046400b9
:103d58000004740091c1b3006680570098ff070003
:103d68002ff897004800dd000884fb000004740069
:103d78000000eb0019ff0700880c780009007800a4
:103d88004f04be000080fa00000006000200fa009e
:103d980011c0b3000f80e900cdff07007fb897007e
:103da8004200de00610060000080fa0000000600aa
:103db8001000fa00889fbe008a9fbe008c9fbe003c
:103dc800a0b79f00b1b79f00c2b79f008006eb0065
:103dd800e10f40000c003a0021c0b3007680570084
:103de80030fe07002fe897000080fb00a0b79f0077
:103df80031c0b300758057002afe07003fe89700de
:103e0800d0e79f001d0020000006eb003fb09700a0
:103e1800e10f40000c003a008040eb00748057002e
:103e280020fe07004fe897000080fb00b0b79f0016
:103e380011c0b300738057001afe07005fe89700af
:103e4800f0e79f001c002000cfb59700e18f5500d8
:103e580045003e000c00e0000f003a008c4078005e
:103e6800728057000ffe07006fe897000080fb0084
:103e780001f02f00010565000005750011c0b300b1
:103e88007180570007fe07007fe897004800dd00b3
:103e98000a85fb00000575000d00e0000f003a00e0
:103ea80021c0b30070805700fefd07000ff0970097
:103eb8000080fb0001f02f0081846400808474007e
:103ec80031c0b3006f805700f6fd07001ff0970060
:103ed8004800dd008984fb0080847400efe09700cf
:103ee8000040eb0049ff0700ffe0970010c0b30057
:103ef80046ff0700cfe0970020c0b30043ff07004c
:103f0800dfe0970030c0b30040ff07000004eb007b
:103f180003003700fefe0700f1fd07000804e80073
:103f28008b0f5400fbff3a000c00e00006003a003b
:103f38008a4078000c40780034ff0700c850de0043
:103f480010c0b30031ff07000d00e0004e003a003a
:103f58008940780020c0b3002cff0700c848de0065
:103f680030c0b300470037000d00e0000800320001
:103f78002fb09700808445008940780020c0b300a6
:103f880022ff0700c848de0030c0b3001fff07004b
:103f98003fb49700088545008a04e900c9b79f0027
:103fa800f1c1b3006e805700befd07002ff09700e7
:103fb8000058a300faff3a00efe0970000c1b300f1
:103fc80012ff0700ffe0970010c1b3000fff0700c2
:103fd800cfe0970040c1b3000cff0700dfe0970077
:103fe80050c1b30009ff0700d0812100800f5400a1
:103ff80005003e00808f540003003600107e2e001e
:1040080000004500c0b79f00788557009a407800a7
:1040180020c1b300fdfe0700f784570099407800df
:1040280030c1b300f9fe070001c1b300f0c1b3000d
:1040380057fe070001c2b300f0c1b300bafd070084
:104048000c00e000100032004fb197008200e80039
:10405800c1b79f00d0812100800f540004003e00aa
:10406800808f50000200360000005100c0b79f004a
:104078009a4078000040eb00e4fe07009940780081
:1040880010c0b300e1fe07004f06be004f05be009a
:104098004f04be000080fa0000000600fa874700bf
:1040a800889fbe008a9fbe008c9fbe008e1f78002e
:1040b800800578008040eb007080570079fd07008c
:1040c8000ff097000080fb0001f02f00010565004c
:1040d8000005750011c0b3006f80570071fd07001f
:1040e8001ff797004870dd000a85fb000005750082
:1040f8006066b8001d0037008b007800f48f55000b
:104108000100360041012000a8fd2f000f044400e3
:10411800011c780008007800a1fd0700dfa89700bf
:104128008185550061806000050032000040eb0089
:1041380080707c005fa897000000e800d0af9f0067
:10414800a2fd2f000f014100b200780004003700e3
:104158003200780000064600e0864e008180e900c3
:104168000100e000faff3a00d1af9f000b00e00029
:10417800e1ff3a000c04be008a4078000b4078004a
:10418800a2fe07008e40780010c0b3009ffe070013
:104198006148b8000c044000e0844800090044006d
:1041a8000080ea004f0778004f06be004f05be00aa
:1041b8004f04be00af01b100000006000200fa0083
:1041c800889fbe008a9fbe00810578003157800015
:1041d8008100400074844000d0812100800f540089
:1041e80002003600607f2e00008440008040eb0013
:1041f8006a8057002bfd07006a8057003081fb005a
:1042080001f02f00010565000205750011c0b3001b
:1042180024fd0700fff497004848dd000a85fb00ed
:1042280000057500884078000040eb0077fe070025
:10423800c840de0010c0b30074fe07000b00780011
:1042480096ff0700000478008a4078000040eb00e1
:104258006efe07008940780010c0b3006bfe0700af
:10426800080078004f05be004f04be000080fa0029
:10427800000006000400fa00881f780066815700d5
:10428800001978008040eb000200780005fd070067
:104298004ff897000080fb0001f02f000104640034
:1042a8000004740011c0b30063805700fdfc0700d0
:1042b8005ff897004800dd000884fb0000047400e4
:1042c800aff897000040eb0050fe0700bff89700da
:1042d80010c0b3004dfe0700080078004f047800b6
:1042e8000080fa00000006000400fa00881f780029
:1042f800668157000019780021c0b30002007800d9
:10430800e8fc07004ff897000080fb0001f02f0041
:10431800010464000004740031c0b30063805700d6
:10432800e0fc07005ff897004800dd000884fb0008
:1043380000047400aff8970020c0b30033fe0700f4
:10434800bff8970030c0b30030fe070008007800bf
:104358004f0478000080fa0000000600881f7800eb
:10436800315780008100400074844000d0812100d2
:10437800800f540002003600607f2e000084400049
:10438800884078000040eb0020fe0700c840de00af
:1043980010c0b3001dfe07004f047800000006009f
:1043a8001000fa00889fbe008a9fbe008c9fbe0046
:1043b80001c8b300f0c1b300dbfc070001c8b300bb
:1043c800f0c1b30072fd0700a1c0b300c0c1b300c3
:1043d8006ffd070081c0b300f0c1b300d2fc070035
:1043e800e2cabf0065405000e14f500073003e0034
:1043f8000004eb00c1c1b30074805700a9fc07009a
:104408004fe897006a00600004003a000804e800da
:10441800803e2000800f5400f6ff3a00c1c1b3006f
:10442800738057009ffc07005fe897000018a300ff
:1044380003003a00703e2000800f54005f003600f1
:1044480081c0b300f0c1b30051fd07008040eb000c
:104458007280570093fc07006fe897000080fb000c
:1044680009f02f00090565000005750011c0b300ab
:10447800718057008bfc0700ffed97004858dd005e
:10448800f80f2000080565000005750061c0b3003d
:104498007080570083fc07000ff097000080fb0036
:1044a800898464008084740071c0b3006f805700f1
:1044b8007cfc07001ff097004800dd00888464003a
:1044c800808474000904e800084678008840780071
:1044d8000040eb00cdfd07004844de00884478002a
:1044e8008840780010c0b300c8fd0700fc8657005c
:1044f800810020000d007800a9fc070008c1b30066
:10450800c1c1b3006e80570066fc07002ff097000a
:104518000018a300230032003fb0970000d8a30082
:104528002000320001c8b300f0c1b3007efc0700d0
:1045380001c8b300f0c1b30015fd0700a1c0b30066
:10454800c0c1b30012fd070081c0b300f0c1b300c1
:1045580075fc0700c1c1b3006d80570051fc07000e
:104568003ff097006a006000faff320081c0b30094
:10457800f0c1b30006fd07008c4078000040eb0056
:10458800a2fd07008940780010c0b3009ffd070016
:10459800810020000d00780081fc07000844e90034
:1045a800d7ff3a008a4078000040eb0097fd0700eb
:1045b8008b40780010c0b30094fd07004f06be0082
:1045c8004f05be004f04be000080fa000000060040
:1045d8000200fa00889fbe00000478008144780039
:1045e800d2bf9f0001c2b30020c0b30087fd0700ff
:1045f80081c1b30030c0b30084fd0700d082210020
:10460800dfb8970080804000d1bf9f00aff89700c7
:1046180060c0b3007dfd0700bff8970070c0b3000d
:104628007afd0700610020000800780095fc07006b
:1046380061002000d0a4200092fc070080c0b300d5
:1046480027fc070060c0b3000904e00001003a003d
:104658000940780022fc07004f04be000080fa00e1
:1046680000000600881f7800e40ae20011003a0002
:104678001000200020578800485780000804e900ef
:10468800d0812100800f540001003600000478001a
:1046980001c4b300e0c1b30023fc070088407800e0
:1046a800c0c0b30059fd0700c840de00d0c0b30049
:1046b80056fd07004f047800000006001600fa00b7
:1046c800889fbe008a1f7800000578008104780062
:1046d80090112000c1fc070091c1b3006880570009
:1046e800f0fb07000ffc97000000eb00bbfc070085
:1046f8000000eb000804e0003a003200e40ae2009f
:1047080003003a00d7ff07000000eb003500370030
:10471800405780003057880061ae200091407800f3
:104728000040eb0039fd070071ae20009140780091
:1047380010c0b30035fd0700410120007c80570000
:1047480017fc07003fb897002a3d02000000000050
:10475800b0bf9f00afb19700d0812100808f51007a
:104768000d003e00cfe0970061c060000a003a00eb
:104778004fb19700000128000000610006003a00d0
:10478800bfb09700e05e2000808f500002003e001e
:104798000278a30001003a000000fe004357880099
:1047a8007080570005000900305d78006a00b1008c
:1047b8006000b10080cceb007ff09700e84f50001c
:1047c80006003a006ff097000004e0000200320093
:1047d800e64f500001003a00804c7800e42aef00d0
:1047e800100020004f0578004f04be000080fa003a
:1047f800000006000200fa00889fbe00e922a80017
:10480800e522a9008000eb0001138800f0002000d9
:1048180010138800211388006302a80062a2a80070
:1048280061e2a800d3fc0700d1c1b300668057003d
:104838009cfb0700aff897000180fb000038a3003d
:10484800f8ff3a000080ea00e1046000f5ff3a0052
:1048580018002000285788004957880089407800a8
:1048680080c0b300e9fc07008940780090c0b3001d
:10487800e6fc0700d1c1b300c0c0b300e3fc0700e9
:1048880081c1b300d0c0b300e0fc0700d1c1b300c0
:10489800a0c0b300ddfc070081c1b300b0c0b30005
:1048a800dafc0700f1c1b30040c0b300d7fc070031
:1048b80081c1b30050c0b300d4fc0700f1c1b300fc
:1048c80020c0b300d1fc070081c1b30030c0b300e1
:1048d800cefc07000940780081fb0700002020007b
:1048e8003efc0700d1c0b30009407800c7fc0700b0
:1048f80021c3b30020c0b300c4fc070021c1b3002a
:1049080040c0b300c1fc070001c4b30030c0b3000d
:10491800befc0700f1c3b30090c0b300bbfc0700a6
:1049280021c1b30060c0b300b8fc0700c1c0b30028
:1049380070c0b300b5fc0700e1ceb300a0c0b3005f
:10494800b2fc070051c0b300b0c0b300affc070011
:104958004030200021fc0700d1a4200091407800bd
:1049680040c0b300a9fc0700e1a4200091407800f2
:1049780050c0b300a5fc0700f1a4200091407800c6
:1049880020c0b300a1fc070001a5200091407800d9
:1049980030c0b3009dfc070011a5200091407800ad
:1049a8000940780099fc070021a520009140780073
:1049b8000840780095fc07008940780050c1b30092
:1049c80092fc070021c1b3006580570035fb070042
:1049d8003ff89700e2eab7000110200000c1b300d9
:1049e8009ffc07002147230040c1b3009cfc07003f
:1049f800890078000940780099fc070009007800d0
:104a0800f6fb070041c0b300f0c1b30046fb070046
:104a18004f04be000080fa00000006000200fa0001
:104a280041c0b300f0c1b300d9fb0700d1c1b30046
:104a38000f80e9001bfb0700eff8970064c06000d7
:104a4800faff3a00f1c1b3000f00e90015fb0700b7
:104a58007ff897000038a300faff3a0001c2b300bc
:104a6800e0c1b30030fb07000080fa000000060038
:104a78000200fa0001c2b300e0c1b300c4fb0700a2
:104a8800d1c1b3000f80e90006fb0700eff89700db
:104a980061c06000faff320041c0b300f0c1b3004a
:104aa80021fb07000080fa0000000600881f78003c
:104ab8000044780050312000c8fb07008840780087
:104ac80050c1b30051fc07000000eb00c3fb070016
:104ad8004f047800000006000200fa00881f7800e2
:104ae80050312000bdfb070051c1b300648057005e
:104af800ecfa07004ffc97000000eb00b7fb07003b
:104b08000880fb004f0478000080fa0000000600cf
:104b1800809b20000001eb0021a120000208780002
:104b280072004000810f5000fcff3a0000000600b0
:104b3800e20f50001a003a00649b20008001eb004d
:104b48001600200083427800140090000000e00066
:104b58000f003a00010a7800e0062000808f50001c
:104b680003003a00f10f51000d003a00050037002c
:104b780040062000808f500009003a00e60f5100df
:104b880007003a00160298000580fb0000000600a6
:104b9800720242008301e800e58f5100e9ff3a0004
:104ba800e00f0500889fbe00810178008200780030
:104bb800e44f500027003e0022c1b3000440bc006f
:104bc800609b20008004410019009000e10f500014
:104bd80020003a00ef8f50001e003600a3409000de
:104be8008180fb00334090004800dd000104700024
:104bf80008003a00985880008800e800915888001a
:104c080080382100808f50000200360000402000cc
:104c180090588800e0062000990f100008003a001c
:104c28000001eb008000eb0008007800ec36020081
:104c38000000000080549800e14f40000500320059
:104c4800a804980020002000900498000000eb00c1
:104c5800010037000080eb004f04be000000060092
:104c6800889fbe008a9fbe008c9fbe008106780088
:104c7800e44f50003e003e0022c1b3000440bc0097
:104c8800609b20008004410040062000990f10001e
:104c980037003a0019009000e30f500001003a0075
:104ca800e90690000080e900e10f500030003e0066
:104cb800280037000005eb00809b20001000e00072
:104cc8001f003a00a4c0b300a90190000041eb0006
:104cd8006000b800180e02000000000000447800d0
:104ce8008b05e800e24f400021003200ac050200cd
:104cf800000000003000200090049800ec049800a8
:104d08007250b90070014000639b200008f17900df
:104d18000082e8004200200002b279006e024000e2
:104d28001200200002b2790064014000a90090003e
:104d380001b179004206200002b07900070037006f
:104d48000a05e80072004000e50f5500080032002f
:104d5800daff37000d0678008005eb000c06e90045
:104d68008d8f5500d3ff3a000000eb00010037009b
:104d78000080eb004f06be004f05be004f04be008a
:104d880000000600889fbe008a9fbe008c9fbe0060
:104d98008104780002067800e44f500047003e0086
:104da80022c1b3000440bc00609b20008005410084
:104db8001b009000e30f500040003a00400620001e
:104dc8009b0f10003d003a008006eb008a9b2000f4
:104dd800400020009a0f100034003a009a0090001a
:104de8002b009000808f500030003a006a4c9000f1
:104df80008407800ac050200000000000840780078
:104e0800bc050200000000000000e000270032009e
:104e1800084078004e0902000000000000027800f7
:104e28000900e000130032000c00e000110032001d
:104e3800f10020009c8f10002000360010437800fd
:104e4800c644980090439000d744980020409000b2
:104e5800e0449800b4409000f1449800244b90003e
:104e6800a6449800b44b9000b74498000001200075
:104e7800000e78007268b90066014000639b20004c
:104e8800d400900001b17900030140001403be0072
:104e980046019800570198000080e8006200200051
:104ea80002b079000d80fb00050037008d06e80090
:104eb80072054500e58f5600c5ff3a00e00f200057
:104ec8004f06be004f05be004f04be00000006009e
:104ed800889fbe00800478000004eb00c3a3200074
:104ee80002c2b30068c07900824f5000050032004a
:104ef8000004e000030032000804e800f00f54004a
:104f0800f8ff3a000800e8000081eb00808f5000ad
:104f18000800350008017800c1a3200009007800c6
:104f2800a0020200000000000040eb0000f47c003a
:104f38000001eb00020078004f04be0000000600ec
:104f4800881f780022c1b3000440bc00609b200089
:104f5800000441001800900011002000e70f5000e5
:104f68002100320008509000ac050200000000004b
:104f780080017800780090000000e0001000320006
:104f8800829b200024a1200030002000920f1000f6
:104f980008003a009200900028009000808f50008e
:104fa80004003a00400020000300e0000a003a0034
:104fb8000c00370072014100840f5100f2ff3a00e3
:104fc8000300e0000700320008509000080e0200bd
:104fd800000000007000200010049800110020005c
:104fe800010037008000eb00010078004f047800d2
:104ff80000000600889fbe008a1f78008041780064
:105008000105780082047800e44f500025003e0036
:1050180022c1b3000440bc00609b20000004410092
:105028009800780040062000808f50000d003a005c
:1050380018009000e60f50001a003a00034078006c
:10504800bfff07000000e00016003a00085090007b
:10505800090178008a007800521902000000000057
:1050680013003700e0062000808f50000f003a0040
:1050780018009000e20f50000a003a000850900013
:10508800c4380200000000000000e0000700320001
:10509800890078000a007800043902000000000046
:1050a800030037000080eb00010037000000eb0030
:1050b8004f0578004f04be0000000600889fbe0020
:1050c8008a9fbe008c9fbe008045780081067800cc
:1050d800020678000505780022c1b3000440bc0030
:1050e800609b20008004410004047800e006200052
:1050f800990f10002c003a0019009000e20f5000a0
:1051080047003a0009509000c4380200000000002f
:105118000000e000420032000800e0001d003200fc
:105128000a00e0001b003200f00020009a0f100077
:105138001800360009509000e2c0b3000440bc00db
:10514800019220000101410012407800404498007b
:10515800124090005044980022409000604498000b
:10516800324190007244980009509000e2c0b300a8
:105178000440bc006a01410062c0780020449800e5
:1051880001014100124190003244980000012000c2
:10519800000d78008c0078000d00780004390200ba
:1051a800000000001f0037000400e0001600320075
:1051b8000500e00014003200f1002000958f100077
:1051c80011003600095090004e090200000000004e
:1051d80090407800414498009040900051449800d5
:1051e800a040900061449800b0409000714498003d
:1051f800a04890002144980030489000304498001e
:1052080000012000000d78008001eb000c017800ff
:105218008d0078000b40780076ff0700010037000a
:105228000000eb004f06be004f05be004f04be0055
:1052380000000600fc874700889fbe008a9fbe00ca
:105248008c9fbe008e1f780080457800010778008b
:105258000206780005057800e44f500094003e00ef
:1052680022c1b3000440bc00609b200080044100c0
:10527800990290000500e0008d0032009900780046
:10528800e0062000808f500074003a00490090002a
:10529800d9009000c0af9f00d1af9f00b906900021
:1052a8000400e00021003200f00f550080003a00b1
:1052b800a44090008180fb00344090004800dd004d
:1052c80081067000c44090008180fb00544090002b
:1052d8004800dd0001017000e44090008180fb007f
:1052e800744090004800dd0081017000c2af9f004b
:1052f800d3af9f00e18f52000c003a007e84570024
:105308000a0178008000eb0008007800ae02020075
:10531800000000000a017800880078000b4078003f
:1053280020fe0700e10f4000610032004fa89700ff
:10533800dfa89700e00f5000e08f580004003a0003
:105348000080eb008080eb00c0af9f00d1af9f00d2
:1053580009509000e2c0b3000440bc00089220004d
:10536800080141004fa89700dfa89700b20f10006e
:10537800a28f18002600320082fd2f000f01410085
:10538800e400410002007800284402000000000008
:105398000000e0000b00320009509000e2c0b300aa
:1053a8000440bc000801410080fd2f000f004000b0
:1053b8000900090030597800a200b100a000b1002e
:1053c80013003700a651020000000000924d800033
:1053d800a34d80000200500083805800020028007e
:1053e800820f5000e08f58003100360080fd2f00fa
:1053f8000f0040005645020000000000a6510200c0
:1054080000000000904d8800a14d8800280037005a
:10541800095090006e370200000000000000e00014
:105428002300320009509000e2c0b3000440bc00e1
:105438006a014100009220000d3178008c0078004c
:105448000e007800c0370200000000000004780059
:105458000238020000000000160037004006200055
:10546800808f500012003a00e68f520010003a0078
:105478000b407800b2fe07000000e0000c003a0084
:105488000c00e00002003a000c0478000900370024
:10549800095090000c0178008e007800261a02004e
:1054a80000000000000478000000e00001003a005d
:1054b8000084eb00080078004f0778004f06be0014
:1054c8004f05be004f04be00cf01b100000006002a
:1054d8008002eb000502780056ff3700889fbe0067
:1054e8008a9fbe008041780001027800820078001f
:1054f800e44f500065003e0022c1b3000440bc00e8
:10550800609b2000000541001a0190000200e000a5
:105518005e003200ef8f50005c003600a44090001f
:105528008180fb00344090004800dd008105700058
:10553800c44090008180fb00544090004800dd008a
:1055480001047000e44090008180fb0074409000ea
:105558004800dd0081047000e00f5400e08f5c001b
:105568004a0032000b00e0004800320040062000ec
:105578009a0f100029003a00e50f51000900320087
:1055880004003e000200e900e10f50003f003e0029
:10559800110037008000eb00e60f51003c0032009c
:1055a8003a0037000340780065fe07000000e0007d
:1055b80036003a000a509000bc05020000000000c6
:1055c800e1ff2f000000e000310032006000200001
:1055d800100598002b003700b4c0b3008b01780089
:1055e80032c0b3000800be00180e02000000000020
:1055f80000559800e24f400024003200ac0502003c
:10560800000000000000eb0070059800500020002a
:1056180010059800e1ff2f001d003700e10f510031
:1056280012003a00935880008300e80091588800df
:1056380080382100808f5000020036000040200092
:10564800905888000b0178008000eb000300780078
:10565800ec3602000000000000559800e14f4000c1
:105668000a00320020002000100598001a0090005f
:10567800e20f500005003a003b05980048059800e5
:10568800590598008000eb00010037008080eb008e
:10569800010078004f05be004f04be000000060060
:1056a800889fbe008080eb00e44f500044003e001d
:1056b80022c1b3000440bc00609b2000800441006c
:1056c800990090000100e0003d00320040062000f3
:1056d800990f100032003a00e38f500011003a0091
:1056e800889b200040002000980f100008003a0016
:1056f8009800900029009000808f500004003a0024
:1057080068489000080e020000000000000ceb0042
:105718007204440020a12000800f540025003200ac
:10572800f0ff3700e38f5000220036007900900028
:105738000000e0000d003200829b200023a1200021
:1057480030002000920f100004003a0092009000f0
:1057580029009000808f50000a0032007201410039
:10576800830f5100f6ff3a0002003700e78f500020
:105778001000320009509000080e020000000000de
:105788000c00370009509000a20d02000000000034
:1057980040002000900498008000eb0008003700cb
:1057a800e28f500003003a0009509000bc36020016
:1057b800000000000000eb009004980080007800d2
:1057c800010078004f04be0000000600140be20040
:1057d80003003a0010002000a058880078eaef0083
:1057e80078cabf00e14f400003003200bc36020017
:1057f8000000000078eaef0010002000d053880075
:105808007c6aef007c8aa8007c2aa80000000600b9
:1058180078cabf00e14f400003003200bc360200e6
:105828000000000078eaef007a2aef000000060086
:105838007a0ae20003003a0010002000d0538800e2
:105848007c0aa90000000600d05380000000e00098
:10585800010032001000200000000600e053800024
:105868006100600000000600e053800062006000f4
:10587800020032007c2aa900100020000000060067
:10588800e05380004300de00610060000000060075
:105898000800fa00881f78000040eb00f0f79f002e
:1058a80068805700e0380200000000000ff89700f9
:1058b800e24f5000bb003a00c00120005e370200f2
:1058c80000000000d8a4200068805700e0380200db
:1058d800000000000ff89700984f5000c8003a00e9
:1058e8000804e80030a52000800f5400f6ff3a00b5
:1058f8007c4aab0008003a00000120005e37020035
:105908000000000041002000a0a820000439020087
:1059180000000000960aa800000f20005e37020071
:105928000000000068805700e03802000000000016
:105938000000e0009b0032008ff8970030c3b300ee
:1059480080cf50006600320005003e00e1cf5000d5
:105958001a003200e3cf500087003a002c003700cd
:1059680060c3b30080cf50004a003200e1cf40004e
:105978008c0032000040e90080cf50007e003a00e1
:1059880068805700e0380200000000000ff8970018
:10599800e14f50009a003a0069805700e038020051
:1059a800000000007c4aab00deff32007ff0970069
:1059b800e24f5000dbff3a00910037006880570043
:1059c800e0380200000000000ff89700e44f500094
:1059d8008b003a007c4aab00070032000044780094
:1059e80068805700e0380200000000000844e90021
:1059f800ccff3200faff37004100200020a9200028
:105a08000439020000000000964aa800c5ff3700cc
:105a18006a805700e0380200000000006ff097002d
:105a2800e34f5000760036007c4aab000700320096
:105a380048c0b30068805700e0380200000000004a
:105a48000844e90006003200faff37004100200050
:105a5800e0a820000439020000000000962aa800ef
:105a6800eff09700e4c05000e1f79f000300370013
:105a780068805700e0380200000000006ff29700cd
